{
	"20-Solidity/3/01-Ins_Bank_Account/bank_account.sol": {
		"BankAccount": {
			"abi": [
				{
					"payable": true,
					"stateMutability": "payable",
					"type": "fallback"
				},
				{
					"constant": false,
					"inputs": [],
					"name": "deposit",
					"outputs": [],
					"payable": true,
					"stateMutability": "payable",
					"type": "function"
				},
				{
					"constant": false,
					"inputs": [
						{
							"internalType": "uint256",
							"name": "amount",
							"type": "uint256"
						},
						{
							"internalType": "address payable",
							"name": "recipient",
							"type": "address"
						}
					],
					"name": "withdraw",
					"outputs": [],
					"payable": false,
					"stateMutability": "nonpayable",
					"type": "function"
				}
			],
			"devdoc": {
				"methods": {}
			},
			"evm": {
				"assembly": "    /* \"20-Solidity/3/01-Ins_Bank_Account/bank_account.sol\":27:417  contract BankAccount {\r... */\n  mstore(0x40, 0x80)\n    /* \"20-Solidity/3/01-Ins_Bank_Account/bank_account.sol\":86:128  0xc3879B456DAA348a16B6524CBC558d2CC984722c */\n  0xc3879b456daa348a16b6524cbc558d2cc984722c\n    /* \"20-Solidity/3/01-Ins_Bank_Account/bank_account.sol\":55:128  address payable accountOwner = 0xc3879B456DAA348a16B6524CBC558d2CC984722c */\n  0x00\n  dup1\n  0x0100\n  exp\n  dup2\n  sload\n  dup2\n  0xffffffffffffffffffffffffffffffffffffffff\n  mul\n  not\n  and\n  swap1\n  dup4\n  0xffffffffffffffffffffffffffffffffffffffff\n  and\n  mul\n  or\n  swap1\n  sstore\n  pop\n    /* \"20-Solidity/3/01-Ins_Bank_Account/bank_account.sol\":27:417  contract BankAccount {\r... */\n  callvalue\n    /* \"--CODEGEN--\":8:17   */\n  dup1\n    /* \"--CODEGEN--\":5:7   */\n  iszero\n  tag_1\n  jumpi\n    /* \"--CODEGEN--\":30:31   */\n  0x00\n    /* \"--CODEGEN--\":27:28   */\n  dup1\n    /* \"--CODEGEN--\":20:32   */\n  revert\n    /* \"--CODEGEN--\":5:7   */\ntag_1:\n    /* \"20-Solidity/3/01-Ins_Bank_Account/bank_account.sol\":27:417  contract BankAccount {\r... */\n  pop\n  dataSize(sub_0)\n  dup1\n  dataOffset(sub_0)\n  0x00\n  codecopy\n  0x00\n  return\nstop\n\nsub_0: assembly {\n        /* \"20-Solidity/3/01-Ins_Bank_Account/bank_account.sol\":27:417  contract BankAccount {\r... */\n      mstore(0x40, 0x80)\n      jumpi(tag_1, lt(calldatasize, 0x04))\n      shr(0xe0, calldataload(0x00))\n      dup1\n      0xf714ce\n      eq\n      tag_2\n      jumpi\n      dup1\n      0xd0e30db0\n      eq\n      tag_3\n      jumpi\n    tag_1:\n      stop\n        /* \"20-Solidity/3/01-Ins_Bank_Account/bank_account.sol\":137:332  function withdraw(uint amount, address payable recipient) public {\r... */\n    tag_2:\n      callvalue\n        /* \"--CODEGEN--\":8:17   */\n      dup1\n        /* \"--CODEGEN--\":5:7   */\n      iszero\n      tag_6\n      jumpi\n        /* \"--CODEGEN--\":30:31   */\n      0x00\n        /* \"--CODEGEN--\":27:28   */\n      dup1\n        /* \"--CODEGEN--\":20:32   */\n      revert\n        /* \"--CODEGEN--\":5:7   */\n    tag_6:\n        /* \"20-Solidity/3/01-Ins_Bank_Account/bank_account.sol\":137:332  function withdraw(uint amount, address payable recipient) public {\r... */\n      pop\n      tag_7\n      0x04\n      dup1\n      calldatasize\n      sub\n        /* \"--CODEGEN--\":13:15   */\n      0x40\n        /* \"--CODEGEN--\":8:11   */\n      dup2\n        /* \"--CODEGEN--\":5:16   */\n      lt\n        /* \"--CODEGEN--\":2:4   */\n      iszero\n      tag_8\n      jumpi\n        /* \"--CODEGEN--\":29:30   */\n      0x00\n        /* \"--CODEGEN--\":26:27   */\n      dup1\n        /* \"--CODEGEN--\":19:31   */\n      revert\n        /* \"--CODEGEN--\":2:4   */\n    tag_8:\n        /* \"20-Solidity/3/01-Ins_Bank_Account/bank_account.sol\":137:332  function withdraw(uint amount, address payable recipient) public {\r... */\n      dup2\n      add\n      swap1\n      dup1\n      dup1\n      calldataload\n      swap1\n      0x20\n      add\n      swap1\n      swap3\n      swap2\n      swap1\n      dup1\n      calldataload\n      0xffffffffffffffffffffffffffffffffffffffff\n      and\n      swap1\n      0x20\n      add\n      swap1\n      swap3\n      swap2\n      swap1\n      pop\n      pop\n      pop\n      tag_9\n      jump\t// in\n    tag_7:\n      stop\n        /* \"20-Solidity/3/01-Ins_Bank_Account/bank_account.sol\":340:376  function deposit() public payable {} */\n    tag_3:\n      tag_10\n      tag_11\n      jump\t// in\n    tag_10:\n      stop\n        /* \"20-Solidity/3/01-Ins_Bank_Account/bank_account.sol\":137:332  function withdraw(uint amount, address payable recipient) public {\r... */\n    tag_9:\n        /* \"20-Solidity/3/01-Ins_Bank_Account/bank_account.sol\":234:246  accountOwner */\n      0x00\n      dup1\n      swap1\n      sload\n      swap1\n      0x0100\n      exp\n      swap1\n      div\n      0xffffffffffffffffffffffffffffffffffffffff\n      and\n        /* \"20-Solidity/3/01-Ins_Bank_Account/bank_account.sol\":221:246  recipient == accountOwner */\n      0xffffffffffffffffffffffffffffffffffffffff\n      and\n        /* \"20-Solidity/3/01-Ins_Bank_Account/bank_account.sol\":221:230  recipient */\n      dup2\n        /* \"20-Solidity/3/01-Ins_Bank_Account/bank_account.sol\":221:246  recipient == accountOwner */\n      0xffffffffffffffffffffffffffffffffffffffff\n      and\n      eq\n        /* \"20-Solidity/3/01-Ins_Bank_Account/bank_account.sol\":213:280  require(recipient == accountOwner, \"You don’t own this account!\") */\n      tag_13\n      jumpi\n      mload(0x40)\n      0x08c379a000000000000000000000000000000000000000000000000000000000\n      dup2\n      mstore\n      0x04\n      add\n      dup1\n      dup1\n      0x20\n      add\n      dup3\n      dup2\n      sub\n      dup3\n      mstore\n      0x1d\n      dup2\n      mstore\n      0x20\n      add\n      dup1\n      0x596f7520646f6ee2809974206f776e2074686973206163636f756e7421000000\n      dup2\n      mstore\n      pop\n      0x20\n      add\n      swap2\n      pop\n      pop\n      mload(0x40)\n      dup1\n      swap2\n      sub\n      swap1\n      revert\n    tag_13:\n        /* \"20-Solidity/3/01-Ins_Bank_Account/bank_account.sol\":298:307  recipient */\n      dup1\n        /* \"20-Solidity/3/01-Ins_Bank_Account/bank_account.sol\":298:316  recipient.transfer */\n      0xffffffffffffffffffffffffffffffffffffffff\n      and\n        /* \"20-Solidity/3/01-Ins_Bank_Account/bank_account.sol\":298:324  recipient.transfer(amount) */\n      0x08fc\n        /* \"20-Solidity/3/01-Ins_Bank_Account/bank_account.sol\":317:323  amount */\n      dup4\n        /* \"20-Solidity/3/01-Ins_Bank_Account/bank_account.sol\":298:324  recipient.transfer(amount) */\n      swap1\n      dup2\n      iszero\n      mul\n      swap1\n      mload(0x40)\n      0x00\n      mload(0x40)\n      dup1\n      dup4\n      sub\n      dup2\n      dup6\n      dup9\n      dup9\n      call\n      swap4\n      pop\n      pop\n      pop\n      pop\n      iszero\n        /* \"--CODEGEN--\":8:17   */\n      dup1\n        /* \"--CODEGEN--\":5:7   */\n      iszero\n      tag_14\n      jumpi\n        /* \"--CODEGEN--\":45:61   */\n      returndatasize\n        /* \"--CODEGEN--\":42:43   */\n      0x00\n        /* \"--CODEGEN--\":39:40   */\n      dup1\n        /* \"--CODEGEN--\":24:62   */\n      returndatacopy\n        /* \"--CODEGEN--\":77:93   */\n      returndatasize\n        /* \"--CODEGEN--\":74:75   */\n      0x00\n        /* \"--CODEGEN--\":67:94   */\n      revert\n        /* \"--CODEGEN--\":5:7   */\n    tag_14:\n        /* \"20-Solidity/3/01-Ins_Bank_Account/bank_account.sol\":298:324  recipient.transfer(amount) */\n      pop\n        /* \"20-Solidity/3/01-Ins_Bank_Account/bank_account.sol\":137:332  function withdraw(uint amount, address payable recipient) public {\r... */\n      pop\n      pop\n      jump\t// out\n        /* \"20-Solidity/3/01-Ins_Bank_Account/bank_account.sol\":340:376  function deposit() public payable {} */\n    tag_11:\n      jump\t// out\n\n    auxdata: 0xa265627a7a7231582023dd309b2561d00656ae8b736cb66ea8ae06c1bf8fe034eff5b1c10fc39112f064736f6c63430005110032\n}\n",
				"bytecode": {
					"linkReferences": {},
					"object": "608060405273c3879b456daa348a16b6524cbc558d2cc984722c6000806101000a81548173ffffffffffffffffffffffffffffffffffffffff021916908373ffffffffffffffffffffffffffffffffffffffff16021790555034801561006457600080fd5b506101d3806100746000396000f3fe6080604052600436106100285760003560e01c8062f714ce1461002a578063d0e30db014610085575b005b34801561003657600080fd5b506100836004803603604081101561004d57600080fd5b8101908080359060200190929190803573ffffffffffffffffffffffffffffffffffffffff16906020019092919050505061008f565b005b61008d61019c565b005b6000809054906101000a900473ffffffffffffffffffffffffffffffffffffffff1673ffffffffffffffffffffffffffffffffffffffff168173ffffffffffffffffffffffffffffffffffffffff1614610151576040517f08c379a000000000000000000000000000000000000000000000000000000000815260040180806020018281038252601d8152602001807f596f7520646f6ee2809974206f776e2074686973206163636f756e742100000081525060200191505060405180910390fd5b8073ffffffffffffffffffffffffffffffffffffffff166108fc839081150290604051600060405180830381858888f19350505050158015610197573d6000803e3d6000fd5b505050565b56fea265627a7a7231582023dd309b2561d00656ae8b736cb66ea8ae06c1bf8fe034eff5b1c10fc39112f064736f6c63430005110032",
					"opcodes": "PUSH1 0x80 PUSH1 0x40 MSTORE PUSH20 0xC3879B456DAA348A16B6524CBC558D2CC984722C PUSH1 0x0 DUP1 PUSH2 0x100 EXP DUP2 SLOAD DUP2 PUSH20 0xFFFFFFFFFFFFFFFFFFFFFFFFFFFFFFFFFFFFFFFF MUL NOT AND SWAP1 DUP4 PUSH20 0xFFFFFFFFFFFFFFFFFFFFFFFFFFFFFFFFFFFFFFFF AND MUL OR SWAP1 SSTORE POP CALLVALUE DUP1 ISZERO PUSH2 0x64 JUMPI PUSH1 0x0 DUP1 REVERT JUMPDEST POP PUSH2 0x1D3 DUP1 PUSH2 0x74 PUSH1 0x0 CODECOPY PUSH1 0x0 RETURN INVALID PUSH1 0x80 PUSH1 0x40 MSTORE PUSH1 0x4 CALLDATASIZE LT PUSH2 0x28 JUMPI PUSH1 0x0 CALLDATALOAD PUSH1 0xE0 SHR DUP1 PUSH3 0xF714CE EQ PUSH2 0x2A JUMPI DUP1 PUSH4 0xD0E30DB0 EQ PUSH2 0x85 JUMPI JUMPDEST STOP JUMPDEST CALLVALUE DUP1 ISZERO PUSH2 0x36 JUMPI PUSH1 0x0 DUP1 REVERT JUMPDEST POP PUSH2 0x83 PUSH1 0x4 DUP1 CALLDATASIZE SUB PUSH1 0x40 DUP2 LT ISZERO PUSH2 0x4D JUMPI PUSH1 0x0 DUP1 REVERT JUMPDEST DUP2 ADD SWAP1 DUP1 DUP1 CALLDATALOAD SWAP1 PUSH1 0x20 ADD SWAP1 SWAP3 SWAP2 SWAP1 DUP1 CALLDATALOAD PUSH20 0xFFFFFFFFFFFFFFFFFFFFFFFFFFFFFFFFFFFFFFFF AND SWAP1 PUSH1 0x20 ADD SWAP1 SWAP3 SWAP2 SWAP1 POP POP POP PUSH2 0x8F JUMP JUMPDEST STOP JUMPDEST PUSH2 0x8D PUSH2 0x19C JUMP JUMPDEST STOP JUMPDEST PUSH1 0x0 DUP1 SWAP1 SLOAD SWAP1 PUSH2 0x100 EXP SWAP1 DIV PUSH20 0xFFFFFFFFFFFFFFFFFFFFFFFFFFFFFFFFFFFFFFFF AND PUSH20 0xFFFFFFFFFFFFFFFFFFFFFFFFFFFFFFFFFFFFFFFF AND DUP2 PUSH20 0xFFFFFFFFFFFFFFFFFFFFFFFFFFFFFFFFFFFFFFFF AND EQ PUSH2 0x151 JUMPI PUSH1 0x40 MLOAD PUSH32 0x8C379A000000000000000000000000000000000000000000000000000000000 DUP2 MSTORE PUSH1 0x4 ADD DUP1 DUP1 PUSH1 0x20 ADD DUP3 DUP2 SUB DUP3 MSTORE PUSH1 0x1D DUP2 MSTORE PUSH1 0x20 ADD DUP1 PUSH32 0x596F7520646F6EE2809974206F776E2074686973206163636F756E7421000000 DUP2 MSTORE POP PUSH1 0x20 ADD SWAP2 POP POP PUSH1 0x40 MLOAD DUP1 SWAP2 SUB SWAP1 REVERT JUMPDEST DUP1 PUSH20 0xFFFFFFFFFFFFFFFFFFFFFFFFFFFFFFFFFFFFFFFF AND PUSH2 0x8FC DUP4 SWAP1 DUP2 ISZERO MUL SWAP1 PUSH1 0x40 MLOAD PUSH1 0x0 PUSH1 0x40 MLOAD DUP1 DUP4 SUB DUP2 DUP6 DUP9 DUP9 CALL SWAP4 POP POP POP POP ISZERO DUP1 ISZERO PUSH2 0x197 JUMPI RETURNDATASIZE PUSH1 0x0 DUP1 RETURNDATACOPY RETURNDATASIZE PUSH1 0x0 REVERT JUMPDEST POP POP POP JUMP JUMPDEST JUMP INVALID LOG2 PUSH6 0x627A7A723158 KECCAK256 0x23 0xDD ADDRESS SWAP12 0x25 PUSH2 0xD006 JUMP 0xAE DUP12 PUSH20 0x6CB66EA8AE06C1BF8FE034EFF5B1C10FC39112F0 PUSH5 0x736F6C6343 STOP SDIV GT STOP ORIGIN "
				},
				"gasEstimates": {
					"creation": {
						"codeDepositCost": "93400",
						"executionCost": "21008",
						"totalCost": "114408"
					},
					"external": {
						"": "96",
						"deposit()": "120",
						"withdraw(uint256,address)": "infinite"
					}
				},
				"methodIdentifiers": {
					"deposit()": "d0e30db0",
					"withdraw(uint256,address)": "00f714ce"
				}
			},
			"storageLayout": {
				"storage": [
					{
						"astId": 4,
						"contract": "20-Solidity/3/01-Ins_Bank_Account/bank_account.sol:BankAccount",
						"label": "accountOwner",
						"offset": 0,
						"slot": "0",
						"type": "t_address_payable"
					}
				],
				"types": {
					"t_address_payable": {
						"encoding": "inplace",
						"label": "address payable",
						"numberOfBytes": "20"
					}
				}
			},
			"userdoc": {
				"methods": {}
			}
		}
	}
}