{
	"contracts/Exchange.sol": {
		"Exchange": {
			"abi": [
				{
					"constant": true,
					"inputs": [
						{
							"name": "symbolName",
							"type": "string"
						}
					],
					"name": "getBuyOrderBook",
					"outputs": [
						{
							"name": "",
							"type": "uint256[]"
						},
						{
							"name": "",
							"type": "uint256[]"
						}
					],
					"payable": false,
					"stateMutability": "view",
					"type": "function"
				},
				{
					"constant": true,
					"inputs": [],
					"name": "getEthBalanceInWei",
					"outputs": [
						{
							"name": "",
							"type": "uint256"
						}
					],
					"payable": false,
					"stateMutability": "view",
					"type": "function"
				},
				{
					"constant": false,
					"inputs": [
						{
							"name": "symbolName",
							"type": "string"
						},
						{
							"name": "amount",
							"type": "uint256"
						}
					],
					"name": "depositToken",
					"outputs": [],
					"payable": false,
					"stateMutability": "nonpayable",
					"type": "function"
				},
				{
					"constant": true,
					"inputs": [
						{
							"name": "symbolName",
							"type": "string"
						}
					],
					"name": "getBalance",
					"outputs": [
						{
							"name": "",
							"type": "uint256"
						}
					],
					"payable": false,
					"stateMutability": "view",
					"type": "function"
				},
				{
					"constant": false,
					"inputs": [
						{
							"name": "amountInWei",
							"type": "uint256"
						}
					],
					"name": "withdrawEther",
					"outputs": [],
					"payable": false,
					"stateMutability": "nonpayable",
					"type": "function"
				},
				{
					"constant": false,
					"inputs": [
						{
							"name": "symbolName",
							"type": "string"
						},
						{
							"name": "priceInWei",
							"type": "uint256"
						},
						{
							"name": "amount",
							"type": "uint256"
						}
					],
					"name": "buyToken",
					"outputs": [],
					"payable": false,
					"stateMutability": "nonpayable",
					"type": "function"
				},
				{
					"constant": true,
					"inputs": [
						{
							"name": "symbolName",
							"type": "string"
						}
					],
					"name": "getSellOrderBook",
					"outputs": [
						{
							"name": "",
							"type": "uint256[]"
						},
						{
							"name": "",
							"type": "uint256[]"
						}
					],
					"payable": false,
					"stateMutability": "view",
					"type": "function"
				},
				{
					"constant": false,
					"inputs": [
						{
							"name": "symbolName",
							"type": "string"
						},
						{
							"name": "priceInWei",
							"type": "uint256"
						},
						{
							"name": "amount",
							"type": "uint256"
						}
					],
					"name": "sellToken",
					"outputs": [],
					"payable": false,
					"stateMutability": "nonpayable",
					"type": "function"
				},
				{
					"constant": true,
					"inputs": [
						{
							"name": "symbolName",
							"type": "string"
						}
					],
					"name": "hasToken",
					"outputs": [
						{
							"name": "",
							"type": "bool"
						}
					],
					"payable": false,
					"stateMutability": "view",
					"type": "function"
				},
				{
					"constant": true,
					"inputs": [
						{
							"name": "symbolName",
							"type": "string"
						}
					],
					"name": "getSymbolIndexOrThrow",
					"outputs": [
						{
							"name": "",
							"type": "uint8"
						}
					],
					"payable": false,
					"stateMutability": "view",
					"type": "function"
				},
				{
					"constant": false,
					"inputs": [],
					"name": "depositEther",
					"outputs": [],
					"payable": true,
					"stateMutability": "payable",
					"type": "function"
				},
				{
					"constant": false,
					"inputs": [
						{
							"name": "symbolName",
							"type": "string"
						},
						{
							"name": "erc20TokenAddress",
							"type": "address"
						}
					],
					"name": "addToken",
					"outputs": [],
					"payable": false,
					"stateMutability": "nonpayable",
					"type": "function"
				},
				{
					"constant": false,
					"inputs": [
						{
							"name": "symbolName",
							"type": "string"
						},
						{
							"name": "amount",
							"type": "uint256"
						}
					],
					"name": "withdrawToken",
					"outputs": [],
					"payable": false,
					"stateMutability": "nonpayable",
					"type": "function"
				},
				{
					"constant": false,
					"inputs": [
						{
							"name": "symbolName",
							"type": "string"
						},
						{
							"name": "isSellOrder",
							"type": "bool"
						},
						{
							"name": "priceInWei",
							"type": "uint256"
						},
						{
							"name": "offerKey",
							"type": "uint256"
						}
					],
					"name": "cancelOrder",
					"outputs": [],
					"payable": false,
					"stateMutability": "nonpayable",
					"type": "function"
				},
				{
					"anonymous": false,
					"inputs": [
						{
							"indexed": true,
							"name": "_from",
							"type": "address"
						},
						{
							"indexed": true,
							"name": "_symbolIndex",
							"type": "uint256"
						},
						{
							"indexed": false,
							"name": "_amount",
							"type": "uint256"
						},
						{
							"indexed": false,
							"name": "_timestamp",
							"type": "uint256"
						}
					],
					"name": "DepositForTokenReceived",
					"type": "event"
				},
				{
					"anonymous": false,
					"inputs": [
						{
							"indexed": true,
							"name": "_to",
							"type": "address"
						},
						{
							"indexed": true,
							"name": "_symbolIndex",
							"type": "uint256"
						},
						{
							"indexed": false,
							"name": "_amount",
							"type": "uint256"
						},
						{
							"indexed": false,
							"name": "_timestamp",
							"type": "uint256"
						}
					],
					"name": "WithdrawalToken",
					"type": "event"
				},
				{
					"anonymous": false,
					"inputs": [
						{
							"indexed": true,
							"name": "_from",
							"type": "address"
						},
						{
							"indexed": false,
							"name": "_amount",
							"type": "uint256"
						},
						{
							"indexed": false,
							"name": "_timestamp",
							"type": "uint256"
						}
					],
					"name": "DepositForEthReceived",
					"type": "event"
				},
				{
					"anonymous": false,
					"inputs": [
						{
							"indexed": true,
							"name": "_to",
							"type": "address"
						},
						{
							"indexed": false,
							"name": "_amount",
							"type": "uint256"
						},
						{
							"indexed": false,
							"name": "_timestamp",
							"type": "uint256"
						}
					],
					"name": "WithdrawalEth",
					"type": "event"
				},
				{
					"anonymous": false,
					"inputs": [
						{
							"indexed": true,
							"name": "_symbolIndex",
							"type": "uint256"
						},
						{
							"indexed": true,
							"name": "_who",
							"type": "address"
						},
						{
							"indexed": false,
							"name": "_amountTokens",
							"type": "uint256"
						},
						{
							"indexed": false,
							"name": "_priceInWei",
							"type": "uint256"
						},
						{
							"indexed": false,
							"name": "_orderKey",
							"type": "uint256"
						}
					],
					"name": "LimitSellOrderCreated",
					"type": "event"
				},
				{
					"anonymous": false,
					"inputs": [
						{
							"indexed": true,
							"name": "_symbolIndex",
							"type": "uint256"
						},
						{
							"indexed": false,
							"name": "_amount",
							"type": "uint256"
						},
						{
							"indexed": false,
							"name": "_priceInWei",
							"type": "uint256"
						},
						{
							"indexed": false,
							"name": "_orderKey",
							"type": "uint256"
						}
					],
					"name": "SellOrderFulfilled",
					"type": "event"
				},
				{
					"anonymous": false,
					"inputs": [
						{
							"indexed": true,
							"name": "_symbolIndex",
							"type": "uint256"
						},
						{
							"indexed": false,
							"name": "_priceInWei",
							"type": "uint256"
						},
						{
							"indexed": false,
							"name": "_orderKey",
							"type": "uint256"
						}
					],
					"name": "SellOrderCanceled",
					"type": "event"
				},
				{
					"anonymous": false,
					"inputs": [
						{
							"indexed": true,
							"name": "_symbolIndex",
							"type": "uint256"
						},
						{
							"indexed": true,
							"name": "_who",
							"type": "address"
						},
						{
							"indexed": false,
							"name": "_amountTokens",
							"type": "uint256"
						},
						{
							"indexed": false,
							"name": "_priceInWei",
							"type": "uint256"
						},
						{
							"indexed": false,
							"name": "_orderKey",
							"type": "uint256"
						}
					],
					"name": "LimitBuyOrderCreated",
					"type": "event"
				},
				{
					"anonymous": false,
					"inputs": [
						{
							"indexed": true,
							"name": "_symbolIndex",
							"type": "uint256"
						},
						{
							"indexed": false,
							"name": "_amount",
							"type": "uint256"
						},
						{
							"indexed": false,
							"name": "_priceInWei",
							"type": "uint256"
						},
						{
							"indexed": false,
							"name": "_orderKey",
							"type": "uint256"
						}
					],
					"name": "BuyOrderFulfilled",
					"type": "event"
				},
				{
					"anonymous": false,
					"inputs": [
						{
							"indexed": true,
							"name": "_symbolIndex",
							"type": "uint256"
						},
						{
							"indexed": false,
							"name": "_priceInWei",
							"type": "uint256"
						},
						{
							"indexed": false,
							"name": "_orderKey",
							"type": "uint256"
						}
					],
					"name": "BuyOrderCanceled",
					"type": "event"
				},
				{
					"anonymous": false,
					"inputs": [
						{
							"indexed": false,
							"name": "_symbolIndex",
							"type": "uint256"
						},
						{
							"indexed": false,
							"name": "_token",
							"type": "string"
						},
						{
							"indexed": false,
							"name": "_timestamp",
							"type": "uint256"
						}
					],
					"name": "TokenAddedToSystem",
					"type": "event"
				}
			],
			"devdoc": {
				"methods": {}
			},
			"evm": {
				"assembly": "    /* \"contracts/Exchange.sol\":84:34753  contract Exchange is owned {... */\n  mstore(0x40, 0x80)\n    /* \"contracts/owned.sol\":365:375  msg.sender */\n  caller\n    /* \"contracts/owned.sol\":357:362  owner */\n  0x0\n  dup1\n    /* \"contracts/owned.sol\":357:375  owner = msg.sender */\n  0x100\n  exp\n  dup2\n  sload\n  dup2\n  0xffffffffffffffffffffffffffffffffffffffff\n  mul\n  not\n  and\n  swap1\n  dup4\n  0xffffffffffffffffffffffffffffffffffffffff\n  and\n  mul\n  or\n  swap1\n  sstore\n  pop\n    /* \"contracts/Exchange.sol\":84:34753  contract Exchange is owned {... */\n  dataSize(sub_0)\n  dup1\n  dataOffset(sub_0)\n  0x0\n  codecopy\n  0x0\n  return\nstop\n\nsub_0: assembly {\n        /* \"contracts/Exchange.sol\":84:34753  contract Exchange is owned {... */\n      mstore(0x40, 0x80)\n      jumpi(tag_1, lt(calldatasize, 0x4))\n      calldataload(0x0)\n      0x100000000000000000000000000000000000000000000000000000000\n      swap1\n      div\n      0xffffffff\n      and\n      dup1\n      0x3bc4a27\n      eq\n      tag_2\n      jumpi\n      dup1\n      0x1a8eb72b\n      eq\n      tag_3\n      jumpi\n      dup1\n      0x33ad57e4\n      eq\n      tag_4\n      jumpi\n      dup1\n      0x3a51d246\n      eq\n      tag_5\n      jumpi\n      dup1\n      0x3bed33ce\n      eq\n      tag_6\n      jumpi\n      dup1\n      0x5ab8ea33\n      eq\n      tag_7\n      jumpi\n      dup1\n      0x728ff029\n      eq\n      tag_8\n      jumpi\n      dup1\n      0x851030fe\n      eq\n      tag_9\n      jumpi\n      dup1\n      0x8ea00818\n      eq\n      tag_10\n      jumpi\n      dup1\n      0x977377f8\n      eq\n      tag_11\n      jumpi\n      dup1\n      0x98ea5fca\n      eq\n      tag_12\n      jumpi\n      dup1\n      0xb0b22c2c\n      eq\n      tag_13\n      jumpi\n      dup1\n      0xc97a413a\n      eq\n      tag_14\n      jumpi\n      dup1\n      0xd1a3b025\n      eq\n      tag_15\n      jumpi\n    tag_1:\n      0x0\n      dup1\n      revert\n        /* \"contracts/Exchange.sol\":6161:7640  function getBuyOrderBook(string symbolName) view public returns (uint[], uint[]) {... */\n    tag_2:\n      callvalue\n        /* \"--CODEGEN--\":8:17   */\n      dup1\n        /* \"--CODEGEN--\":5:7   */\n      iszero\n      tag_16\n      jumpi\n        /* \"--CODEGEN--\":30:31   */\n      0x0\n        /* \"--CODEGEN--\":27:28   */\n      dup1\n        /* \"--CODEGEN--\":20:32   */\n      revert\n        /* \"--CODEGEN--\":5:7   */\n    tag_16:\n        /* \"contracts/Exchange.sol\":6161:7640  function getBuyOrderBook(string symbolName) view public returns (uint[], uint[]) {... */\n      pop\n      tag_17\n      0x4\n      dup1\n      calldatasize\n      sub\n      dup2\n      add\n      swap1\n      dup1\n      dup1\n      calldataload\n      swap1\n      0x20\n      add\n      swap1\n      dup3\n      add\n      dup1\n      calldataload\n      swap1\n      0x20\n      add\n      swap1\n      dup1\n      dup1\n      0x1f\n      add\n      0x20\n      dup1\n      swap2\n      div\n      mul\n      0x20\n      add\n      mload(0x40)\n      swap1\n      dup2\n      add\n      0x40\n      mstore\n      dup1\n      swap4\n      swap3\n      swap2\n      swap1\n      dup2\n      dup2\n      mstore\n      0x20\n      add\n      dup4\n      dup4\n      dup1\n      dup3\n      dup5\n      calldatacopy\n      dup3\n      add\n      swap2\n      pop\n      pop\n      pop\n      pop\n      pop\n      pop\n      swap2\n      swap3\n      swap2\n      swap3\n      swap1\n      pop\n      pop\n      pop\n      jump(tag_18)\n    tag_17:\n      mload(0x40)\n      dup1\n      dup1\n      0x20\n      add\n      dup1\n      0x20\n      add\n      dup4\n      dup2\n      sub\n      dup4\n      mstore\n      dup6\n      dup2\n      dup2\n      mload\n      dup2\n      mstore\n      0x20\n      add\n      swap2\n      pop\n      dup1\n      mload\n      swap1\n      0x20\n      add\n      swap1\n      0x20\n      mul\n      dup1\n      dup4\n      dup4\n        /* \"--CODEGEN--\":23:24   */\n      0x0\n        /* \"--CODEGEN--\":8:108   */\n    tag_19:\n        /* \"--CODEGEN--\":33:36   */\n      dup4\n        /* \"--CODEGEN--\":30:31   */\n      dup2\n        /* \"--CODEGEN--\":27:37   */\n      lt\n        /* \"--CODEGEN--\":8:108   */\n      iszero\n      tag_20\n      jumpi\n        /* \"--CODEGEN--\":99:100   */\n      dup1\n        /* \"--CODEGEN--\":94:97   */\n      dup3\n        /* \"--CODEGEN--\":90:101   */\n      add\n        /* \"--CODEGEN--\":84:102   */\n      mload\n        /* \"--CODEGEN--\":80:81   */\n      dup2\n        /* \"--CODEGEN--\":75:78   */\n      dup5\n        /* \"--CODEGEN--\":71:82   */\n      add\n        /* \"--CODEGEN--\":64:103   */\n      mstore\n        /* \"--CODEGEN--\":52:54   */\n      0x20\n        /* \"--CODEGEN--\":49:50   */\n      dup2\n        /* \"--CODEGEN--\":45:55   */\n      add\n        /* \"--CODEGEN--\":40:55   */\n      swap1\n      pop\n        /* \"--CODEGEN--\":8:108   */\n      jump(tag_19)\n    tag_20:\n        /* \"--CODEGEN--\":12:26   */\n      pop\n        /* \"contracts/Exchange.sol\":6161:7640  function getBuyOrderBook(string symbolName) view public returns (uint[], uint[]) {... */\n      pop\n      pop\n      pop\n      swap1\n      pop\n      add\n      dup4\n      dup2\n      sub\n      dup3\n      mstore\n      dup5\n      dup2\n      dup2\n      mload\n      dup2\n      mstore\n      0x20\n      add\n      swap2\n      pop\n      dup1\n      mload\n      swap1\n      0x20\n      add\n      swap1\n      0x20\n      mul\n      dup1\n      dup4\n      dup4\n        /* \"--CODEGEN--\":23:24   */\n      0x0\n        /* \"--CODEGEN--\":8:108   */\n    tag_22:\n        /* \"--CODEGEN--\":33:36   */\n      dup4\n        /* \"--CODEGEN--\":30:31   */\n      dup2\n        /* \"--CODEGEN--\":27:37   */\n      lt\n        /* \"--CODEGEN--\":8:108   */\n      iszero\n      tag_23\n      jumpi\n        /* \"--CODEGEN--\":99:100   */\n      dup1\n        /* \"--CODEGEN--\":94:97   */\n      dup3\n        /* \"--CODEGEN--\":90:101   */\n      add\n        /* \"--CODEGEN--\":84:102   */\n      mload\n        /* \"--CODEGEN--\":80:81   */\n      dup2\n        /* \"--CODEGEN--\":75:78   */\n      dup5\n        /* \"--CODEGEN--\":71:82   */\n      add\n        /* \"--CODEGEN--\":64:103   */\n      mstore\n        /* \"--CODEGEN--\":52:54   */\n      0x20\n        /* \"--CODEGEN--\":49:50   */\n      dup2\n        /* \"--CODEGEN--\":45:55   */\n      add\n        /* \"--CODEGEN--\":40:55   */\n      swap1\n      pop\n        /* \"--CODEGEN--\":8:108   */\n      jump(tag_22)\n    tag_23:\n        /* \"--CODEGEN--\":12:26   */\n      pop\n        /* \"contracts/Exchange.sol\":6161:7640  function getBuyOrderBook(string symbolName) view public returns (uint[], uint[]) {... */\n      pop\n      pop\n      pop\n      swap1\n      pop\n      add\n      swap5\n      pop\n      pop\n      pop\n      pop\n      pop\n      mload(0x40)\n      dup1\n      swap2\n      sub\n      swap1\n      return\n        /* \"contracts/Exchange.sol\":3080:3192  function getEthBalanceInWei() view public returns (uint){... */\n    tag_3:\n      callvalue\n        /* \"--CODEGEN--\":8:17   */\n      dup1\n        /* \"--CODEGEN--\":5:7   */\n      iszero\n      tag_25\n      jumpi\n        /* \"--CODEGEN--\":30:31   */\n      0x0\n        /* \"--CODEGEN--\":27:28   */\n      dup1\n        /* \"--CODEGEN--\":20:32   */\n      revert\n        /* \"--CODEGEN--\":5:7   */\n    tag_25:\n        /* \"contracts/Exchange.sol\":3080:3192  function getEthBalanceInWei() view public returns (uint){... */\n      pop\n      tag_26\n      jump(tag_27)\n    tag_26:\n      mload(0x40)\n      dup1\n      dup3\n      dup2\n      mstore\n      0x20\n      add\n      swap2\n      pop\n      pop\n      mload(0x40)\n      dup1\n      swap2\n      sub\n      swap1\n      return\n        /* \"contracts/Exchange.sol\":4456:5114  function depositToken(string symbolName, uint amount) public {... */\n    tag_4:\n      callvalue\n        /* \"--CODEGEN--\":8:17   */\n      dup1\n        /* \"--CODEGEN--\":5:7   */\n      iszero\n      tag_28\n      jumpi\n        /* \"--CODEGEN--\":30:31   */\n      0x0\n        /* \"--CODEGEN--\":27:28   */\n      dup1\n        /* \"--CODEGEN--\":20:32   */\n      revert\n        /* \"--CODEGEN--\":5:7   */\n    tag_28:\n        /* \"contracts/Exchange.sol\":4456:5114  function depositToken(string symbolName, uint amount) public {... */\n      pop\n      tag_29\n      0x4\n      dup1\n      calldatasize\n      sub\n      dup2\n      add\n      swap1\n      dup1\n      dup1\n      calldataload\n      swap1\n      0x20\n      add\n      swap1\n      dup3\n      add\n      dup1\n      calldataload\n      swap1\n      0x20\n      add\n      swap1\n      dup1\n      dup1\n      0x1f\n      add\n      0x20\n      dup1\n      swap2\n      div\n      mul\n      0x20\n      add\n      mload(0x40)\n      swap1\n      dup2\n      add\n      0x40\n      mstore\n      dup1\n      swap4\n      swap3\n      swap2\n      swap1\n      dup2\n      dup2\n      mstore\n      0x20\n      add\n      dup4\n      dup4\n      dup1\n      dup3\n      dup5\n      calldatacopy\n      dup3\n      add\n      swap2\n      pop\n      pop\n      pop\n      pop\n      pop\n      pop\n      swap2\n      swap3\n      swap2\n      swap3\n      swap1\n      dup1\n      calldataload\n      swap1\n      0x20\n      add\n      swap1\n      swap3\n      swap2\n      swap1\n      pop\n      pop\n      pop\n      jump(tag_30)\n    tag_29:\n      stop\n        /* \"contracts/Exchange.sol\":5843:6051  function getBalance(string symbolName) view public returns (uint) {... */\n    tag_5:\n      callvalue\n        /* \"--CODEGEN--\":8:17   */\n      dup1\n        /* \"--CODEGEN--\":5:7   */\n      iszero\n      tag_31\n      jumpi\n        /* \"--CODEGEN--\":30:31   */\n      0x0\n        /* \"--CODEGEN--\":27:28   */\n      dup1\n        /* \"--CODEGEN--\":20:32   */\n      revert\n        /* \"--CODEGEN--\":5:7   */\n    tag_31:\n        /* \"contracts/Exchange.sol\":5843:6051  function getBalance(string symbolName) view public returns (uint) {... */\n      pop\n      tag_32\n      0x4\n      dup1\n      calldatasize\n      sub\n      dup2\n      add\n      swap1\n      dup1\n      dup1\n      calldataload\n      swap1\n      0x20\n      add\n      swap1\n      dup3\n      add\n      dup1\n      calldataload\n      swap1\n      0x20\n      add\n      swap1\n      dup1\n      dup1\n      0x1f\n      add\n      0x20\n      dup1\n      swap2\n      div\n      mul\n      0x20\n      add\n      mload(0x40)\n      swap1\n      dup2\n      add\n      0x40\n      mstore\n      dup1\n      swap4\n      swap3\n      swap2\n      swap1\n      dup2\n      dup2\n      mstore\n      0x20\n      add\n      dup4\n      dup4\n      dup1\n      dup3\n      dup5\n      calldatacopy\n      dup3\n      add\n      swap2\n      pop\n      pop\n      pop\n      pop\n      pop\n      pop\n      swap2\n      swap3\n      swap2\n      swap3\n      swap1\n      pop\n      pop\n      pop\n      jump(tag_33)\n    tag_32:\n      mload(0x40)\n      dup1\n      dup3\n      dup2\n      mstore\n      0x20\n      add\n      swap2\n      pop\n      pop\n      mload(0x40)\n      dup1\n      swap2\n      sub\n      swap1\n      return\n        /* \"contracts/Exchange.sol\":2691:3074  function withdrawEther(uint amountInWei) public {... */\n    tag_6:\n      callvalue\n        /* \"--CODEGEN--\":8:17   */\n      dup1\n        /* \"--CODEGEN--\":5:7   */\n      iszero\n      tag_34\n      jumpi\n        /* \"--CODEGEN--\":30:31   */\n      0x0\n        /* \"--CODEGEN--\":27:28   */\n      dup1\n        /* \"--CODEGEN--\":20:32   */\n      revert\n        /* \"--CODEGEN--\":5:7   */\n    tag_34:\n        /* \"contracts/Exchange.sol\":2691:3074  function withdrawEther(uint amountInWei) public {... */\n      pop\n      tag_35\n      0x4\n      dup1\n      calldatasize\n      sub\n      dup2\n      add\n      swap1\n      dup1\n      dup1\n      calldataload\n      swap1\n      0x20\n      add\n      swap1\n      swap3\n      swap2\n      swap1\n      pop\n      pop\n      pop\n      jump(tag_36)\n    tag_35:\n      stop\n        /* \"contracts/Exchange.sol\":9451:17322  function buyToken(string symbolName, uint priceInWei, uint amount) public {... */\n    tag_7:\n      callvalue\n        /* \"--CODEGEN--\":8:17   */\n      dup1\n        /* \"--CODEGEN--\":5:7   */\n      iszero\n      tag_37\n      jumpi\n        /* \"--CODEGEN--\":30:31   */\n      0x0\n        /* \"--CODEGEN--\":27:28   */\n      dup1\n        /* \"--CODEGEN--\":20:32   */\n      revert\n        /* \"--CODEGEN--\":5:7   */\n    tag_37:\n        /* \"contracts/Exchange.sol\":9451:17322  function buyToken(string symbolName, uint priceInWei, uint amount) public {... */\n      pop\n      tag_38\n      0x4\n      dup1\n      calldatasize\n      sub\n      dup2\n      add\n      swap1\n      dup1\n      dup1\n      calldataload\n      swap1\n      0x20\n      add\n      swap1\n      dup3\n      add\n      dup1\n      calldataload\n      swap1\n      0x20\n      add\n      swap1\n      dup1\n      dup1\n      0x1f\n      add\n      0x20\n      dup1\n      swap2\n      div\n      mul\n      0x20\n      add\n      mload(0x40)\n      swap1\n      dup2\n      add\n      0x40\n      mstore\n      dup1\n      swap4\n      swap3\n      swap2\n      swap1\n      dup2\n      dup2\n      mstore\n      0x20\n      add\n      dup4\n      dup4\n      dup1\n      dup3\n      dup5\n      calldatacopy\n      dup3\n      add\n      swap2\n      pop\n      pop\n      pop\n      pop\n      pop\n      pop\n      swap2\n      swap3\n      swap2\n      swap3\n      swap1\n      dup1\n      calldataload\n      swap1\n      0x20\n      add\n      swap1\n      swap3\n      swap2\n      swap1\n      dup1\n      calldataload\n      swap1\n      0x20\n      add\n      swap1\n      swap3\n      swap2\n      swap1\n      pop\n      pop\n      pop\n      jump(tag_39)\n    tag_38:\n      stop\n        /* \"contracts/Exchange.sol\":7749:9344  function getSellOrderBook(string symbolName) view public returns (uint[], uint[]) {... */\n    tag_8:\n      callvalue\n        /* \"--CODEGEN--\":8:17   */\n      dup1\n        /* \"--CODEGEN--\":5:7   */\n      iszero\n      tag_40\n      jumpi\n        /* \"--CODEGEN--\":30:31   */\n      0x0\n        /* \"--CODEGEN--\":27:28   */\n      dup1\n        /* \"--CODEGEN--\":20:32   */\n      revert\n        /* \"--CODEGEN--\":5:7   */\n    tag_40:\n        /* \"contracts/Exchange.sol\":7749:9344  function getSellOrderBook(string symbolName) view public returns (uint[], uint[]) {... */\n      pop\n      tag_41\n      0x4\n      dup1\n      calldatasize\n      sub\n      dup2\n      add\n      swap1\n      dup1\n      dup1\n      calldataload\n      swap1\n      0x20\n      add\n      swap1\n      dup3\n      add\n      dup1\n      calldataload\n      swap1\n      0x20\n      add\n      swap1\n      dup1\n      dup1\n      0x1f\n      add\n      0x20\n      dup1\n      swap2\n      div\n      mul\n      0x20\n      add\n      mload(0x40)\n      swap1\n      dup2\n      add\n      0x40\n      mstore\n      dup1\n      swap4\n      swap3\n      swap2\n      swap1\n      dup2\n      dup2\n      mstore\n      0x20\n      add\n      dup4\n      dup4\n      dup1\n      dup3\n      dup5\n      calldatacopy\n      dup3\n      add\n      swap2\n      pop\n      pop\n      pop\n      pop\n      pop\n      pop\n      swap2\n      swap3\n      swap2\n      swap3\n      swap1\n      pop\n      pop\n      pop\n      jump(tag_42)\n    tag_41:\n      mload(0x40)\n      dup1\n      dup1\n      0x20\n      add\n      dup1\n      0x20\n      add\n      dup4\n      dup2\n      sub\n      dup4\n      mstore\n      dup6\n      dup2\n      dup2\n      mload\n      dup2\n      mstore\n      0x20\n      add\n      swap2\n      pop\n      dup1\n      mload\n      swap1\n      0x20\n      add\n      swap1\n      0x20\n      mul\n      dup1\n      dup4\n      dup4\n        /* \"--CODEGEN--\":23:24   */\n      0x0\n        /* \"--CODEGEN--\":8:108   */\n    tag_43:\n        /* \"--CODEGEN--\":33:36   */\n      dup4\n        /* \"--CODEGEN--\":30:31   */\n      dup2\n        /* \"--CODEGEN--\":27:37   */\n      lt\n        /* \"--CODEGEN--\":8:108   */\n      iszero\n      tag_44\n      jumpi\n        /* \"--CODEGEN--\":99:100   */\n      dup1\n        /* \"--CODEGEN--\":94:97   */\n      dup3\n        /* \"--CODEGEN--\":90:101   */\n      add\n        /* \"--CODEGEN--\":84:102   */\n      mload\n        /* \"--CODEGEN--\":80:81   */\n      dup2\n        /* \"--CODEGEN--\":75:78   */\n      dup5\n        /* \"--CODEGEN--\":71:82   */\n      add\n        /* \"--CODEGEN--\":64:103   */\n      mstore\n        /* \"--CODEGEN--\":52:54   */\n      0x20\n        /* \"--CODEGEN--\":49:50   */\n      dup2\n        /* \"--CODEGEN--\":45:55   */\n      add\n        /* \"--CODEGEN--\":40:55   */\n      swap1\n      pop\n        /* \"--CODEGEN--\":8:108   */\n      jump(tag_43)\n    tag_44:\n        /* \"--CODEGEN--\":12:26   */\n      pop\n        /* \"contracts/Exchange.sol\":7749:9344  function getSellOrderBook(string symbolName) view public returns (uint[], uint[]) {... */\n      pop\n      pop\n      pop\n      swap1\n      pop\n      add\n      dup4\n      dup2\n      sub\n      dup3\n      mstore\n      dup5\n      dup2\n      dup2\n      mload\n      dup2\n      mstore\n      0x20\n      add\n      swap2\n      pop\n      dup1\n      mload\n      swap1\n      0x20\n      add\n      swap1\n      0x20\n      mul\n      dup1\n      dup4\n      dup4\n        /* \"--CODEGEN--\":23:24   */\n      0x0\n        /* \"--CODEGEN--\":8:108   */\n    tag_46:\n        /* \"--CODEGEN--\":33:36   */\n      dup4\n        /* \"--CODEGEN--\":30:31   */\n      dup2\n        /* \"--CODEGEN--\":27:37   */\n      lt\n        /* \"--CODEGEN--\":8:108   */\n      iszero\n      tag_47\n      jumpi\n        /* \"--CODEGEN--\":99:100   */\n      dup1\n        /* \"--CODEGEN--\":94:97   */\n      dup3\n        /* \"--CODEGEN--\":90:101   */\n      add\n        /* \"--CODEGEN--\":84:102   */\n      mload\n        /* \"--CODEGEN--\":80:81   */\n      dup2\n        /* \"--CODEGEN--\":75:78   */\n      dup5\n        /* \"--CODEGEN--\":71:82   */\n      add\n        /* \"--CODEGEN--\":64:103   */\n      mstore\n        /* \"--CODEGEN--\":52:54   */\n      0x20\n        /* \"--CODEGEN--\":49:50   */\n      dup2\n        /* \"--CODEGEN--\":45:55   */\n      add\n        /* \"--CODEGEN--\":40:55   */\n      swap1\n      pop\n        /* \"--CODEGEN--\":8:108   */\n      jump(tag_46)\n    tag_47:\n        /* \"--CODEGEN--\":12:26   */\n      pop\n        /* \"contracts/Exchange.sol\":7749:9344  function getSellOrderBook(string symbolName) view public returns (uint[], uint[]) {... */\n      pop\n      pop\n      pop\n      swap1\n      pop\n      add\n      swap5\n      pop\n      pop\n      pop\n      pop\n      pop\n      mload(0x40)\n      dup1\n      swap2\n      sub\n      swap1\n      return\n        /* \"contracts/Exchange.sol\":21024:29363  function sellToken(string symbolName, uint priceInWei, uint amount) public {... */\n    tag_9:\n      callvalue\n        /* \"--CODEGEN--\":8:17   */\n      dup1\n        /* \"--CODEGEN--\":5:7   */\n      iszero\n      tag_49\n      jumpi\n        /* \"--CODEGEN--\":30:31   */\n      0x0\n        /* \"--CODEGEN--\":27:28   */\n      dup1\n        /* \"--CODEGEN--\":20:32   */\n      revert\n        /* \"--CODEGEN--\":5:7   */\n    tag_49:\n        /* \"contracts/Exchange.sol\":21024:29363  function sellToken(string symbolName, uint priceInWei, uint amount) public {... */\n      pop\n      tag_50\n      0x4\n      dup1\n      calldatasize\n      sub\n      dup2\n      add\n      swap1\n      dup1\n      dup1\n      calldataload\n      swap1\n      0x20\n      add\n      swap1\n      dup3\n      add\n      dup1\n      calldataload\n      swap1\n      0x20\n      add\n      swap1\n      dup1\n      dup1\n      0x1f\n      add\n      0x20\n      dup1\n      swap2\n      div\n      mul\n      0x20\n      add\n      mload(0x40)\n      swap1\n      dup2\n      add\n      0x40\n      mstore\n      dup1\n      swap4\n      swap3\n      swap2\n      swap1\n      dup2\n      dup2\n      mstore\n      0x20\n      add\n      dup4\n      dup4\n      dup1\n      dup3\n      dup5\n      calldatacopy\n      dup3\n      add\n      swap2\n      pop\n      pop\n      pop\n      pop\n      pop\n      pop\n      swap2\n      swap3\n      swap2\n      swap3\n      swap1\n      dup1\n      calldataload\n      swap1\n      0x20\n      add\n      swap1\n      swap3\n      swap2\n      swap1\n      dup1\n      calldataload\n      swap1\n      0x20\n      add\n      swap1\n      swap3\n      swap2\n      swap1\n      pop\n      pop\n      pop\n      jump(tag_51)\n    tag_50:\n      stop\n        /* \"contracts/Exchange.sol\":3660:3864  function hasToken(string symbolName) view public returns (bool) {... */\n    tag_10:\n      callvalue\n        /* \"--CODEGEN--\":8:17   */\n      dup1\n        /* \"--CODEGEN--\":5:7   */\n      iszero\n      tag_52\n      jumpi\n        /* \"--CODEGEN--\":30:31   */\n      0x0\n        /* \"--CODEGEN--\":27:28   */\n      dup1\n        /* \"--CODEGEN--\":20:32   */\n      revert\n        /* \"--CODEGEN--\":5:7   */\n    tag_52:\n        /* \"contracts/Exchange.sol\":3660:3864  function hasToken(string symbolName) view public returns (bool) {... */\n      pop\n      tag_53\n      0x4\n      dup1\n      calldatasize\n      sub\n      dup2\n      add\n      swap1\n      dup1\n      dup1\n      calldataload\n      swap1\n      0x20\n      add\n      swap1\n      dup3\n      add\n      dup1\n      calldataload\n      swap1\n      0x20\n      add\n      swap1\n      dup1\n      dup1\n      0x1f\n      add\n      0x20\n      dup1\n      swap2\n      div\n      mul\n      0x20\n      add\n      mload(0x40)\n      swap1\n      dup2\n      add\n      0x40\n      mstore\n      dup1\n      swap4\n      swap3\n      swap2\n      swap1\n      dup2\n      dup2\n      mstore\n      0x20\n      add\n      dup4\n      dup4\n      dup1\n      dup3\n      dup5\n      calldatacopy\n      dup3\n      add\n      swap2\n      pop\n      pop\n      pop\n      pop\n      pop\n      pop\n      swap2\n      swap3\n      swap2\n      swap3\n      swap1\n      pop\n      pop\n      pop\n      jump(tag_54)\n    tag_53:\n      mload(0x40)\n      dup1\n      dup3\n      iszero\n      iszero\n      iszero\n      iszero\n      dup2\n      mstore\n      0x20\n      add\n      swap2\n      pop\n      pop\n      mload(0x40)\n      dup1\n      swap2\n      sub\n      swap1\n      return\n        /* \"contracts/Exchange.sol\":4142:4327  function getSymbolIndexOrThrow(string symbolName) public view returns (uint8) {... */\n    tag_11:\n      callvalue\n        /* \"--CODEGEN--\":8:17   */\n      dup1\n        /* \"--CODEGEN--\":5:7   */\n      iszero\n      tag_55\n      jumpi\n        /* \"--CODEGEN--\":30:31   */\n      0x0\n        /* \"--CODEGEN--\":27:28   */\n      dup1\n        /* \"--CODEGEN--\":20:32   */\n      revert\n        /* \"--CODEGEN--\":5:7   */\n    tag_55:\n        /* \"contracts/Exchange.sol\":4142:4327  function getSymbolIndexOrThrow(string symbolName) public view returns (uint8) {... */\n      pop\n      tag_56\n      0x4\n      dup1\n      calldatasize\n      sub\n      dup2\n      add\n      swap1\n      dup1\n      dup1\n      calldataload\n      swap1\n      0x20\n      add\n      swap1\n      dup3\n      add\n      dup1\n      calldataload\n      swap1\n      0x20\n      add\n      swap1\n      dup1\n      dup1\n      0x1f\n      add\n      0x20\n      dup1\n      swap2\n      div\n      mul\n      0x20\n      add\n      mload(0x40)\n      swap1\n      dup2\n      add\n      0x40\n      mstore\n      dup1\n      swap4\n      swap3\n      swap2\n      swap1\n      dup2\n      dup2\n      mstore\n      0x20\n      add\n      dup4\n      dup4\n      dup1\n      dup3\n      dup5\n      calldatacopy\n      dup3\n      add\n      swap2\n      pop\n      pop\n      pop\n      pop\n      pop\n      pop\n      swap2\n      swap3\n      swap2\n      swap3\n      swap1\n      pop\n      pop\n      pop\n      jump(tag_57)\n    tag_56:\n      mload(0x40)\n      dup1\n      dup3\n      0xff\n      and\n      0xff\n      and\n      dup2\n      mstore\n      0x20\n      add\n      swap2\n      pop\n      pop\n      mload(0x40)\n      dup1\n      swap2\n      sub\n      swap1\n      return\n        /* \"contracts/Exchange.sol\":2421:2685  function depositEther() public payable {... */\n    tag_12:\n      tag_58\n      jump(tag_59)\n    tag_58:\n      stop\n        /* \"contracts/Exchange.sol\":3281:3654  function addToken(string symbolName, address erc20TokenAddress) public onlyowner {... */\n    tag_13:\n      callvalue\n        /* \"--CODEGEN--\":8:17   */\n      dup1\n        /* \"--CODEGEN--\":5:7   */\n      iszero\n      tag_60\n      jumpi\n        /* \"--CODEGEN--\":30:31   */\n      0x0\n        /* \"--CODEGEN--\":27:28   */\n      dup1\n        /* \"--CODEGEN--\":20:32   */\n      revert\n        /* \"--CODEGEN--\":5:7   */\n    tag_60:\n        /* \"contracts/Exchange.sol\":3281:3654  function addToken(string symbolName, address erc20TokenAddress) public onlyowner {... */\n      pop\n      tag_61\n      0x4\n      dup1\n      calldatasize\n      sub\n      dup2\n      add\n      swap1\n      dup1\n      dup1\n      calldataload\n      swap1\n      0x20\n      add\n      swap1\n      dup3\n      add\n      dup1\n      calldataload\n      swap1\n      0x20\n      add\n      swap1\n      dup1\n      dup1\n      0x1f\n      add\n      0x20\n      dup1\n      swap2\n      div\n      mul\n      0x20\n      add\n      mload(0x40)\n      swap1\n      dup2\n      add\n      0x40\n      mstore\n      dup1\n      swap4\n      swap3\n      swap2\n      swap1\n      dup2\n      dup2\n      mstore\n      0x20\n      add\n      dup4\n      dup4\n      dup1\n      dup3\n      dup5\n      calldatacopy\n      dup3\n      add\n      swap2\n      pop\n      pop\n      pop\n      pop\n      pop\n      pop\n      swap2\n      swap3\n      swap2\n      swap3\n      swap1\n      dup1\n      calldataload\n      0xffffffffffffffffffffffffffffffffffffffff\n      and\n      swap1\n      0x20\n      add\n      swap1\n      swap3\n      swap2\n      swap1\n      pop\n      pop\n      pop\n      jump(tag_62)\n    tag_61:\n      stop\n        /* \"contracts/Exchange.sol\":5120:5837  function withdrawToken(string symbolName, uint amount) public {... */\n    tag_14:\n      callvalue\n        /* \"--CODEGEN--\":8:17   */\n      dup1\n        /* \"--CODEGEN--\":5:7   */\n      iszero\n      tag_63\n      jumpi\n        /* \"--CODEGEN--\":30:31   */\n      0x0\n        /* \"--CODEGEN--\":27:28   */\n      dup1\n        /* \"--CODEGEN--\":20:32   */\n      revert\n        /* \"--CODEGEN--\":5:7   */\n    tag_63:\n        /* \"contracts/Exchange.sol\":5120:5837  function withdrawToken(string symbolName, uint amount) public {... */\n      pop\n      tag_64\n      0x4\n      dup1\n      calldatasize\n      sub\n      dup2\n      add\n      swap1\n      dup1\n      dup1\n      calldataload\n      swap1\n      0x20\n      add\n      swap1\n      dup3\n      add\n      dup1\n      calldataload\n      swap1\n      0x20\n      add\n      swap1\n      dup1\n      dup1\n      0x1f\n      add\n      0x20\n      dup1\n      swap2\n      div\n      mul\n      0x20\n      add\n      mload(0x40)\n      swap1\n      dup2\n      add\n      0x40\n      mstore\n      dup1\n      swap4\n      swap3\n      swap2\n      swap1\n      dup2\n      dup2\n      mstore\n      0x20\n      add\n      dup4\n      dup4\n      dup1\n      dup3\n      dup5\n      calldatacopy\n      dup3\n      add\n      swap2\n      pop\n      pop\n      pop\n      pop\n      pop\n      pop\n      swap2\n      swap3\n      swap2\n      swap3\n      swap1\n      dup1\n      calldataload\n      swap1\n      0x20\n      add\n      swap1\n      swap3\n      swap2\n      swap1\n      pop\n      pop\n      pop\n      jump(tag_65)\n    tag_64:\n      stop\n        /* \"contracts/Exchange.sol\":33127:34500  function cancelOrder(string symbolName, bool isSellOrder, uint priceInWei, uint offerKey) public {... */\n    tag_15:\n      callvalue\n        /* \"--CODEGEN--\":8:17   */\n      dup1\n        /* \"--CODEGEN--\":5:7   */\n      iszero\n      tag_66\n      jumpi\n        /* \"--CODEGEN--\":30:31   */\n      0x0\n        /* \"--CODEGEN--\":27:28   */\n      dup1\n        /* \"--CODEGEN--\":20:32   */\n      revert\n        /* \"--CODEGEN--\":5:7   */\n    tag_66:\n        /* \"contracts/Exchange.sol\":33127:34500  function cancelOrder(string symbolName, bool isSellOrder, uint priceInWei, uint offerKey) public {... */\n      pop\n      tag_67\n      0x4\n      dup1\n      calldatasize\n      sub\n      dup2\n      add\n      swap1\n      dup1\n      dup1\n      calldataload\n      swap1\n      0x20\n      add\n      swap1\n      dup3\n      add\n      dup1\n      calldataload\n      swap1\n      0x20\n      add\n      swap1\n      dup1\n      dup1\n      0x1f\n      add\n      0x20\n      dup1\n      swap2\n      div\n      mul\n      0x20\n      add\n      mload(0x40)\n      swap1\n      dup2\n      add\n      0x40\n      mstore\n      dup1\n      swap4\n      swap3\n      swap2\n      swap1\n      dup2\n      dup2\n      mstore\n      0x20\n      add\n      dup4\n      dup4\n      dup1\n      dup3\n      dup5\n      calldatacopy\n      dup3\n      add\n      swap2\n      pop\n      pop\n      pop\n      pop\n      pop\n      pop\n      swap2\n      swap3\n      swap2\n      swap3\n      swap1\n      dup1\n      calldataload\n      iszero\n      iszero\n      swap1\n      0x20\n      add\n      swap1\n      swap3\n      swap2\n      swap1\n      dup1\n      calldataload\n      swap1\n      0x20\n      add\n      swap1\n      swap3\n      swap2\n      swap1\n      dup1\n      calldataload\n      swap1\n      0x20\n      add\n      swap1\n      swap3\n      swap2\n      swap1\n      pop\n      pop\n      pop\n      jump(tag_68)\n    tag_67:\n      stop\n        /* \"contracts/Exchange.sol\":6161:7640  function getBuyOrderBook(string symbolName) view public returns (uint[], uint[]) {... */\n    tag_18:\n        /* \"contracts/Exchange.sol\":6226:6232  uint[] */\n      0x60\n        /* \"contracts/Exchange.sol\":6234:6240  uint[] */\n      dup1\n        /* \"contracts/Exchange.sol\":6252:6272  uint8 tokenNameIndex */\n      0x0\n        /* \"contracts/Exchange.sol\":6318:6344  uint[] memory arrPricesBuy */\n      0x60\n        /* \"contracts/Exchange.sol\":6407:6434  uint[] memory arrVolumesBuy */\n      dup1\n        /* \"contracts/Exchange.sol\":6498:6513  uint whilePrice */\n      0x0\n        /* \"contracts/Exchange.sol\":6563:6575  uint counter */\n      dup1\n        /* \"contracts/Exchange.sol\":6774:6792  uint volumeAtPrice */\n      0x0\n        /* \"contracts/Exchange.sol\":6814:6829  uint offers_key */\n      dup1\n        /* \"contracts/Exchange.sol\":6275:6308  getSymbolIndexOrThrow(symbolName) */\n      tag_70\n        /* \"contracts/Exchange.sol\":6297:6307  symbolName */\n      dup11\n        /* \"contracts/Exchange.sol\":6275:6296  getSymbolIndexOrThrow */\n      tag_57\n        /* \"contracts/Exchange.sol\":6275:6308  getSymbolIndexOrThrow(symbolName) */\n      jump\t// in\n    tag_70:\n        /* \"contracts/Exchange.sol\":6252:6308  uint8 tokenNameIndex = getSymbolIndexOrThrow(symbolName) */\n      swap7\n      pop\n        /* \"contracts/Exchange.sol\":6358:6364  tokens */\n      0x1\n        /* \"contracts/Exchange.sol\":6358:6380  tokens[tokenNameIndex] */\n      0x0\n        /* \"contracts/Exchange.sol\":6365:6379  tokenNameIndex */\n      dup9\n        /* \"contracts/Exchange.sol\":6358:6380  tokens[tokenNameIndex] */\n      0xff\n      and\n      0xff\n      and\n      dup2\n      mstore\n      0x20\n      add\n      swap1\n      dup2\n      mstore\n      0x20\n      add\n      0x0\n      keccak256\n        /* \"contracts/Exchange.sol\":6358:6396  tokens[tokenNameIndex].amountBuyPrices */\n      0x5\n      add\n      sload\n        /* \"contracts/Exchange.sol\":6347:6397  new uint[](tokens[tokenNameIndex].amountBuyPrices) */\n      mload(0x40)\n      swap1\n      dup1\n      dup3\n      mstore\n      dup1\n      0x20\n      mul\n      0x20\n      add\n      dup3\n      add\n      0x40\n      mstore\n      dup1\n      iszero\n      tag_71\n      jumpi\n      dup2\n      0x20\n      add\n        /* \"--CODEGEN--\":29:31   */\n      0x20\n        /* \"--CODEGEN--\":21:27   */\n      dup3\n        /* \"--CODEGEN--\":17:32   */\n      mul\n        /* \"--CODEGEN--\":117:121   */\n      dup1\n        /* \"--CODEGEN--\":105:115   */\n      codesize\n        /* \"--CODEGEN--\":97:103   */\n      dup4\n        /* \"--CODEGEN--\":88:122   */\n      codecopy\n        /* \"--CODEGEN--\":148:152   */\n      dup1\n        /* \"--CODEGEN--\":140:146   */\n      dup3\n        /* \"--CODEGEN--\":136:153   */\n      add\n        /* \"--CODEGEN--\":126:153   */\n      swap2\n      pop\n        /* \"--CODEGEN--\":0:157   */\n      pop\n        /* \"contracts/Exchange.sol\":6347:6397  new uint[](tokens[tokenNameIndex].amountBuyPrices) */\n      swap1\n      pop\n    tag_71:\n      pop\n        /* \"contracts/Exchange.sol\":6318:6397  uint[] memory arrPricesBuy = new uint[](tokens[tokenNameIndex].amountBuyPrices) */\n      swap6\n      pop\n        /* \"contracts/Exchange.sol\":6448:6454  tokens */\n      0x1\n        /* \"contracts/Exchange.sol\":6448:6470  tokens[tokenNameIndex] */\n      0x0\n        /* \"contracts/Exchange.sol\":6455:6469  tokenNameIndex */\n      dup9\n        /* \"contracts/Exchange.sol\":6448:6470  tokens[tokenNameIndex] */\n      0xff\n      and\n      0xff\n      and\n      dup2\n      mstore\n      0x20\n      add\n      swap1\n      dup2\n      mstore\n      0x20\n      add\n      0x0\n      keccak256\n        /* \"contracts/Exchange.sol\":6448:6486  tokens[tokenNameIndex].amountBuyPrices */\n      0x5\n      add\n      sload\n        /* \"contracts/Exchange.sol\":6437:6487  new uint[](tokens[tokenNameIndex].amountBuyPrices) */\n      mload(0x40)\n      swap1\n      dup1\n      dup3\n      mstore\n      dup1\n      0x20\n      mul\n      0x20\n      add\n      dup3\n      add\n      0x40\n      mstore\n      dup1\n      iszero\n      tag_72\n      jumpi\n      dup2\n      0x20\n      add\n        /* \"--CODEGEN--\":29:31   */\n      0x20\n        /* \"--CODEGEN--\":21:27   */\n      dup3\n        /* \"--CODEGEN--\":17:32   */\n      mul\n        /* \"--CODEGEN--\":117:121   */\n      dup1\n        /* \"--CODEGEN--\":105:115   */\n      codesize\n        /* \"--CODEGEN--\":97:103   */\n      dup4\n        /* \"--CODEGEN--\":88:122   */\n      codecopy\n        /* \"--CODEGEN--\":148:152   */\n      dup1\n        /* \"--CODEGEN--\":140:146   */\n      dup3\n        /* \"--CODEGEN--\":136:153   */\n      add\n        /* \"--CODEGEN--\":126:153   */\n      swap2\n      pop\n        /* \"--CODEGEN--\":0:157   */\n      pop\n        /* \"contracts/Exchange.sol\":6437:6487  new uint[](tokens[tokenNameIndex].amountBuyPrices) */\n      swap1\n      pop\n    tag_72:\n      pop\n        /* \"contracts/Exchange.sol\":6407:6487  uint[] memory arrVolumesBuy = new uint[](tokens[tokenNameIndex].amountBuyPrices) */\n      swap5\n      pop\n        /* \"contracts/Exchange.sol\":6516:6522  tokens */\n      0x1\n        /* \"contracts/Exchange.sol\":6516:6538  tokens[tokenNameIndex] */\n      0x0\n        /* \"contracts/Exchange.sol\":6523:6537  tokenNameIndex */\n      dup9\n        /* \"contracts/Exchange.sol\":6516:6538  tokens[tokenNameIndex] */\n      0xff\n      and\n      0xff\n      and\n      dup2\n      mstore\n      0x20\n      add\n      swap1\n      dup2\n      mstore\n      0x20\n      add\n      0x0\n      keccak256\n        /* \"contracts/Exchange.sol\":6516:6553  tokens[tokenNameIndex].lowestBuyPrice */\n      0x4\n      add\n      sload\n        /* \"contracts/Exchange.sol\":6498:6553  uint whilePrice = tokens[tokenNameIndex].lowestBuyPrice */\n      swap4\n      pop\n        /* \"contracts/Exchange.sol\":6578:6579  0 */\n      0x0\n        /* \"contracts/Exchange.sol\":6563:6579  uint counter = 0 */\n      swap3\n      pop\n        /* \"contracts/Exchange.sol\":6630:6631  0 */\n      0x0\n        /* \"contracts/Exchange.sol\":6593:6599  tokens */\n      0x1\n        /* \"contracts/Exchange.sol\":6593:6615  tokens[tokenNameIndex] */\n      0x0\n        /* \"contracts/Exchange.sol\":6600:6614  tokenNameIndex */\n      dup10\n        /* \"contracts/Exchange.sol\":6593:6615  tokens[tokenNameIndex] */\n      0xff\n      and\n      0xff\n      and\n      dup2\n      mstore\n      0x20\n      add\n      swap1\n      dup2\n      mstore\n      0x20\n      add\n      0x0\n      keccak256\n        /* \"contracts/Exchange.sol\":6593:6627  tokens[tokenNameIndex].curBuyPrice */\n      0x3\n      add\n      sload\n        /* \"contracts/Exchange.sol\":6593:6631  tokens[tokenNameIndex].curBuyPrice > 0 */\n      gt\n        /* \"contracts/Exchange.sol\":6589:7586  if (tokens[tokenNameIndex].curBuyPrice > 0) {... */\n      iszero\n      tag_73\n      jumpi\n        /* \"contracts/Exchange.sol\":6647:7576  while (whilePrice <= tokens[tokenNameIndex].curBuyPrice) {... */\n    tag_74:\n        /* \"contracts/Exchange.sol\":6668:6674  tokens */\n      0x1\n        /* \"contracts/Exchange.sol\":6668:6690  tokens[tokenNameIndex] */\n      0x0\n        /* \"contracts/Exchange.sol\":6675:6689  tokenNameIndex */\n      dup9\n        /* \"contracts/Exchange.sol\":6668:6690  tokens[tokenNameIndex] */\n      0xff\n      and\n      0xff\n      and\n      dup2\n      mstore\n      0x20\n      add\n      swap1\n      dup2\n      mstore\n      0x20\n      add\n      0x0\n      keccak256\n        /* \"contracts/Exchange.sol\":6668:6702  tokens[tokenNameIndex].curBuyPrice */\n      0x3\n      add\n      sload\n        /* \"contracts/Exchange.sol\":6654:6664  whilePrice */\n      dup5\n        /* \"contracts/Exchange.sol\":6654:6702  whilePrice <= tokens[tokenNameIndex].curBuyPrice */\n      gt\n      iszero\n        /* \"contracts/Exchange.sol\":6647:7576  while (whilePrice <= tokens[tokenNameIndex].curBuyPrice) {... */\n      iszero\n      tag_75\n      jumpi\n        /* \"contracts/Exchange.sol\":6746:6756  whilePrice */\n      dup4\n        /* \"contracts/Exchange.sol\":6722:6734  arrPricesBuy */\n      dup7\n        /* \"contracts/Exchange.sol\":6735:6742  counter */\n      dup5\n        /* \"contracts/Exchange.sol\":6722:6743  arrPricesBuy[counter] */\n      dup2\n      mload\n      dup2\n      lt\n      iszero\n      iszero\n      tag_76\n      jumpi\n      invalid\n    tag_76:\n      swap1\n      0x20\n      add\n      swap1\n      0x20\n      mul\n      add\n        /* \"contracts/Exchange.sol\":6722:6756  arrPricesBuy[counter] = whilePrice */\n      dup2\n      dup2\n      mstore\n      pop\n      pop\n        /* \"contracts/Exchange.sol\":6795:6796  0 */\n      0x0\n        /* \"contracts/Exchange.sol\":6774:6796  uint volumeAtPrice = 0 */\n      swap2\n      pop\n        /* \"contracts/Exchange.sol\":6832:6833  0 */\n      0x0\n        /* \"contracts/Exchange.sol\":6814:6833  uint offers_key = 0 */\n      swap1\n      pop\n        /* \"contracts/Exchange.sol\":6865:6871  tokens */\n      0x1\n        /* \"contracts/Exchange.sol\":6865:6887  tokens[tokenNameIndex] */\n      0x0\n        /* \"contracts/Exchange.sol\":6872:6886  tokenNameIndex */\n      dup9\n        /* \"contracts/Exchange.sol\":6865:6887  tokens[tokenNameIndex] */\n      0xff\n      and\n      0xff\n      and\n      dup2\n      mstore\n      0x20\n      add\n      swap1\n      dup2\n      mstore\n      0x20\n      add\n      0x0\n      keccak256\n        /* \"contracts/Exchange.sol\":6865:6895  tokens[tokenNameIndex].buyBook */\n      0x2\n      add\n        /* \"contracts/Exchange.sol\":6865:6907  tokens[tokenNameIndex].buyBook[whilePrice] */\n      0x0\n        /* \"contracts/Exchange.sol\":6896:6906  whilePrice */\n      dup6\n        /* \"contracts/Exchange.sol\":6865:6907  tokens[tokenNameIndex].buyBook[whilePrice] */\n      dup2\n      mstore\n      0x20\n      add\n      swap1\n      dup2\n      mstore\n      0x20\n      add\n      0x0\n      keccak256\n        /* \"contracts/Exchange.sol\":6865:6918  tokens[tokenNameIndex].buyBook[whilePrice].offers_key */\n      0x3\n      add\n      sload\n        /* \"contracts/Exchange.sol\":6852:6918  offers_key = tokens[tokenNameIndex].buyBook[whilePrice].offers_key */\n      swap1\n      pop\n        /* \"contracts/Exchange.sol\":6936:7175  while (offers_key <= tokens[tokenNameIndex].buyBook[whilePrice].offers_length) {... */\n    tag_77:\n        /* \"contracts/Exchange.sol\":6957:6963  tokens */\n      0x1\n        /* \"contracts/Exchange.sol\":6957:6979  tokens[tokenNameIndex] */\n      0x0\n        /* \"contracts/Exchange.sol\":6964:6978  tokenNameIndex */\n      dup9\n        /* \"contracts/Exchange.sol\":6957:6979  tokens[tokenNameIndex] */\n      0xff\n      and\n      0xff\n      and\n      dup2\n      mstore\n      0x20\n      add\n      swap1\n      dup2\n      mstore\n      0x20\n      add\n      0x0\n      keccak256\n        /* \"contracts/Exchange.sol\":6957:6987  tokens[tokenNameIndex].buyBook */\n      0x2\n      add\n        /* \"contracts/Exchange.sol\":6957:6999  tokens[tokenNameIndex].buyBook[whilePrice] */\n      0x0\n        /* \"contracts/Exchange.sol\":6988:6998  whilePrice */\n      dup6\n        /* \"contracts/Exchange.sol\":6957:6999  tokens[tokenNameIndex].buyBook[whilePrice] */\n      dup2\n      mstore\n      0x20\n      add\n      swap1\n      dup2\n      mstore\n      0x20\n      add\n      0x0\n      keccak256\n        /* \"contracts/Exchange.sol\":6957:7013  tokens[tokenNameIndex].buyBook[whilePrice].offers_length */\n      0x4\n      add\n      sload\n        /* \"contracts/Exchange.sol\":6943:6953  offers_key */\n      dup2\n        /* \"contracts/Exchange.sol\":6943:7013  offers_key <= tokens[tokenNameIndex].buyBook[whilePrice].offers_length */\n      gt\n      iszero\n        /* \"contracts/Exchange.sol\":6936:7175  while (offers_key <= tokens[tokenNameIndex].buyBook[whilePrice].offers_length) {... */\n      iszero\n      tag_78\n      jumpi\n        /* \"contracts/Exchange.sol\":7054:7060  tokens */\n      0x1\n        /* \"contracts/Exchange.sol\":7054:7076  tokens[tokenNameIndex] */\n      0x0\n        /* \"contracts/Exchange.sol\":7061:7075  tokenNameIndex */\n      dup9\n        /* \"contracts/Exchange.sol\":7054:7076  tokens[tokenNameIndex] */\n      0xff\n      and\n      0xff\n      and\n      dup2\n      mstore\n      0x20\n      add\n      swap1\n      dup2\n      mstore\n      0x20\n      add\n      0x0\n      keccak256\n        /* \"contracts/Exchange.sol\":7054:7084  tokens[tokenNameIndex].buyBook */\n      0x2\n      add\n        /* \"contracts/Exchange.sol\":7054:7096  tokens[tokenNameIndex].buyBook[whilePrice] */\n      0x0\n        /* \"contracts/Exchange.sol\":7085:7095  whilePrice */\n      dup6\n        /* \"contracts/Exchange.sol\":7054:7096  tokens[tokenNameIndex].buyBook[whilePrice] */\n      dup2\n      mstore\n      0x20\n      add\n      swap1\n      dup2\n      mstore\n      0x20\n      add\n      0x0\n      keccak256\n        /* \"contracts/Exchange.sol\":7054:7103  tokens[tokenNameIndex].buyBook[whilePrice].offers */\n      0x2\n      add\n        /* \"contracts/Exchange.sol\":7054:7115  tokens[tokenNameIndex].buyBook[whilePrice].offers[offers_key] */\n      0x0\n        /* \"contracts/Exchange.sol\":7104:7114  offers_key */\n      dup3\n        /* \"contracts/Exchange.sol\":7054:7115  tokens[tokenNameIndex].buyBook[whilePrice].offers[offers_key] */\n      dup2\n      mstore\n      0x20\n      add\n      swap1\n      dup2\n      mstore\n      0x20\n      add\n      0x0\n      keccak256\n        /* \"contracts/Exchange.sol\":7054:7122  tokens[tokenNameIndex].buyBook[whilePrice].offers[offers_key].amount */\n      0x0\n      add\n      sload\n        /* \"contracts/Exchange.sol\":7037:7122  volumeAtPrice += tokens[tokenNameIndex].buyBook[whilePrice].offers[offers_key].amount */\n      dup3\n      add\n      swap2\n      pop\n        /* \"contracts/Exchange.sol\":7144:7156  offers_key++ */\n      dup1\n      dup1\n      0x1\n      add\n      swap2\n      pop\n      pop\n        /* \"contracts/Exchange.sol\":6936:7175  while (offers_key <= tokens[tokenNameIndex].buyBook[whilePrice].offers_length) {... */\n      jump(tag_77)\n    tag_78:\n        /* \"contracts/Exchange.sol\":7218:7231  volumeAtPrice */\n      dup2\n        /* \"contracts/Exchange.sol\":7193:7206  arrVolumesBuy */\n      dup6\n        /* \"contracts/Exchange.sol\":7207:7214  counter */\n      dup5\n        /* \"contracts/Exchange.sol\":7193:7215  arrVolumesBuy[counter] */\n      dup2\n      mload\n      dup2\n      lt\n      iszero\n      iszero\n      tag_79\n      jumpi\n      invalid\n    tag_79:\n      swap1\n      0x20\n      add\n      swap1\n      0x20\n      mul\n      add\n        /* \"contracts/Exchange.sol\":7193:7231  arrVolumesBuy[counter] = volumeAtPrice */\n      dup2\n      dup2\n      mstore\n      pop\n      pop\n        /* \"contracts/Exchange.sol\":7302:7308  tokens */\n      0x1\n        /* \"contracts/Exchange.sol\":7302:7324  tokens[tokenNameIndex] */\n      0x0\n        /* \"contracts/Exchange.sol\":7309:7323  tokenNameIndex */\n      dup9\n        /* \"contracts/Exchange.sol\":7302:7324  tokens[tokenNameIndex] */\n      0xff\n      and\n      0xff\n      and\n      dup2\n      mstore\n      0x20\n      add\n      swap1\n      dup2\n      mstore\n      0x20\n      add\n      0x0\n      keccak256\n        /* \"contracts/Exchange.sol\":7302:7332  tokens[tokenNameIndex].buyBook */\n      0x2\n      add\n        /* \"contracts/Exchange.sol\":7302:7344  tokens[tokenNameIndex].buyBook[whilePrice] */\n      0x0\n        /* \"contracts/Exchange.sol\":7333:7343  whilePrice */\n      dup6\n        /* \"contracts/Exchange.sol\":7302:7344  tokens[tokenNameIndex].buyBook[whilePrice] */\n      dup2\n      mstore\n      0x20\n      add\n      swap1\n      dup2\n      mstore\n      0x20\n      add\n      0x0\n      keccak256\n        /* \"contracts/Exchange.sol\":7302:7356  tokens[tokenNameIndex].buyBook[whilePrice].higherPrice */\n      0x0\n      add\n      sload\n        /* \"contracts/Exchange.sol\":7288:7298  whilePrice */\n      dup5\n        /* \"contracts/Exchange.sol\":7288:7356  whilePrice == tokens[tokenNameIndex].buyBook[whilePrice].higherPrice */\n      eq\n        /* \"contracts/Exchange.sol\":7284:7534  if (whilePrice == tokens[tokenNameIndex].buyBook[whilePrice].higherPrice) {... */\n      iszero\n      tag_80\n      jumpi\n        /* \"contracts/Exchange.sol\":7380:7385  break */\n      jump(tag_75)\n        /* \"contracts/Exchange.sol\":7284:7534  if (whilePrice == tokens[tokenNameIndex].buyBook[whilePrice].higherPrice) {... */\n    tag_80:\n        /* \"contracts/Exchange.sol\":7461:7467  tokens */\n      0x1\n        /* \"contracts/Exchange.sol\":7461:7483  tokens[tokenNameIndex] */\n      0x0\n        /* \"contracts/Exchange.sol\":7468:7482  tokenNameIndex */\n      dup9\n        /* \"contracts/Exchange.sol\":7461:7483  tokens[tokenNameIndex] */\n      0xff\n      and\n      0xff\n      and\n      dup2\n      mstore\n      0x20\n      add\n      swap1\n      dup2\n      mstore\n      0x20\n      add\n      0x0\n      keccak256\n        /* \"contracts/Exchange.sol\":7461:7491  tokens[tokenNameIndex].buyBook */\n      0x2\n      add\n        /* \"contracts/Exchange.sol\":7461:7503  tokens[tokenNameIndex].buyBook[whilePrice] */\n      0x0\n        /* \"contracts/Exchange.sol\":7492:7502  whilePrice */\n      dup6\n        /* \"contracts/Exchange.sol\":7461:7503  tokens[tokenNameIndex].buyBook[whilePrice] */\n      dup2\n      mstore\n      0x20\n      add\n      swap1\n      dup2\n      mstore\n      0x20\n      add\n      0x0\n      keccak256\n        /* \"contracts/Exchange.sol\":7461:7515  tokens[tokenNameIndex].buyBook[whilePrice].higherPrice */\n      0x0\n      add\n      sload\n        /* \"contracts/Exchange.sol\":7448:7515  whilePrice = tokens[tokenNameIndex].buyBook[whilePrice].higherPrice */\n      swap4\n      pop\n        /* \"contracts/Exchange.sol\":7551:7560  counter++ */\n      dup3\n      dup1\n      0x1\n      add\n      swap4\n      pop\n      pop\n        /* \"contracts/Exchange.sol\":6647:7576  while (whilePrice <= tokens[tokenNameIndex].curBuyPrice) {... */\n      jump(tag_74)\n    tag_75:\n        /* \"contracts/Exchange.sol\":6589:7586  if (tokens[tokenNameIndex].curBuyPrice > 0) {... */\n    tag_73:\n        /* \"contracts/Exchange.sol\":7604:7616  arrPricesBuy */\n      dup6\n        /* \"contracts/Exchange.sol\":7618:7631  arrVolumesBuy */\n      dup6\n        /* \"contracts/Exchange.sol\":7596:7632  return (arrPricesBuy, arrVolumesBuy) */\n      swap9\n      pop\n      swap9\n      pop\n        /* \"contracts/Exchange.sol\":6161:7640  function getBuyOrderBook(string symbolName) view public returns (uint[], uint[]) {... */\n      pop\n      pop\n      pop\n      pop\n      pop\n      pop\n      pop\n      swap2\n      pop\n      swap2\n      jump\t// out\n        /* \"contracts/Exchange.sol\":3080:3192  function getEthBalanceInWei() view public returns (uint){... */\n    tag_27:\n        /* \"contracts/Exchange.sol\":3131:3135  uint */\n      0x0\n        /* \"contracts/Exchange.sol\":3153:3173  balanceEthForAddress */\n      0x4\n        /* \"contracts/Exchange.sol\":3153:3185  balanceEthForAddress[msg.sender] */\n      0x0\n        /* \"contracts/Exchange.sol\":3174:3184  msg.sender */\n      caller\n        /* \"contracts/Exchange.sol\":3153:3185  balanceEthForAddress[msg.sender] */\n      0xffffffffffffffffffffffffffffffffffffffff\n      and\n      0xffffffffffffffffffffffffffffffffffffffff\n      and\n      dup2\n      mstore\n      0x20\n      add\n      swap1\n      dup2\n      mstore\n      0x20\n      add\n      0x0\n      keccak256\n      sload\n        /* \"contracts/Exchange.sol\":3146:3185  return balanceEthForAddress[msg.sender] */\n      swap1\n      pop\n        /* \"contracts/Exchange.sol\":3080:3192  function getEthBalanceInWei() view public returns (uint){... */\n      swap1\n      jump\t// out\n        /* \"contracts/Exchange.sol\":4456:5114  function depositToken(string symbolName, uint amount) public {... */\n    tag_30:\n        /* \"contracts/Exchange.sol\":4527:4548  uint8 symbolNameIndex */\n      0x0\n        /* \"contracts/Exchange.sol\":4665:4685  ERC20Interface token */\n      dup1\n        /* \"contracts/Exchange.sol\":4551:4584  getSymbolIndexOrThrow(symbolName) */\n      tag_84\n        /* \"contracts/Exchange.sol\":4573:4583  symbolName */\n      dup5\n        /* \"contracts/Exchange.sol\":4551:4572  getSymbolIndexOrThrow */\n      tag_57\n        /* \"contracts/Exchange.sol\":4551:4584  getSymbolIndexOrThrow(symbolName) */\n      jump\t// in\n    tag_84:\n        /* \"contracts/Exchange.sol\":4527:4584  uint8 symbolNameIndex = getSymbolIndexOrThrow(symbolName) */\n      swap2\n      pop\n        /* \"contracts/Exchange.sol\":4651:4652  0 */\n      0x0\n        /* \"contracts/Exchange.sol\":4602:4653  tokens[symbolNameIndex].tokenContract != address(0) */\n      0xffffffffffffffffffffffffffffffffffffffff\n      and\n        /* \"contracts/Exchange.sol\":4602:4608  tokens */\n      0x1\n        /* \"contracts/Exchange.sol\":4602:4625  tokens[symbolNameIndex] */\n      0x0\n        /* \"contracts/Exchange.sol\":4609:4624  symbolNameIndex */\n      dup5\n        /* \"contracts/Exchange.sol\":4602:4625  tokens[symbolNameIndex] */\n      0xff\n      and\n      0xff\n      and\n      dup2\n      mstore\n      0x20\n      add\n      swap1\n      dup2\n      mstore\n      0x20\n      add\n      0x0\n      keccak256\n        /* \"contracts/Exchange.sol\":4602:4639  tokens[symbolNameIndex].tokenContract */\n      0x0\n      add\n      0x0\n      swap1\n      sload\n      swap1\n      0x100\n      exp\n      swap1\n      div\n      0xffffffffffffffffffffffffffffffffffffffff\n      and\n        /* \"contracts/Exchange.sol\":4602:4653  tokens[symbolNameIndex].tokenContract != address(0) */\n      0xffffffffffffffffffffffffffffffffffffffff\n      and\n      eq\n      iszero\n        /* \"contracts/Exchange.sol\":4594:4654  require(tokens[symbolNameIndex].tokenContract != address(0)) */\n      iszero\n      iszero\n      tag_85\n      jumpi\n      0x0\n      dup1\n      revert\n    tag_85:\n        /* \"contracts/Exchange.sol\":4703:4709  tokens */\n      0x1\n        /* \"contracts/Exchange.sol\":4703:4726  tokens[symbolNameIndex] */\n      0x0\n        /* \"contracts/Exchange.sol\":4710:4725  symbolNameIndex */\n      dup4\n        /* \"contracts/Exchange.sol\":4703:4726  tokens[symbolNameIndex] */\n      0xff\n      and\n      0xff\n      and\n      dup2\n      mstore\n      0x20\n      add\n      swap1\n      dup2\n      mstore\n      0x20\n      add\n      0x0\n      keccak256\n        /* \"contracts/Exchange.sol\":4703:4740  tokens[symbolNameIndex].tokenContract */\n      0x0\n      add\n      0x0\n      swap1\n      sload\n      swap1\n      0x100\n      exp\n      swap1\n      div\n      0xffffffffffffffffffffffffffffffffffffffff\n      and\n        /* \"contracts/Exchange.sol\":4665:4741  ERC20Interface token = ERC20Interface(tokens[symbolNameIndex].tokenContract) */\n      swap1\n      pop\n        /* \"contracts/Exchange.sol\":4817:4821  true */\n      0x1\n        /* \"contracts/Exchange.sol\":4760:4821  token.transferFrom(msg.sender, address(this), amount) == true */\n      iszero\n      iszero\n        /* \"contracts/Exchange.sol\":4760:4765  token */\n      dup2\n        /* \"contracts/Exchange.sol\":4760:4778  token.transferFrom */\n      0xffffffffffffffffffffffffffffffffffffffff\n      and\n      0x23b872dd\n        /* \"contracts/Exchange.sol\":4779:4789  msg.sender */\n      caller\n        /* \"contracts/Exchange.sol\":4799:4803  this */\n      address\n        /* \"contracts/Exchange.sol\":4806:4812  amount */\n      dup8\n        /* \"contracts/Exchange.sol\":4760:4813  token.transferFrom(msg.sender, address(this), amount) */\n      mload(0x40)\n      dup5\n      0xffffffff\n      and\n      0x100000000000000000000000000000000000000000000000000000000\n      mul\n      dup2\n      mstore\n      0x4\n      add\n      dup1\n      dup5\n      0xffffffffffffffffffffffffffffffffffffffff\n      and\n      0xffffffffffffffffffffffffffffffffffffffff\n      and\n      dup2\n      mstore\n      0x20\n      add\n      dup4\n      0xffffffffffffffffffffffffffffffffffffffff\n      and\n      0xffffffffffffffffffffffffffffffffffffffff\n      and\n      dup2\n      mstore\n      0x20\n      add\n      dup3\n      dup2\n      mstore\n      0x20\n      add\n      swap4\n      pop\n      pop\n      pop\n      pop\n      0x20\n      mload(0x40)\n      dup1\n      dup4\n      sub\n      dup2\n      0x0\n      dup8\n      dup1\n      extcodesize\n      iszero\n        /* \"--CODEGEN--\":8:17   */\n      dup1\n        /* \"--CODEGEN--\":5:7   */\n      iszero\n      tag_86\n      jumpi\n        /* \"--CODEGEN--\":30:31   */\n      0x0\n        /* \"--CODEGEN--\":27:28   */\n      dup1\n        /* \"--CODEGEN--\":20:32   */\n      revert\n        /* \"--CODEGEN--\":5:7   */\n    tag_86:\n        /* \"contracts/Exchange.sol\":4760:4813  token.transferFrom(msg.sender, address(this), amount) */\n      pop\n      gas\n      call\n      iszero\n        /* \"--CODEGEN--\":8:17   */\n      dup1\n        /* \"--CODEGEN--\":5:7   */\n      iszero\n      tag_87\n      jumpi\n        /* \"--CODEGEN--\":45:61   */\n      returndatasize\n        /* \"--CODEGEN--\":42:43   */\n      0x0\n        /* \"--CODEGEN--\":39:40   */\n      dup1\n        /* \"--CODEGEN--\":24:62   */\n      returndatacopy\n        /* \"--CODEGEN--\":77:93   */\n      returndatasize\n        /* \"--CODEGEN--\":74:75   */\n      0x0\n        /* \"--CODEGEN--\":67:94   */\n      revert\n        /* \"--CODEGEN--\":5:7   */\n    tag_87:\n        /* \"contracts/Exchange.sol\":4760:4813  token.transferFrom(msg.sender, address(this), amount) */\n      pop\n      pop\n      pop\n      pop\n      mload(0x40)\n      returndatasize\n        /* \"--CODEGEN--\":13:15   */\n      0x20\n        /* \"--CODEGEN--\":8:11   */\n      dup2\n        /* \"--CODEGEN--\":5:16   */\n      lt\n        /* \"--CODEGEN--\":2:4   */\n      iszero\n      tag_88\n      jumpi\n        /* \"--CODEGEN--\":29:30   */\n      0x0\n        /* \"--CODEGEN--\":26:27   */\n      dup1\n        /* \"--CODEGEN--\":19:31   */\n      revert\n        /* \"--CODEGEN--\":2:4   */\n    tag_88:\n        /* \"contracts/Exchange.sol\":4760:4813  token.transferFrom(msg.sender, address(this), amount) */\n      dup2\n      add\n      swap1\n      dup1\n      dup1\n      mload\n      swap1\n      0x20\n      add\n      swap1\n      swap3\n      swap2\n      swap1\n      pop\n      pop\n      pop\n        /* \"contracts/Exchange.sol\":4760:4821  token.transferFrom(msg.sender, address(this), amount) == true */\n      iszero\n      iszero\n      eq\n        /* \"contracts/Exchange.sol\":4752:4822  require(token.transferFrom(msg.sender, address(this), amount) == true) */\n      iszero\n      iszero\n      tag_89\n      jumpi\n      0x0\n      dup1\n      revert\n    tag_89:\n        /* \"contracts/Exchange.sol\":4904:4926  tokenBalanceForAddress */\n      0x3\n        /* \"contracts/Exchange.sol\":4904:4938  tokenBalanceForAddress[msg.sender] */\n      0x0\n        /* \"contracts/Exchange.sol\":4927:4937  msg.sender */\n      caller\n        /* \"contracts/Exchange.sol\":4904:4938  tokenBalanceForAddress[msg.sender] */\n      0xffffffffffffffffffffffffffffffffffffffff\n      and\n      0xffffffffffffffffffffffffffffffffffffffff\n      and\n      dup2\n      mstore\n      0x20\n      add\n      swap1\n      dup2\n      mstore\n      0x20\n      add\n      0x0\n      keccak256\n        /* \"contracts/Exchange.sol\":4904:4955  tokenBalanceForAddress[msg.sender][symbolNameIndex] */\n      0x0\n        /* \"contracts/Exchange.sol\":4939:4954  symbolNameIndex */\n      dup4\n        /* \"contracts/Exchange.sol\":4904:4955  tokenBalanceForAddress[msg.sender][symbolNameIndex] */\n      0xff\n      and\n      0xff\n      and\n      dup2\n      mstore\n      0x20\n      add\n      swap1\n      dup2\n      mstore\n      0x20\n      add\n      0x0\n      keccak256\n      sload\n        /* \"contracts/Exchange.sol\":4894:4900  amount */\n      dup4\n        /* \"contracts/Exchange.sol\":4840:4862  tokenBalanceForAddress */\n      0x3\n        /* \"contracts/Exchange.sol\":4840:4874  tokenBalanceForAddress[msg.sender] */\n      0x0\n        /* \"contracts/Exchange.sol\":4863:4873  msg.sender */\n      caller\n        /* \"contracts/Exchange.sol\":4840:4874  tokenBalanceForAddress[msg.sender] */\n      0xffffffffffffffffffffffffffffffffffffffff\n      and\n      0xffffffffffffffffffffffffffffffffffffffff\n      and\n      dup2\n      mstore\n      0x20\n      add\n      swap1\n      dup2\n      mstore\n      0x20\n      add\n      0x0\n      keccak256\n        /* \"contracts/Exchange.sol\":4840:4891  tokenBalanceForAddress[msg.sender][symbolNameIndex] */\n      0x0\n        /* \"contracts/Exchange.sol\":4875:4890  symbolNameIndex */\n      dup6\n        /* \"contracts/Exchange.sol\":4840:4891  tokenBalanceForAddress[msg.sender][symbolNameIndex] */\n      0xff\n      and\n      0xff\n      and\n      dup2\n      mstore\n      0x20\n      add\n      swap1\n      dup2\n      mstore\n      0x20\n      add\n      0x0\n      keccak256\n      sload\n        /* \"contracts/Exchange.sol\":4840:4900  tokenBalanceForAddress[msg.sender][symbolNameIndex] + amount */\n      add\n        /* \"contracts/Exchange.sol\":4840:4955  tokenBalanceForAddress[msg.sender][symbolNameIndex] + amount >= tokenBalanceForAddress[msg.sender][symbolNameIndex] */\n      lt\n      iszero\n        /* \"contracts/Exchange.sol\":4832:4956  require(tokenBalanceForAddress[msg.sender][symbolNameIndex] + amount >= tokenBalanceForAddress[msg.sender][symbolNameIndex]) */\n      iszero\n      iszero\n      tag_90\n      jumpi\n      0x0\n      dup1\n      revert\n    tag_90:\n        /* \"contracts/Exchange.sol\":5021:5027  amount */\n      dup3\n        /* \"contracts/Exchange.sol\":4966:4988  tokenBalanceForAddress */\n      0x3\n        /* \"contracts/Exchange.sol\":4966:5000  tokenBalanceForAddress[msg.sender] */\n      0x0\n        /* \"contracts/Exchange.sol\":4989:4999  msg.sender */\n      caller\n        /* \"contracts/Exchange.sol\":4966:5000  tokenBalanceForAddress[msg.sender] */\n      0xffffffffffffffffffffffffffffffffffffffff\n      and\n      0xffffffffffffffffffffffffffffffffffffffff\n      and\n      dup2\n      mstore\n      0x20\n      add\n      swap1\n      dup2\n      mstore\n      0x20\n      add\n      0x0\n      keccak256\n        /* \"contracts/Exchange.sol\":4966:5017  tokenBalanceForAddress[msg.sender][symbolNameIndex] */\n      0x0\n        /* \"contracts/Exchange.sol\":5001:5016  symbolNameIndex */\n      dup5\n        /* \"contracts/Exchange.sol\":4966:5017  tokenBalanceForAddress[msg.sender][symbolNameIndex] */\n      0xff\n      and\n      0xff\n      and\n      dup2\n      mstore\n      0x20\n      add\n      swap1\n      dup2\n      mstore\n      0x20\n      add\n      0x0\n      keccak256\n      0x0\n        /* \"contracts/Exchange.sol\":4966:5027  tokenBalanceForAddress[msg.sender][symbolNameIndex] += amount */\n      dup3\n      dup3\n      sload\n      add\n      swap3\n      pop\n      pop\n      dup2\n      swap1\n      sstore\n      pop\n        /* \"contracts/Exchange.sol\":5078:5093  symbolNameIndex */\n      dup2\n        /* \"contracts/Exchange.sol\":5042:5107  DepositForTokenReceived(msg.sender, symbolNameIndex, amount, now) */\n      0xff\n      and\n        /* \"contracts/Exchange.sol\":5066:5076  msg.sender */\n      caller\n        /* \"contracts/Exchange.sol\":5042:5107  DepositForTokenReceived(msg.sender, symbolNameIndex, amount, now) */\n      0xffffffffffffffffffffffffffffffffffffffff\n      and\n      0xc0aa5496c7b01c4b317a58e270b45f383bcd6ae57f9e5124db9c0674b7776499\n        /* \"contracts/Exchange.sol\":5095:5101  amount */\n      dup6\n        /* \"contracts/Exchange.sol\":5103:5106  now */\n      timestamp\n        /* \"contracts/Exchange.sol\":5042:5107  DepositForTokenReceived(msg.sender, symbolNameIndex, amount, now) */\n      mload(0x40)\n      dup1\n      dup4\n      dup2\n      mstore\n      0x20\n      add\n      dup3\n      dup2\n      mstore\n      0x20\n      add\n      swap3\n      pop\n      pop\n      pop\n      mload(0x40)\n      dup1\n      swap2\n      sub\n      swap1\n      log3\n        /* \"contracts/Exchange.sol\":4456:5114  function depositToken(string symbolName, uint amount) public {... */\n      pop\n      pop\n      pop\n      pop\n      jump\t// out\n        /* \"contracts/Exchange.sol\":5843:6051  function getBalance(string symbolName) view public returns (uint) {... */\n    tag_33:\n        /* \"contracts/Exchange.sol\":5903:5907  uint */\n      0x0\n        /* \"contracts/Exchange.sol\":5919:5940  uint8 symbolNameIndex */\n      dup1\n        /* \"contracts/Exchange.sol\":5943:5976  getSymbolIndexOrThrow(symbolName) */\n      tag_92\n        /* \"contracts/Exchange.sol\":5965:5975  symbolName */\n      dup4\n        /* \"contracts/Exchange.sol\":5943:5964  getSymbolIndexOrThrow */\n      tag_57\n        /* \"contracts/Exchange.sol\":5943:5976  getSymbolIndexOrThrow(symbolName) */\n      jump\t// in\n    tag_92:\n        /* \"contracts/Exchange.sol\":5919:5976  uint8 symbolNameIndex = getSymbolIndexOrThrow(symbolName) */\n      swap1\n      pop\n        /* \"contracts/Exchange.sol\":5993:6015  tokenBalanceForAddress */\n      0x3\n        /* \"contracts/Exchange.sol\":5993:6027  tokenBalanceForAddress[msg.sender] */\n      0x0\n        /* \"contracts/Exchange.sol\":6016:6026  msg.sender */\n      caller\n        /* \"contracts/Exchange.sol\":5993:6027  tokenBalanceForAddress[msg.sender] */\n      0xffffffffffffffffffffffffffffffffffffffff\n      and\n      0xffffffffffffffffffffffffffffffffffffffff\n      and\n      dup2\n      mstore\n      0x20\n      add\n      swap1\n      dup2\n      mstore\n      0x20\n      add\n      0x0\n      keccak256\n        /* \"contracts/Exchange.sol\":5993:6044  tokenBalanceForAddress[msg.sender][symbolNameIndex] */\n      0x0\n        /* \"contracts/Exchange.sol\":6028:6043  symbolNameIndex */\n      dup3\n        /* \"contracts/Exchange.sol\":5993:6044  tokenBalanceForAddress[msg.sender][symbolNameIndex] */\n      0xff\n      and\n      0xff\n      and\n      dup2\n      mstore\n      0x20\n      add\n      swap1\n      dup2\n      mstore\n      0x20\n      add\n      0x0\n      keccak256\n      sload\n        /* \"contracts/Exchange.sol\":5986:6044  return tokenBalanceForAddress[msg.sender][symbolNameIndex] */\n      swap2\n      pop\n        /* \"contracts/Exchange.sol\":5843:6051  function getBalance(string symbolName) view public returns (uint) {... */\n      pop\n      swap2\n      swap1\n      pop\n      jump\t// out\n        /* \"contracts/Exchange.sol\":2691:3074  function withdrawEther(uint amountInWei) public {... */\n    tag_36:\n        /* \"contracts/Exchange.sol\":2807:2808  0 */\n      0x0\n        /* \"contracts/Exchange.sol\":2792:2803  amountInWei */\n      dup2\n        /* \"contracts/Exchange.sol\":2757:2777  balanceEthForAddress */\n      0x4\n        /* \"contracts/Exchange.sol\":2757:2789  balanceEthForAddress[msg.sender] */\n      0x0\n        /* \"contracts/Exchange.sol\":2778:2788  msg.sender */\n      caller\n        /* \"contracts/Exchange.sol\":2757:2789  balanceEthForAddress[msg.sender] */\n      0xffffffffffffffffffffffffffffffffffffffff\n      and\n      0xffffffffffffffffffffffffffffffffffffffff\n      and\n      dup2\n      mstore\n      0x20\n      add\n      swap1\n      dup2\n      mstore\n      0x20\n      add\n      0x0\n      keccak256\n      sload\n        /* \"contracts/Exchange.sol\":2757:2803  balanceEthForAddress[msg.sender] - amountInWei */\n      sub\n        /* \"contracts/Exchange.sol\":2757:2808  balanceEthForAddress[msg.sender] - amountInWei >= 0 */\n      lt\n      iszero\n        /* \"contracts/Exchange.sol\":2749:2809  require(balanceEthForAddress[msg.sender] - amountInWei >= 0) */\n      iszero\n      iszero\n      tag_94\n      jumpi\n      0x0\n      dup1\n      revert\n    tag_94:\n        /* \"contracts/Exchange.sol\":2877:2897  balanceEthForAddress */\n      0x4\n        /* \"contracts/Exchange.sol\":2877:2909  balanceEthForAddress[msg.sender] */\n      0x0\n        /* \"contracts/Exchange.sol\":2898:2908  msg.sender */\n      caller\n        /* \"contracts/Exchange.sol\":2877:2909  balanceEthForAddress[msg.sender] */\n      0xffffffffffffffffffffffffffffffffffffffff\n      and\n      0xffffffffffffffffffffffffffffffffffffffff\n      and\n      dup2\n      mstore\n      0x20\n      add\n      swap1\n      dup2\n      mstore\n      0x20\n      add\n      0x0\n      keccak256\n      sload\n        /* \"contracts/Exchange.sol\":2862:2873  amountInWei */\n      dup2\n        /* \"contracts/Exchange.sol\":2827:2847  balanceEthForAddress */\n      0x4\n        /* \"contracts/Exchange.sol\":2827:2859  balanceEthForAddress[msg.sender] */\n      0x0\n        /* \"contracts/Exchange.sol\":2848:2858  msg.sender */\n      caller\n        /* \"contracts/Exchange.sol\":2827:2859  balanceEthForAddress[msg.sender] */\n      0xffffffffffffffffffffffffffffffffffffffff\n      and\n      0xffffffffffffffffffffffffffffffffffffffff\n      and\n      dup2\n      mstore\n      0x20\n      add\n      swap1\n      dup2\n      mstore\n      0x20\n      add\n      0x0\n      keccak256\n      sload\n        /* \"contracts/Exchange.sol\":2827:2873  balanceEthForAddress[msg.sender] - amountInWei */\n      sub\n        /* \"contracts/Exchange.sol\":2827:2909  balanceEthForAddress[msg.sender] - amountInWei <= balanceEthForAddress[msg.sender] */\n      gt\n      iszero\n        /* \"contracts/Exchange.sol\":2819:2910  require(balanceEthForAddress[msg.sender] - amountInWei <= balanceEthForAddress[msg.sender]) */\n      iszero\n      iszero\n      tag_95\n      jumpi\n      0x0\n      dup1\n      revert\n    tag_95:\n        /* \"contracts/Exchange.sol\":2956:2967  amountInWei */\n      dup1\n        /* \"contracts/Exchange.sol\":2920:2940  balanceEthForAddress */\n      0x4\n        /* \"contracts/Exchange.sol\":2920:2952  balanceEthForAddress[msg.sender] */\n      0x0\n        /* \"contracts/Exchange.sol\":2941:2951  msg.sender */\n      caller\n        /* \"contracts/Exchange.sol\":2920:2952  balanceEthForAddress[msg.sender] */\n      0xffffffffffffffffffffffffffffffffffffffff\n      and\n      0xffffffffffffffffffffffffffffffffffffffff\n      and\n      dup2\n      mstore\n      0x20\n      add\n      swap1\n      dup2\n      mstore\n      0x20\n      add\n      0x0\n      keccak256\n      0x0\n        /* \"contracts/Exchange.sol\":2920:2967  balanceEthForAddress[msg.sender] -= amountInWei */\n      dup3\n      dup3\n      sload\n      sub\n      swap3\n      pop\n      pop\n      dup2\n      swap1\n      sstore\n      pop\n        /* \"contracts/Exchange.sol\":2977:2987  msg.sender */\n      caller\n        /* \"contracts/Exchange.sol\":2977:2996  msg.sender.transfer */\n      0xffffffffffffffffffffffffffffffffffffffff\n      and\n        /* \"contracts/Exchange.sol\":2977:3009  msg.sender.transfer(amountInWei) */\n      0x8fc\n        /* \"contracts/Exchange.sol\":2997:3008  amountInWei */\n      dup3\n        /* \"contracts/Exchange.sol\":2977:3009  msg.sender.transfer(amountInWei) */\n      swap1\n      dup2\n      iszero\n      mul\n      swap1\n      mload(0x40)\n      0x0\n      mload(0x40)\n      dup1\n      dup4\n      sub\n      dup2\n      dup6\n      dup9\n      dup9\n      call\n      swap4\n      pop\n      pop\n      pop\n      pop\n      iszero\n        /* \"--CODEGEN--\":8:17   */\n      dup1\n        /* \"--CODEGEN--\":5:7   */\n      iszero\n      tag_96\n      jumpi\n        /* \"--CODEGEN--\":45:61   */\n      returndatasize\n        /* \"--CODEGEN--\":42:43   */\n      0x0\n        /* \"--CODEGEN--\":39:40   */\n      dup1\n        /* \"--CODEGEN--\":24:62   */\n      returndatacopy\n        /* \"--CODEGEN--\":77:93   */\n      returndatasize\n        /* \"--CODEGEN--\":74:75   */\n      0x0\n        /* \"--CODEGEN--\":67:94   */\n      revert\n        /* \"--CODEGEN--\":5:7   */\n    tag_96:\n        /* \"contracts/Exchange.sol\":2977:3009  msg.sender.transfer(amountInWei) */\n      pop\n        /* \"contracts/Exchange.sol\":3038:3048  msg.sender */\n      caller\n        /* \"contracts/Exchange.sol\":3024:3067  WithdrawalEth(msg.sender, amountInWei, now) */\n      0xffffffffffffffffffffffffffffffffffffffff\n      and\n      0xac9513adf40097763b4664bee3693d0f051127c5ac55e33f68926c1612ac5995\n        /* \"contracts/Exchange.sol\":3050:3061  amountInWei */\n      dup3\n        /* \"contracts/Exchange.sol\":3063:3066  now */\n      timestamp\n        /* \"contracts/Exchange.sol\":3024:3067  WithdrawalEth(msg.sender, amountInWei, now) */\n      mload(0x40)\n      dup1\n      dup4\n      dup2\n      mstore\n      0x20\n      add\n      dup3\n      dup2\n      mstore\n      0x20\n      add\n      swap3\n      pop\n      pop\n      pop\n      mload(0x40)\n      dup1\n      swap2\n      sub\n      swap1\n      log2\n        /* \"contracts/Exchange.sol\":2691:3074  function withdrawEther(uint amountInWei) public {... */\n      pop\n      jump\t// out\n        /* \"contracts/Exchange.sol\":9451:17322  function buyToken(string symbolName, uint priceInWei, uint amount) public {... */\n    tag_39:\n        /* \"contracts/Exchange.sol\":9535:9555  uint8 tokenNameIndex */\n      0x0\n        /* \"contracts/Exchange.sol\":9601:9634  uint total_amount_ether_necessary */\n      dup1\n        /* \"contracts/Exchange.sol\":11375:11408  uint total_amount_ether_available */\n      0x0\n        /* \"contracts/Exchange.sol\":11426:11441  uint whilePrice */\n      dup1\n        /* \"contracts/Exchange.sol\":11493:11513  uint amountNecessary */\n      0x0\n        /* \"contracts/Exchange.sol\":11536:11551  uint offers_key */\n      dup1\n        /* \"contracts/Exchange.sol\":11917:11946  uint volumeAtPriceFromAddress */\n      0x0\n        /* \"contracts/Exchange.sol\":9558:9591  getSymbolIndexOrThrow(symbolName) */\n      tag_98\n        /* \"contracts/Exchange.sol\":9580:9590  symbolName */\n      dup11\n        /* \"contracts/Exchange.sol\":9558:9579  getSymbolIndexOrThrow */\n      tag_57\n        /* \"contracts/Exchange.sol\":9558:9591  getSymbolIndexOrThrow(symbolName) */\n      jump\t// in\n    tag_98:\n        /* \"contracts/Exchange.sol\":9535:9591  uint8 tokenNameIndex = getSymbolIndexOrThrow(symbolName) */\n      swap7\n      pop\n        /* \"contracts/Exchange.sol\":9637:9638  0 */\n      0x0\n        /* \"contracts/Exchange.sol\":9601:9638  uint total_amount_ether_necessary = 0 */\n      swap6\n      pop\n        /* \"contracts/Exchange.sol\":9696:9697  0 */\n      0x0\n        /* \"contracts/Exchange.sol\":9653:9659  tokens */\n      0x1\n        /* \"contracts/Exchange.sol\":9653:9675  tokens[tokenNameIndex] */\n      0x0\n        /* \"contracts/Exchange.sol\":9660:9674  tokenNameIndex */\n      dup10\n        /* \"contracts/Exchange.sol\":9653:9675  tokens[tokenNameIndex] */\n      0xff\n      and\n      0xff\n      and\n      dup2\n      mstore\n      0x20\n      add\n      swap1\n      dup2\n      mstore\n      0x20\n      add\n      0x0\n      keccak256\n        /* \"contracts/Exchange.sol\":9653:9692  tokens[tokenNameIndex].amountSellPrices */\n      0x9\n      add\n      sload\n        /* \"contracts/Exchange.sol\":9653:9697  tokens[tokenNameIndex].amountSellPrices == 0 */\n      eq\n        /* \"contracts/Exchange.sol\":9653:9749  tokens[tokenNameIndex].amountSellPrices == 0 || tokens[tokenNameIndex].curSellPrice > priceInWei */\n      dup1\n      tag_99\n      jumpi\n      pop\n        /* \"contracts/Exchange.sol\":9739:9749  priceInWei */\n      dup9\n        /* \"contracts/Exchange.sol\":9701:9707  tokens */\n      0x1\n        /* \"contracts/Exchange.sol\":9701:9723  tokens[tokenNameIndex] */\n      0x0\n        /* \"contracts/Exchange.sol\":9708:9722  tokenNameIndex */\n      dup10\n        /* \"contracts/Exchange.sol\":9701:9723  tokens[tokenNameIndex] */\n      0xff\n      and\n      0xff\n      and\n      dup2\n      mstore\n      0x20\n      add\n      swap1\n      dup2\n      mstore\n      0x20\n      add\n      0x0\n      keccak256\n        /* \"contracts/Exchange.sol\":9701:9736  tokens[tokenNameIndex].curSellPrice */\n      0x7\n      add\n      sload\n        /* \"contracts/Exchange.sol\":9701:9749  tokens[tokenNameIndex].curSellPrice > priceInWei */\n      gt\n        /* \"contracts/Exchange.sol\":9653:9749  tokens[tokenNameIndex].amountSellPrices == 0 || tokens[tokenNameIndex].curSellPrice > priceInWei */\n    tag_99:\n        /* \"contracts/Exchange.sol\":9649:17316  if (tokens[tokenNameIndex].amountSellPrices == 0 || tokens[tokenNameIndex].curSellPrice > priceInWei) {... */\n      iszero\n      tag_100\n      jumpi\n        /* \"contracts/Exchange.sol\":9861:9871  priceInWei */\n      dup9\n        /* \"contracts/Exchange.sol\":9852:9858  amount */\n      dup9\n        /* \"contracts/Exchange.sol\":9852:9871  amount * priceInWei */\n      mul\n        /* \"contracts/Exchange.sol\":9821:9871  total_amount_ether_necessary = amount * priceInWei */\n      swap6\n      pop\n        /* \"contracts/Exchange.sol\":9955:9961  amount */\n      dup8\n        /* \"contracts/Exchange.sol\":9923:9951  total_amount_ether_necessary */\n      dup7\n        /* \"contracts/Exchange.sol\":9923:9961  total_amount_ether_necessary >= amount */\n      lt\n      iszero\n        /* \"contracts/Exchange.sol\":9915:9962  require(total_amount_ether_necessary >= amount) */\n      iszero\n      iszero\n      tag_101\n      jumpi\n      0x0\n      dup1\n      revert\n    tag_101:\n        /* \"contracts/Exchange.sol\":10016:10026  priceInWei */\n      dup9\n        /* \"contracts/Exchange.sol\":9984:10012  total_amount_ether_necessary */\n      dup7\n        /* \"contracts/Exchange.sol\":9984:10026  total_amount_ether_necessary >= priceInWei */\n      lt\n      iszero\n        /* \"contracts/Exchange.sol\":9976:10027  require(total_amount_ether_necessary >= priceInWei) */\n      iszero\n      iszero\n      tag_102\n      jumpi\n      0x0\n      dup1\n      revert\n    tag_102:\n        /* \"contracts/Exchange.sol\":10085:10113  total_amount_ether_necessary */\n      dup6\n        /* \"contracts/Exchange.sol\":10049:10069  balanceEthForAddress */\n      0x4\n        /* \"contracts/Exchange.sol\":10049:10081  balanceEthForAddress[msg.sender] */\n      0x0\n        /* \"contracts/Exchange.sol\":10070:10080  msg.sender */\n      caller\n        /* \"contracts/Exchange.sol\":10049:10081  balanceEthForAddress[msg.sender] */\n      0xffffffffffffffffffffffffffffffffffffffff\n      and\n      0xffffffffffffffffffffffffffffffffffffffff\n      and\n      dup2\n      mstore\n      0x20\n      add\n      swap1\n      dup2\n      mstore\n      0x20\n      add\n      0x0\n      keccak256\n      sload\n        /* \"contracts/Exchange.sol\":10049:10113  balanceEthForAddress[msg.sender] >= total_amount_ether_necessary */\n      lt\n      iszero\n        /* \"contracts/Exchange.sol\":10041:10114  require(balanceEthForAddress[msg.sender] >= total_amount_ether_necessary) */\n      iszero\n      iszero\n      tag_103\n      jumpi\n      0x0\n      dup1\n      revert\n    tag_103:\n        /* \"contracts/Exchange.sol\":10203:10204  0 */\n      0x0\n        /* \"contracts/Exchange.sol\":10171:10199  total_amount_ether_necessary */\n      dup7\n        /* \"contracts/Exchange.sol\":10136:10156  balanceEthForAddress */\n      0x4\n        /* \"contracts/Exchange.sol\":10136:10168  balanceEthForAddress[msg.sender] */\n      0x0\n        /* \"contracts/Exchange.sol\":10157:10167  msg.sender */\n      caller\n        /* \"contracts/Exchange.sol\":10136:10168  balanceEthForAddress[msg.sender] */\n      0xffffffffffffffffffffffffffffffffffffffff\n      and\n      0xffffffffffffffffffffffffffffffffffffffff\n      and\n      dup2\n      mstore\n      0x20\n      add\n      swap1\n      dup2\n      mstore\n      0x20\n      add\n      0x0\n      keccak256\n      sload\n        /* \"contracts/Exchange.sol\":10136:10199  balanceEthForAddress[msg.sender] - total_amount_ether_necessary */\n      sub\n        /* \"contracts/Exchange.sol\":10136:10204  balanceEthForAddress[msg.sender] - total_amount_ether_necessary >= 0 */\n      lt\n      iszero\n        /* \"contracts/Exchange.sol\":10128:10205  require(balanceEthForAddress[msg.sender] - total_amount_ether_necessary >= 0) */\n      iszero\n      iszero\n      tag_104\n      jumpi\n      0x0\n      dup1\n      revert\n    tag_104:\n        /* \"contracts/Exchange.sol\":10294:10314  balanceEthForAddress */\n      0x4\n        /* \"contracts/Exchange.sol\":10294:10326  balanceEthForAddress[msg.sender] */\n      0x0\n        /* \"contracts/Exchange.sol\":10315:10325  msg.sender */\n      caller\n        /* \"contracts/Exchange.sol\":10294:10326  balanceEthForAddress[msg.sender] */\n      0xffffffffffffffffffffffffffffffffffffffff\n      and\n      0xffffffffffffffffffffffffffffffffffffffff\n      and\n      dup2\n      mstore\n      0x20\n      add\n      swap1\n      dup2\n      mstore\n      0x20\n      add\n      0x0\n      keccak256\n      sload\n        /* \"contracts/Exchange.sol\":10262:10290  total_amount_ether_necessary */\n      dup7\n        /* \"contracts/Exchange.sol\":10227:10247  balanceEthForAddress */\n      0x4\n        /* \"contracts/Exchange.sol\":10227:10259  balanceEthForAddress[msg.sender] */\n      0x0\n        /* \"contracts/Exchange.sol\":10248:10258  msg.sender */\n      caller\n        /* \"contracts/Exchange.sol\":10227:10259  balanceEthForAddress[msg.sender] */\n      0xffffffffffffffffffffffffffffffffffffffff\n      and\n      0xffffffffffffffffffffffffffffffffffffffff\n      and\n      dup2\n      mstore\n      0x20\n      add\n      swap1\n      dup2\n      mstore\n      0x20\n      add\n      0x0\n      keccak256\n      sload\n        /* \"contracts/Exchange.sol\":10227:10290  balanceEthForAddress[msg.sender] - total_amount_ether_necessary */\n      sub\n        /* \"contracts/Exchange.sol\":10227:10326  balanceEthForAddress[msg.sender] - total_amount_ether_necessary <= balanceEthForAddress[msg.sender] */\n      gt\n      iszero\n        /* \"contracts/Exchange.sol\":10219:10327  require(balanceEthForAddress[msg.sender] - total_amount_ether_necessary <= balanceEthForAddress[msg.sender]) */\n      iszero\n      iszero\n      tag_105\n      jumpi\n      0x0\n      dup1\n      revert\n    tag_105:\n        /* \"contracts/Exchange.sol\":10442:10470  total_amount_ether_necessary */\n      dup6\n        /* \"contracts/Exchange.sol\":10406:10426  balanceEthForAddress */\n      0x4\n        /* \"contracts/Exchange.sol\":10406:10438  balanceEthForAddress[msg.sender] */\n      0x0\n        /* \"contracts/Exchange.sol\":10427:10437  msg.sender */\n      caller\n        /* \"contracts/Exchange.sol\":10406:10438  balanceEthForAddress[msg.sender] */\n      0xffffffffffffffffffffffffffffffffffffffff\n      and\n      0xffffffffffffffffffffffffffffffffffffffff\n      and\n      dup2\n      mstore\n      0x20\n      add\n      swap1\n      dup2\n      mstore\n      0x20\n      add\n      0x0\n      keccak256\n      0x0\n        /* \"contracts/Exchange.sol\":10406:10470  balanceEthForAddress[msg.sender] -= total_amount_ether_necessary */\n      dup3\n      dup3\n      sload\n      sub\n      swap3\n      pop\n      pop\n      dup2\n      swap1\n      sstore\n      pop\n        /* \"contracts/Exchange.sol\":10608:10667  addBuyOffer(tokenNameIndex, priceInWei, amount, msg.sender) */\n      tag_106\n        /* \"contracts/Exchange.sol\":10620:10634  tokenNameIndex */\n      dup8\n        /* \"contracts/Exchange.sol\":10636:10646  priceInWei */\n      dup11\n        /* \"contracts/Exchange.sol\":10648:10654  amount */\n      dup11\n        /* \"contracts/Exchange.sol\":10656:10666  msg.sender */\n      caller\n        /* \"contracts/Exchange.sol\":10608:10619  addBuyOffer */\n      tag_107\n        /* \"contracts/Exchange.sol\":10608:10667  addBuyOffer(tokenNameIndex, priceInWei, amount, msg.sender) */\n      jump\t// in\n    tag_106:\n        /* \"contracts/Exchange.sol\":10757:10767  msg.sender */\n      caller\n        /* \"contracts/Exchange.sol\":10720:10846  LimitBuyOrderCreated(tokenNameIndex, msg.sender, amount, priceInWei, tokens[tokenNameIndex].buyBook[priceInWei].offers_length) */\n      0xffffffffffffffffffffffffffffffffffffffff\n      and\n        /* \"contracts/Exchange.sol\":10741:10755  tokenNameIndex */\n      dup8\n        /* \"contracts/Exchange.sol\":10720:10846  LimitBuyOrderCreated(tokenNameIndex, msg.sender, amount, priceInWei, tokens[tokenNameIndex].buyBook[priceInWei].offers_length) */\n      0xff\n      and\n      0x2ef51fa215957689865f55575d7d89840bee8fce54b23ef826fea1a304acdd3f\n        /* \"contracts/Exchange.sol\":10769:10775  amount */\n      dup11\n        /* \"contracts/Exchange.sol\":10777:10787  priceInWei */\n      dup13\n        /* \"contracts/Exchange.sol\":10789:10795  tokens */\n      0x1\n        /* \"contracts/Exchange.sol\":10789:10811  tokens[tokenNameIndex] */\n      0x0\n        /* \"contracts/Exchange.sol\":10796:10810  tokenNameIndex */\n      dup14\n        /* \"contracts/Exchange.sol\":10789:10811  tokens[tokenNameIndex] */\n      0xff\n      and\n      0xff\n      and\n      dup2\n      mstore\n      0x20\n      add\n      swap1\n      dup2\n      mstore\n      0x20\n      add\n      0x0\n      keccak256\n        /* \"contracts/Exchange.sol\":10789:10819  tokens[tokenNameIndex].buyBook */\n      0x2\n      add\n        /* \"contracts/Exchange.sol\":10789:10831  tokens[tokenNameIndex].buyBook[priceInWei] */\n      0x0\n        /* \"contracts/Exchange.sol\":10820:10830  priceInWei */\n      dup16\n        /* \"contracts/Exchange.sol\":10789:10831  tokens[tokenNameIndex].buyBook[priceInWei] */\n      dup2\n      mstore\n      0x20\n      add\n      swap1\n      dup2\n      mstore\n      0x20\n      add\n      0x0\n      keccak256\n        /* \"contracts/Exchange.sol\":10789:10845  tokens[tokenNameIndex].buyBook[priceInWei].offers_length */\n      0x4\n      add\n      sload\n        /* \"contracts/Exchange.sol\":10720:10846  LimitBuyOrderCreated(tokenNameIndex, msg.sender, amount, priceInWei, tokens[tokenNameIndex].buyBook[priceInWei].offers_length) */\n      mload(0x40)\n      dup1\n      dup5\n      dup2\n      mstore\n      0x20\n      add\n      dup4\n      dup2\n      mstore\n      0x20\n      add\n      dup3\n      dup2\n      mstore\n      0x20\n      add\n      swap4\n      pop\n      pop\n      pop\n      pop\n      mload(0x40)\n      dup1\n      swap2\n      sub\n      swap1\n      log3\n        /* \"contracts/Exchange.sol\":9649:17316  if (tokens[tokenNameIndex].amountSellPrices == 0 || tokens[tokenNameIndex].curSellPrice > priceInWei) {... */\n      jump(tag_108)\n    tag_100:\n        /* \"contracts/Exchange.sol\":11411:11412  0 */\n      0x0\n        /* \"contracts/Exchange.sol\":11375:11412  uint total_amount_ether_available = 0 */\n      swap5\n      pop\n        /* \"contracts/Exchange.sol\":11444:11450  tokens */\n      0x1\n        /* \"contracts/Exchange.sol\":11444:11466  tokens[tokenNameIndex] */\n      0x0\n        /* \"contracts/Exchange.sol\":11451:11465  tokenNameIndex */\n      dup9\n        /* \"contracts/Exchange.sol\":11444:11466  tokens[tokenNameIndex] */\n      0xff\n      and\n      0xff\n      and\n      dup2\n      mstore\n      0x20\n      add\n      swap1\n      dup2\n      mstore\n      0x20\n      add\n      0x0\n      keccak256\n        /* \"contracts/Exchange.sol\":11444:11479  tokens[tokenNameIndex].curSellPrice */\n      0x7\n      add\n      sload\n        /* \"contracts/Exchange.sol\":11426:11479  uint whilePrice = tokens[tokenNameIndex].curSellPrice */\n      swap4\n      pop\n        /* \"contracts/Exchange.sol\":11516:11522  amount */\n      dup8\n        /* \"contracts/Exchange.sol\":11493:11522  uint amountNecessary = amount */\n      swap3\n      pop\n        /* \"contracts/Exchange.sol\":11565:17148  while (whilePrice <= priceInWei && amountNecessary > 0) {//we start with the smallest sell price.... */\n    tag_109:\n        /* \"contracts/Exchange.sol\":11586:11596  priceInWei */\n      dup9\n        /* \"contracts/Exchange.sol\":11572:11582  whilePrice */\n      dup5\n        /* \"contracts/Exchange.sol\":11572:11596  whilePrice <= priceInWei */\n      gt\n      iszero\n        /* \"contracts/Exchange.sol\":11572:11619  whilePrice <= priceInWei && amountNecessary > 0 */\n      dup1\n      iszero\n      tag_111\n      jumpi\n      pop\n        /* \"contracts/Exchange.sol\":11618:11619  0 */\n      0x0\n        /* \"contracts/Exchange.sol\":11600:11615  amountNecessary */\n      dup4\n        /* \"contracts/Exchange.sol\":11600:11619  amountNecessary > 0 */\n      gt\n        /* \"contracts/Exchange.sol\":11572:11619  whilePrice <= priceInWei && amountNecessary > 0 */\n    tag_111:\n        /* \"contracts/Exchange.sol\":11565:17148  while (whilePrice <= priceInWei && amountNecessary > 0) {//we start with the smallest sell price.... */\n      iszero\n      tag_110\n      jumpi\n        /* \"contracts/Exchange.sol\":11692:11698  tokens */\n      0x1\n        /* \"contracts/Exchange.sol\":11692:11714  tokens[tokenNameIndex] */\n      0x0\n        /* \"contracts/Exchange.sol\":11699:11713  tokenNameIndex */\n      dup9\n        /* \"contracts/Exchange.sol\":11692:11714  tokens[tokenNameIndex] */\n      0xff\n      and\n      0xff\n      and\n      dup2\n      mstore\n      0x20\n      add\n      swap1\n      dup2\n      mstore\n      0x20\n      add\n      0x0\n      keccak256\n        /* \"contracts/Exchange.sol\":11692:11723  tokens[tokenNameIndex].sellBook */\n      0x6\n      add\n        /* \"contracts/Exchange.sol\":11692:11735  tokens[tokenNameIndex].sellBook[whilePrice] */\n      0x0\n        /* \"contracts/Exchange.sol\":11724:11734  whilePrice */\n      dup6\n        /* \"contracts/Exchange.sol\":11692:11735  tokens[tokenNameIndex].sellBook[whilePrice] */\n      dup2\n      mstore\n      0x20\n      add\n      swap1\n      dup2\n      mstore\n      0x20\n      add\n      0x0\n      keccak256\n        /* \"contracts/Exchange.sol\":11692:11746  tokens[tokenNameIndex].sellBook[whilePrice].offers_key */\n      0x3\n      add\n      sload\n        /* \"contracts/Exchange.sol\":11679:11746  offers_key = tokens[tokenNameIndex].sellBook[whilePrice].offers_key */\n      swap2\n      pop\n        /* \"contracts/Exchange.sol\":11764:16933  while (offers_key <= tokens[tokenNameIndex].sellBook[whilePrice].offers_length && amountNecessary > 0) {//and the first order (FIFO)... */\n    tag_112:\n        /* \"contracts/Exchange.sol\":11785:11791  tokens */\n      0x1\n        /* \"contracts/Exchange.sol\":11785:11807  tokens[tokenNameIndex] */\n      0x0\n        /* \"contracts/Exchange.sol\":11792:11806  tokenNameIndex */\n      dup9\n        /* \"contracts/Exchange.sol\":11785:11807  tokens[tokenNameIndex] */\n      0xff\n      and\n      0xff\n      and\n      dup2\n      mstore\n      0x20\n      add\n      swap1\n      dup2\n      mstore\n      0x20\n      add\n      0x0\n      keccak256\n        /* \"contracts/Exchange.sol\":11785:11816  tokens[tokenNameIndex].sellBook */\n      0x6\n      add\n        /* \"contracts/Exchange.sol\":11785:11828  tokens[tokenNameIndex].sellBook[whilePrice] */\n      0x0\n        /* \"contracts/Exchange.sol\":11817:11827  whilePrice */\n      dup6\n        /* \"contracts/Exchange.sol\":11785:11828  tokens[tokenNameIndex].sellBook[whilePrice] */\n      dup2\n      mstore\n      0x20\n      add\n      swap1\n      dup2\n      mstore\n      0x20\n      add\n      0x0\n      keccak256\n        /* \"contracts/Exchange.sol\":11785:11842  tokens[tokenNameIndex].sellBook[whilePrice].offers_length */\n      0x4\n      add\n      sload\n        /* \"contracts/Exchange.sol\":11771:11781  offers_key */\n      dup3\n        /* \"contracts/Exchange.sol\":11771:11842  offers_key <= tokens[tokenNameIndex].sellBook[whilePrice].offers_length */\n      gt\n      iszero\n        /* \"contracts/Exchange.sol\":11771:11865  offers_key <= tokens[tokenNameIndex].sellBook[whilePrice].offers_length && amountNecessary > 0 */\n      dup1\n      iszero\n      tag_114\n      jumpi\n      pop\n        /* \"contracts/Exchange.sol\":11864:11865  0 */\n      0x0\n        /* \"contracts/Exchange.sol\":11846:11861  amountNecessary */\n      dup4\n        /* \"contracts/Exchange.sol\":11846:11865  amountNecessary > 0 */\n      gt\n        /* \"contracts/Exchange.sol\":11771:11865  offers_key <= tokens[tokenNameIndex].sellBook[whilePrice].offers_length && amountNecessary > 0 */\n    tag_114:\n        /* \"contracts/Exchange.sol\":11764:16933  while (offers_key <= tokens[tokenNameIndex].sellBook[whilePrice].offers_length && amountNecessary > 0) {//and the first order (FIFO)... */\n      iszero\n      tag_113\n      jumpi\n        /* \"contracts/Exchange.sol\":11949:11955  tokens */\n      0x1\n        /* \"contracts/Exchange.sol\":11949:11971  tokens[tokenNameIndex] */\n      0x0\n        /* \"contracts/Exchange.sol\":11956:11970  tokenNameIndex */\n      dup9\n        /* \"contracts/Exchange.sol\":11949:11971  tokens[tokenNameIndex] */\n      0xff\n      and\n      0xff\n      and\n      dup2\n      mstore\n      0x20\n      add\n      swap1\n      dup2\n      mstore\n      0x20\n      add\n      0x0\n      keccak256\n        /* \"contracts/Exchange.sol\":11949:11980  tokens[tokenNameIndex].sellBook */\n      0x6\n      add\n        /* \"contracts/Exchange.sol\":11949:11992  tokens[tokenNameIndex].sellBook[whilePrice] */\n      0x0\n        /* \"contracts/Exchange.sol\":11981:11991  whilePrice */\n      dup6\n        /* \"contracts/Exchange.sol\":11949:11992  tokens[tokenNameIndex].sellBook[whilePrice] */\n      dup2\n      mstore\n      0x20\n      add\n      swap1\n      dup2\n      mstore\n      0x20\n      add\n      0x0\n      keccak256\n        /* \"contracts/Exchange.sol\":11949:11999  tokens[tokenNameIndex].sellBook[whilePrice].offers */\n      0x2\n      add\n        /* \"contracts/Exchange.sol\":11949:12011  tokens[tokenNameIndex].sellBook[whilePrice].offers[offers_key] */\n      0x0\n        /* \"contracts/Exchange.sol\":12000:12010  offers_key */\n      dup4\n        /* \"contracts/Exchange.sol\":11949:12011  tokens[tokenNameIndex].sellBook[whilePrice].offers[offers_key] */\n      dup2\n      mstore\n      0x20\n      add\n      swap1\n      dup2\n      mstore\n      0x20\n      add\n      0x0\n      keccak256\n        /* \"contracts/Exchange.sol\":11949:12018  tokens[tokenNameIndex].sellBook[whilePrice].offers[offers_key].amount */\n      0x0\n      add\n      sload\n        /* \"contracts/Exchange.sol\":11917:12018  uint volumeAtPriceFromAddress = tokens[tokenNameIndex].sellBook[whilePrice].offers[offers_key].amount */\n      swap1\n      pop\n        /* \"contracts/Exchange.sol\":12410:12425  amountNecessary */\n      dup3\n        /* \"contracts/Exchange.sol\":12382:12406  volumeAtPriceFromAddress */\n      dup2\n        /* \"contracts/Exchange.sol\":12382:12425  volumeAtPriceFromAddress <= amountNecessary */\n      gt\n      iszero\n        /* \"contracts/Exchange.sol\":12378:15670  if (volumeAtPriceFromAddress <= amountNecessary) {... */\n      iszero\n      tag_115\n      jumpi\n        /* \"contracts/Exchange.sol\":12511:12521  whilePrice */\n      dup4\n        /* \"contracts/Exchange.sol\":12484:12508  volumeAtPriceFromAddress */\n      dup2\n        /* \"contracts/Exchange.sol\":12484:12521  volumeAtPriceFromAddress * whilePrice */\n      mul\n        /* \"contracts/Exchange.sol\":12453:12521  total_amount_ether_available = volumeAtPriceFromAddress * whilePrice */\n      swap5\n      pop\n        /* \"contracts/Exchange.sol\":12592:12620  total_amount_ether_available */\n      dup5\n        /* \"contracts/Exchange.sol\":12556:12576  balanceEthForAddress */\n      0x4\n        /* \"contracts/Exchange.sol\":12556:12588  balanceEthForAddress[msg.sender] */\n      0x0\n        /* \"contracts/Exchange.sol\":12577:12587  msg.sender */\n      caller\n        /* \"contracts/Exchange.sol\":12556:12588  balanceEthForAddress[msg.sender] */\n      0xffffffffffffffffffffffffffffffffffffffff\n      and\n      0xffffffffffffffffffffffffffffffffffffffff\n      and\n      dup2\n      mstore\n      0x20\n      add\n      swap1\n      dup2\n      mstore\n      0x20\n      add\n      0x0\n      keccak256\n      sload\n        /* \"contracts/Exchange.sol\":12556:12620  balanceEthForAddress[msg.sender] >= total_amount_ether_available */\n      lt\n      iszero\n        /* \"contracts/Exchange.sol\":12548:12621  require(balanceEthForAddress[msg.sender] >= total_amount_ether_available) */\n      iszero\n      iszero\n      tag_116\n      jumpi\n      0x0\n      dup1\n      revert\n    tag_116:\n        /* \"contracts/Exchange.sol\":12722:12742  balanceEthForAddress */\n      0x4\n        /* \"contracts/Exchange.sol\":12722:12754  balanceEthForAddress[msg.sender] */\n      0x0\n        /* \"contracts/Exchange.sol\":12743:12753  msg.sender */\n      caller\n        /* \"contracts/Exchange.sol\":12722:12754  balanceEthForAddress[msg.sender] */\n      0xffffffffffffffffffffffffffffffffffffffff\n      and\n      0xffffffffffffffffffffffffffffffffffffffff\n      and\n      dup2\n      mstore\n      0x20\n      add\n      swap1\n      dup2\n      mstore\n      0x20\n      add\n      0x0\n      keccak256\n      sload\n        /* \"contracts/Exchange.sol\":12690:12718  total_amount_ether_available */\n      dup6\n        /* \"contracts/Exchange.sol\":12655:12675  balanceEthForAddress */\n      0x4\n        /* \"contracts/Exchange.sol\":12655:12687  balanceEthForAddress[msg.sender] */\n      0x0\n        /* \"contracts/Exchange.sol\":12676:12686  msg.sender */\n      caller\n        /* \"contracts/Exchange.sol\":12655:12687  balanceEthForAddress[msg.sender] */\n      0xffffffffffffffffffffffffffffffffffffffff\n      and\n      0xffffffffffffffffffffffffffffffffffffffff\n      and\n      dup2\n      mstore\n      0x20\n      add\n      swap1\n      dup2\n      mstore\n      0x20\n      add\n      0x0\n      keccak256\n      sload\n        /* \"contracts/Exchange.sol\":12655:12718  balanceEthForAddress[msg.sender] - total_amount_ether_available */\n      sub\n        /* \"contracts/Exchange.sol\":12655:12754  balanceEthForAddress[msg.sender] - total_amount_ether_available <= balanceEthForAddress[msg.sender] */\n      gt\n      iszero\n        /* \"contracts/Exchange.sol\":12647:12755  require(balanceEthForAddress[msg.sender] - total_amount_ether_available <= balanceEthForAddress[msg.sender]) */\n      iszero\n      iszero\n      tag_117\n      jumpi\n      0x0\n      dup1\n      revert\n    tag_117:\n        /* \"contracts/Exchange.sol\":12893:12921  total_amount_ether_available */\n      dup5\n        /* \"contracts/Exchange.sol\":12857:12877  balanceEthForAddress */\n      0x4\n        /* \"contracts/Exchange.sol\":12857:12889  balanceEthForAddress[msg.sender] */\n      0x0\n        /* \"contracts/Exchange.sol\":12878:12888  msg.sender */\n      caller\n        /* \"contracts/Exchange.sol\":12857:12889  balanceEthForAddress[msg.sender] */\n      0xffffffffffffffffffffffffffffffffffffffff\n      and\n      0xffffffffffffffffffffffffffffffffffffffff\n      and\n      dup2\n      mstore\n      0x20\n      add\n      swap1\n      dup2\n      mstore\n      0x20\n      add\n      0x0\n      keccak256\n      0x0\n        /* \"contracts/Exchange.sol\":12857:12921  balanceEthForAddress[msg.sender] -= total_amount_ether_available */\n      dup3\n      dup3\n      sload\n      sub\n      swap3\n      pop\n      pop\n      dup2\n      swap1\n      sstore\n      pop\n        /* \"contracts/Exchange.sol\":13037:13059  tokenBalanceForAddress */\n      0x3\n        /* \"contracts/Exchange.sol\":13037:13071  tokenBalanceForAddress[msg.sender] */\n      0x0\n        /* \"contracts/Exchange.sol\":13060:13070  msg.sender */\n      caller\n        /* \"contracts/Exchange.sol\":13037:13071  tokenBalanceForAddress[msg.sender] */\n      0xffffffffffffffffffffffffffffffffffffffff\n      and\n      0xffffffffffffffffffffffffffffffffffffffff\n      and\n      dup2\n      mstore\n      0x20\n      add\n      swap1\n      dup2\n      mstore\n      0x20\n      add\n      0x0\n      keccak256\n        /* \"contracts/Exchange.sol\":13037:13087  tokenBalanceForAddress[msg.sender][tokenNameIndex] */\n      0x0\n        /* \"contracts/Exchange.sol\":13072:13086  tokenNameIndex */\n      dup9\n        /* \"contracts/Exchange.sol\":13037:13087  tokenBalanceForAddress[msg.sender][tokenNameIndex] */\n      0xff\n      and\n      0xff\n      and\n      dup2\n      mstore\n      0x20\n      add\n      swap1\n      dup2\n      mstore\n      0x20\n      add\n      0x0\n      keccak256\n      sload\n        /* \"contracts/Exchange.sol\":13009:13033  volumeAtPriceFromAddress */\n      dup2\n        /* \"contracts/Exchange.sol\":12956:12978  tokenBalanceForAddress */\n      0x3\n        /* \"contracts/Exchange.sol\":12956:12990  tokenBalanceForAddress[msg.sender] */\n      0x0\n        /* \"contracts/Exchange.sol\":12979:12989  msg.sender */\n      caller\n        /* \"contracts/Exchange.sol\":12956:12990  tokenBalanceForAddress[msg.sender] */\n      0xffffffffffffffffffffffffffffffffffffffff\n      and\n      0xffffffffffffffffffffffffffffffffffffffff\n      and\n      dup2\n      mstore\n      0x20\n      add\n      swap1\n      dup2\n      mstore\n      0x20\n      add\n      0x0\n      keccak256\n        /* \"contracts/Exchange.sol\":12956:13006  tokenBalanceForAddress[msg.sender][tokenNameIndex] */\n      0x0\n        /* \"contracts/Exchange.sol\":12991:13005  tokenNameIndex */\n      dup11\n        /* \"contracts/Exchange.sol\":12956:13006  tokenBalanceForAddress[msg.sender][tokenNameIndex] */\n      0xff\n      and\n      0xff\n      and\n      dup2\n      mstore\n      0x20\n      add\n      swap1\n      dup2\n      mstore\n      0x20\n      add\n      0x0\n      keccak256\n      sload\n        /* \"contracts/Exchange.sol\":12956:13033  tokenBalanceForAddress[msg.sender][tokenNameIndex] + volumeAtPriceFromAddress */\n      add\n        /* \"contracts/Exchange.sol\":12956:13087  tokenBalanceForAddress[msg.sender][tokenNameIndex] + volumeAtPriceFromAddress >= tokenBalanceForAddress[msg.sender][tokenNameIndex] */\n      lt\n      iszero\n        /* \"contracts/Exchange.sol\":12948:13088  require(tokenBalanceForAddress[msg.sender][tokenNameIndex] + volumeAtPriceFromAddress >= tokenBalanceForAddress[msg.sender][tokenNameIndex]) */\n      iszero\n      iszero\n      tag_118\n      jumpi\n      0x0\n      dup1\n      revert\n    tag_118:\n        /* \"contracts/Exchange.sol\":13245:13265  balanceEthForAddress */\n      0x4\n        /* \"contracts/Exchange.sol\":13245:13333  balanceEthForAddress[tokens[tokenNameIndex].sellBook[whilePrice].offers[offers_key].who] */\n      0x0\n        /* \"contracts/Exchange.sol\":13266:13272  tokens */\n      0x1\n        /* \"contracts/Exchange.sol\":13266:13288  tokens[tokenNameIndex] */\n      0x0\n        /* \"contracts/Exchange.sol\":13273:13287  tokenNameIndex */\n      dup11\n        /* \"contracts/Exchange.sol\":13266:13288  tokens[tokenNameIndex] */\n      0xff\n      and\n      0xff\n      and\n      dup2\n      mstore\n      0x20\n      add\n      swap1\n      dup2\n      mstore\n      0x20\n      add\n      0x0\n      keccak256\n        /* \"contracts/Exchange.sol\":13266:13297  tokens[tokenNameIndex].sellBook */\n      0x6\n      add\n        /* \"contracts/Exchange.sol\":13266:13309  tokens[tokenNameIndex].sellBook[whilePrice] */\n      0x0\n        /* \"contracts/Exchange.sol\":13298:13308  whilePrice */\n      dup8\n        /* \"contracts/Exchange.sol\":13266:13309  tokens[tokenNameIndex].sellBook[whilePrice] */\n      dup2\n      mstore\n      0x20\n      add\n      swap1\n      dup2\n      mstore\n      0x20\n      add\n      0x0\n      keccak256\n        /* \"contracts/Exchange.sol\":13266:13316  tokens[tokenNameIndex].sellBook[whilePrice].offers */\n      0x2\n      add\n        /* \"contracts/Exchange.sol\":13266:13328  tokens[tokenNameIndex].sellBook[whilePrice].offers[offers_key] */\n      0x0\n        /* \"contracts/Exchange.sol\":13317:13327  offers_key */\n      dup6\n        /* \"contracts/Exchange.sol\":13266:13328  tokens[tokenNameIndex].sellBook[whilePrice].offers[offers_key] */\n      dup2\n      mstore\n      0x20\n      add\n      swap1\n      dup2\n      mstore\n      0x20\n      add\n      0x0\n      keccak256\n        /* \"contracts/Exchange.sol\":13266:13332  tokens[tokenNameIndex].sellBook[whilePrice].offers[offers_key].who */\n      0x1\n      add\n      0x0\n      swap1\n      sload\n      swap1\n      0x100\n      exp\n      swap1\n      div\n      0xffffffffffffffffffffffffffffffffffffffff\n      and\n        /* \"contracts/Exchange.sol\":13245:13333  balanceEthForAddress[tokens[tokenNameIndex].sellBook[whilePrice].offers[offers_key].who] */\n      0xffffffffffffffffffffffffffffffffffffffff\n      and\n      0xffffffffffffffffffffffffffffffffffffffff\n      and\n      dup2\n      mstore\n      0x20\n      add\n      swap1\n      dup2\n      mstore\n      0x20\n      add\n      0x0\n      keccak256\n      sload\n        /* \"contracts/Exchange.sol\":13213:13241  total_amount_ether_available */\n      dup6\n        /* \"contracts/Exchange.sol\":13122:13142  balanceEthForAddress */\n      0x4\n        /* \"contracts/Exchange.sol\":13122:13210  balanceEthForAddress[tokens[tokenNameIndex].sellBook[whilePrice].offers[offers_key].who] */\n      0x0\n        /* \"contracts/Exchange.sol\":13143:13149  tokens */\n      0x1\n        /* \"contracts/Exchange.sol\":13143:13165  tokens[tokenNameIndex] */\n      0x0\n        /* \"contracts/Exchange.sol\":13150:13164  tokenNameIndex */\n      dup13\n        /* \"contracts/Exchange.sol\":13143:13165  tokens[tokenNameIndex] */\n      0xff\n      and\n      0xff\n      and\n      dup2\n      mstore\n      0x20\n      add\n      swap1\n      dup2\n      mstore\n      0x20\n      add\n      0x0\n      keccak256\n        /* \"contracts/Exchange.sol\":13143:13174  tokens[tokenNameIndex].sellBook */\n      0x6\n      add\n        /* \"contracts/Exchange.sol\":13143:13186  tokens[tokenNameIndex].sellBook[whilePrice] */\n      0x0\n        /* \"contracts/Exchange.sol\":13175:13185  whilePrice */\n      dup10\n        /* \"contracts/Exchange.sol\":13143:13186  tokens[tokenNameIndex].sellBook[whilePrice] */\n      dup2\n      mstore\n      0x20\n      add\n      swap1\n      dup2\n      mstore\n      0x20\n      add\n      0x0\n      keccak256\n        /* \"contracts/Exchange.sol\":13143:13193  tokens[tokenNameIndex].sellBook[whilePrice].offers */\n      0x2\n      add\n        /* \"contracts/Exchange.sol\":13143:13205  tokens[tokenNameIndex].sellBook[whilePrice].offers[offers_key] */\n      0x0\n        /* \"contracts/Exchange.sol\":13194:13204  offers_key */\n      dup8\n        /* \"contracts/Exchange.sol\":13143:13205  tokens[tokenNameIndex].sellBook[whilePrice].offers[offers_key] */\n      dup2\n      mstore\n      0x20\n      add\n      swap1\n      dup2\n      mstore\n      0x20\n      add\n      0x0\n      keccak256\n        /* \"contracts/Exchange.sol\":13143:13209  tokens[tokenNameIndex].sellBook[whilePrice].offers[offers_key].who */\n      0x1\n      add\n      0x0\n      swap1\n      sload\n      swap1\n      0x100\n      exp\n      swap1\n      div\n      0xffffffffffffffffffffffffffffffffffffffff\n      and\n        /* \"contracts/Exchange.sol\":13122:13210  balanceEthForAddress[tokens[tokenNameIndex].sellBook[whilePrice].offers[offers_key].who] */\n      0xffffffffffffffffffffffffffffffffffffffff\n      and\n      0xffffffffffffffffffffffffffffffffffffffff\n      and\n      dup2\n      mstore\n      0x20\n      add\n      swap1\n      dup2\n      mstore\n      0x20\n      add\n      0x0\n      keccak256\n      sload\n        /* \"contracts/Exchange.sol\":13122:13241  balanceEthForAddress[tokens[tokenNameIndex].sellBook[whilePrice].offers[offers_key].who] + total_amount_ether_available */\n      add\n        /* \"contracts/Exchange.sol\":13122:13333  balanceEthForAddress[tokens[tokenNameIndex].sellBook[whilePrice].offers[offers_key].who] + total_amount_ether_available >= balanceEthForAddress[tokens[tokenNameIndex].sellBook[whilePrice].offers[offers_key].who] */\n      lt\n      iszero\n        /* \"contracts/Exchange.sol\":13114:13334  require(balanceEthForAddress[tokens[tokenNameIndex].sellBook[whilePrice].offers[offers_key].who] + total_amount_ether_available >= balanceEthForAddress[tokens[tokenNameIndex].sellBook[whilePrice].offers[offers_key].who]) */\n      iszero\n      iszero\n      tag_119\n      jumpi\n      0x0\n      dup1\n      revert\n    tag_119:\n        /* \"contracts/Exchange.sol\":13567:13591  volumeAtPriceFromAddress */\n      dup1\n        /* \"contracts/Exchange.sol\":13513:13535  tokenBalanceForAddress */\n      0x3\n        /* \"contracts/Exchange.sol\":13513:13547  tokenBalanceForAddress[msg.sender] */\n      0x0\n        /* \"contracts/Exchange.sol\":13536:13546  msg.sender */\n      caller\n        /* \"contracts/Exchange.sol\":13513:13547  tokenBalanceForAddress[msg.sender] */\n      0xffffffffffffffffffffffffffffffffffffffff\n      and\n      0xffffffffffffffffffffffffffffffffffffffff\n      and\n      dup2\n      mstore\n      0x20\n      add\n      swap1\n      dup2\n      mstore\n      0x20\n      add\n      0x0\n      keccak256\n        /* \"contracts/Exchange.sol\":13513:13563  tokenBalanceForAddress[msg.sender][tokenNameIndex] */\n      0x0\n        /* \"contracts/Exchange.sol\":13548:13562  tokenNameIndex */\n      dup10\n        /* \"contracts/Exchange.sol\":13513:13563  tokenBalanceForAddress[msg.sender][tokenNameIndex] */\n      0xff\n      and\n      0xff\n      and\n      dup2\n      mstore\n      0x20\n      add\n      swap1\n      dup2\n      mstore\n      0x20\n      add\n      0x0\n      keccak256\n      0x0\n        /* \"contracts/Exchange.sol\":13513:13591  tokenBalanceForAddress[msg.sender][tokenNameIndex] += volumeAtPriceFromAddress */\n      dup3\n      dup3\n      sload\n      add\n      swap3\n      pop\n      pop\n      dup2\n      swap1\n      sstore\n      pop\n        /* \"contracts/Exchange.sol\":13689:13690  0 */\n      0x0\n        /* \"contracts/Exchange.sol\":13617:13623  tokens */\n      0x1\n        /* \"contracts/Exchange.sol\":13617:13639  tokens[tokenNameIndex] */\n      0x0\n        /* \"contracts/Exchange.sol\":13624:13638  tokenNameIndex */\n      dup10\n        /* \"contracts/Exchange.sol\":13617:13639  tokens[tokenNameIndex] */\n      0xff\n      and\n      0xff\n      and\n      dup2\n      mstore\n      0x20\n      add\n      swap1\n      dup2\n      mstore\n      0x20\n      add\n      0x0\n      keccak256\n        /* \"contracts/Exchange.sol\":13617:13648  tokens[tokenNameIndex].sellBook */\n      0x6\n      add\n        /* \"contracts/Exchange.sol\":13617:13660  tokens[tokenNameIndex].sellBook[whilePrice] */\n      0x0\n        /* \"contracts/Exchange.sol\":13649:13659  whilePrice */\n      dup7\n        /* \"contracts/Exchange.sol\":13617:13660  tokens[tokenNameIndex].sellBook[whilePrice] */\n      dup2\n      mstore\n      0x20\n      add\n      swap1\n      dup2\n      mstore\n      0x20\n      add\n      0x0\n      keccak256\n        /* \"contracts/Exchange.sol\":13617:13667  tokens[tokenNameIndex].sellBook[whilePrice].offers */\n      0x2\n      add\n        /* \"contracts/Exchange.sol\":13617:13679  tokens[tokenNameIndex].sellBook[whilePrice].offers[offers_key] */\n      0x0\n        /* \"contracts/Exchange.sol\":13668:13678  offers_key */\n      dup5\n        /* \"contracts/Exchange.sol\":13617:13679  tokens[tokenNameIndex].sellBook[whilePrice].offers[offers_key] */\n      dup2\n      mstore\n      0x20\n      add\n      swap1\n      dup2\n      mstore\n      0x20\n      add\n      0x0\n      keccak256\n        /* \"contracts/Exchange.sol\":13617:13686  tokens[tokenNameIndex].sellBook[whilePrice].offers[offers_key].amount */\n      0x0\n      add\n        /* \"contracts/Exchange.sol\":13617:13690  tokens[tokenNameIndex].sellBook[whilePrice].offers[offers_key].amount = 0 */\n      dup2\n      swap1\n      sstore\n      pop\n        /* \"contracts/Exchange.sol\":13808:13836  total_amount_ether_available */\n      dup5\n        /* \"contracts/Exchange.sol\":13716:13736  balanceEthForAddress */\n      0x4\n        /* \"contracts/Exchange.sol\":13716:13804  balanceEthForAddress[tokens[tokenNameIndex].sellBook[whilePrice].offers[offers_key].who] */\n      0x0\n        /* \"contracts/Exchange.sol\":13737:13743  tokens */\n      0x1\n        /* \"contracts/Exchange.sol\":13737:13759  tokens[tokenNameIndex] */\n      0x0\n        /* \"contracts/Exchange.sol\":13744:13758  tokenNameIndex */\n      dup12\n        /* \"contracts/Exchange.sol\":13737:13759  tokens[tokenNameIndex] */\n      0xff\n      and\n      0xff\n      and\n      dup2\n      mstore\n      0x20\n      add\n      swap1\n      dup2\n      mstore\n      0x20\n      add\n      0x0\n      keccak256\n        /* \"contracts/Exchange.sol\":13737:13768  tokens[tokenNameIndex].sellBook */\n      0x6\n      add\n        /* \"contracts/Exchange.sol\":13737:13780  tokens[tokenNameIndex].sellBook[whilePrice] */\n      0x0\n        /* \"contracts/Exchange.sol\":13769:13779  whilePrice */\n      dup9\n        /* \"contracts/Exchange.sol\":13737:13780  tokens[tokenNameIndex].sellBook[whilePrice] */\n      dup2\n      mstore\n      0x20\n      add\n      swap1\n      dup2\n      mstore\n      0x20\n      add\n      0x0\n      keccak256\n        /* \"contracts/Exchange.sol\":13737:13787  tokens[tokenNameIndex].sellBook[whilePrice].offers */\n      0x2\n      add\n        /* \"contracts/Exchange.sol\":13737:13799  tokens[tokenNameIndex].sellBook[whilePrice].offers[offers_key] */\n      0x0\n        /* \"contracts/Exchange.sol\":13788:13798  offers_key */\n      dup7\n        /* \"contracts/Exchange.sol\":13737:13799  tokens[tokenNameIndex].sellBook[whilePrice].offers[offers_key] */\n      dup2\n      mstore\n      0x20\n      add\n      swap1\n      dup2\n      mstore\n      0x20\n      add\n      0x0\n      keccak256\n        /* \"contracts/Exchange.sol\":13737:13803  tokens[tokenNameIndex].sellBook[whilePrice].offers[offers_key].who */\n      0x1\n      add\n      0x0\n      swap1\n      sload\n      swap1\n      0x100\n      exp\n      swap1\n      div\n      0xffffffffffffffffffffffffffffffffffffffff\n      and\n        /* \"contracts/Exchange.sol\":13716:13804  balanceEthForAddress[tokens[tokenNameIndex].sellBook[whilePrice].offers[offers_key].who] */\n      0xffffffffffffffffffffffffffffffffffffffff\n      and\n      0xffffffffffffffffffffffffffffffffffffffff\n      and\n      dup2\n      mstore\n      0x20\n      add\n      swap1\n      dup2\n      mstore\n      0x20\n      add\n      0x0\n      keccak256\n      0x0\n        /* \"contracts/Exchange.sol\":13716:13836  balanceEthForAddress[tokens[tokenNameIndex].sellBook[whilePrice].offers[offers_key].who] += total_amount_ether_available */\n      dup3\n      dup3\n      sload\n      add\n      swap3\n      pop\n      pop\n      dup2\n      swap1\n      sstore\n      pop\n        /* \"contracts/Exchange.sol\":13862:13868  tokens */\n      0x1\n        /* \"contracts/Exchange.sol\":13862:13884  tokens[tokenNameIndex] */\n      0x0\n        /* \"contracts/Exchange.sol\":13869:13883  tokenNameIndex */\n      dup9\n        /* \"contracts/Exchange.sol\":13862:13884  tokens[tokenNameIndex] */\n      0xff\n      and\n      0xff\n      and\n      dup2\n      mstore\n      0x20\n      add\n      swap1\n      dup2\n      mstore\n      0x20\n      add\n      0x0\n      keccak256\n        /* \"contracts/Exchange.sol\":13862:13893  tokens[tokenNameIndex].sellBook */\n      0x6\n      add\n        /* \"contracts/Exchange.sol\":13862:13905  tokens[tokenNameIndex].sellBook[whilePrice] */\n      0x0\n        /* \"contracts/Exchange.sol\":13894:13904  whilePrice */\n      dup6\n        /* \"contracts/Exchange.sol\":13862:13905  tokens[tokenNameIndex].sellBook[whilePrice] */\n      dup2\n      mstore\n      0x20\n      add\n      swap1\n      dup2\n      mstore\n      0x20\n      add\n      0x0\n      keccak256\n        /* \"contracts/Exchange.sol\":13862:13916  tokens[tokenNameIndex].sellBook[whilePrice].offers_key */\n      0x3\n      add\n      0x0\n        /* \"contracts/Exchange.sol\":13862:13918  tokens[tokenNameIndex].sellBook[whilePrice].offers_key++ */\n      dup2\n      sload\n      dup1\n      swap3\n      swap2\n      swap1\n      0x1\n      add\n      swap2\n      swap1\n      pop\n      sstore\n      pop\n        /* \"contracts/Exchange.sol\":13969:13983  tokenNameIndex */\n      dup7\n        /* \"contracts/Exchange.sol\":13950:14034  SellOrderFulfilled(tokenNameIndex, volumeAtPriceFromAddress, whilePrice, offers_key) */\n      0xff\n      and\n      0xcbfa5edcd918ef1ec42746c71ac83c456f37330c83a22e44d6cfdca22d564710\n        /* \"contracts/Exchange.sol\":13985:14009  volumeAtPriceFromAddress */\n      dup3\n        /* \"contracts/Exchange.sol\":14011:14021  whilePrice */\n      dup7\n        /* \"contracts/Exchange.sol\":14023:14033  offers_key */\n      dup6\n        /* \"contracts/Exchange.sol\":13950:14034  SellOrderFulfilled(tokenNameIndex, volumeAtPriceFromAddress, whilePrice, offers_key) */\n      mload(0x40)\n      dup1\n      dup5\n      dup2\n      mstore\n      0x20\n      add\n      dup4\n      dup2\n      mstore\n      0x20\n      add\n      dup3\n      dup2\n      mstore\n      0x20\n      add\n      swap4\n      pop\n      pop\n      pop\n      pop\n      mload(0x40)\n      dup1\n      swap2\n      sub\n      swap1\n      log2\n        /* \"contracts/Exchange.sol\":14080:14104  volumeAtPriceFromAddress */\n      dup1\n        /* \"contracts/Exchange.sol\":14061:14104  amountNecessary -= volumeAtPriceFromAddress */\n      dup4\n      sub\n      swap3\n      pop\n        /* \"contracts/Exchange.sol\":12378:15670  if (volumeAtPriceFromAddress <= amountNecessary) {... */\n      jump(tag_120)\n    tag_115:\n        /* \"contracts/Exchange.sol\":14259:14274  amountNecessary */\n      dup3\n        /* \"contracts/Exchange.sol\":14187:14193  tokens */\n      0x1\n        /* \"contracts/Exchange.sol\":14187:14209  tokens[tokenNameIndex] */\n      0x0\n        /* \"contracts/Exchange.sol\":14194:14208  tokenNameIndex */\n      dup10\n        /* \"contracts/Exchange.sol\":14187:14209  tokens[tokenNameIndex] */\n      0xff\n      and\n      0xff\n      and\n      dup2\n      mstore\n      0x20\n      add\n      swap1\n      dup2\n      mstore\n      0x20\n      add\n      0x0\n      keccak256\n        /* \"contracts/Exchange.sol\":14187:14218  tokens[tokenNameIndex].sellBook */\n      0x6\n      add\n        /* \"contracts/Exchange.sol\":14187:14230  tokens[tokenNameIndex].sellBook[whilePrice] */\n      0x0\n        /* \"contracts/Exchange.sol\":14219:14229  whilePrice */\n      dup7\n        /* \"contracts/Exchange.sol\":14187:14230  tokens[tokenNameIndex].sellBook[whilePrice] */\n      dup2\n      mstore\n      0x20\n      add\n      swap1\n      dup2\n      mstore\n      0x20\n      add\n      0x0\n      keccak256\n        /* \"contracts/Exchange.sol\":14187:14237  tokens[tokenNameIndex].sellBook[whilePrice].offers */\n      0x2\n      add\n        /* \"contracts/Exchange.sol\":14187:14249  tokens[tokenNameIndex].sellBook[whilePrice].offers[offers_key] */\n      0x0\n        /* \"contracts/Exchange.sol\":14238:14248  offers_key */\n      dup5\n        /* \"contracts/Exchange.sol\":14187:14249  tokens[tokenNameIndex].sellBook[whilePrice].offers[offers_key] */\n      dup2\n      mstore\n      0x20\n      add\n      swap1\n      dup2\n      mstore\n      0x20\n      add\n      0x0\n      keccak256\n        /* \"contracts/Exchange.sol\":14187:14256  tokens[tokenNameIndex].sellBook[whilePrice].offers[offers_key].amount */\n      0x0\n      add\n      sload\n        /* \"contracts/Exchange.sol\":14187:14274  tokens[tokenNameIndex].sellBook[whilePrice].offers[offers_key].amount > amountNecessary */\n      gt\n        /* \"contracts/Exchange.sol\":14179:14275  require(tokens[tokenNameIndex].sellBook[whilePrice].offers[offers_key].amount > amountNecessary) */\n      iszero\n      iszero\n      tag_121\n      jumpi\n      0x0\n      dup1\n      revert\n    tag_121:\n        /* \"contracts/Exchange.sol\":14359:14369  whilePrice */\n      dup4\n        /* \"contracts/Exchange.sol\":14341:14356  amountNecessary */\n      dup4\n        /* \"contracts/Exchange.sol\":14341:14369  amountNecessary * whilePrice */\n      mul\n        /* \"contracts/Exchange.sol\":14310:14369  total_amount_ether_necessary = amountNecessary * whilePrice */\n      swap6\n      pop\n        /* \"contracts/Exchange.sol\":14470:14490  balanceEthForAddress */\n      0x4\n        /* \"contracts/Exchange.sol\":14470:14502  balanceEthForAddress[msg.sender] */\n      0x0\n        /* \"contracts/Exchange.sol\":14491:14501  msg.sender */\n      caller\n        /* \"contracts/Exchange.sol\":14470:14502  balanceEthForAddress[msg.sender] */\n      0xffffffffffffffffffffffffffffffffffffffff\n      and\n      0xffffffffffffffffffffffffffffffffffffffff\n      and\n      dup2\n      mstore\n      0x20\n      add\n      swap1\n      dup2\n      mstore\n      0x20\n      add\n      0x0\n      keccak256\n      sload\n        /* \"contracts/Exchange.sol\":14438:14466  total_amount_ether_necessary */\n      dup7\n        /* \"contracts/Exchange.sol\":14403:14423  balanceEthForAddress */\n      0x4\n        /* \"contracts/Exchange.sol\":14403:14435  balanceEthForAddress[msg.sender] */\n      0x0\n        /* \"contracts/Exchange.sol\":14424:14434  msg.sender */\n      caller\n        /* \"contracts/Exchange.sol\":14403:14435  balanceEthForAddress[msg.sender] */\n      0xffffffffffffffffffffffffffffffffffffffff\n      and\n      0xffffffffffffffffffffffffffffffffffffffff\n      and\n      dup2\n      mstore\n      0x20\n      add\n      swap1\n      dup2\n      mstore\n      0x20\n      add\n      0x0\n      keccak256\n      sload\n        /* \"contracts/Exchange.sol\":14403:14466  balanceEthForAddress[msg.sender] - total_amount_ether_necessary */\n      sub\n        /* \"contracts/Exchange.sol\":14403:14502  balanceEthForAddress[msg.sender] - total_amount_ether_necessary <= balanceEthForAddress[msg.sender] */\n      gt\n      iszero\n        /* \"contracts/Exchange.sol\":14395:14503  require(balanceEthForAddress[msg.sender] - total_amount_ether_necessary <= balanceEthForAddress[msg.sender]) */\n      iszero\n      iszero\n      tag_122\n      jumpi\n      0x0\n      dup1\n      revert\n    tag_122:\n        /* \"contracts/Exchange.sol\":14642:14670  total_amount_ether_necessary */\n      dup6\n        /* \"contracts/Exchange.sol\":14606:14626  balanceEthForAddress */\n      0x4\n        /* \"contracts/Exchange.sol\":14606:14638  balanceEthForAddress[msg.sender] */\n      0x0\n        /* \"contracts/Exchange.sol\":14627:14637  msg.sender */\n      caller\n        /* \"contracts/Exchange.sol\":14606:14638  balanceEthForAddress[msg.sender] */\n      0xffffffffffffffffffffffffffffffffffffffff\n      and\n      0xffffffffffffffffffffffffffffffffffffffff\n      and\n      dup2\n      mstore\n      0x20\n      add\n      swap1\n      dup2\n      mstore\n      0x20\n      add\n      0x0\n      keccak256\n      0x0\n        /* \"contracts/Exchange.sol\":14606:14670  balanceEthForAddress[msg.sender] -= total_amount_ether_necessary */\n      dup3\n      dup3\n      sload\n      sub\n      swap3\n      pop\n      pop\n      dup2\n      swap1\n      sstore\n      pop\n        /* \"contracts/Exchange.sol\":14828:14848  balanceEthForAddress */\n      0x4\n        /* \"contracts/Exchange.sol\":14828:14916  balanceEthForAddress[tokens[tokenNameIndex].sellBook[whilePrice].offers[offers_key].who] */\n      0x0\n        /* \"contracts/Exchange.sol\":14849:14855  tokens */\n      0x1\n        /* \"contracts/Exchange.sol\":14849:14871  tokens[tokenNameIndex] */\n      0x0\n        /* \"contracts/Exchange.sol\":14856:14870  tokenNameIndex */\n      dup11\n        /* \"contracts/Exchange.sol\":14849:14871  tokens[tokenNameIndex] */\n      0xff\n      and\n      0xff\n      and\n      dup2\n      mstore\n      0x20\n      add\n      swap1\n      dup2\n      mstore\n      0x20\n      add\n      0x0\n      keccak256\n        /* \"contracts/Exchange.sol\":14849:14880  tokens[tokenNameIndex].sellBook */\n      0x6\n      add\n        /* \"contracts/Exchange.sol\":14849:14892  tokens[tokenNameIndex].sellBook[whilePrice] */\n      0x0\n        /* \"contracts/Exchange.sol\":14881:14891  whilePrice */\n      dup8\n        /* \"contracts/Exchange.sol\":14849:14892  tokens[tokenNameIndex].sellBook[whilePrice] */\n      dup2\n      mstore\n      0x20\n      add\n      swap1\n      dup2\n      mstore\n      0x20\n      add\n      0x0\n      keccak256\n        /* \"contracts/Exchange.sol\":14849:14899  tokens[tokenNameIndex].sellBook[whilePrice].offers */\n      0x2\n      add\n        /* \"contracts/Exchange.sol\":14849:14911  tokens[tokenNameIndex].sellBook[whilePrice].offers[offers_key] */\n      0x0\n        /* \"contracts/Exchange.sol\":14900:14910  offers_key */\n      dup6\n        /* \"contracts/Exchange.sol\":14849:14911  tokens[tokenNameIndex].sellBook[whilePrice].offers[offers_key] */\n      dup2\n      mstore\n      0x20\n      add\n      swap1\n      dup2\n      mstore\n      0x20\n      add\n      0x0\n      keccak256\n        /* \"contracts/Exchange.sol\":14849:14915  tokens[tokenNameIndex].sellBook[whilePrice].offers[offers_key].who */\n      0x1\n      add\n      0x0\n      swap1\n      sload\n      swap1\n      0x100\n      exp\n      swap1\n      div\n      0xffffffffffffffffffffffffffffffffffffffff\n      and\n        /* \"contracts/Exchange.sol\":14828:14916  balanceEthForAddress[tokens[tokenNameIndex].sellBook[whilePrice].offers[offers_key].who] */\n      0xffffffffffffffffffffffffffffffffffffffff\n      and\n      0xffffffffffffffffffffffffffffffffffffffff\n      and\n      dup2\n      mstore\n      0x20\n      add\n      swap1\n      dup2\n      mstore\n      0x20\n      add\n      0x0\n      keccak256\n      sload\n        /* \"contracts/Exchange.sol\":14796:14824  total_amount_ether_necessary */\n      dup7\n        /* \"contracts/Exchange.sol\":14705:14725  balanceEthForAddress */\n      0x4\n        /* \"contracts/Exchange.sol\":14705:14793  balanceEthForAddress[tokens[tokenNameIndex].sellBook[whilePrice].offers[offers_key].who] */\n      0x0\n        /* \"contracts/Exchange.sol\":14726:14732  tokens */\n      0x1\n        /* \"contracts/Exchange.sol\":14726:14748  tokens[tokenNameIndex] */\n      0x0\n        /* \"contracts/Exchange.sol\":14733:14747  tokenNameIndex */\n      dup13\n        /* \"contracts/Exchange.sol\":14726:14748  tokens[tokenNameIndex] */\n      0xff\n      and\n      0xff\n      and\n      dup2\n      mstore\n      0x20\n      add\n      swap1\n      dup2\n      mstore\n      0x20\n      add\n      0x0\n      keccak256\n        /* \"contracts/Exchange.sol\":14726:14757  tokens[tokenNameIndex].sellBook */\n      0x6\n      add\n        /* \"contracts/Exchange.sol\":14726:14769  tokens[tokenNameIndex].sellBook[whilePrice] */\n      0x0\n        /* \"contracts/Exchange.sol\":14758:14768  whilePrice */\n      dup10\n        /* \"contracts/Exchange.sol\":14726:14769  tokens[tokenNameIndex].sellBook[whilePrice] */\n      dup2\n      mstore\n      0x20\n      add\n      swap1\n      dup2\n      mstore\n      0x20\n      add\n      0x0\n      keccak256\n        /* \"contracts/Exchange.sol\":14726:14776  tokens[tokenNameIndex].sellBook[whilePrice].offers */\n      0x2\n      add\n        /* \"contracts/Exchange.sol\":14726:14788  tokens[tokenNameIndex].sellBook[whilePrice].offers[offers_key] */\n      0x0\n        /* \"contracts/Exchange.sol\":14777:14787  offers_key */\n      dup8\n        /* \"contracts/Exchange.sol\":14726:14788  tokens[tokenNameIndex].sellBook[whilePrice].offers[offers_key] */\n      dup2\n      mstore\n      0x20\n      add\n      swap1\n      dup2\n      mstore\n      0x20\n      add\n      0x0\n      keccak256\n        /* \"contracts/Exchange.sol\":14726:14792  tokens[tokenNameIndex].sellBook[whilePrice].offers[offers_key].who */\n      0x1\n      add\n      0x0\n      swap1\n      sload\n      swap1\n      0x100\n      exp\n      swap1\n      div\n      0xffffffffffffffffffffffffffffffffffffffff\n      and\n        /* \"contracts/Exchange.sol\":14705:14793  balanceEthForAddress[tokens[tokenNameIndex].sellBook[whilePrice].offers[offers_key].who] */\n      0xffffffffffffffffffffffffffffffffffffffff\n      and\n      0xffffffffffffffffffffffffffffffffffffffff\n      and\n      dup2\n      mstore\n      0x20\n      add\n      swap1\n      dup2\n      mstore\n      0x20\n      add\n      0x0\n      keccak256\n      sload\n        /* \"contracts/Exchange.sol\":14705:14824  balanceEthForAddress[tokens[tokenNameIndex].sellBook[whilePrice].offers[offers_key].who] + total_amount_ether_necessary */\n      add\n        /* \"contracts/Exchange.sol\":14705:14916  balanceEthForAddress[tokens[tokenNameIndex].sellBook[whilePrice].offers[offers_key].who] + total_amount_ether_necessary >= balanceEthForAddress[tokens[tokenNameIndex].sellBook[whilePrice].offers[offers_key].who] */\n      lt\n      iszero\n        /* \"contracts/Exchange.sol\":14697:14917  require(balanceEthForAddress[tokens[tokenNameIndex].sellBook[whilePrice].offers[offers_key].who] + total_amount_ether_necessary >= balanceEthForAddress[tokens[tokenNameIndex].sellBook[whilePrice].offers[offers_key].who]) */\n      iszero\n      iszero\n      tag_123\n      jumpi\n      0x0\n      dup1\n      revert\n    tag_123:\n        /* \"contracts/Exchange.sol\":15185:15200  amountNecessary */\n      dup3\n        /* \"contracts/Exchange.sol\":15112:15118  tokens */\n      0x1\n        /* \"contracts/Exchange.sol\":15112:15134  tokens[tokenNameIndex] */\n      0x0\n        /* \"contracts/Exchange.sol\":15119:15133  tokenNameIndex */\n      dup10\n        /* \"contracts/Exchange.sol\":15112:15134  tokens[tokenNameIndex] */\n      0xff\n      and\n      0xff\n      and\n      dup2\n      mstore\n      0x20\n      add\n      swap1\n      dup2\n      mstore\n      0x20\n      add\n      0x0\n      keccak256\n        /* \"contracts/Exchange.sol\":15112:15143  tokens[tokenNameIndex].sellBook */\n      0x6\n      add\n        /* \"contracts/Exchange.sol\":15112:15155  tokens[tokenNameIndex].sellBook[whilePrice] */\n      0x0\n        /* \"contracts/Exchange.sol\":15144:15154  whilePrice */\n      dup7\n        /* \"contracts/Exchange.sol\":15112:15155  tokens[tokenNameIndex].sellBook[whilePrice] */\n      dup2\n      mstore\n      0x20\n      add\n      swap1\n      dup2\n      mstore\n      0x20\n      add\n      0x0\n      keccak256\n        /* \"contracts/Exchange.sol\":15112:15162  tokens[tokenNameIndex].sellBook[whilePrice].offers */\n      0x2\n      add\n        /* \"contracts/Exchange.sol\":15112:15174  tokens[tokenNameIndex].sellBook[whilePrice].offers[offers_key] */\n      0x0\n        /* \"contracts/Exchange.sol\":15163:15173  offers_key */\n      dup5\n        /* \"contracts/Exchange.sol\":15112:15174  tokens[tokenNameIndex].sellBook[whilePrice].offers[offers_key] */\n      dup2\n      mstore\n      0x20\n      add\n      swap1\n      dup2\n      mstore\n      0x20\n      add\n      0x0\n      keccak256\n        /* \"contracts/Exchange.sol\":15112:15181  tokens[tokenNameIndex].sellBook[whilePrice].offers[offers_key].amount */\n      0x0\n      add\n      0x0\n        /* \"contracts/Exchange.sol\":15112:15200  tokens[tokenNameIndex].sellBook[whilePrice].offers[offers_key].amount -= amountNecessary */\n      dup3\n      dup3\n      sload\n      sub\n      swap3\n      pop\n      pop\n      dup2\n      swap1\n      sstore\n      pop\n        /* \"contracts/Exchange.sol\":15318:15346  total_amount_ether_necessary */\n      dup6\n        /* \"contracts/Exchange.sol\":15226:15246  balanceEthForAddress */\n      0x4\n        /* \"contracts/Exchange.sol\":15226:15314  balanceEthForAddress[tokens[tokenNameIndex].sellBook[whilePrice].offers[offers_key].who] */\n      0x0\n        /* \"contracts/Exchange.sol\":15247:15253  tokens */\n      0x1\n        /* \"contracts/Exchange.sol\":15247:15269  tokens[tokenNameIndex] */\n      0x0\n        /* \"contracts/Exchange.sol\":15254:15268  tokenNameIndex */\n      dup12\n        /* \"contracts/Exchange.sol\":15247:15269  tokens[tokenNameIndex] */\n      0xff\n      and\n      0xff\n      and\n      dup2\n      mstore\n      0x20\n      add\n      swap1\n      dup2\n      mstore\n      0x20\n      add\n      0x0\n      keccak256\n        /* \"contracts/Exchange.sol\":15247:15278  tokens[tokenNameIndex].sellBook */\n      0x6\n      add\n        /* \"contracts/Exchange.sol\":15247:15290  tokens[tokenNameIndex].sellBook[whilePrice] */\n      0x0\n        /* \"contracts/Exchange.sol\":15279:15289  whilePrice */\n      dup9\n        /* \"contracts/Exchange.sol\":15247:15290  tokens[tokenNameIndex].sellBook[whilePrice] */\n      dup2\n      mstore\n      0x20\n      add\n      swap1\n      dup2\n      mstore\n      0x20\n      add\n      0x0\n      keccak256\n        /* \"contracts/Exchange.sol\":15247:15297  tokens[tokenNameIndex].sellBook[whilePrice].offers */\n      0x2\n      add\n        /* \"contracts/Exchange.sol\":15247:15309  tokens[tokenNameIndex].sellBook[whilePrice].offers[offers_key] */\n      0x0\n        /* \"contracts/Exchange.sol\":15298:15308  offers_key */\n      dup7\n        /* \"contracts/Exchange.sol\":15247:15309  tokens[tokenNameIndex].sellBook[whilePrice].offers[offers_key] */\n      dup2\n      mstore\n      0x20\n      add\n      swap1\n      dup2\n      mstore\n      0x20\n      add\n      0x0\n      keccak256\n        /* \"contracts/Exchange.sol\":15247:15313  tokens[tokenNameIndex].sellBook[whilePrice].offers[offers_key].who */\n      0x1\n      add\n      0x0\n      swap1\n      sload\n      swap1\n      0x100\n      exp\n      swap1\n      div\n      0xffffffffffffffffffffffffffffffffffffffff\n      and\n        /* \"contracts/Exchange.sol\":15226:15314  balanceEthForAddress[tokens[tokenNameIndex].sellBook[whilePrice].offers[offers_key].who] */\n      0xffffffffffffffffffffffffffffffffffffffff\n      and\n      0xffffffffffffffffffffffffffffffffffffffff\n      and\n      dup2\n      mstore\n      0x20\n      add\n      swap1\n      dup2\n      mstore\n      0x20\n      add\n      0x0\n      keccak256\n      0x0\n        /* \"contracts/Exchange.sol\":15226:15346  balanceEthForAddress[tokens[tokenNameIndex].sellBook[whilePrice].offers[offers_key].who] += total_amount_ether_necessary */\n      dup3\n      dup3\n      sload\n      add\n      swap3\n      pop\n      pop\n      dup2\n      swap1\n      sstore\n      pop\n        /* \"contracts/Exchange.sol\":15426:15441  amountNecessary */\n      dup3\n        /* \"contracts/Exchange.sol\":15372:15394  tokenBalanceForAddress */\n      0x3\n        /* \"contracts/Exchange.sol\":15372:15406  tokenBalanceForAddress[msg.sender] */\n      0x0\n        /* \"contracts/Exchange.sol\":15395:15405  msg.sender */\n      caller\n        /* \"contracts/Exchange.sol\":15372:15406  tokenBalanceForAddress[msg.sender] */\n      0xffffffffffffffffffffffffffffffffffffffff\n      and\n      0xffffffffffffffffffffffffffffffffffffffff\n      and\n      dup2\n      mstore\n      0x20\n      add\n      swap1\n      dup2\n      mstore\n      0x20\n      add\n      0x0\n      keccak256\n        /* \"contracts/Exchange.sol\":15372:15422  tokenBalanceForAddress[msg.sender][tokenNameIndex] */\n      0x0\n        /* \"contracts/Exchange.sol\":15407:15421  tokenNameIndex */\n      dup10\n        /* \"contracts/Exchange.sol\":15372:15422  tokenBalanceForAddress[msg.sender][tokenNameIndex] */\n      0xff\n      and\n      0xff\n      and\n      dup2\n      mstore\n      0x20\n      add\n      swap1\n      dup2\n      mstore\n      0x20\n      add\n      0x0\n      keccak256\n      0x0\n        /* \"contracts/Exchange.sol\":15372:15441  tokenBalanceForAddress[msg.sender][tokenNameIndex] += amountNecessary */\n      dup3\n      dup3\n      sload\n      add\n      swap3\n      pop\n      pop\n      dup2\n      swap1\n      sstore\n      pop\n        /* \"contracts/Exchange.sol\":15486:15487  0 */\n      0x0\n        /* \"contracts/Exchange.sol\":15468:15487  amountNecessary = 0 */\n      swap3\n      pop\n        /* \"contracts/Exchange.sol\":15591:15605  tokenNameIndex */\n      dup7\n        /* \"contracts/Exchange.sol\":15572:15647  SellOrderFulfilled(tokenNameIndex, amountNecessary, whilePrice, offers_key) */\n      0xff\n      and\n      0xcbfa5edcd918ef1ec42746c71ac83c456f37330c83a22e44d6cfdca22d564710\n        /* \"contracts/Exchange.sol\":15607:15622  amountNecessary */\n      dup5\n        /* \"contracts/Exchange.sol\":15624:15634  whilePrice */\n      dup7\n        /* \"contracts/Exchange.sol\":15636:15646  offers_key */\n      dup6\n        /* \"contracts/Exchange.sol\":15572:15647  SellOrderFulfilled(tokenNameIndex, amountNecessary, whilePrice, offers_key) */\n      mload(0x40)\n      dup1\n      dup5\n      dup2\n      mstore\n      0x20\n      add\n      dup4\n      dup2\n      mstore\n      0x20\n      add\n      dup3\n      dup2\n      mstore\n      0x20\n      add\n      swap4\n      pop\n      pop\n      pop\n      pop\n      mload(0x40)\n      dup1\n      swap2\n      sub\n      swap1\n      log2\n        /* \"contracts/Exchange.sol\":12378:15670  if (volumeAtPriceFromAddress <= amountNecessary) {... */\n    tag_120:\n        /* \"contracts/Exchange.sol\":15875:15881  tokens */\n      0x1\n        /* \"contracts/Exchange.sol\":15875:15897  tokens[tokenNameIndex] */\n      0x0\n        /* \"contracts/Exchange.sol\":15882:15896  tokenNameIndex */\n      dup9\n        /* \"contracts/Exchange.sol\":15875:15897  tokens[tokenNameIndex] */\n      0xff\n      and\n      0xff\n      and\n      dup2\n      mstore\n      0x20\n      add\n      swap1\n      dup2\n      mstore\n      0x20\n      add\n      0x0\n      keccak256\n        /* \"contracts/Exchange.sol\":15875:15906  tokens[tokenNameIndex].sellBook */\n      0x6\n      add\n        /* \"contracts/Exchange.sol\":15875:15918  tokens[tokenNameIndex].sellBook[whilePrice] */\n      0x0\n        /* \"contracts/Exchange.sol\":15907:15917  whilePrice */\n      dup6\n        /* \"contracts/Exchange.sol\":15875:15918  tokens[tokenNameIndex].sellBook[whilePrice] */\n      dup2\n      mstore\n      0x20\n      add\n      swap1\n      dup2\n      mstore\n      0x20\n      add\n      0x0\n      keccak256\n        /* \"contracts/Exchange.sol\":15875:15932  tokens[tokenNameIndex].sellBook[whilePrice].offers_length */\n      0x4\n      add\n      sload\n        /* \"contracts/Exchange.sol\":15861:15871  offers_key */\n      dup3\n        /* \"contracts/Exchange.sol\":15861:15932  offers_key == tokens[tokenNameIndex].sellBook[whilePrice].offers_length */\n      eq\n        /* \"contracts/Exchange.sol\":15861:16030  offers_key == tokens[tokenNameIndex].sellBook[whilePrice].offers_length &&... */\n      dup1\n      iszero\n      tag_124\n      jumpi\n      pop\n        /* \"contracts/Exchange.sol\":16029:16030  0 */\n      0x0\n        /* \"contracts/Exchange.sol\":15956:15962  tokens */\n      0x1\n        /* \"contracts/Exchange.sol\":15956:15978  tokens[tokenNameIndex] */\n      0x0\n        /* \"contracts/Exchange.sol\":15963:15977  tokenNameIndex */\n      dup10\n        /* \"contracts/Exchange.sol\":15956:15978  tokens[tokenNameIndex] */\n      0xff\n      and\n      0xff\n      and\n      dup2\n      mstore\n      0x20\n      add\n      swap1\n      dup2\n      mstore\n      0x20\n      add\n      0x0\n      keccak256\n        /* \"contracts/Exchange.sol\":15956:15987  tokens[tokenNameIndex].sellBook */\n      0x6\n      add\n        /* \"contracts/Exchange.sol\":15956:15999  tokens[tokenNameIndex].sellBook[whilePrice] */\n      0x0\n        /* \"contracts/Exchange.sol\":15988:15998  whilePrice */\n      dup7\n        /* \"contracts/Exchange.sol\":15956:15999  tokens[tokenNameIndex].sellBook[whilePrice] */\n      dup2\n      mstore\n      0x20\n      add\n      swap1\n      dup2\n      mstore\n      0x20\n      add\n      0x0\n      keccak256\n        /* \"contracts/Exchange.sol\":15956:16006  tokens[tokenNameIndex].sellBook[whilePrice].offers */\n      0x2\n      add\n        /* \"contracts/Exchange.sol\":15956:16018  tokens[tokenNameIndex].sellBook[whilePrice].offers[offers_key] */\n      0x0\n        /* \"contracts/Exchange.sol\":16007:16017  offers_key */\n      dup5\n        /* \"contracts/Exchange.sol\":15956:16018  tokens[tokenNameIndex].sellBook[whilePrice].offers[offers_key] */\n      dup2\n      mstore\n      0x20\n      add\n      swap1\n      dup2\n      mstore\n      0x20\n      add\n      0x0\n      keccak256\n        /* \"contracts/Exchange.sol\":15956:16025  tokens[tokenNameIndex].sellBook[whilePrice].offers[offers_key].amount */\n      0x0\n      add\n      sload\n        /* \"contracts/Exchange.sol\":15956:16030  tokens[tokenNameIndex].sellBook[whilePrice].offers[offers_key].amount == 0 */\n      eq\n        /* \"contracts/Exchange.sol\":15861:16030  offers_key == tokens[tokenNameIndex].sellBook[whilePrice].offers_length &&... */\n    tag_124:\n        /* \"contracts/Exchange.sol\":15836:16881  if (... */\n      iszero\n      tag_125\n      jumpi\n        /* \"contracts/Exchange.sol\":16080:16086  tokens */\n      0x1\n        /* \"contracts/Exchange.sol\":16080:16102  tokens[tokenNameIndex] */\n      0x0\n        /* \"contracts/Exchange.sol\":16087:16101  tokenNameIndex */\n      dup9\n        /* \"contracts/Exchange.sol\":16080:16102  tokens[tokenNameIndex] */\n      0xff\n      and\n      0xff\n      and\n      dup2\n      mstore\n      0x20\n      add\n      swap1\n      dup2\n      mstore\n      0x20\n      add\n      0x0\n      keccak256\n        /* \"contracts/Exchange.sol\":16080:16119  tokens[tokenNameIndex].amountSellPrices */\n      0x9\n      add\n      0x0\n        /* \"contracts/Exchange.sol\":16080:16121  tokens[tokenNameIndex].amountSellPrices-- */\n      dup2\n      sload\n      dup1\n      swap3\n      swap2\n      swap1\n      0x1\n      swap1\n      sub\n      swap2\n      swap1\n      pop\n      sstore\n      pop\n        /* \"contracts/Exchange.sol\":16270:16276  tokens */\n      0x1\n        /* \"contracts/Exchange.sol\":16270:16292  tokens[tokenNameIndex] */\n      0x0\n        /* \"contracts/Exchange.sol\":16277:16291  tokenNameIndex */\n      dup9\n        /* \"contracts/Exchange.sol\":16270:16292  tokens[tokenNameIndex] */\n      0xff\n      and\n      0xff\n      and\n      dup2\n      mstore\n      0x20\n      add\n      swap1\n      dup2\n      mstore\n      0x20\n      add\n      0x0\n      keccak256\n        /* \"contracts/Exchange.sol\":16270:16301  tokens[tokenNameIndex].sellBook */\n      0x6\n      add\n        /* \"contracts/Exchange.sol\":16270:16313  tokens[tokenNameIndex].sellBook[whilePrice] */\n      0x0\n        /* \"contracts/Exchange.sol\":16302:16312  whilePrice */\n      dup6\n        /* \"contracts/Exchange.sol\":16270:16313  tokens[tokenNameIndex].sellBook[whilePrice] */\n      dup2\n      mstore\n      0x20\n      add\n      swap1\n      dup2\n      mstore\n      0x20\n      add\n      0x0\n      keccak256\n        /* \"contracts/Exchange.sol\":16270:16325  tokens[tokenNameIndex].sellBook[whilePrice].higherPrice */\n      0x0\n      add\n      sload\n        /* \"contracts/Exchange.sol\":16256:16266  whilePrice */\n      dup5\n        /* \"contracts/Exchange.sol\":16256:16325  whilePrice == tokens[tokenNameIndex].sellBook[whilePrice].higherPrice */\n      eq\n        /* \"contracts/Exchange.sol\":16256:16388  whilePrice == tokens[tokenNameIndex].sellBook[whilePrice].higherPrice || tokens[tokenNameIndex].buyBook[whilePrice].higherPrice == 0 */\n      dup1\n      tag_126\n      jumpi\n      pop\n        /* \"contracts/Exchange.sol\":16387:16388  0 */\n      0x0\n        /* \"contracts/Exchange.sol\":16329:16335  tokens */\n      0x1\n        /* \"contracts/Exchange.sol\":16329:16351  tokens[tokenNameIndex] */\n      0x0\n        /* \"contracts/Exchange.sol\":16336:16350  tokenNameIndex */\n      dup10\n        /* \"contracts/Exchange.sol\":16329:16351  tokens[tokenNameIndex] */\n      0xff\n      and\n      0xff\n      and\n      dup2\n      mstore\n      0x20\n      add\n      swap1\n      dup2\n      mstore\n      0x20\n      add\n      0x0\n      keccak256\n        /* \"contracts/Exchange.sol\":16329:16359  tokens[tokenNameIndex].buyBook */\n      0x2\n      add\n        /* \"contracts/Exchange.sol\":16329:16371  tokens[tokenNameIndex].buyBook[whilePrice] */\n      0x0\n        /* \"contracts/Exchange.sol\":16360:16370  whilePrice */\n      dup7\n        /* \"contracts/Exchange.sol\":16329:16371  tokens[tokenNameIndex].buyBook[whilePrice] */\n      dup2\n      mstore\n      0x20\n      add\n      swap1\n      dup2\n      mstore\n      0x20\n      add\n      0x0\n      keccak256\n        /* \"contracts/Exchange.sol\":16329:16383  tokens[tokenNameIndex].buyBook[whilePrice].higherPrice */\n      0x0\n      add\n      sload\n        /* \"contracts/Exchange.sol\":16329:16388  tokens[tokenNameIndex].buyBook[whilePrice].higherPrice == 0 */\n      eq\n        /* \"contracts/Exchange.sol\":16256:16388  whilePrice == tokens[tokenNameIndex].sellBook[whilePrice].higherPrice || tokens[tokenNameIndex].buyBook[whilePrice].higherPrice == 0 */\n    tag_126:\n        /* \"contracts/Exchange.sol\":16252:16859  if (whilePrice == tokens[tokenNameIndex].sellBook[whilePrice].higherPrice || tokens[tokenNameIndex].buyBook[whilePrice].higherPrice == 0) {... */\n      iszero\n      tag_127\n      jumpi\n        /* \"contracts/Exchange.sol\":16458:16459  0 */\n      0x0\n        /* \"contracts/Exchange.sol\":16420:16426  tokens */\n      0x1\n        /* \"contracts/Exchange.sol\":16420:16442  tokens[tokenNameIndex] */\n      0x0\n        /* \"contracts/Exchange.sol\":16427:16441  tokenNameIndex */\n      dup10\n        /* \"contracts/Exchange.sol\":16420:16442  tokens[tokenNameIndex] */\n      0xff\n      and\n      0xff\n      and\n      dup2\n      mstore\n      0x20\n      add\n      swap1\n      dup2\n      mstore\n      0x20\n      add\n      0x0\n      keccak256\n        /* \"contracts/Exchange.sol\":16420:16455  tokens[tokenNameIndex].curSellPrice */\n      0x7\n      add\n        /* \"contracts/Exchange.sol\":16420:16459  tokens[tokenNameIndex].curSellPrice = 0 */\n      dup2\n      swap1\n      sstore\n      pop\n        /* \"contracts/Exchange.sol\":16252:16859  if (whilePrice == tokens[tokenNameIndex].sellBook[whilePrice].higherPrice || tokens[tokenNameIndex].buyBook[whilePrice].higherPrice == 0) {... */\n      jump(tag_128)\n    tag_127:\n        /* \"contracts/Exchange.sol\":16645:16651  tokens */\n      0x1\n        /* \"contracts/Exchange.sol\":16645:16667  tokens[tokenNameIndex] */\n      0x0\n        /* \"contracts/Exchange.sol\":16652:16666  tokenNameIndex */\n      dup9\n        /* \"contracts/Exchange.sol\":16645:16667  tokens[tokenNameIndex] */\n      0xff\n      and\n      0xff\n      and\n      dup2\n      mstore\n      0x20\n      add\n      swap1\n      dup2\n      mstore\n      0x20\n      add\n      0x0\n      keccak256\n        /* \"contracts/Exchange.sol\":16645:16676  tokens[tokenNameIndex].sellBook */\n      0x6\n      add\n        /* \"contracts/Exchange.sol\":16645:16688  tokens[tokenNameIndex].sellBook[whilePrice] */\n      0x0\n        /* \"contracts/Exchange.sol\":16677:16687  whilePrice */\n      dup6\n        /* \"contracts/Exchange.sol\":16645:16688  tokens[tokenNameIndex].sellBook[whilePrice] */\n      dup2\n      mstore\n      0x20\n      add\n      swap1\n      dup2\n      mstore\n      0x20\n      add\n      0x0\n      keccak256\n        /* \"contracts/Exchange.sol\":16645:16700  tokens[tokenNameIndex].sellBook[whilePrice].higherPrice */\n      0x0\n      add\n      sload\n        /* \"contracts/Exchange.sol\":16607:16613  tokens */\n      0x1\n        /* \"contracts/Exchange.sol\":16607:16629  tokens[tokenNameIndex] */\n      0x0\n        /* \"contracts/Exchange.sol\":16614:16628  tokenNameIndex */\n      dup10\n        /* \"contracts/Exchange.sol\":16607:16629  tokens[tokenNameIndex] */\n      0xff\n      and\n      0xff\n      and\n      dup2\n      mstore\n      0x20\n      add\n      swap1\n      dup2\n      mstore\n      0x20\n      add\n      0x0\n      keccak256\n        /* \"contracts/Exchange.sol\":16607:16642  tokens[tokenNameIndex].curSellPrice */\n      0x7\n      add\n        /* \"contracts/Exchange.sol\":16607:16700  tokens[tokenNameIndex].curSellPrice = tokens[tokenNameIndex].sellBook[whilePrice].higherPrice */\n      dup2\n      swap1\n      sstore\n      pop\n        /* \"contracts/Exchange.sol\":16831:16832  0 */\n      0x0\n        /* \"contracts/Exchange.sol\":16730:16736  tokens */\n      0x1\n        /* \"contracts/Exchange.sol\":16730:16752  tokens[tokenNameIndex] */\n      0x0\n        /* \"contracts/Exchange.sol\":16737:16751  tokenNameIndex */\n      dup10\n        /* \"contracts/Exchange.sol\":16730:16752  tokens[tokenNameIndex] */\n      0xff\n      and\n      0xff\n      and\n      dup2\n      mstore\n      0x20\n      add\n      swap1\n      dup2\n      mstore\n      0x20\n      add\n      0x0\n      keccak256\n        /* \"contracts/Exchange.sol\":16730:16761  tokens[tokenNameIndex].sellBook */\n      0x6\n      add\n        /* \"contracts/Exchange.sol\":16730:16817  tokens[tokenNameIndex].sellBook[tokens[tokenNameIndex].buyBook[whilePrice].higherPrice] */\n      0x0\n        /* \"contracts/Exchange.sol\":16762:16768  tokens */\n      0x1\n        /* \"contracts/Exchange.sol\":16762:16784  tokens[tokenNameIndex] */\n      0x0\n        /* \"contracts/Exchange.sol\":16769:16783  tokenNameIndex */\n      dup12\n        /* \"contracts/Exchange.sol\":16762:16784  tokens[tokenNameIndex] */\n      0xff\n      and\n      0xff\n      and\n      dup2\n      mstore\n      0x20\n      add\n      swap1\n      dup2\n      mstore\n      0x20\n      add\n      0x0\n      keccak256\n        /* \"contracts/Exchange.sol\":16762:16792  tokens[tokenNameIndex].buyBook */\n      0x2\n      add\n        /* \"contracts/Exchange.sol\":16762:16804  tokens[tokenNameIndex].buyBook[whilePrice] */\n      0x0\n        /* \"contracts/Exchange.sol\":16793:16803  whilePrice */\n      dup9\n        /* \"contracts/Exchange.sol\":16762:16804  tokens[tokenNameIndex].buyBook[whilePrice] */\n      dup2\n      mstore\n      0x20\n      add\n      swap1\n      dup2\n      mstore\n      0x20\n      add\n      0x0\n      keccak256\n        /* \"contracts/Exchange.sol\":16762:16816  tokens[tokenNameIndex].buyBook[whilePrice].higherPrice */\n      0x0\n      add\n      sload\n        /* \"contracts/Exchange.sol\":16730:16817  tokens[tokenNameIndex].sellBook[tokens[tokenNameIndex].buyBook[whilePrice].higherPrice] */\n      dup2\n      mstore\n      0x20\n      add\n      swap1\n      dup2\n      mstore\n      0x20\n      add\n      0x0\n      keccak256\n        /* \"contracts/Exchange.sol\":16730:16828  tokens[tokenNameIndex].sellBook[tokens[tokenNameIndex].buyBook[whilePrice].higherPrice].lowerPrice */\n      0x1\n      add\n        /* \"contracts/Exchange.sol\":16730:16832  tokens[tokenNameIndex].sellBook[tokens[tokenNameIndex].buyBook[whilePrice].higherPrice].lowerPrice = 0 */\n      dup2\n      swap1\n      sstore\n      pop\n        /* \"contracts/Exchange.sol\":16252:16859  if (whilePrice == tokens[tokenNameIndex].sellBook[whilePrice].higherPrice || tokens[tokenNameIndex].buyBook[whilePrice].higherPrice == 0) {... */\n    tag_128:\n        /* \"contracts/Exchange.sol\":15836:16881  if (... */\n    tag_125:\n        /* \"contracts/Exchange.sol\":16902:16914  offers_key++ */\n      dup2\n      dup1\n      0x1\n      add\n      swap3\n      pop\n      pop\n        /* \"contracts/Exchange.sol\":11764:16933  while (offers_key <= tokens[tokenNameIndex].sellBook[whilePrice].offers_length && amountNecessary > 0) {//and the first order (FIFO)... */\n      jump(tag_112)\n    tag_113:\n        /* \"contracts/Exchange.sol\":17098:17104  tokens */\n      0x1\n        /* \"contracts/Exchange.sol\":17098:17120  tokens[tokenNameIndex] */\n      0x0\n        /* \"contracts/Exchange.sol\":17105:17119  tokenNameIndex */\n      dup9\n        /* \"contracts/Exchange.sol\":17098:17120  tokens[tokenNameIndex] */\n      0xff\n      and\n      0xff\n      and\n      dup2\n      mstore\n      0x20\n      add\n      swap1\n      dup2\n      mstore\n      0x20\n      add\n      0x0\n      keccak256\n        /* \"contracts/Exchange.sol\":17098:17133  tokens[tokenNameIndex].curSellPrice */\n      0x7\n      add\n      sload\n        /* \"contracts/Exchange.sol\":17085:17133  whilePrice = tokens[tokenNameIndex].curSellPrice */\n      swap4\n      pop\n        /* \"contracts/Exchange.sol\":11565:17148  while (whilePrice <= priceInWei && amountNecessary > 0) {//we start with the smallest sell price.... */\n      jump(tag_109)\n    tag_110:\n        /* \"contracts/Exchange.sol\":17184:17185  0 */\n      0x0\n        /* \"contracts/Exchange.sol\":17166:17181  amountNecessary */\n      dup4\n        /* \"contracts/Exchange.sol\":17166:17185  amountNecessary > 0 */\n      gt\n        /* \"contracts/Exchange.sol\":17162:17306  if (amountNecessary > 0) {... */\n      iszero\n      tag_129\n      jumpi\n        /* \"contracts/Exchange.sol\":17205:17254  buyToken(symbolName, priceInWei, amountNecessary) */\n      tag_130\n        /* \"contracts/Exchange.sol\":17214:17224  symbolName */\n      dup11\n        /* \"contracts/Exchange.sol\":17226:17236  priceInWei */\n      dup11\n        /* \"contracts/Exchange.sol\":17238:17253  amountNecessary */\n      dup6\n        /* \"contracts/Exchange.sol\":17205:17213  buyToken */\n      tag_39\n        /* \"contracts/Exchange.sol\":17205:17254  buyToken(symbolName, priceInWei, amountNecessary) */\n      jump\t// in\n    tag_130:\n        /* \"contracts/Exchange.sol\":17162:17306  if (amountNecessary > 0) {... */\n    tag_129:\n        /* \"contracts/Exchange.sol\":9649:17316  if (tokens[tokenNameIndex].amountSellPrices == 0 || tokens[tokenNameIndex].curSellPrice > priceInWei) {... */\n    tag_108:\n        /* \"contracts/Exchange.sol\":9451:17322  function buyToken(string symbolName, uint priceInWei, uint amount) public {... */\n      pop\n      pop\n      pop\n      pop\n      pop\n      pop\n      pop\n      pop\n      pop\n      pop\n      jump\t// out\n        /* \"contracts/Exchange.sol\":7749:9344  function getSellOrderBook(string symbolName) view public returns (uint[], uint[]) {... */\n    tag_42:\n        /* \"contracts/Exchange.sol\":7815:7821  uint[] */\n      0x60\n        /* \"contracts/Exchange.sol\":7823:7829  uint[] */\n      dup1\n        /* \"contracts/Exchange.sol\":7841:7861  uint8 tokenNameIndex */\n      0x0\n        /* \"contracts/Exchange.sol\":7907:7934  uint[] memory arrPricesSell */\n      0x60\n        /* \"contracts/Exchange.sol\":7998:8026  uint[] memory arrVolumesSell */\n      dup1\n        /* \"contracts/Exchange.sol\":8090:8109  uint sellWhilePrice */\n      0x0\n        /* \"contracts/Exchange.sol\":8157:8173  uint sellCounter */\n      dup1\n        /* \"contracts/Exchange.sol\":8391:8413  uint sellVolumeAtPrice */\n      0x0\n        /* \"contracts/Exchange.sol\":8435:8455  uint sell_offers_key */\n      dup1\n        /* \"contracts/Exchange.sol\":7864:7897  getSymbolIndexOrThrow(symbolName) */\n      tag_132\n        /* \"contracts/Exchange.sol\":7886:7896  symbolName */\n      dup11\n        /* \"contracts/Exchange.sol\":7864:7885  getSymbolIndexOrThrow */\n      tag_57\n        /* \"contracts/Exchange.sol\":7864:7897  getSymbolIndexOrThrow(symbolName) */\n      jump\t// in\n    tag_132:\n        /* \"contracts/Exchange.sol\":7841:7897  uint8 tokenNameIndex = getSymbolIndexOrThrow(symbolName) */\n      swap7\n      pop\n        /* \"contracts/Exchange.sol\":7948:7954  tokens */\n      0x1\n        /* \"contracts/Exchange.sol\":7948:7970  tokens[tokenNameIndex] */\n      0x0\n        /* \"contracts/Exchange.sol\":7955:7969  tokenNameIndex */\n      dup9\n        /* \"contracts/Exchange.sol\":7948:7970  tokens[tokenNameIndex] */\n      0xff\n      and\n      0xff\n      and\n      dup2\n      mstore\n      0x20\n      add\n      swap1\n      dup2\n      mstore\n      0x20\n      add\n      0x0\n      keccak256\n        /* \"contracts/Exchange.sol\":7948:7987  tokens[tokenNameIndex].amountSellPrices */\n      0x9\n      add\n      sload\n        /* \"contracts/Exchange.sol\":7937:7988  new uint[](tokens[tokenNameIndex].amountSellPrices) */\n      mload(0x40)\n      swap1\n      dup1\n      dup3\n      mstore\n      dup1\n      0x20\n      mul\n      0x20\n      add\n      dup3\n      add\n      0x40\n      mstore\n      dup1\n      iszero\n      tag_133\n      jumpi\n      dup2\n      0x20\n      add\n        /* \"--CODEGEN--\":29:31   */\n      0x20\n        /* \"--CODEGEN--\":21:27   */\n      dup3\n        /* \"--CODEGEN--\":17:32   */\n      mul\n        /* \"--CODEGEN--\":117:121   */\n      dup1\n        /* \"--CODEGEN--\":105:115   */\n      codesize\n        /* \"--CODEGEN--\":97:103   */\n      dup4\n        /* \"--CODEGEN--\":88:122   */\n      codecopy\n        /* \"--CODEGEN--\":148:152   */\n      dup1\n        /* \"--CODEGEN--\":140:146   */\n      dup3\n        /* \"--CODEGEN--\":136:153   */\n      add\n        /* \"--CODEGEN--\":126:153   */\n      swap2\n      pop\n        /* \"--CODEGEN--\":0:157   */\n      pop\n        /* \"contracts/Exchange.sol\":7937:7988  new uint[](tokens[tokenNameIndex].amountSellPrices) */\n      swap1\n      pop\n    tag_133:\n      pop\n        /* \"contracts/Exchange.sol\":7907:7988  uint[] memory arrPricesSell = new uint[](tokens[tokenNameIndex].amountSellPrices) */\n      swap6\n      pop\n        /* \"contracts/Exchange.sol\":8040:8046  tokens */\n      0x1\n        /* \"contracts/Exchange.sol\":8040:8062  tokens[tokenNameIndex] */\n      0x0\n        /* \"contracts/Exchange.sol\":8047:8061  tokenNameIndex */\n      dup9\n        /* \"contracts/Exchange.sol\":8040:8062  tokens[tokenNameIndex] */\n      0xff\n      and\n      0xff\n      and\n      dup2\n      mstore\n      0x20\n      add\n      swap1\n      dup2\n      mstore\n      0x20\n      add\n      0x0\n      keccak256\n        /* \"contracts/Exchange.sol\":8040:8079  tokens[tokenNameIndex].amountSellPrices */\n      0x9\n      add\n      sload\n        /* \"contracts/Exchange.sol\":8029:8080  new uint[](tokens[tokenNameIndex].amountSellPrices) */\n      mload(0x40)\n      swap1\n      dup1\n      dup3\n      mstore\n      dup1\n      0x20\n      mul\n      0x20\n      add\n      dup3\n      add\n      0x40\n      mstore\n      dup1\n      iszero\n      tag_134\n      jumpi\n      dup2\n      0x20\n      add\n        /* \"--CODEGEN--\":29:31   */\n      0x20\n        /* \"--CODEGEN--\":21:27   */\n      dup3\n        /* \"--CODEGEN--\":17:32   */\n      mul\n        /* \"--CODEGEN--\":117:121   */\n      dup1\n        /* \"--CODEGEN--\":105:115   */\n      codesize\n        /* \"--CODEGEN--\":97:103   */\n      dup4\n        /* \"--CODEGEN--\":88:122   */\n      codecopy\n        /* \"--CODEGEN--\":148:152   */\n      dup1\n        /* \"--CODEGEN--\":140:146   */\n      dup3\n        /* \"--CODEGEN--\":136:153   */\n      add\n        /* \"--CODEGEN--\":126:153   */\n      swap2\n      pop\n        /* \"--CODEGEN--\":0:157   */\n      pop\n        /* \"contracts/Exchange.sol\":8029:8080  new uint[](tokens[tokenNameIndex].amountSellPrices) */\n      swap1\n      pop\n    tag_134:\n      pop\n        /* \"contracts/Exchange.sol\":7998:8080  uint[] memory arrVolumesSell = new uint[](tokens[tokenNameIndex].amountSellPrices) */\n      swap5\n      pop\n        /* \"contracts/Exchange.sol\":8112:8118  tokens */\n      0x1\n        /* \"contracts/Exchange.sol\":8112:8134  tokens[tokenNameIndex] */\n      0x0\n        /* \"contracts/Exchange.sol\":8119:8133  tokenNameIndex */\n      dup9\n        /* \"contracts/Exchange.sol\":8112:8134  tokens[tokenNameIndex] */\n      0xff\n      and\n      0xff\n      and\n      dup2\n      mstore\n      0x20\n      add\n      swap1\n      dup2\n      mstore\n      0x20\n      add\n      0x0\n      keccak256\n        /* \"contracts/Exchange.sol\":8112:8147  tokens[tokenNameIndex].curSellPrice */\n      0x7\n      add\n      sload\n        /* \"contracts/Exchange.sol\":8090:8147  uint sellWhilePrice = tokens[tokenNameIndex].curSellPrice */\n      swap4\n      pop\n        /* \"contracts/Exchange.sol\":8176:8177  0 */\n      0x0\n        /* \"contracts/Exchange.sol\":8157:8177  uint sellCounter = 0 */\n      swap3\n      pop\n        /* \"contracts/Exchange.sol\":8229:8230  0 */\n      0x0\n        /* \"contracts/Exchange.sol\":8191:8197  tokens */\n      0x1\n        /* \"contracts/Exchange.sol\":8191:8213  tokens[tokenNameIndex] */\n      0x0\n        /* \"contracts/Exchange.sol\":8198:8212  tokenNameIndex */\n      dup10\n        /* \"contracts/Exchange.sol\":8191:8213  tokens[tokenNameIndex] */\n      0xff\n      and\n      0xff\n      and\n      dup2\n      mstore\n      0x20\n      add\n      swap1\n      dup2\n      mstore\n      0x20\n      add\n      0x0\n      keccak256\n        /* \"contracts/Exchange.sol\":8191:8226  tokens[tokenNameIndex].curSellPrice */\n      0x7\n      add\n      sload\n        /* \"contracts/Exchange.sol\":8191:8230  tokens[tokenNameIndex].curSellPrice > 0 */\n      gt\n        /* \"contracts/Exchange.sol\":8187:9269  if (tokens[tokenNameIndex].curSellPrice > 0) {... */\n      iszero\n      tag_135\n      jumpi\n        /* \"contracts/Exchange.sol\":8246:9259  while (sellWhilePrice <= tokens[tokenNameIndex].highestSellPrice) {... */\n    tag_136:\n        /* \"contracts/Exchange.sol\":8271:8277  tokens */\n      0x1\n        /* \"contracts/Exchange.sol\":8271:8293  tokens[tokenNameIndex] */\n      0x0\n        /* \"contracts/Exchange.sol\":8278:8292  tokenNameIndex */\n      dup9\n        /* \"contracts/Exchange.sol\":8271:8293  tokens[tokenNameIndex] */\n      0xff\n      and\n      0xff\n      and\n      dup2\n      mstore\n      0x20\n      add\n      swap1\n      dup2\n      mstore\n      0x20\n      add\n      0x0\n      keccak256\n        /* \"contracts/Exchange.sol\":8271:8310  tokens[tokenNameIndex].highestSellPrice */\n      0x8\n      add\n      sload\n        /* \"contracts/Exchange.sol\":8253:8267  sellWhilePrice */\n      dup5\n        /* \"contracts/Exchange.sol\":8253:8310  sellWhilePrice <= tokens[tokenNameIndex].highestSellPrice */\n      gt\n      iszero\n        /* \"contracts/Exchange.sol\":8246:9259  while (sellWhilePrice <= tokens[tokenNameIndex].highestSellPrice) {... */\n      iszero\n      tag_137\n      jumpi\n        /* \"contracts/Exchange.sol\":8359:8373  sellWhilePrice */\n      dup4\n        /* \"contracts/Exchange.sol\":8330:8343  arrPricesSell */\n      dup7\n        /* \"contracts/Exchange.sol\":8344:8355  sellCounter */\n      dup5\n        /* \"contracts/Exchange.sol\":8330:8356  arrPricesSell[sellCounter] */\n      dup2\n      mload\n      dup2\n      lt\n      iszero\n      iszero\n      tag_138\n      jumpi\n      invalid\n    tag_138:\n      swap1\n      0x20\n      add\n      swap1\n      0x20\n      mul\n      add\n        /* \"contracts/Exchange.sol\":8330:8373  arrPricesSell[sellCounter] = sellWhilePrice */\n      dup2\n      dup2\n      mstore\n      pop\n      pop\n        /* \"contracts/Exchange.sol\":8416:8417  0 */\n      0x0\n        /* \"contracts/Exchange.sol\":8391:8417  uint sellVolumeAtPrice = 0 */\n      swap2\n      pop\n        /* \"contracts/Exchange.sol\":8458:8459  0 */\n      0x0\n        /* \"contracts/Exchange.sol\":8435:8459  uint sell_offers_key = 0 */\n      swap1\n      pop\n        /* \"contracts/Exchange.sol\":8496:8502  tokens */\n      0x1\n        /* \"contracts/Exchange.sol\":8496:8518  tokens[tokenNameIndex] */\n      0x0\n        /* \"contracts/Exchange.sol\":8503:8517  tokenNameIndex */\n      dup9\n        /* \"contracts/Exchange.sol\":8496:8518  tokens[tokenNameIndex] */\n      0xff\n      and\n      0xff\n      and\n      dup2\n      mstore\n      0x20\n      add\n      swap1\n      dup2\n      mstore\n      0x20\n      add\n      0x0\n      keccak256\n        /* \"contracts/Exchange.sol\":8496:8527  tokens[tokenNameIndex].sellBook */\n      0x6\n      add\n        /* \"contracts/Exchange.sol\":8496:8543  tokens[tokenNameIndex].sellBook[sellWhilePrice] */\n      0x0\n        /* \"contracts/Exchange.sol\":8528:8542  sellWhilePrice */\n      dup6\n        /* \"contracts/Exchange.sol\":8496:8543  tokens[tokenNameIndex].sellBook[sellWhilePrice] */\n      dup2\n      mstore\n      0x20\n      add\n      swap1\n      dup2\n      mstore\n      0x20\n      add\n      0x0\n      keccak256\n        /* \"contracts/Exchange.sol\":8496:8554  tokens[tokenNameIndex].sellBook[sellWhilePrice].offers_key */\n      0x3\n      add\n      sload\n        /* \"contracts/Exchange.sol\":8478:8554  sell_offers_key = tokens[tokenNameIndex].sellBook[sellWhilePrice].offers_key */\n      swap1\n      pop\n        /* \"contracts/Exchange.sol\":8572:8840  while (sell_offers_key <= tokens[tokenNameIndex].sellBook[sellWhilePrice].offers_length) {... */\n    tag_139:\n        /* \"contracts/Exchange.sol\":8598:8604  tokens */\n      0x1\n        /* \"contracts/Exchange.sol\":8598:8620  tokens[tokenNameIndex] */\n      0x0\n        /* \"contracts/Exchange.sol\":8605:8619  tokenNameIndex */\n      dup9\n        /* \"contracts/Exchange.sol\":8598:8620  tokens[tokenNameIndex] */\n      0xff\n      and\n      0xff\n      and\n      dup2\n      mstore\n      0x20\n      add\n      swap1\n      dup2\n      mstore\n      0x20\n      add\n      0x0\n      keccak256\n        /* \"contracts/Exchange.sol\":8598:8629  tokens[tokenNameIndex].sellBook */\n      0x6\n      add\n        /* \"contracts/Exchange.sol\":8598:8645  tokens[tokenNameIndex].sellBook[sellWhilePrice] */\n      0x0\n        /* \"contracts/Exchange.sol\":8630:8644  sellWhilePrice */\n      dup6\n        /* \"contracts/Exchange.sol\":8598:8645  tokens[tokenNameIndex].sellBook[sellWhilePrice] */\n      dup2\n      mstore\n      0x20\n      add\n      swap1\n      dup2\n      mstore\n      0x20\n      add\n      0x0\n      keccak256\n        /* \"contracts/Exchange.sol\":8598:8659  tokens[tokenNameIndex].sellBook[sellWhilePrice].offers_length */\n      0x4\n      add\n      sload\n        /* \"contracts/Exchange.sol\":8579:8594  sell_offers_key */\n      dup2\n        /* \"contracts/Exchange.sol\":8579:8659  sell_offers_key <= tokens[tokenNameIndex].sellBook[sellWhilePrice].offers_length */\n      gt\n      iszero\n        /* \"contracts/Exchange.sol\":8572:8840  while (sell_offers_key <= tokens[tokenNameIndex].sellBook[sellWhilePrice].offers_length) {... */\n      iszero\n      tag_140\n      jumpi\n        /* \"contracts/Exchange.sol\":8704:8710  tokens */\n      0x1\n        /* \"contracts/Exchange.sol\":8704:8726  tokens[tokenNameIndex] */\n      0x0\n        /* \"contracts/Exchange.sol\":8711:8725  tokenNameIndex */\n      dup9\n        /* \"contracts/Exchange.sol\":8704:8726  tokens[tokenNameIndex] */\n      0xff\n      and\n      0xff\n      and\n      dup2\n      mstore\n      0x20\n      add\n      swap1\n      dup2\n      mstore\n      0x20\n      add\n      0x0\n      keccak256\n        /* \"contracts/Exchange.sol\":8704:8735  tokens[tokenNameIndex].sellBook */\n      0x6\n      add\n        /* \"contracts/Exchange.sol\":8704:8751  tokens[tokenNameIndex].sellBook[sellWhilePrice] */\n      0x0\n        /* \"contracts/Exchange.sol\":8736:8750  sellWhilePrice */\n      dup6\n        /* \"contracts/Exchange.sol\":8704:8751  tokens[tokenNameIndex].sellBook[sellWhilePrice] */\n      dup2\n      mstore\n      0x20\n      add\n      swap1\n      dup2\n      mstore\n      0x20\n      add\n      0x0\n      keccak256\n        /* \"contracts/Exchange.sol\":8704:8758  tokens[tokenNameIndex].sellBook[sellWhilePrice].offers */\n      0x2\n      add\n        /* \"contracts/Exchange.sol\":8704:8775  tokens[tokenNameIndex].sellBook[sellWhilePrice].offers[sell_offers_key] */\n      0x0\n        /* \"contracts/Exchange.sol\":8759:8774  sell_offers_key */\n      dup3\n        /* \"contracts/Exchange.sol\":8704:8775  tokens[tokenNameIndex].sellBook[sellWhilePrice].offers[sell_offers_key] */\n      dup2\n      mstore\n      0x20\n      add\n      swap1\n      dup2\n      mstore\n      0x20\n      add\n      0x0\n      keccak256\n        /* \"contracts/Exchange.sol\":8704:8782  tokens[tokenNameIndex].sellBook[sellWhilePrice].offers[sell_offers_key].amount */\n      0x0\n      add\n      sload\n        /* \"contracts/Exchange.sol\":8683:8782  sellVolumeAtPrice += tokens[tokenNameIndex].sellBook[sellWhilePrice].offers[sell_offers_key].amount */\n      dup3\n      add\n      swap2\n      pop\n        /* \"contracts/Exchange.sol\":8804:8821  sell_offers_key++ */\n      dup1\n      dup1\n      0x1\n      add\n      swap2\n      pop\n      pop\n        /* \"contracts/Exchange.sol\":8572:8840  while (sell_offers_key <= tokens[tokenNameIndex].sellBook[sellWhilePrice].offers_length) {... */\n      jump(tag_139)\n    tag_140:\n        /* \"contracts/Exchange.sol\":8888:8905  sellVolumeAtPrice */\n      dup2\n        /* \"contracts/Exchange.sol\":8858:8872  arrVolumesSell */\n      dup6\n        /* \"contracts/Exchange.sol\":8873:8884  sellCounter */\n      dup5\n        /* \"contracts/Exchange.sol\":8858:8885  arrVolumesSell[sellCounter] */\n      dup2\n      mload\n      dup2\n      lt\n      iszero\n      iszero\n      tag_141\n      jumpi\n      invalid\n    tag_141:\n      swap1\n      0x20\n      add\n      swap1\n      0x20\n      mul\n      add\n        /* \"contracts/Exchange.sol\":8858:8905  arrVolumesSell[sellCounter] = sellVolumeAtPrice */\n      dup2\n      dup2\n      mstore\n      pop\n      pop\n        /* \"contracts/Exchange.sol\":9025:9026  0 */\n      0x0\n        /* \"contracts/Exchange.sol\":8962:8968  tokens */\n      0x1\n        /* \"contracts/Exchange.sol\":8962:8984  tokens[tokenNameIndex] */\n      0x0\n        /* \"contracts/Exchange.sol\":8969:8983  tokenNameIndex */\n      dup10\n        /* \"contracts/Exchange.sol\":8962:8984  tokens[tokenNameIndex] */\n      0xff\n      and\n      0xff\n      and\n      dup2\n      mstore\n      0x20\n      add\n      swap1\n      dup2\n      mstore\n      0x20\n      add\n      0x0\n      keccak256\n        /* \"contracts/Exchange.sol\":8962:8993  tokens[tokenNameIndex].sellBook */\n      0x6\n      add\n        /* \"contracts/Exchange.sol\":8962:9009  tokens[tokenNameIndex].sellBook[sellWhilePrice] */\n      0x0\n        /* \"contracts/Exchange.sol\":8994:9008  sellWhilePrice */\n      dup7\n        /* \"contracts/Exchange.sol\":8962:9009  tokens[tokenNameIndex].sellBook[sellWhilePrice] */\n      dup2\n      mstore\n      0x20\n      add\n      swap1\n      dup2\n      mstore\n      0x20\n      add\n      0x0\n      keccak256\n        /* \"contracts/Exchange.sol\":8962:9021  tokens[tokenNameIndex].sellBook[sellWhilePrice].higherPrice */\n      0x0\n      add\n      sload\n        /* \"contracts/Exchange.sol\":8962:9026  tokens[tokenNameIndex].sellBook[sellWhilePrice].higherPrice == 0 */\n      eq\n        /* \"contracts/Exchange.sol\":8958:9213  if (tokens[tokenNameIndex].sellBook[sellWhilePrice].higherPrice == 0) {... */\n      iszero\n      tag_142\n      jumpi\n        /* \"contracts/Exchange.sol\":9050:9055  break */\n      jump(tag_137)\n        /* \"contracts/Exchange.sol\":8958:9213  if (tokens[tokenNameIndex].sellBook[sellWhilePrice].higherPrice == 0) {... */\n    tag_142:\n        /* \"contracts/Exchange.sol\":9135:9141  tokens */\n      0x1\n        /* \"contracts/Exchange.sol\":9135:9157  tokens[tokenNameIndex] */\n      0x0\n        /* \"contracts/Exchange.sol\":9142:9156  tokenNameIndex */\n      dup9\n        /* \"contracts/Exchange.sol\":9135:9157  tokens[tokenNameIndex] */\n      0xff\n      and\n      0xff\n      and\n      dup2\n      mstore\n      0x20\n      add\n      swap1\n      dup2\n      mstore\n      0x20\n      add\n      0x0\n      keccak256\n        /* \"contracts/Exchange.sol\":9135:9166  tokens[tokenNameIndex].sellBook */\n      0x6\n      add\n        /* \"contracts/Exchange.sol\":9135:9182  tokens[tokenNameIndex].sellBook[sellWhilePrice] */\n      0x0\n        /* \"contracts/Exchange.sol\":9167:9181  sellWhilePrice */\n      dup6\n        /* \"contracts/Exchange.sol\":9135:9182  tokens[tokenNameIndex].sellBook[sellWhilePrice] */\n      dup2\n      mstore\n      0x20\n      add\n      swap1\n      dup2\n      mstore\n      0x20\n      add\n      0x0\n      keccak256\n        /* \"contracts/Exchange.sol\":9135:9194  tokens[tokenNameIndex].sellBook[sellWhilePrice].higherPrice */\n      0x0\n      add\n      sload\n        /* \"contracts/Exchange.sol\":9118:9194  sellWhilePrice = tokens[tokenNameIndex].sellBook[sellWhilePrice].higherPrice */\n      swap4\n      pop\n        /* \"contracts/Exchange.sol\":9230:9243  sellCounter++ */\n      dup3\n      dup1\n      0x1\n      add\n      swap4\n      pop\n      pop\n        /* \"contracts/Exchange.sol\":8246:9259  while (sellWhilePrice <= tokens[tokenNameIndex].highestSellPrice) {... */\n      jump(tag_136)\n    tag_137:\n        /* \"contracts/Exchange.sol\":8187:9269  if (tokens[tokenNameIndex].curSellPrice > 0) {... */\n    tag_135:\n        /* \"contracts/Exchange.sol\":9307:9320  arrPricesSell */\n      dup6\n        /* \"contracts/Exchange.sol\":9322:9336  arrVolumesSell */\n      dup6\n        /* \"contracts/Exchange.sol\":9299:9337  return (arrPricesSell, arrVolumesSell) */\n      swap9\n      pop\n      swap9\n      pop\n        /* \"contracts/Exchange.sol\":7749:9344  function getSellOrderBook(string symbolName) view public returns (uint[], uint[]) {... */\n      pop\n      pop\n      pop\n      pop\n      pop\n      pop\n      pop\n      swap2\n      pop\n      swap2\n      jump\t// out\n        /* \"contracts/Exchange.sol\":21024:29363  function sellToken(string symbolName, uint priceInWei, uint amount) public {... */\n    tag_51:\n        /* \"contracts/Exchange.sol\":21109:21129  uint8 tokenNameIndex */\n      0x0\n        /* \"contracts/Exchange.sol\":21175:21208  uint total_amount_ether_necessary */\n      dup1\n        /* \"contracts/Exchange.sol\":21222:21255  uint total_amount_ether_available */\n      0x0\n        /* \"contracts/Exchange.sol\":23012:23027  uint whilePrice */\n      dup1\n        /* \"contracts/Exchange.sol\":23078:23098  uint amountNecessary */\n      0x0\n        /* \"contracts/Exchange.sol\":23121:23136  uint offers_key */\n      dup1\n        /* \"contracts/Exchange.sol\":23498:23527  uint volumeAtPriceFromAddress */\n      0x0\n        /* \"contracts/Exchange.sol\":21132:21165  getSymbolIndexOrThrow(symbolName) */\n      tag_145\n        /* \"contracts/Exchange.sol\":21154:21164  symbolName */\n      dup11\n        /* \"contracts/Exchange.sol\":21132:21153  getSymbolIndexOrThrow */\n      tag_57\n        /* \"contracts/Exchange.sol\":21132:21165  getSymbolIndexOrThrow(symbolName) */\n      jump\t// in\n    tag_145:\n        /* \"contracts/Exchange.sol\":21109:21165  uint8 tokenNameIndex = getSymbolIndexOrThrow(symbolName) */\n      swap7\n      pop\n        /* \"contracts/Exchange.sol\":21211:21212  0 */\n      0x0\n        /* \"contracts/Exchange.sol\":21175:21212  uint total_amount_ether_necessary = 0 */\n      swap6\n      pop\n        /* \"contracts/Exchange.sol\":21258:21259  0 */\n      0x0\n        /* \"contracts/Exchange.sol\":21222:21259  uint total_amount_ether_available = 0 */\n      swap5\n      pop\n        /* \"contracts/Exchange.sol\":21317:21318  0 */\n      0x0\n        /* \"contracts/Exchange.sol\":21275:21281  tokens */\n      0x1\n        /* \"contracts/Exchange.sol\":21275:21297  tokens[tokenNameIndex] */\n      0x0\n        /* \"contracts/Exchange.sol\":21282:21296  tokenNameIndex */\n      dup10\n        /* \"contracts/Exchange.sol\":21275:21297  tokens[tokenNameIndex] */\n      0xff\n      and\n      0xff\n      and\n      dup2\n      mstore\n      0x20\n      add\n      swap1\n      dup2\n      mstore\n      0x20\n      add\n      0x0\n      keccak256\n        /* \"contracts/Exchange.sol\":21275:21313  tokens[tokenNameIndex].amountBuyPrices */\n      0x5\n      add\n      sload\n        /* \"contracts/Exchange.sol\":21275:21318  tokens[tokenNameIndex].amountBuyPrices == 0 */\n      eq\n        /* \"contracts/Exchange.sol\":21275:21369  tokens[tokenNameIndex].amountBuyPrices == 0 || tokens[tokenNameIndex].curBuyPrice < priceInWei */\n      dup1\n      tag_146\n      jumpi\n      pop\n        /* \"contracts/Exchange.sol\":21359:21369  priceInWei */\n      dup9\n        /* \"contracts/Exchange.sol\":21322:21328  tokens */\n      0x1\n        /* \"contracts/Exchange.sol\":21322:21344  tokens[tokenNameIndex] */\n      0x0\n        /* \"contracts/Exchange.sol\":21329:21343  tokenNameIndex */\n      dup10\n        /* \"contracts/Exchange.sol\":21322:21344  tokens[tokenNameIndex] */\n      0xff\n      and\n      0xff\n      and\n      dup2\n      mstore\n      0x20\n      add\n      swap1\n      dup2\n      mstore\n      0x20\n      add\n      0x0\n      keccak256\n        /* \"contracts/Exchange.sol\":21322:21356  tokens[tokenNameIndex].curBuyPrice */\n      0x3\n      add\n      sload\n        /* \"contracts/Exchange.sol\":21322:21369  tokens[tokenNameIndex].curBuyPrice < priceInWei */\n      lt\n        /* \"contracts/Exchange.sol\":21275:21369  tokens[tokenNameIndex].amountBuyPrices == 0 || tokens[tokenNameIndex].curBuyPrice < priceInWei */\n    tag_146:\n        /* \"contracts/Exchange.sol\":21271:29357  if (tokens[tokenNameIndex].amountBuyPrices == 0 || tokens[tokenNameIndex].curBuyPrice < priceInWei) {... */\n      iszero\n      tag_147\n      jumpi\n        /* \"contracts/Exchange.sol\":21482:21492  priceInWei */\n      dup9\n        /* \"contracts/Exchange.sol\":21473:21479  amount */\n      dup9\n        /* \"contracts/Exchange.sol\":21473:21492  amount * priceInWei */\n      mul\n        /* \"contracts/Exchange.sol\":21442:21492  total_amount_ether_necessary = amount * priceInWei */\n      swap6\n      pop\n        /* \"contracts/Exchange.sol\":21576:21582  amount */\n      dup8\n        /* \"contracts/Exchange.sol\":21544:21572  total_amount_ether_necessary */\n      dup7\n        /* \"contracts/Exchange.sol\":21544:21582  total_amount_ether_necessary >= amount */\n      lt\n      iszero\n        /* \"contracts/Exchange.sol\":21536:21583  require(total_amount_ether_necessary >= amount) */\n      iszero\n      iszero\n      tag_148\n      jumpi\n      0x0\n      dup1\n      revert\n    tag_148:\n        /* \"contracts/Exchange.sol\":21637:21647  priceInWei */\n      dup9\n        /* \"contracts/Exchange.sol\":21605:21633  total_amount_ether_necessary */\n      dup7\n        /* \"contracts/Exchange.sol\":21605:21647  total_amount_ether_necessary >= priceInWei */\n      lt\n      iszero\n        /* \"contracts/Exchange.sol\":21597:21648  require(total_amount_ether_necessary >= priceInWei) */\n      iszero\n      iszero\n      tag_149\n      jumpi\n      0x0\n      dup1\n      revert\n    tag_149:\n        /* \"contracts/Exchange.sol\":21724:21730  amount */\n      dup8\n        /* \"contracts/Exchange.sol\":21670:21692  tokenBalanceForAddress */\n      0x3\n        /* \"contracts/Exchange.sol\":21670:21704  tokenBalanceForAddress[msg.sender] */\n      0x0\n        /* \"contracts/Exchange.sol\":21693:21703  msg.sender */\n      caller\n        /* \"contracts/Exchange.sol\":21670:21704  tokenBalanceForAddress[msg.sender] */\n      0xffffffffffffffffffffffffffffffffffffffff\n      and\n      0xffffffffffffffffffffffffffffffffffffffff\n      and\n      dup2\n      mstore\n      0x20\n      add\n      swap1\n      dup2\n      mstore\n      0x20\n      add\n      0x0\n      keccak256\n        /* \"contracts/Exchange.sol\":21670:21720  tokenBalanceForAddress[msg.sender][tokenNameIndex] */\n      0x0\n        /* \"contracts/Exchange.sol\":21705:21719  tokenNameIndex */\n      dup10\n        /* \"contracts/Exchange.sol\":21670:21720  tokenBalanceForAddress[msg.sender][tokenNameIndex] */\n      0xff\n      and\n      0xff\n      and\n      dup2\n      mstore\n      0x20\n      add\n      swap1\n      dup2\n      mstore\n      0x20\n      add\n      0x0\n      keccak256\n      sload\n        /* \"contracts/Exchange.sol\":21670:21730  tokenBalanceForAddress[msg.sender][tokenNameIndex] >= amount */\n      lt\n      iszero\n        /* \"contracts/Exchange.sol\":21662:21731  require(tokenBalanceForAddress[msg.sender][tokenNameIndex] >= amount) */\n      iszero\n      iszero\n      tag_150\n      jumpi\n      0x0\n      dup1\n      revert\n    tag_150:\n        /* \"contracts/Exchange.sol\":21816:21817  0 */\n      0x0\n        /* \"contracts/Exchange.sol\":21806:21812  amount */\n      dup9\n        /* \"contracts/Exchange.sol\":21753:21775  tokenBalanceForAddress */\n      0x3\n        /* \"contracts/Exchange.sol\":21753:21787  tokenBalanceForAddress[msg.sender] */\n      0x0\n        /* \"contracts/Exchange.sol\":21776:21786  msg.sender */\n      caller\n        /* \"contracts/Exchange.sol\":21753:21787  tokenBalanceForAddress[msg.sender] */\n      0xffffffffffffffffffffffffffffffffffffffff\n      and\n      0xffffffffffffffffffffffffffffffffffffffff\n      and\n      dup2\n      mstore\n      0x20\n      add\n      swap1\n      dup2\n      mstore\n      0x20\n      add\n      0x0\n      keccak256\n        /* \"contracts/Exchange.sol\":21753:21803  tokenBalanceForAddress[msg.sender][tokenNameIndex] */\n      0x0\n        /* \"contracts/Exchange.sol\":21788:21802  tokenNameIndex */\n      dup11\n        /* \"contracts/Exchange.sol\":21753:21803  tokenBalanceForAddress[msg.sender][tokenNameIndex] */\n      0xff\n      and\n      0xff\n      and\n      dup2\n      mstore\n      0x20\n      add\n      swap1\n      dup2\n      mstore\n      0x20\n      add\n      0x0\n      keccak256\n      sload\n        /* \"contracts/Exchange.sol\":21753:21812  tokenBalanceForAddress[msg.sender][tokenNameIndex] - amount */\n      sub\n        /* \"contracts/Exchange.sol\":21753:21817  tokenBalanceForAddress[msg.sender][tokenNameIndex] - amount >= 0 */\n      lt\n      iszero\n        /* \"contracts/Exchange.sol\":21745:21818  require(tokenBalanceForAddress[msg.sender][tokenNameIndex] - amount >= 0) */\n      iszero\n      iszero\n      tag_151\n      jumpi\n      0x0\n      dup1\n      revert\n    tag_151:\n        /* \"contracts/Exchange.sol\":21907:21927  balanceEthForAddress */\n      0x4\n        /* \"contracts/Exchange.sol\":21907:21939  balanceEthForAddress[msg.sender] */\n      0x0\n        /* \"contracts/Exchange.sol\":21928:21938  msg.sender */\n      caller\n        /* \"contracts/Exchange.sol\":21907:21939  balanceEthForAddress[msg.sender] */\n      0xffffffffffffffffffffffffffffffffffffffff\n      and\n      0xffffffffffffffffffffffffffffffffffffffff\n      and\n      dup2\n      mstore\n      0x20\n      add\n      swap1\n      dup2\n      mstore\n      0x20\n      add\n      0x0\n      keccak256\n      sload\n        /* \"contracts/Exchange.sol\":21875:21903  total_amount_ether_necessary */\n      dup7\n        /* \"contracts/Exchange.sol\":21840:21860  balanceEthForAddress */\n      0x4\n        /* \"contracts/Exchange.sol\":21840:21872  balanceEthForAddress[msg.sender] */\n      0x0\n        /* \"contracts/Exchange.sol\":21861:21871  msg.sender */\n      caller\n        /* \"contracts/Exchange.sol\":21840:21872  balanceEthForAddress[msg.sender] */\n      0xffffffffffffffffffffffffffffffffffffffff\n      and\n      0xffffffffffffffffffffffffffffffffffffffff\n      and\n      dup2\n      mstore\n      0x20\n      add\n      swap1\n      dup2\n      mstore\n      0x20\n      add\n      0x0\n      keccak256\n      sload\n        /* \"contracts/Exchange.sol\":21840:21903  balanceEthForAddress[msg.sender] + total_amount_ether_necessary */\n      add\n        /* \"contracts/Exchange.sol\":21840:21939  balanceEthForAddress[msg.sender] + total_amount_ether_necessary >= balanceEthForAddress[msg.sender] */\n      lt\n      iszero\n        /* \"contracts/Exchange.sol\":21832:21940  require(balanceEthForAddress[msg.sender] + total_amount_ether_necessary >= balanceEthForAddress[msg.sender]) */\n      iszero\n      iszero\n      tag_152\n      jumpi\n      0x0\n      dup1\n      revert\n    tag_152:\n        /* \"contracts/Exchange.sol\":22080:22086  amount */\n      dup8\n        /* \"contracts/Exchange.sol\":22026:22048  tokenBalanceForAddress */\n      0x3\n        /* \"contracts/Exchange.sol\":22026:22060  tokenBalanceForAddress[msg.sender] */\n      0x0\n        /* \"contracts/Exchange.sol\":22049:22059  msg.sender */\n      caller\n        /* \"contracts/Exchange.sol\":22026:22060  tokenBalanceForAddress[msg.sender] */\n      0xffffffffffffffffffffffffffffffffffffffff\n      and\n      0xffffffffffffffffffffffffffffffffffffffff\n      and\n      dup2\n      mstore\n      0x20\n      add\n      swap1\n      dup2\n      mstore\n      0x20\n      add\n      0x0\n      keccak256\n        /* \"contracts/Exchange.sol\":22026:22076  tokenBalanceForAddress[msg.sender][tokenNameIndex] */\n      0x0\n        /* \"contracts/Exchange.sol\":22061:22075  tokenNameIndex */\n      dup10\n        /* \"contracts/Exchange.sol\":22026:22076  tokenBalanceForAddress[msg.sender][tokenNameIndex] */\n      0xff\n      and\n      0xff\n      and\n      dup2\n      mstore\n      0x20\n      add\n      swap1\n      dup2\n      mstore\n      0x20\n      add\n      0x0\n      keccak256\n      0x0\n        /* \"contracts/Exchange.sol\":22026:22086  tokenBalanceForAddress[msg.sender][tokenNameIndex] -= amount */\n      dup3\n      dup3\n      sload\n      sub\n      swap3\n      pop\n      pop\n      dup2\n      swap1\n      sstore\n      pop\n        /* \"contracts/Exchange.sol\":22224:22284  addSellOffer(tokenNameIndex, priceInWei, amount, msg.sender) */\n      tag_153\n        /* \"contracts/Exchange.sol\":22237:22251  tokenNameIndex */\n      dup8\n        /* \"contracts/Exchange.sol\":22253:22263  priceInWei */\n      dup11\n        /* \"contracts/Exchange.sol\":22265:22271  amount */\n      dup11\n        /* \"contracts/Exchange.sol\":22273:22283  msg.sender */\n      caller\n        /* \"contracts/Exchange.sol\":22224:22236  addSellOffer */\n      tag_154\n        /* \"contracts/Exchange.sol\":22224:22284  addSellOffer(tokenNameIndex, priceInWei, amount, msg.sender) */\n      jump\t// in\n    tag_153:\n        /* \"contracts/Exchange.sol\":22375:22385  msg.sender */\n      caller\n        /* \"contracts/Exchange.sol\":22337:22465  LimitSellOrderCreated(tokenNameIndex, msg.sender, amount, priceInWei, tokens[tokenNameIndex].sellBook[priceInWei].offers_length) */\n      0xffffffffffffffffffffffffffffffffffffffff\n      and\n        /* \"contracts/Exchange.sol\":22359:22373  tokenNameIndex */\n      dup8\n        /* \"contracts/Exchange.sol\":22337:22465  LimitSellOrderCreated(tokenNameIndex, msg.sender, amount, priceInWei, tokens[tokenNameIndex].sellBook[priceInWei].offers_length) */\n      0xff\n      and\n      0xc7d136f10bcb424de2ff60d5473d863ed2fdcd5d352e045d89ee9581f54f6afb\n        /* \"contracts/Exchange.sol\":22387:22393  amount */\n      dup11\n        /* \"contracts/Exchange.sol\":22395:22405  priceInWei */\n      dup13\n        /* \"contracts/Exchange.sol\":22407:22413  tokens */\n      0x1\n        /* \"contracts/Exchange.sol\":22407:22429  tokens[tokenNameIndex] */\n      0x0\n        /* \"contracts/Exchange.sol\":22414:22428  tokenNameIndex */\n      dup14\n        /* \"contracts/Exchange.sol\":22407:22429  tokens[tokenNameIndex] */\n      0xff\n      and\n      0xff\n      and\n      dup2\n      mstore\n      0x20\n      add\n      swap1\n      dup2\n      mstore\n      0x20\n      add\n      0x0\n      keccak256\n        /* \"contracts/Exchange.sol\":22407:22438  tokens[tokenNameIndex].sellBook */\n      0x6\n      add\n        /* \"contracts/Exchange.sol\":22407:22450  tokens[tokenNameIndex].sellBook[priceInWei] */\n      0x0\n        /* \"contracts/Exchange.sol\":22439:22449  priceInWei */\n      dup16\n        /* \"contracts/Exchange.sol\":22407:22450  tokens[tokenNameIndex].sellBook[priceInWei] */\n      dup2\n      mstore\n      0x20\n      add\n      swap1\n      dup2\n      mstore\n      0x20\n      add\n      0x0\n      keccak256\n        /* \"contracts/Exchange.sol\":22407:22464  tokens[tokenNameIndex].sellBook[priceInWei].offers_length */\n      0x4\n      add\n      sload\n        /* \"contracts/Exchange.sol\":22337:22465  LimitSellOrderCreated(tokenNameIndex, msg.sender, amount, priceInWei, tokens[tokenNameIndex].sellBook[priceInWei].offers_length) */\n      mload(0x40)\n      dup1\n      dup5\n      dup2\n      mstore\n      0x20\n      add\n      dup4\n      dup2\n      mstore\n      0x20\n      add\n      dup3\n      dup2\n      mstore\n      0x20\n      add\n      swap4\n      pop\n      pop\n      pop\n      pop\n      mload(0x40)\n      dup1\n      swap2\n      sub\n      swap1\n      log3\n        /* \"contracts/Exchange.sol\":21271:29357  if (tokens[tokenNameIndex].amountBuyPrices == 0 || tokens[tokenNameIndex].curBuyPrice < priceInWei) {... */\n      jump(tag_155)\n    tag_147:\n        /* \"contracts/Exchange.sol\":23030:23036  tokens */\n      0x1\n        /* \"contracts/Exchange.sol\":23030:23052  tokens[tokenNameIndex] */\n      0x0\n        /* \"contracts/Exchange.sol\":23037:23051  tokenNameIndex */\n      dup9\n        /* \"contracts/Exchange.sol\":23030:23052  tokens[tokenNameIndex] */\n      0xff\n      and\n      0xff\n      and\n      dup2\n      mstore\n      0x20\n      add\n      swap1\n      dup2\n      mstore\n      0x20\n      add\n      0x0\n      keccak256\n        /* \"contracts/Exchange.sol\":23030:23064  tokens[tokenNameIndex].curBuyPrice */\n      0x3\n      add\n      sload\n        /* \"contracts/Exchange.sol\":23012:23064  uint whilePrice = tokens[tokenNameIndex].curBuyPrice */\n      swap4\n      pop\n        /* \"contracts/Exchange.sol\":23101:23107  amount */\n      dup8\n        /* \"contracts/Exchange.sol\":23078:23107  uint amountNecessary = amount */\n      swap3\n      pop\n        /* \"contracts/Exchange.sol\":23150:29151  while (whilePrice >= priceInWei && amountNecessary > 0) {//we start with the highest buy price.... */\n    tag_156:\n        /* \"contracts/Exchange.sol\":23171:23181  priceInWei */\n      dup9\n        /* \"contracts/Exchange.sol\":23157:23167  whilePrice */\n      dup5\n        /* \"contracts/Exchange.sol\":23157:23181  whilePrice >= priceInWei */\n      lt\n      iszero\n        /* \"contracts/Exchange.sol\":23157:23204  whilePrice >= priceInWei && amountNecessary > 0 */\n      dup1\n      iszero\n      tag_158\n      jumpi\n      pop\n        /* \"contracts/Exchange.sol\":23203:23204  0 */\n      0x0\n        /* \"contracts/Exchange.sol\":23185:23200  amountNecessary */\n      dup4\n        /* \"contracts/Exchange.sol\":23185:23204  amountNecessary > 0 */\n      gt\n        /* \"contracts/Exchange.sol\":23157:23204  whilePrice >= priceInWei && amountNecessary > 0 */\n    tag_158:\n        /* \"contracts/Exchange.sol\":23150:29151  while (whilePrice >= priceInWei && amountNecessary > 0) {//we start with the highest buy price.... */\n      iszero\n      tag_157\n      jumpi\n        /* \"contracts/Exchange.sol\":23275:23281  tokens */\n      0x1\n        /* \"contracts/Exchange.sol\":23275:23297  tokens[tokenNameIndex] */\n      0x0\n        /* \"contracts/Exchange.sol\":23282:23296  tokenNameIndex */\n      dup9\n        /* \"contracts/Exchange.sol\":23275:23297  tokens[tokenNameIndex] */\n      0xff\n      and\n      0xff\n      and\n      dup2\n      mstore\n      0x20\n      add\n      swap1\n      dup2\n      mstore\n      0x20\n      add\n      0x0\n      keccak256\n        /* \"contracts/Exchange.sol\":23275:23305  tokens[tokenNameIndex].buyBook */\n      0x2\n      add\n        /* \"contracts/Exchange.sol\":23275:23317  tokens[tokenNameIndex].buyBook[whilePrice] */\n      0x0\n        /* \"contracts/Exchange.sol\":23306:23316  whilePrice */\n      dup6\n        /* \"contracts/Exchange.sol\":23275:23317  tokens[tokenNameIndex].buyBook[whilePrice] */\n      dup2\n      mstore\n      0x20\n      add\n      swap1\n      dup2\n      mstore\n      0x20\n      add\n      0x0\n      keccak256\n        /* \"contracts/Exchange.sol\":23275:23328  tokens[tokenNameIndex].buyBook[whilePrice].offers_key */\n      0x3\n      add\n      sload\n        /* \"contracts/Exchange.sol\":23262:23328  offers_key = tokens[tokenNameIndex].buyBook[whilePrice].offers_key */\n      swap2\n      pop\n        /* \"contracts/Exchange.sol\":23346:28937  while (offers_key <= tokens[tokenNameIndex].buyBook[whilePrice].offers_length && amountNecessary > 0) {//and the first order (FIFO)... */\n    tag_159:\n        /* \"contracts/Exchange.sol\":23367:23373  tokens */\n      0x1\n        /* \"contracts/Exchange.sol\":23367:23389  tokens[tokenNameIndex] */\n      0x0\n        /* \"contracts/Exchange.sol\":23374:23388  tokenNameIndex */\n      dup9\n        /* \"contracts/Exchange.sol\":23367:23389  tokens[tokenNameIndex] */\n      0xff\n      and\n      0xff\n      and\n      dup2\n      mstore\n      0x20\n      add\n      swap1\n      dup2\n      mstore\n      0x20\n      add\n      0x0\n      keccak256\n        /* \"contracts/Exchange.sol\":23367:23397  tokens[tokenNameIndex].buyBook */\n      0x2\n      add\n        /* \"contracts/Exchange.sol\":23367:23409  tokens[tokenNameIndex].buyBook[whilePrice] */\n      0x0\n        /* \"contracts/Exchange.sol\":23398:23408  whilePrice */\n      dup6\n        /* \"contracts/Exchange.sol\":23367:23409  tokens[tokenNameIndex].buyBook[whilePrice] */\n      dup2\n      mstore\n      0x20\n      add\n      swap1\n      dup2\n      mstore\n      0x20\n      add\n      0x0\n      keccak256\n        /* \"contracts/Exchange.sol\":23367:23423  tokens[tokenNameIndex].buyBook[whilePrice].offers_length */\n      0x4\n      add\n      sload\n        /* \"contracts/Exchange.sol\":23353:23363  offers_key */\n      dup3\n        /* \"contracts/Exchange.sol\":23353:23423  offers_key <= tokens[tokenNameIndex].buyBook[whilePrice].offers_length */\n      gt\n      iszero\n        /* \"contracts/Exchange.sol\":23353:23446  offers_key <= tokens[tokenNameIndex].buyBook[whilePrice].offers_length && amountNecessary > 0 */\n      dup1\n      iszero\n      tag_161\n      jumpi\n      pop\n        /* \"contracts/Exchange.sol\":23445:23446  0 */\n      0x0\n        /* \"contracts/Exchange.sol\":23427:23442  amountNecessary */\n      dup4\n        /* \"contracts/Exchange.sol\":23427:23446  amountNecessary > 0 */\n      gt\n        /* \"contracts/Exchange.sol\":23353:23446  offers_key <= tokens[tokenNameIndex].buyBook[whilePrice].offers_length && amountNecessary > 0 */\n    tag_161:\n        /* \"contracts/Exchange.sol\":23346:28937  while (offers_key <= tokens[tokenNameIndex].buyBook[whilePrice].offers_length && amountNecessary > 0) {//and the first order (FIFO)... */\n      iszero\n      tag_160\n      jumpi\n        /* \"contracts/Exchange.sol\":23530:23536  tokens */\n      0x1\n        /* \"contracts/Exchange.sol\":23530:23552  tokens[tokenNameIndex] */\n      0x0\n        /* \"contracts/Exchange.sol\":23537:23551  tokenNameIndex */\n      dup9\n        /* \"contracts/Exchange.sol\":23530:23552  tokens[tokenNameIndex] */\n      0xff\n      and\n      0xff\n      and\n      dup2\n      mstore\n      0x20\n      add\n      swap1\n      dup2\n      mstore\n      0x20\n      add\n      0x0\n      keccak256\n        /* \"contracts/Exchange.sol\":23530:23560  tokens[tokenNameIndex].buyBook */\n      0x2\n      add\n        /* \"contracts/Exchange.sol\":23530:23572  tokens[tokenNameIndex].buyBook[whilePrice] */\n      0x0\n        /* \"contracts/Exchange.sol\":23561:23571  whilePrice */\n      dup6\n        /* \"contracts/Exchange.sol\":23530:23572  tokens[tokenNameIndex].buyBook[whilePrice] */\n      dup2\n      mstore\n      0x20\n      add\n      swap1\n      dup2\n      mstore\n      0x20\n      add\n      0x0\n      keccak256\n        /* \"contracts/Exchange.sol\":23530:23579  tokens[tokenNameIndex].buyBook[whilePrice].offers */\n      0x2\n      add\n        /* \"contracts/Exchange.sol\":23530:23591  tokens[tokenNameIndex].buyBook[whilePrice].offers[offers_key] */\n      0x0\n        /* \"contracts/Exchange.sol\":23580:23590  offers_key */\n      dup4\n        /* \"contracts/Exchange.sol\":23530:23591  tokens[tokenNameIndex].buyBook[whilePrice].offers[offers_key] */\n      dup2\n      mstore\n      0x20\n      add\n      swap1\n      dup2\n      mstore\n      0x20\n      add\n      0x0\n      keccak256\n        /* \"contracts/Exchange.sol\":23530:23598  tokens[tokenNameIndex].buyBook[whilePrice].offers[offers_key].amount */\n      0x0\n      add\n      sload\n        /* \"contracts/Exchange.sol\":23498:23598  uint volumeAtPriceFromAddress = tokens[tokenNameIndex].buyBook[whilePrice].offers[offers_key].amount */\n      swap1\n      pop\n        /* \"contracts/Exchange.sol\":23991:24006  amountNecessary */\n      dup3\n        /* \"contracts/Exchange.sol\":23963:23987  volumeAtPriceFromAddress */\n      dup2\n        /* \"contracts/Exchange.sol\":23963:24006  volumeAtPriceFromAddress <= amountNecessary */\n      gt\n      iszero\n        /* \"contracts/Exchange.sol\":23959:27652  if (volumeAtPriceFromAddress <= amountNecessary) {... */\n      iszero\n      tag_162\n      jumpi\n        /* \"contracts/Exchange.sol\":24092:24102  whilePrice */\n      dup4\n        /* \"contracts/Exchange.sol\":24065:24089  volumeAtPriceFromAddress */\n      dup2\n        /* \"contracts/Exchange.sol\":24065:24102  volumeAtPriceFromAddress * whilePrice */\n      mul\n        /* \"contracts/Exchange.sol\":24034:24102  total_amount_ether_available = volumeAtPriceFromAddress * whilePrice */\n      swap5\n      pop\n        /* \"contracts/Exchange.sol\":24233:24257  volumeAtPriceFromAddress */\n      dup1\n        /* \"contracts/Exchange.sol\":24179:24201  tokenBalanceForAddress */\n      0x3\n        /* \"contracts/Exchange.sol\":24179:24213  tokenBalanceForAddress[msg.sender] */\n      0x0\n        /* \"contracts/Exchange.sol\":24202:24212  msg.sender */\n      caller\n        /* \"contracts/Exchange.sol\":24179:24213  tokenBalanceForAddress[msg.sender] */\n      0xffffffffffffffffffffffffffffffffffffffff\n      and\n      0xffffffffffffffffffffffffffffffffffffffff\n      and\n      dup2\n      mstore\n      0x20\n      add\n      swap1\n      dup2\n      mstore\n      0x20\n      add\n      0x0\n      keccak256\n        /* \"contracts/Exchange.sol\":24179:24229  tokenBalanceForAddress[msg.sender][tokenNameIndex] */\n      0x0\n        /* \"contracts/Exchange.sol\":24214:24228  tokenNameIndex */\n      dup10\n        /* \"contracts/Exchange.sol\":24179:24229  tokenBalanceForAddress[msg.sender][tokenNameIndex] */\n      0xff\n      and\n      0xff\n      and\n      dup2\n      mstore\n      0x20\n      add\n      swap1\n      dup2\n      mstore\n      0x20\n      add\n      0x0\n      keccak256\n      sload\n        /* \"contracts/Exchange.sol\":24179:24257  tokenBalanceForAddress[msg.sender][tokenNameIndex] >= volumeAtPriceFromAddress */\n      lt\n      iszero\n        /* \"contracts/Exchange.sol\":24171:24258  require(tokenBalanceForAddress[msg.sender][tokenNameIndex] >= volumeAtPriceFromAddress) */\n      iszero\n      iszero\n      tag_163\n      jumpi\n      0x0\n      dup1\n      revert\n    tag_163:\n        /* \"contracts/Exchange.sol\":24421:24445  volumeAtPriceFromAddress */\n      dup1\n        /* \"contracts/Exchange.sol\":24367:24389  tokenBalanceForAddress */\n      0x3\n        /* \"contracts/Exchange.sol\":24367:24401  tokenBalanceForAddress[msg.sender] */\n      0x0\n        /* \"contracts/Exchange.sol\":24390:24400  msg.sender */\n      caller\n        /* \"contracts/Exchange.sol\":24367:24401  tokenBalanceForAddress[msg.sender] */\n      0xffffffffffffffffffffffffffffffffffffffff\n      and\n      0xffffffffffffffffffffffffffffffffffffffff\n      and\n      dup2\n      mstore\n      0x20\n      add\n      swap1\n      dup2\n      mstore\n      0x20\n      add\n      0x0\n      keccak256\n        /* \"contracts/Exchange.sol\":24367:24417  tokenBalanceForAddress[msg.sender][tokenNameIndex] */\n      0x0\n        /* \"contracts/Exchange.sol\":24402:24416  tokenNameIndex */\n      dup10\n        /* \"contracts/Exchange.sol\":24367:24417  tokenBalanceForAddress[msg.sender][tokenNameIndex] */\n      0xff\n      and\n      0xff\n      and\n      dup2\n      mstore\n      0x20\n      add\n      swap1\n      dup2\n      mstore\n      0x20\n      add\n      0x0\n      keccak256\n      0x0\n        /* \"contracts/Exchange.sol\":24367:24445  tokenBalanceForAddress[msg.sender][tokenNameIndex] -= volumeAtPriceFromAddress */\n      dup3\n      dup3\n      sload\n      sub\n      swap3\n      pop\n      pop\n      dup2\n      swap1\n      sstore\n      pop\n        /* \"contracts/Exchange.sol\":24602:24603  0 */\n      0x0\n        /* \"contracts/Exchange.sol\":24574:24598  volumeAtPriceFromAddress */\n      dup2\n        /* \"contracts/Exchange.sol\":24521:24543  tokenBalanceForAddress */\n      0x3\n        /* \"contracts/Exchange.sol\":24521:24555  tokenBalanceForAddress[msg.sender] */\n      0x0\n        /* \"contracts/Exchange.sol\":24544:24554  msg.sender */\n      caller\n        /* \"contracts/Exchange.sol\":24521:24555  tokenBalanceForAddress[msg.sender] */\n      0xffffffffffffffffffffffffffffffffffffffff\n      and\n      0xffffffffffffffffffffffffffffffffffffffff\n      and\n      dup2\n      mstore\n      0x20\n      add\n      swap1\n      dup2\n      mstore\n      0x20\n      add\n      0x0\n      keccak256\n        /* \"contracts/Exchange.sol\":24521:24571  tokenBalanceForAddress[msg.sender][tokenNameIndex] */\n      0x0\n        /* \"contracts/Exchange.sol\":24556:24570  tokenNameIndex */\n      dup11\n        /* \"contracts/Exchange.sol\":24521:24571  tokenBalanceForAddress[msg.sender][tokenNameIndex] */\n      0xff\n      and\n      0xff\n      and\n      dup2\n      mstore\n      0x20\n      add\n      swap1\n      dup2\n      mstore\n      0x20\n      add\n      0x0\n      keccak256\n      sload\n        /* \"contracts/Exchange.sol\":24521:24598  tokenBalanceForAddress[msg.sender][tokenNameIndex] - volumeAtPriceFromAddress */\n      sub\n        /* \"contracts/Exchange.sol\":24521:24603  tokenBalanceForAddress[msg.sender][tokenNameIndex] - volumeAtPriceFromAddress >= 0 */\n      lt\n      iszero\n        /* \"contracts/Exchange.sol\":24513:24604  require(tokenBalanceForAddress[msg.sender][tokenNameIndex] - volumeAtPriceFromAddress >= 0) */\n      iszero\n      iszero\n      tag_164\n      jumpi\n      0x0\n      dup1\n      revert\n    tag_164:\n        /* \"contracts/Exchange.sol\":24774:24796  tokenBalanceForAddress */\n      0x3\n        /* \"contracts/Exchange.sol\":24774:24863  tokenBalanceForAddress[tokens[tokenNameIndex].buyBook[whilePrice].offers[offers_key].who] */\n      0x0\n        /* \"contracts/Exchange.sol\":24797:24803  tokens */\n      0x1\n        /* \"contracts/Exchange.sol\":24797:24819  tokens[tokenNameIndex] */\n      0x0\n        /* \"contracts/Exchange.sol\":24804:24818  tokenNameIndex */\n      dup11\n        /* \"contracts/Exchange.sol\":24797:24819  tokens[tokenNameIndex] */\n      0xff\n      and\n      0xff\n      and\n      dup2\n      mstore\n      0x20\n      add\n      swap1\n      dup2\n      mstore\n      0x20\n      add\n      0x0\n      keccak256\n        /* \"contracts/Exchange.sol\":24797:24827  tokens[tokenNameIndex].buyBook */\n      0x2\n      add\n        /* \"contracts/Exchange.sol\":24797:24839  tokens[tokenNameIndex].buyBook[whilePrice] */\n      0x0\n        /* \"contracts/Exchange.sol\":24828:24838  whilePrice */\n      dup8\n        /* \"contracts/Exchange.sol\":24797:24839  tokens[tokenNameIndex].buyBook[whilePrice] */\n      dup2\n      mstore\n      0x20\n      add\n      swap1\n      dup2\n      mstore\n      0x20\n      add\n      0x0\n      keccak256\n        /* \"contracts/Exchange.sol\":24797:24846  tokens[tokenNameIndex].buyBook[whilePrice].offers */\n      0x2\n      add\n        /* \"contracts/Exchange.sol\":24797:24858  tokens[tokenNameIndex].buyBook[whilePrice].offers[offers_key] */\n      0x0\n        /* \"contracts/Exchange.sol\":24847:24857  offers_key */\n      dup6\n        /* \"contracts/Exchange.sol\":24797:24858  tokens[tokenNameIndex].buyBook[whilePrice].offers[offers_key] */\n      dup2\n      mstore\n      0x20\n      add\n      swap1\n      dup2\n      mstore\n      0x20\n      add\n      0x0\n      keccak256\n        /* \"contracts/Exchange.sol\":24797:24862  tokens[tokenNameIndex].buyBook[whilePrice].offers[offers_key].who */\n      0x1\n      add\n      0x0\n      swap1\n      sload\n      swap1\n      0x100\n      exp\n      swap1\n      div\n      0xffffffffffffffffffffffffffffffffffffffff\n      and\n        /* \"contracts/Exchange.sol\":24774:24863  tokenBalanceForAddress[tokens[tokenNameIndex].buyBook[whilePrice].offers[offers_key].who] */\n      0xffffffffffffffffffffffffffffffffffffffff\n      and\n      0xffffffffffffffffffffffffffffffffffffffff\n      and\n      dup2\n      mstore\n      0x20\n      add\n      swap1\n      dup2\n      mstore\n      0x20\n      add\n      0x0\n      keccak256\n        /* \"contracts/Exchange.sol\":24774:24879  tokenBalanceForAddress[tokens[tokenNameIndex].buyBook[whilePrice].offers[offers_key].who][tokenNameIndex] */\n      0x0\n        /* \"contracts/Exchange.sol\":24864:24878  tokenNameIndex */\n      dup9\n        /* \"contracts/Exchange.sol\":24774:24879  tokenBalanceForAddress[tokens[tokenNameIndex].buyBook[whilePrice].offers[offers_key].who][tokenNameIndex] */\n      0xff\n      and\n      0xff\n      and\n      dup2\n      mstore\n      0x20\n      add\n      swap1\n      dup2\n      mstore\n      0x20\n      add\n      0x0\n      keccak256\n      sload\n        /* \"contracts/Exchange.sol\":24746:24770  volumeAtPriceFromAddress */\n      dup2\n        /* \"contracts/Exchange.sol\":24638:24660  tokenBalanceForAddress */\n      0x3\n        /* \"contracts/Exchange.sol\":24638:24727  tokenBalanceForAddress[tokens[tokenNameIndex].buyBook[whilePrice].offers[offers_key].who] */\n      0x0\n        /* \"contracts/Exchange.sol\":24661:24667  tokens */\n      0x1\n        /* \"contracts/Exchange.sol\":24661:24683  tokens[tokenNameIndex] */\n      0x0\n        /* \"contracts/Exchange.sol\":24668:24682  tokenNameIndex */\n      dup13\n        /* \"contracts/Exchange.sol\":24661:24683  tokens[tokenNameIndex] */\n      0xff\n      and\n      0xff\n      and\n      dup2\n      mstore\n      0x20\n      add\n      swap1\n      dup2\n      mstore\n      0x20\n      add\n      0x0\n      keccak256\n        /* \"contracts/Exchange.sol\":24661:24691  tokens[tokenNameIndex].buyBook */\n      0x2\n      add\n        /* \"contracts/Exchange.sol\":24661:24703  tokens[tokenNameIndex].buyBook[whilePrice] */\n      0x0\n        /* \"contracts/Exchange.sol\":24692:24702  whilePrice */\n      dup10\n        /* \"contracts/Exchange.sol\":24661:24703  tokens[tokenNameIndex].buyBook[whilePrice] */\n      dup2\n      mstore\n      0x20\n      add\n      swap1\n      dup2\n      mstore\n      0x20\n      add\n      0x0\n      keccak256\n        /* \"contracts/Exchange.sol\":24661:24710  tokens[tokenNameIndex].buyBook[whilePrice].offers */\n      0x2\n      add\n        /* \"contracts/Exchange.sol\":24661:24722  tokens[tokenNameIndex].buyBook[whilePrice].offers[offers_key] */\n      0x0\n        /* \"contracts/Exchange.sol\":24711:24721  offers_key */\n      dup8\n        /* \"contracts/Exchange.sol\":24661:24722  tokens[tokenNameIndex].buyBook[whilePrice].offers[offers_key] */\n      dup2\n      mstore\n      0x20\n      add\n      swap1\n      dup2\n      mstore\n      0x20\n      add\n      0x0\n      keccak256\n        /* \"contracts/Exchange.sol\":24661:24726  tokens[tokenNameIndex].buyBook[whilePrice].offers[offers_key].who */\n      0x1\n      add\n      0x0\n      swap1\n      sload\n      swap1\n      0x100\n      exp\n      swap1\n      div\n      0xffffffffffffffffffffffffffffffffffffffff\n      and\n        /* \"contracts/Exchange.sol\":24638:24727  tokenBalanceForAddress[tokens[tokenNameIndex].buyBook[whilePrice].offers[offers_key].who] */\n      0xffffffffffffffffffffffffffffffffffffffff\n      and\n      0xffffffffffffffffffffffffffffffffffffffff\n      and\n      dup2\n      mstore\n      0x20\n      add\n      swap1\n      dup2\n      mstore\n      0x20\n      add\n      0x0\n      keccak256\n        /* \"contracts/Exchange.sol\":24638:24743  tokenBalanceForAddress[tokens[tokenNameIndex].buyBook[whilePrice].offers[offers_key].who][tokenNameIndex] */\n      0x0\n        /* \"contracts/Exchange.sol\":24728:24742  tokenNameIndex */\n      dup11\n        /* \"contracts/Exchange.sol\":24638:24743  tokenBalanceForAddress[tokens[tokenNameIndex].buyBook[whilePrice].offers[offers_key].who][tokenNameIndex] */\n      0xff\n      and\n      0xff\n      and\n      dup2\n      mstore\n      0x20\n      add\n      swap1\n      dup2\n      mstore\n      0x20\n      add\n      0x0\n      keccak256\n      sload\n        /* \"contracts/Exchange.sol\":24638:24770  tokenBalanceForAddress[tokens[tokenNameIndex].buyBook[whilePrice].offers[offers_key].who][tokenNameIndex] + volumeAtPriceFromAddress */\n      add\n        /* \"contracts/Exchange.sol\":24638:24879  tokenBalanceForAddress[tokens[tokenNameIndex].buyBook[whilePrice].offers[offers_key].who][tokenNameIndex] + volumeAtPriceFromAddress >= tokenBalanceForAddress[tokens[tokenNameIndex].buyBook[whilePrice].offers[offers_key].who][tokenNameIndex] */\n      lt\n      iszero\n        /* \"contracts/Exchange.sol\":24630:24880  require(tokenBalanceForAddress[tokens[tokenNameIndex].buyBook[whilePrice].offers[offers_key].who][tokenNameIndex] + volumeAtPriceFromAddress >= tokenBalanceForAddress[tokens[tokenNameIndex].buyBook[whilePrice].offers[offers_key].who][tokenNameIndex]) */\n      iszero\n      iszero\n      tag_165\n      jumpi\n      0x0\n      dup1\n      revert\n    tag_165:\n        /* \"contracts/Exchange.sol\":24981:25001  balanceEthForAddress */\n      0x4\n        /* \"contracts/Exchange.sol\":24981:25013  balanceEthForAddress[msg.sender] */\n      0x0\n        /* \"contracts/Exchange.sol\":25002:25012  msg.sender */\n      caller\n        /* \"contracts/Exchange.sol\":24981:25013  balanceEthForAddress[msg.sender] */\n      0xffffffffffffffffffffffffffffffffffffffff\n      and\n      0xffffffffffffffffffffffffffffffffffffffff\n      and\n      dup2\n      mstore\n      0x20\n      add\n      swap1\n      dup2\n      mstore\n      0x20\n      add\n      0x0\n      keccak256\n      sload\n        /* \"contracts/Exchange.sol\":24949:24977  total_amount_ether_available */\n      dup6\n        /* \"contracts/Exchange.sol\":24914:24934  balanceEthForAddress */\n      0x4\n        /* \"contracts/Exchange.sol\":24914:24946  balanceEthForAddress[msg.sender] */\n      0x0\n        /* \"contracts/Exchange.sol\":24935:24945  msg.sender */\n      caller\n        /* \"contracts/Exchange.sol\":24914:24946  balanceEthForAddress[msg.sender] */\n      0xffffffffffffffffffffffffffffffffffffffff\n      and\n      0xffffffffffffffffffffffffffffffffffffffff\n      and\n      dup2\n      mstore\n      0x20\n      add\n      swap1\n      dup2\n      mstore\n      0x20\n      add\n      0x0\n      keccak256\n      sload\n        /* \"contracts/Exchange.sol\":24914:24977  balanceEthForAddress[msg.sender] + total_amount_ether_available */\n      add\n        /* \"contracts/Exchange.sol\":24914:25013  balanceEthForAddress[msg.sender] + total_amount_ether_available >= balanceEthForAddress[msg.sender] */\n      lt\n      iszero\n        /* \"contracts/Exchange.sol\":24906:25014  require(balanceEthForAddress[msg.sender] + total_amount_ether_available >= balanceEthForAddress[msg.sender]) */\n      iszero\n      iszero\n      tag_166\n      jumpi\n      0x0\n      dup1\n      revert\n    tag_166:\n        /* \"contracts/Exchange.sol\":25262:25286  volumeAtPriceFromAddress */\n      dup1\n        /* \"contracts/Exchange.sol\":25153:25175  tokenBalanceForAddress */\n      0x3\n        /* \"contracts/Exchange.sol\":25153:25242  tokenBalanceForAddress[tokens[tokenNameIndex].buyBook[whilePrice].offers[offers_key].who] */\n      0x0\n        /* \"contracts/Exchange.sol\":25176:25182  tokens */\n      0x1\n        /* \"contracts/Exchange.sol\":25176:25198  tokens[tokenNameIndex] */\n      0x0\n        /* \"contracts/Exchange.sol\":25183:25197  tokenNameIndex */\n      dup12\n        /* \"contracts/Exchange.sol\":25176:25198  tokens[tokenNameIndex] */\n      0xff\n      and\n      0xff\n      and\n      dup2\n      mstore\n      0x20\n      add\n      swap1\n      dup2\n      mstore\n      0x20\n      add\n      0x0\n      keccak256\n        /* \"contracts/Exchange.sol\":25176:25206  tokens[tokenNameIndex].buyBook */\n      0x2\n      add\n        /* \"contracts/Exchange.sol\":25176:25218  tokens[tokenNameIndex].buyBook[whilePrice] */\n      0x0\n        /* \"contracts/Exchange.sol\":25207:25217  whilePrice */\n      dup9\n        /* \"contracts/Exchange.sol\":25176:25218  tokens[tokenNameIndex].buyBook[whilePrice] */\n      dup2\n      mstore\n      0x20\n      add\n      swap1\n      dup2\n      mstore\n      0x20\n      add\n      0x0\n      keccak256\n        /* \"contracts/Exchange.sol\":25176:25225  tokens[tokenNameIndex].buyBook[whilePrice].offers */\n      0x2\n      add\n        /* \"contracts/Exchange.sol\":25176:25237  tokens[tokenNameIndex].buyBook[whilePrice].offers[offers_key] */\n      0x0\n        /* \"contracts/Exchange.sol\":25226:25236  offers_key */\n      dup7\n        /* \"contracts/Exchange.sol\":25176:25237  tokens[tokenNameIndex].buyBook[whilePrice].offers[offers_key] */\n      dup2\n      mstore\n      0x20\n      add\n      swap1\n      dup2\n      mstore\n      0x20\n      add\n      0x0\n      keccak256\n        /* \"contracts/Exchange.sol\":25176:25241  tokens[tokenNameIndex].buyBook[whilePrice].offers[offers_key].who */\n      0x1\n      add\n      0x0\n      swap1\n      sload\n      swap1\n      0x100\n      exp\n      swap1\n      div\n      0xffffffffffffffffffffffffffffffffffffffff\n      and\n        /* \"contracts/Exchange.sol\":25153:25242  tokenBalanceForAddress[tokens[tokenNameIndex].buyBook[whilePrice].offers[offers_key].who] */\n      0xffffffffffffffffffffffffffffffffffffffff\n      and\n      0xffffffffffffffffffffffffffffffffffffffff\n      and\n      dup2\n      mstore\n      0x20\n      add\n      swap1\n      dup2\n      mstore\n      0x20\n      add\n      0x0\n      keccak256\n        /* \"contracts/Exchange.sol\":25153:25258  tokenBalanceForAddress[tokens[tokenNameIndex].buyBook[whilePrice].offers[offers_key].who][tokenNameIndex] */\n      0x0\n        /* \"contracts/Exchange.sol\":25243:25257  tokenNameIndex */\n      dup10\n        /* \"contracts/Exchange.sol\":25153:25258  tokenBalanceForAddress[tokens[tokenNameIndex].buyBook[whilePrice].offers[offers_key].who][tokenNameIndex] */\n      0xff\n      and\n      0xff\n      and\n      dup2\n      mstore\n      0x20\n      add\n      swap1\n      dup2\n      mstore\n      0x20\n      add\n      0x0\n      keccak256\n      0x0\n        /* \"contracts/Exchange.sol\":25153:25286  tokenBalanceForAddress[tokens[tokenNameIndex].buyBook[whilePrice].offers[offers_key].who][tokenNameIndex] += volumeAtPriceFromAddress */\n      dup3\n      dup3\n      sload\n      add\n      swap3\n      pop\n      pop\n      dup2\n      swap1\n      sstore\n      pop\n        /* \"contracts/Exchange.sol\":25383:25384  0 */\n      0x0\n        /* \"contracts/Exchange.sol\":25312:25318  tokens */\n      0x1\n        /* \"contracts/Exchange.sol\":25312:25334  tokens[tokenNameIndex] */\n      0x0\n        /* \"contracts/Exchange.sol\":25319:25333  tokenNameIndex */\n      dup10\n        /* \"contracts/Exchange.sol\":25312:25334  tokens[tokenNameIndex] */\n      0xff\n      and\n      0xff\n      and\n      dup2\n      mstore\n      0x20\n      add\n      swap1\n      dup2\n      mstore\n      0x20\n      add\n      0x0\n      keccak256\n        /* \"contracts/Exchange.sol\":25312:25342  tokens[tokenNameIndex].buyBook */\n      0x2\n      add\n        /* \"contracts/Exchange.sol\":25312:25354  tokens[tokenNameIndex].buyBook[whilePrice] */\n      0x0\n        /* \"contracts/Exchange.sol\":25343:25353  whilePrice */\n      dup7\n        /* \"contracts/Exchange.sol\":25312:25354  tokens[tokenNameIndex].buyBook[whilePrice] */\n      dup2\n      mstore\n      0x20\n      add\n      swap1\n      dup2\n      mstore\n      0x20\n      add\n      0x0\n      keccak256\n        /* \"contracts/Exchange.sol\":25312:25361  tokens[tokenNameIndex].buyBook[whilePrice].offers */\n      0x2\n      add\n        /* \"contracts/Exchange.sol\":25312:25373  tokens[tokenNameIndex].buyBook[whilePrice].offers[offers_key] */\n      0x0\n        /* \"contracts/Exchange.sol\":25362:25372  offers_key */\n      dup5\n        /* \"contracts/Exchange.sol\":25312:25373  tokens[tokenNameIndex].buyBook[whilePrice].offers[offers_key] */\n      dup2\n      mstore\n      0x20\n      add\n      swap1\n      dup2\n      mstore\n      0x20\n      add\n      0x0\n      keccak256\n        /* \"contracts/Exchange.sol\":25312:25380  tokens[tokenNameIndex].buyBook[whilePrice].offers[offers_key].amount */\n      0x0\n      add\n        /* \"contracts/Exchange.sol\":25312:25384  tokens[tokenNameIndex].buyBook[whilePrice].offers[offers_key].amount = 0 */\n      dup2\n      swap1\n      sstore\n      pop\n        /* \"contracts/Exchange.sol\":25446:25474  total_amount_ether_available */\n      dup5\n        /* \"contracts/Exchange.sol\":25410:25430  balanceEthForAddress */\n      0x4\n        /* \"contracts/Exchange.sol\":25410:25442  balanceEthForAddress[msg.sender] */\n      0x0\n        /* \"contracts/Exchange.sol\":25431:25441  msg.sender */\n      caller\n        /* \"contracts/Exchange.sol\":25410:25442  balanceEthForAddress[msg.sender] */\n      0xffffffffffffffffffffffffffffffffffffffff\n      and\n      0xffffffffffffffffffffffffffffffffffffffff\n      and\n      dup2\n      mstore\n      0x20\n      add\n      swap1\n      dup2\n      mstore\n      0x20\n      add\n      0x0\n      keccak256\n      0x0\n        /* \"contracts/Exchange.sol\":25410:25474  balanceEthForAddress[msg.sender] += total_amount_ether_available */\n      dup3\n      dup3\n      sload\n      add\n      swap3\n      pop\n      pop\n      dup2\n      swap1\n      sstore\n      pop\n        /* \"contracts/Exchange.sol\":25500:25506  tokens */\n      0x1\n        /* \"contracts/Exchange.sol\":25500:25522  tokens[tokenNameIndex] */\n      0x0\n        /* \"contracts/Exchange.sol\":25507:25521  tokenNameIndex */\n      dup9\n        /* \"contracts/Exchange.sol\":25500:25522  tokens[tokenNameIndex] */\n      0xff\n      and\n      0xff\n      and\n      dup2\n      mstore\n      0x20\n      add\n      swap1\n      dup2\n      mstore\n      0x20\n      add\n      0x0\n      keccak256\n        /* \"contracts/Exchange.sol\":25500:25530  tokens[tokenNameIndex].buyBook */\n      0x2\n      add\n        /* \"contracts/Exchange.sol\":25500:25542  tokens[tokenNameIndex].buyBook[whilePrice] */\n      0x0\n        /* \"contracts/Exchange.sol\":25531:25541  whilePrice */\n      dup6\n        /* \"contracts/Exchange.sol\":25500:25542  tokens[tokenNameIndex].buyBook[whilePrice] */\n      dup2\n      mstore\n      0x20\n      add\n      swap1\n      dup2\n      mstore\n      0x20\n      add\n      0x0\n      keccak256\n        /* \"contracts/Exchange.sol\":25500:25553  tokens[tokenNameIndex].buyBook[whilePrice].offers_key */\n      0x3\n      add\n      0x0\n        /* \"contracts/Exchange.sol\":25500:25555  tokens[tokenNameIndex].buyBook[whilePrice].offers_key++ */\n      dup2\n      sload\n      dup1\n      swap3\n      swap2\n      swap1\n      0x1\n      add\n      swap2\n      swap1\n      pop\n      sstore\n      pop\n        /* \"contracts/Exchange.sol\":25605:25619  tokenNameIndex */\n      dup7\n        /* \"contracts/Exchange.sol\":25586:25670  SellOrderFulfilled(tokenNameIndex, volumeAtPriceFromAddress, whilePrice, offers_key) */\n      0xff\n      and\n      0xcbfa5edcd918ef1ec42746c71ac83c456f37330c83a22e44d6cfdca22d564710\n        /* \"contracts/Exchange.sol\":25621:25645  volumeAtPriceFromAddress */\n      dup3\n        /* \"contracts/Exchange.sol\":25647:25657  whilePrice */\n      dup7\n        /* \"contracts/Exchange.sol\":25659:25669  offers_key */\n      dup6\n        /* \"contracts/Exchange.sol\":25586:25670  SellOrderFulfilled(tokenNameIndex, volumeAtPriceFromAddress, whilePrice, offers_key) */\n      mload(0x40)\n      dup1\n      dup5\n      dup2\n      mstore\n      0x20\n      add\n      dup4\n      dup2\n      mstore\n      0x20\n      add\n      dup3\n      dup2\n      mstore\n      0x20\n      add\n      swap4\n      pop\n      pop\n      pop\n      pop\n      mload(0x40)\n      dup1\n      swap2\n      sub\n      swap1\n      log2\n        /* \"contracts/Exchange.sol\":25717:25741  volumeAtPriceFromAddress */\n      dup1\n        /* \"contracts/Exchange.sol\":25698:25741  amountNecessary -= volumeAtPriceFromAddress */\n      dup4\n      sub\n      swap3\n      pop\n        /* \"contracts/Exchange.sol\":23959:27652  if (volumeAtPriceFromAddress <= amountNecessary) {... */\n      jump(tag_167)\n    tag_162:\n        /* \"contracts/Exchange.sol\":25869:25870  0 */\n      0x0\n        /* \"contracts/Exchange.sol\":25851:25866  amountNecessary */\n      dup4\n        /* \"contracts/Exchange.sol\":25824:25848  volumeAtPriceFromAddress */\n      dup3\n        /* \"contracts/Exchange.sol\":25824:25866  volumeAtPriceFromAddress - amountNecessary */\n      sub\n        /* \"contracts/Exchange.sol\":25824:25870  volumeAtPriceFromAddress - amountNecessary > 0 */\n      gt\n        /* \"contracts/Exchange.sol\":25816:25871  require(volumeAtPriceFromAddress - amountNecessary > 0) */\n      iszero\n      iszero\n      tag_168\n      jumpi\n      0x0\n      dup1\n      revert\n    tag_168:\n        /* \"contracts/Exchange.sol\":25988:25998  whilePrice */\n      dup4\n        /* \"contracts/Exchange.sol\":25970:25985  amountNecessary */\n      dup4\n        /* \"contracts/Exchange.sol\":25970:25998  amountNecessary * whilePrice */\n      mul\n        /* \"contracts/Exchange.sol\":25939:25998  total_amount_ether_necessary = amountNecessary * whilePrice */\n      swap6\n      pop\n        /* \"contracts/Exchange.sol\":26197:26212  amountNecessary */\n      dup3\n        /* \"contracts/Exchange.sol\":26143:26165  tokenBalanceForAddress */\n      0x3\n        /* \"contracts/Exchange.sol\":26143:26177  tokenBalanceForAddress[msg.sender] */\n      0x0\n        /* \"contracts/Exchange.sol\":26166:26176  msg.sender */\n      caller\n        /* \"contracts/Exchange.sol\":26143:26177  tokenBalanceForAddress[msg.sender] */\n      0xffffffffffffffffffffffffffffffffffffffff\n      and\n      0xffffffffffffffffffffffffffffffffffffffff\n      and\n      dup2\n      mstore\n      0x20\n      add\n      swap1\n      dup2\n      mstore\n      0x20\n      add\n      0x0\n      keccak256\n        /* \"contracts/Exchange.sol\":26143:26193  tokenBalanceForAddress[msg.sender][tokenNameIndex] */\n      0x0\n        /* \"contracts/Exchange.sol\":26178:26192  tokenNameIndex */\n      dup10\n        /* \"contracts/Exchange.sol\":26143:26193  tokenBalanceForAddress[msg.sender][tokenNameIndex] */\n      0xff\n      and\n      0xff\n      and\n      dup2\n      mstore\n      0x20\n      add\n      swap1\n      dup2\n      mstore\n      0x20\n      add\n      0x0\n      keccak256\n      sload\n        /* \"contracts/Exchange.sol\":26143:26212  tokenBalanceForAddress[msg.sender][tokenNameIndex] >= amountNecessary */\n      lt\n      iszero\n        /* \"contracts/Exchange.sol\":26135:26213  require(tokenBalanceForAddress[msg.sender][tokenNameIndex] >= amountNecessary) */\n      iszero\n      iszero\n      tag_169\n      jumpi\n      0x0\n      dup1\n      revert\n    tag_169:\n        /* \"contracts/Exchange.sol\":26376:26391  amountNecessary */\n      dup3\n        /* \"contracts/Exchange.sol\":26322:26344  tokenBalanceForAddress */\n      0x3\n        /* \"contracts/Exchange.sol\":26322:26356  tokenBalanceForAddress[msg.sender] */\n      0x0\n        /* \"contracts/Exchange.sol\":26345:26355  msg.sender */\n      caller\n        /* \"contracts/Exchange.sol\":26322:26356  tokenBalanceForAddress[msg.sender] */\n      0xffffffffffffffffffffffffffffffffffffffff\n      and\n      0xffffffffffffffffffffffffffffffffffffffff\n      and\n      dup2\n      mstore\n      0x20\n      add\n      swap1\n      dup2\n      mstore\n      0x20\n      add\n      0x0\n      keccak256\n        /* \"contracts/Exchange.sol\":26322:26372  tokenBalanceForAddress[msg.sender][tokenNameIndex] */\n      0x0\n        /* \"contracts/Exchange.sol\":26357:26371  tokenNameIndex */\n      dup10\n        /* \"contracts/Exchange.sol\":26322:26372  tokenBalanceForAddress[msg.sender][tokenNameIndex] */\n      0xff\n      and\n      0xff\n      and\n      dup2\n      mstore\n      0x20\n      add\n      swap1\n      dup2\n      mstore\n      0x20\n      add\n      0x0\n      keccak256\n      0x0\n        /* \"contracts/Exchange.sol\":26322:26391  tokenBalanceForAddress[msg.sender][tokenNameIndex] -= amountNecessary */\n      dup3\n      dup3\n      sload\n      sub\n      swap3\n      pop\n      pop\n      dup2\n      swap1\n      sstore\n      pop\n        /* \"contracts/Exchange.sol\":26521:26536  amountNecessary */\n      dup3\n        /* \"contracts/Exchange.sol\":26467:26489  tokenBalanceForAddress */\n      0x3\n        /* \"contracts/Exchange.sol\":26467:26501  tokenBalanceForAddress[msg.sender] */\n      0x0\n        /* \"contracts/Exchange.sol\":26490:26500  msg.sender */\n      caller\n        /* \"contracts/Exchange.sol\":26467:26501  tokenBalanceForAddress[msg.sender] */\n      0xffffffffffffffffffffffffffffffffffffffff\n      and\n      0xffffffffffffffffffffffffffffffffffffffff\n      and\n      dup2\n      mstore\n      0x20\n      add\n      swap1\n      dup2\n      mstore\n      0x20\n      add\n      0x0\n      keccak256\n        /* \"contracts/Exchange.sol\":26467:26517  tokenBalanceForAddress[msg.sender][tokenNameIndex] */\n      0x0\n        /* \"contracts/Exchange.sol\":26502:26516  tokenNameIndex */\n      dup10\n        /* \"contracts/Exchange.sol\":26467:26517  tokenBalanceForAddress[msg.sender][tokenNameIndex] */\n      0xff\n      and\n      0xff\n      and\n      dup2\n      mstore\n      0x20\n      add\n      swap1\n      dup2\n      mstore\n      0x20\n      add\n      0x0\n      keccak256\n      sload\n        /* \"contracts/Exchange.sol\":26467:26536  tokenBalanceForAddress[msg.sender][tokenNameIndex] >= amountNecessary */\n      lt\n      iszero\n        /* \"contracts/Exchange.sol\":26459:26537  require(tokenBalanceForAddress[msg.sender][tokenNameIndex] >= amountNecessary) */\n      iszero\n      iszero\n      tag_170\n      jumpi\n      0x0\n      dup1\n      revert\n    tag_170:\n        /* \"contracts/Exchange.sol\":26638:26658  balanceEthForAddress */\n      0x4\n        /* \"contracts/Exchange.sol\":26638:26670  balanceEthForAddress[msg.sender] */\n      0x0\n        /* \"contracts/Exchange.sol\":26659:26669  msg.sender */\n      caller\n        /* \"contracts/Exchange.sol\":26638:26670  balanceEthForAddress[msg.sender] */\n      0xffffffffffffffffffffffffffffffffffffffff\n      and\n      0xffffffffffffffffffffffffffffffffffffffff\n      and\n      dup2\n      mstore\n      0x20\n      add\n      swap1\n      dup2\n      mstore\n      0x20\n      add\n      0x0\n      keccak256\n      sload\n        /* \"contracts/Exchange.sol\":26606:26634  total_amount_ether_necessary */\n      dup7\n        /* \"contracts/Exchange.sol\":26571:26591  balanceEthForAddress */\n      0x4\n        /* \"contracts/Exchange.sol\":26571:26603  balanceEthForAddress[msg.sender] */\n      0x0\n        /* \"contracts/Exchange.sol\":26592:26602  msg.sender */\n      caller\n        /* \"contracts/Exchange.sol\":26571:26603  balanceEthForAddress[msg.sender] */\n      0xffffffffffffffffffffffffffffffffffffffff\n      and\n      0xffffffffffffffffffffffffffffffffffffffff\n      and\n      dup2\n      mstore\n      0x20\n      add\n      swap1\n      dup2\n      mstore\n      0x20\n      add\n      0x0\n      keccak256\n      sload\n        /* \"contracts/Exchange.sol\":26571:26634  balanceEthForAddress[msg.sender] + total_amount_ether_necessary */\n      add\n        /* \"contracts/Exchange.sol\":26571:26670  balanceEthForAddress[msg.sender] + total_amount_ether_necessary >= balanceEthForAddress[msg.sender] */\n      lt\n      iszero\n        /* \"contracts/Exchange.sol\":26563:26671  require(balanceEthForAddress[msg.sender] + total_amount_ether_necessary >= balanceEthForAddress[msg.sender]) */\n      iszero\n      iszero\n      tag_171\n      jumpi\n      0x0\n      dup1\n      revert\n    tag_171:\n        /* \"contracts/Exchange.sol\":26832:26854  tokenBalanceForAddress */\n      0x3\n        /* \"contracts/Exchange.sol\":26832:26921  tokenBalanceForAddress[tokens[tokenNameIndex].buyBook[whilePrice].offers[offers_key].who] */\n      0x0\n        /* \"contracts/Exchange.sol\":26855:26861  tokens */\n      0x1\n        /* \"contracts/Exchange.sol\":26855:26877  tokens[tokenNameIndex] */\n      0x0\n        /* \"contracts/Exchange.sol\":26862:26876  tokenNameIndex */\n      dup11\n        /* \"contracts/Exchange.sol\":26855:26877  tokens[tokenNameIndex] */\n      0xff\n      and\n      0xff\n      and\n      dup2\n      mstore\n      0x20\n      add\n      swap1\n      dup2\n      mstore\n      0x20\n      add\n      0x0\n      keccak256\n        /* \"contracts/Exchange.sol\":26855:26885  tokens[tokenNameIndex].buyBook */\n      0x2\n      add\n        /* \"contracts/Exchange.sol\":26855:26897  tokens[tokenNameIndex].buyBook[whilePrice] */\n      0x0\n        /* \"contracts/Exchange.sol\":26886:26896  whilePrice */\n      dup8\n        /* \"contracts/Exchange.sol\":26855:26897  tokens[tokenNameIndex].buyBook[whilePrice] */\n      dup2\n      mstore\n      0x20\n      add\n      swap1\n      dup2\n      mstore\n      0x20\n      add\n      0x0\n      keccak256\n        /* \"contracts/Exchange.sol\":26855:26904  tokens[tokenNameIndex].buyBook[whilePrice].offers */\n      0x2\n      add\n        /* \"contracts/Exchange.sol\":26855:26916  tokens[tokenNameIndex].buyBook[whilePrice].offers[offers_key] */\n      0x0\n        /* \"contracts/Exchange.sol\":26905:26915  offers_key */\n      dup6\n        /* \"contracts/Exchange.sol\":26855:26916  tokens[tokenNameIndex].buyBook[whilePrice].offers[offers_key] */\n      dup2\n      mstore\n      0x20\n      add\n      swap1\n      dup2\n      mstore\n      0x20\n      add\n      0x0\n      keccak256\n        /* \"contracts/Exchange.sol\":26855:26920  tokens[tokenNameIndex].buyBook[whilePrice].offers[offers_key].who */\n      0x1\n      add\n      0x0\n      swap1\n      sload\n      swap1\n      0x100\n      exp\n      swap1\n      div\n      0xffffffffffffffffffffffffffffffffffffffff\n      and\n        /* \"contracts/Exchange.sol\":26832:26921  tokenBalanceForAddress[tokens[tokenNameIndex].buyBook[whilePrice].offers[offers_key].who] */\n      0xffffffffffffffffffffffffffffffffffffffff\n      and\n      0xffffffffffffffffffffffffffffffffffffffff\n      and\n      dup2\n      mstore\n      0x20\n      add\n      swap1\n      dup2\n      mstore\n      0x20\n      add\n      0x0\n      keccak256\n        /* \"contracts/Exchange.sol\":26832:26937  tokenBalanceForAddress[tokens[tokenNameIndex].buyBook[whilePrice].offers[offers_key].who][tokenNameIndex] */\n      0x0\n        /* \"contracts/Exchange.sol\":26922:26936  tokenNameIndex */\n      dup9\n        /* \"contracts/Exchange.sol\":26832:26937  tokenBalanceForAddress[tokens[tokenNameIndex].buyBook[whilePrice].offers[offers_key].who][tokenNameIndex] */\n      0xff\n      and\n      0xff\n      and\n      dup2\n      mstore\n      0x20\n      add\n      swap1\n      dup2\n      mstore\n      0x20\n      add\n      0x0\n      keccak256\n      sload\n        /* \"contracts/Exchange.sol\":26813:26828  amountNecessary */\n      dup4\n        /* \"contracts/Exchange.sol\":26705:26727  tokenBalanceForAddress */\n      0x3\n        /* \"contracts/Exchange.sol\":26705:26794  tokenBalanceForAddress[tokens[tokenNameIndex].buyBook[whilePrice].offers[offers_key].who] */\n      0x0\n        /* \"contracts/Exchange.sol\":26728:26734  tokens */\n      0x1\n        /* \"contracts/Exchange.sol\":26728:26750  tokens[tokenNameIndex] */\n      0x0\n        /* \"contracts/Exchange.sol\":26735:26749  tokenNameIndex */\n      dup13\n        /* \"contracts/Exchange.sol\":26728:26750  tokens[tokenNameIndex] */\n      0xff\n      and\n      0xff\n      and\n      dup2\n      mstore\n      0x20\n      add\n      swap1\n      dup2\n      mstore\n      0x20\n      add\n      0x0\n      keccak256\n        /* \"contracts/Exchange.sol\":26728:26758  tokens[tokenNameIndex].buyBook */\n      0x2\n      add\n        /* \"contracts/Exchange.sol\":26728:26770  tokens[tokenNameIndex].buyBook[whilePrice] */\n      0x0\n        /* \"contracts/Exchange.sol\":26759:26769  whilePrice */\n      dup10\n        /* \"contracts/Exchange.sol\":26728:26770  tokens[tokenNameIndex].buyBook[whilePrice] */\n      dup2\n      mstore\n      0x20\n      add\n      swap1\n      dup2\n      mstore\n      0x20\n      add\n      0x0\n      keccak256\n        /* \"contracts/Exchange.sol\":26728:26777  tokens[tokenNameIndex].buyBook[whilePrice].offers */\n      0x2\n      add\n        /* \"contracts/Exchange.sol\":26728:26789  tokens[tokenNameIndex].buyBook[whilePrice].offers[offers_key] */\n      0x0\n        /* \"contracts/Exchange.sol\":26778:26788  offers_key */\n      dup8\n        /* \"contracts/Exchange.sol\":26728:26789  tokens[tokenNameIndex].buyBook[whilePrice].offers[offers_key] */\n      dup2\n      mstore\n      0x20\n      add\n      swap1\n      dup2\n      mstore\n      0x20\n      add\n      0x0\n      keccak256\n        /* \"contracts/Exchange.sol\":26728:26793  tokens[tokenNameIndex].buyBook[whilePrice].offers[offers_key].who */\n      0x1\n      add\n      0x0\n      swap1\n      sload\n      swap1\n      0x100\n      exp\n      swap1\n      div\n      0xffffffffffffffffffffffffffffffffffffffff\n      and\n        /* \"contracts/Exchange.sol\":26705:26794  tokenBalanceForAddress[tokens[tokenNameIndex].buyBook[whilePrice].offers[offers_key].who] */\n      0xffffffffffffffffffffffffffffffffffffffff\n      and\n      0xffffffffffffffffffffffffffffffffffffffff\n      and\n      dup2\n      mstore\n      0x20\n      add\n      swap1\n      dup2\n      mstore\n      0x20\n      add\n      0x0\n      keccak256\n        /* \"contracts/Exchange.sol\":26705:26810  tokenBalanceForAddress[tokens[tokenNameIndex].buyBook[whilePrice].offers[offers_key].who][tokenNameIndex] */\n      0x0\n        /* \"contracts/Exchange.sol\":26795:26809  tokenNameIndex */\n      dup11\n        /* \"contracts/Exchange.sol\":26705:26810  tokenBalanceForAddress[tokens[tokenNameIndex].buyBook[whilePrice].offers[offers_key].who][tokenNameIndex] */\n      0xff\n      and\n      0xff\n      and\n      dup2\n      mstore\n      0x20\n      add\n      swap1\n      dup2\n      mstore\n      0x20\n      add\n      0x0\n      keccak256\n      sload\n        /* \"contracts/Exchange.sol\":26705:26828  tokenBalanceForAddress[tokens[tokenNameIndex].buyBook[whilePrice].offers[offers_key].who][tokenNameIndex] + amountNecessary */\n      add\n        /* \"contracts/Exchange.sol\":26705:26937  tokenBalanceForAddress[tokens[tokenNameIndex].buyBook[whilePrice].offers[offers_key].who][tokenNameIndex] + amountNecessary >= tokenBalanceForAddress[tokens[tokenNameIndex].buyBook[whilePrice].offers[offers_key].who][tokenNameIndex] */\n      lt\n      iszero\n        /* \"contracts/Exchange.sol\":26697:26938  require(tokenBalanceForAddress[tokens[tokenNameIndex].buyBook[whilePrice].offers[offers_key].who][tokenNameIndex] + amountNecessary >= tokenBalanceForAddress[tokens[tokenNameIndex].buyBook[whilePrice].offers[offers_key].who][tokenNameIndex]) */\n      iszero\n      iszero\n      tag_172\n      jumpi\n      0x0\n      dup1\n      revert\n    tag_172:\n        /* \"contracts/Exchange.sol\":27167:27182  amountNecessary */\n      dup3\n        /* \"contracts/Exchange.sol\":27095:27101  tokens */\n      0x1\n        /* \"contracts/Exchange.sol\":27095:27117  tokens[tokenNameIndex] */\n      0x0\n        /* \"contracts/Exchange.sol\":27102:27116  tokenNameIndex */\n      dup10\n        /* \"contracts/Exchange.sol\":27095:27117  tokens[tokenNameIndex] */\n      0xff\n      and\n      0xff\n      and\n      dup2\n      mstore\n      0x20\n      add\n      swap1\n      dup2\n      mstore\n      0x20\n      add\n      0x0\n      keccak256\n        /* \"contracts/Exchange.sol\":27095:27125  tokens[tokenNameIndex].buyBook */\n      0x2\n      add\n        /* \"contracts/Exchange.sol\":27095:27137  tokens[tokenNameIndex].buyBook[whilePrice] */\n      0x0\n        /* \"contracts/Exchange.sol\":27126:27136  whilePrice */\n      dup7\n        /* \"contracts/Exchange.sol\":27095:27137  tokens[tokenNameIndex].buyBook[whilePrice] */\n      dup2\n      mstore\n      0x20\n      add\n      swap1\n      dup2\n      mstore\n      0x20\n      add\n      0x0\n      keccak256\n        /* \"contracts/Exchange.sol\":27095:27144  tokens[tokenNameIndex].buyBook[whilePrice].offers */\n      0x2\n      add\n        /* \"contracts/Exchange.sol\":27095:27156  tokens[tokenNameIndex].buyBook[whilePrice].offers[offers_key] */\n      0x0\n        /* \"contracts/Exchange.sol\":27145:27155  offers_key */\n      dup5\n        /* \"contracts/Exchange.sol\":27095:27156  tokens[tokenNameIndex].buyBook[whilePrice].offers[offers_key] */\n      dup2\n      mstore\n      0x20\n      add\n      swap1\n      dup2\n      mstore\n      0x20\n      add\n      0x0\n      keccak256\n        /* \"contracts/Exchange.sol\":27095:27163  tokens[tokenNameIndex].buyBook[whilePrice].offers[offers_key].amount */\n      0x0\n      add\n      0x0\n        /* \"contracts/Exchange.sol\":27095:27182  tokens[tokenNameIndex].buyBook[whilePrice].offers[offers_key].amount -= amountNecessary */\n      dup3\n      dup3\n      sload\n      sub\n      swap3\n      pop\n      pop\n      dup2\n      swap1\n      sstore\n      pop\n        /* \"contracts/Exchange.sol\":27244:27272  total_amount_ether_necessary */\n      dup6\n        /* \"contracts/Exchange.sol\":27208:27228  balanceEthForAddress */\n      0x4\n        /* \"contracts/Exchange.sol\":27208:27240  balanceEthForAddress[msg.sender] */\n      0x0\n        /* \"contracts/Exchange.sol\":27229:27239  msg.sender */\n      caller\n        /* \"contracts/Exchange.sol\":27208:27240  balanceEthForAddress[msg.sender] */\n      0xffffffffffffffffffffffffffffffffffffffff\n      and\n      0xffffffffffffffffffffffffffffffffffffffff\n      and\n      dup2\n      mstore\n      0x20\n      add\n      swap1\n      dup2\n      mstore\n      0x20\n      add\n      0x0\n      keccak256\n      0x0\n        /* \"contracts/Exchange.sol\":27208:27272  balanceEthForAddress[msg.sender] += total_amount_ether_necessary */\n      dup3\n      dup3\n      sload\n      add\n      swap3\n      pop\n      pop\n      dup2\n      swap1\n      sstore\n      pop\n        /* \"contracts/Exchange.sol\":27407:27422  amountNecessary */\n      dup3\n        /* \"contracts/Exchange.sol\":27298:27320  tokenBalanceForAddress */\n      0x3\n        /* \"contracts/Exchange.sol\":27298:27387  tokenBalanceForAddress[tokens[tokenNameIndex].buyBook[whilePrice].offers[offers_key].who] */\n      0x0\n        /* \"contracts/Exchange.sol\":27321:27327  tokens */\n      0x1\n        /* \"contracts/Exchange.sol\":27321:27343  tokens[tokenNameIndex] */\n      0x0\n        /* \"contracts/Exchange.sol\":27328:27342  tokenNameIndex */\n      dup12\n        /* \"contracts/Exchange.sol\":27321:27343  tokens[tokenNameIndex] */\n      0xff\n      and\n      0xff\n      and\n      dup2\n      mstore\n      0x20\n      add\n      swap1\n      dup2\n      mstore\n      0x20\n      add\n      0x0\n      keccak256\n        /* \"contracts/Exchange.sol\":27321:27351  tokens[tokenNameIndex].buyBook */\n      0x2\n      add\n        /* \"contracts/Exchange.sol\":27321:27363  tokens[tokenNameIndex].buyBook[whilePrice] */\n      0x0\n        /* \"contracts/Exchange.sol\":27352:27362  whilePrice */\n      dup9\n        /* \"contracts/Exchange.sol\":27321:27363  tokens[tokenNameIndex].buyBook[whilePrice] */\n      dup2\n      mstore\n      0x20\n      add\n      swap1\n      dup2\n      mstore\n      0x20\n      add\n      0x0\n      keccak256\n        /* \"contracts/Exchange.sol\":27321:27370  tokens[tokenNameIndex].buyBook[whilePrice].offers */\n      0x2\n      add\n        /* \"contracts/Exchange.sol\":27321:27382  tokens[tokenNameIndex].buyBook[whilePrice].offers[offers_key] */\n      0x0\n        /* \"contracts/Exchange.sol\":27371:27381  offers_key */\n      dup7\n        /* \"contracts/Exchange.sol\":27321:27382  tokens[tokenNameIndex].buyBook[whilePrice].offers[offers_key] */\n      dup2\n      mstore\n      0x20\n      add\n      swap1\n      dup2\n      mstore\n      0x20\n      add\n      0x0\n      keccak256\n        /* \"contracts/Exchange.sol\":27321:27386  tokens[tokenNameIndex].buyBook[whilePrice].offers[offers_key].who */\n      0x1\n      add\n      0x0\n      swap1\n      sload\n      swap1\n      0x100\n      exp\n      swap1\n      div\n      0xffffffffffffffffffffffffffffffffffffffff\n      and\n        /* \"contracts/Exchange.sol\":27298:27387  tokenBalanceForAddress[tokens[tokenNameIndex].buyBook[whilePrice].offers[offers_key].who] */\n      0xffffffffffffffffffffffffffffffffffffffff\n      and\n      0xffffffffffffffffffffffffffffffffffffffff\n      and\n      dup2\n      mstore\n      0x20\n      add\n      swap1\n      dup2\n      mstore\n      0x20\n      add\n      0x0\n      keccak256\n        /* \"contracts/Exchange.sol\":27298:27403  tokenBalanceForAddress[tokens[tokenNameIndex].buyBook[whilePrice].offers[offers_key].who][tokenNameIndex] */\n      0x0\n        /* \"contracts/Exchange.sol\":27388:27402  tokenNameIndex */\n      dup10\n        /* \"contracts/Exchange.sol\":27298:27403  tokenBalanceForAddress[tokens[tokenNameIndex].buyBook[whilePrice].offers[offers_key].who][tokenNameIndex] */\n      0xff\n      and\n      0xff\n      and\n      dup2\n      mstore\n      0x20\n      add\n      swap1\n      dup2\n      mstore\n      0x20\n      add\n      0x0\n      keccak256\n      0x0\n        /* \"contracts/Exchange.sol\":27298:27422  tokenBalanceForAddress[tokens[tokenNameIndex].buyBook[whilePrice].offers[offers_key].who][tokenNameIndex] += amountNecessary */\n      dup3\n      dup3\n      sload\n      add\n      swap3\n      pop\n      pop\n      dup2\n      swap1\n      sstore\n      pop\n        /* \"contracts/Exchange.sol\":27473:27487  tokenNameIndex */\n      dup7\n        /* \"contracts/Exchange.sol\":27454:27529  SellOrderFulfilled(tokenNameIndex, amountNecessary, whilePrice, offers_key) */\n      0xff\n      and\n      0xcbfa5edcd918ef1ec42746c71ac83c456f37330c83a22e44d6cfdca22d564710\n        /* \"contracts/Exchange.sol\":27489:27504  amountNecessary */\n      dup5\n        /* \"contracts/Exchange.sol\":27506:27516  whilePrice */\n      dup7\n        /* \"contracts/Exchange.sol\":27518:27528  offers_key */\n      dup6\n        /* \"contracts/Exchange.sol\":27454:27529  SellOrderFulfilled(tokenNameIndex, amountNecessary, whilePrice, offers_key) */\n      mload(0x40)\n      dup1\n      dup5\n      dup2\n      mstore\n      0x20\n      add\n      dup4\n      dup2\n      mstore\n      0x20\n      add\n      dup3\n      dup2\n      mstore\n      0x20\n      add\n      swap4\n      pop\n      pop\n      pop\n      pop\n      mload(0x40)\n      dup1\n      swap2\n      sub\n      swap1\n      log2\n        /* \"contracts/Exchange.sol\":27574:27575  0 */\n      0x0\n        /* \"contracts/Exchange.sol\":27556:27575  amountNecessary = 0 */\n      swap3\n      pop\n        /* \"contracts/Exchange.sol\":23959:27652  if (volumeAtPriceFromAddress <= amountNecessary) {... */\n    tag_167:\n        /* \"contracts/Exchange.sol\":27857:27863  tokens */\n      0x1\n        /* \"contracts/Exchange.sol\":27857:27879  tokens[tokenNameIndex] */\n      0x0\n        /* \"contracts/Exchange.sol\":27864:27878  tokenNameIndex */\n      dup9\n        /* \"contracts/Exchange.sol\":27857:27879  tokens[tokenNameIndex] */\n      0xff\n      and\n      0xff\n      and\n      dup2\n      mstore\n      0x20\n      add\n      swap1\n      dup2\n      mstore\n      0x20\n      add\n      0x0\n      keccak256\n        /* \"contracts/Exchange.sol\":27857:27887  tokens[tokenNameIndex].buyBook */\n      0x2\n      add\n        /* \"contracts/Exchange.sol\":27857:27899  tokens[tokenNameIndex].buyBook[whilePrice] */\n      0x0\n        /* \"contracts/Exchange.sol\":27888:27898  whilePrice */\n      dup6\n        /* \"contracts/Exchange.sol\":27857:27899  tokens[tokenNameIndex].buyBook[whilePrice] */\n      dup2\n      mstore\n      0x20\n      add\n      swap1\n      dup2\n      mstore\n      0x20\n      add\n      0x0\n      keccak256\n        /* \"contracts/Exchange.sol\":27857:27913  tokens[tokenNameIndex].buyBook[whilePrice].offers_length */\n      0x4\n      add\n      sload\n        /* \"contracts/Exchange.sol\":27843:27853  offers_key */\n      dup3\n        /* \"contracts/Exchange.sol\":27843:27913  offers_key == tokens[tokenNameIndex].buyBook[whilePrice].offers_length */\n      eq\n        /* \"contracts/Exchange.sol\":27843:28010  offers_key == tokens[tokenNameIndex].buyBook[whilePrice].offers_length &&... */\n      dup1\n      iszero\n      tag_173\n      jumpi\n      pop\n        /* \"contracts/Exchange.sol\":28009:28010  0 */\n      0x0\n        /* \"contracts/Exchange.sol\":27937:27943  tokens */\n      0x1\n        /* \"contracts/Exchange.sol\":27937:27959  tokens[tokenNameIndex] */\n      0x0\n        /* \"contracts/Exchange.sol\":27944:27958  tokenNameIndex */\n      dup10\n        /* \"contracts/Exchange.sol\":27937:27959  tokens[tokenNameIndex] */\n      0xff\n      and\n      0xff\n      and\n      dup2\n      mstore\n      0x20\n      add\n      swap1\n      dup2\n      mstore\n      0x20\n      add\n      0x0\n      keccak256\n        /* \"contracts/Exchange.sol\":27937:27967  tokens[tokenNameIndex].buyBook */\n      0x2\n      add\n        /* \"contracts/Exchange.sol\":27937:27979  tokens[tokenNameIndex].buyBook[whilePrice] */\n      0x0\n        /* \"contracts/Exchange.sol\":27968:27978  whilePrice */\n      dup7\n        /* \"contracts/Exchange.sol\":27937:27979  tokens[tokenNameIndex].buyBook[whilePrice] */\n      dup2\n      mstore\n      0x20\n      add\n      swap1\n      dup2\n      mstore\n      0x20\n      add\n      0x0\n      keccak256\n        /* \"contracts/Exchange.sol\":27937:27986  tokens[tokenNameIndex].buyBook[whilePrice].offers */\n      0x2\n      add\n        /* \"contracts/Exchange.sol\":27937:27998  tokens[tokenNameIndex].buyBook[whilePrice].offers[offers_key] */\n      0x0\n        /* \"contracts/Exchange.sol\":27987:27997  offers_key */\n      dup5\n        /* \"contracts/Exchange.sol\":27937:27998  tokens[tokenNameIndex].buyBook[whilePrice].offers[offers_key] */\n      dup2\n      mstore\n      0x20\n      add\n      swap1\n      dup2\n      mstore\n      0x20\n      add\n      0x0\n      keccak256\n        /* \"contracts/Exchange.sol\":27937:28005  tokens[tokenNameIndex].buyBook[whilePrice].offers[offers_key].amount */\n      0x0\n      add\n      sload\n        /* \"contracts/Exchange.sol\":27937:28010  tokens[tokenNameIndex].buyBook[whilePrice].offers[offers_key].amount == 0 */\n      eq\n        /* \"contracts/Exchange.sol\":27843:28010  offers_key == tokens[tokenNameIndex].buyBook[whilePrice].offers_length &&... */\n    tag_173:\n        /* \"contracts/Exchange.sol\":27818:28885  if (... */\n      iszero\n      tag_174\n      jumpi\n        /* \"contracts/Exchange.sol\":28060:28066  tokens */\n      0x1\n        /* \"contracts/Exchange.sol\":28060:28082  tokens[tokenNameIndex] */\n      0x0\n        /* \"contracts/Exchange.sol\":28067:28081  tokenNameIndex */\n      dup9\n        /* \"contracts/Exchange.sol\":28060:28082  tokens[tokenNameIndex] */\n      0xff\n      and\n      0xff\n      and\n      dup2\n      mstore\n      0x20\n      add\n      swap1\n      dup2\n      mstore\n      0x20\n      add\n      0x0\n      keccak256\n        /* \"contracts/Exchange.sol\":28060:28098  tokens[tokenNameIndex].amountBuyPrices */\n      0x5\n      add\n      0x0\n        /* \"contracts/Exchange.sol\":28060:28100  tokens[tokenNameIndex].amountBuyPrices-- */\n      dup2\n      sload\n      dup1\n      swap3\n      swap2\n      swap1\n      0x1\n      swap1\n      sub\n      swap2\n      swap1\n      pop\n      sstore\n      pop\n        /* \"contracts/Exchange.sol\":28249:28255  tokens */\n      0x1\n        /* \"contracts/Exchange.sol\":28249:28271  tokens[tokenNameIndex] */\n      0x0\n        /* \"contracts/Exchange.sol\":28256:28270  tokenNameIndex */\n      dup9\n        /* \"contracts/Exchange.sol\":28249:28271  tokens[tokenNameIndex] */\n      0xff\n      and\n      0xff\n      and\n      dup2\n      mstore\n      0x20\n      add\n      swap1\n      dup2\n      mstore\n      0x20\n      add\n      0x0\n      keccak256\n        /* \"contracts/Exchange.sol\":28249:28279  tokens[tokenNameIndex].buyBook */\n      0x2\n      add\n        /* \"contracts/Exchange.sol\":28249:28291  tokens[tokenNameIndex].buyBook[whilePrice] */\n      0x0\n        /* \"contracts/Exchange.sol\":28280:28290  whilePrice */\n      dup6\n        /* \"contracts/Exchange.sol\":28249:28291  tokens[tokenNameIndex].buyBook[whilePrice] */\n      dup2\n      mstore\n      0x20\n      add\n      swap1\n      dup2\n      mstore\n      0x20\n      add\n      0x0\n      keccak256\n        /* \"contracts/Exchange.sol\":28249:28302  tokens[tokenNameIndex].buyBook[whilePrice].lowerPrice */\n      0x1\n      add\n      sload\n        /* \"contracts/Exchange.sol\":28235:28245  whilePrice */\n      dup5\n        /* \"contracts/Exchange.sol\":28235:28302  whilePrice == tokens[tokenNameIndex].buyBook[whilePrice].lowerPrice */\n      eq\n        /* \"contracts/Exchange.sol\":28235:28364  whilePrice == tokens[tokenNameIndex].buyBook[whilePrice].lowerPrice || tokens[tokenNameIndex].buyBook[whilePrice].lowerPrice == 0 */\n      dup1\n      tag_175\n      jumpi\n      pop\n        /* \"contracts/Exchange.sol\":28363:28364  0 */\n      0x0\n        /* \"contracts/Exchange.sol\":28306:28312  tokens */\n      0x1\n        /* \"contracts/Exchange.sol\":28306:28328  tokens[tokenNameIndex] */\n      0x0\n        /* \"contracts/Exchange.sol\":28313:28327  tokenNameIndex */\n      dup10\n        /* \"contracts/Exchange.sol\":28306:28328  tokens[tokenNameIndex] */\n      0xff\n      and\n      0xff\n      and\n      dup2\n      mstore\n      0x20\n      add\n      swap1\n      dup2\n      mstore\n      0x20\n      add\n      0x0\n      keccak256\n        /* \"contracts/Exchange.sol\":28306:28336  tokens[tokenNameIndex].buyBook */\n      0x2\n      add\n        /* \"contracts/Exchange.sol\":28306:28348  tokens[tokenNameIndex].buyBook[whilePrice] */\n      0x0\n        /* \"contracts/Exchange.sol\":28337:28347  whilePrice */\n      dup7\n        /* \"contracts/Exchange.sol\":28306:28348  tokens[tokenNameIndex].buyBook[whilePrice] */\n      dup2\n      mstore\n      0x20\n      add\n      swap1\n      dup2\n      mstore\n      0x20\n      add\n      0x0\n      keccak256\n        /* \"contracts/Exchange.sol\":28306:28359  tokens[tokenNameIndex].buyBook[whilePrice].lowerPrice */\n      0x1\n      add\n      sload\n        /* \"contracts/Exchange.sol\":28306:28364  tokens[tokenNameIndex].buyBook[whilePrice].lowerPrice == 0 */\n      eq\n        /* \"contracts/Exchange.sol\":28235:28364  whilePrice == tokens[tokenNameIndex].buyBook[whilePrice].lowerPrice || tokens[tokenNameIndex].buyBook[whilePrice].lowerPrice == 0 */\n    tag_175:\n        /* \"contracts/Exchange.sol\":28231:28863  if (whilePrice == tokens[tokenNameIndex].buyBook[whilePrice].lowerPrice || tokens[tokenNameIndex].buyBook[whilePrice].lowerPrice == 0) {... */\n      iszero\n      tag_176\n      jumpi\n        /* \"contracts/Exchange.sol\":28433:28434  0 */\n      0x0\n        /* \"contracts/Exchange.sol\":28396:28402  tokens */\n      0x1\n        /* \"contracts/Exchange.sol\":28396:28418  tokens[tokenNameIndex] */\n      0x0\n        /* \"contracts/Exchange.sol\":28403:28417  tokenNameIndex */\n      dup10\n        /* \"contracts/Exchange.sol\":28396:28418  tokens[tokenNameIndex] */\n      0xff\n      and\n      0xff\n      and\n      dup2\n      mstore\n      0x20\n      add\n      swap1\n      dup2\n      mstore\n      0x20\n      add\n      0x0\n      keccak256\n        /* \"contracts/Exchange.sol\":28396:28430  tokens[tokenNameIndex].curBuyPrice */\n      0x3\n      add\n        /* \"contracts/Exchange.sol\":28396:28434  tokens[tokenNameIndex].curBuyPrice = 0 */\n      dup2\n      swap1\n      sstore\n      pop\n        /* \"contracts/Exchange.sol\":28231:28863  if (whilePrice == tokens[tokenNameIndex].buyBook[whilePrice].lowerPrice || tokens[tokenNameIndex].buyBook[whilePrice].lowerPrice == 0) {... */\n      jump(tag_177)\n    tag_176:\n        /* \"contracts/Exchange.sol\":28619:28625  tokens */\n      0x1\n        /* \"contracts/Exchange.sol\":28619:28641  tokens[tokenNameIndex] */\n      0x0\n        /* \"contracts/Exchange.sol\":28626:28640  tokenNameIndex */\n      dup9\n        /* \"contracts/Exchange.sol\":28619:28641  tokens[tokenNameIndex] */\n      0xff\n      and\n      0xff\n      and\n      dup2\n      mstore\n      0x20\n      add\n      swap1\n      dup2\n      mstore\n      0x20\n      add\n      0x0\n      keccak256\n        /* \"contracts/Exchange.sol\":28619:28649  tokens[tokenNameIndex].buyBook */\n      0x2\n      add\n        /* \"contracts/Exchange.sol\":28619:28661  tokens[tokenNameIndex].buyBook[whilePrice] */\n      0x0\n        /* \"contracts/Exchange.sol\":28650:28660  whilePrice */\n      dup6\n        /* \"contracts/Exchange.sol\":28619:28661  tokens[tokenNameIndex].buyBook[whilePrice] */\n      dup2\n      mstore\n      0x20\n      add\n      swap1\n      dup2\n      mstore\n      0x20\n      add\n      0x0\n      keccak256\n        /* \"contracts/Exchange.sol\":28619:28672  tokens[tokenNameIndex].buyBook[whilePrice].lowerPrice */\n      0x1\n      add\n      sload\n        /* \"contracts/Exchange.sol\":28582:28588  tokens */\n      0x1\n        /* \"contracts/Exchange.sol\":28582:28604  tokens[tokenNameIndex] */\n      0x0\n        /* \"contracts/Exchange.sol\":28589:28603  tokenNameIndex */\n      dup10\n        /* \"contracts/Exchange.sol\":28582:28604  tokens[tokenNameIndex] */\n      0xff\n      and\n      0xff\n      and\n      dup2\n      mstore\n      0x20\n      add\n      swap1\n      dup2\n      mstore\n      0x20\n      add\n      0x0\n      keccak256\n        /* \"contracts/Exchange.sol\":28582:28616  tokens[tokenNameIndex].curBuyPrice */\n      0x3\n      add\n        /* \"contracts/Exchange.sol\":28582:28672  tokens[tokenNameIndex].curBuyPrice = tokens[tokenNameIndex].buyBook[whilePrice].lowerPrice */\n      dup2\n      swap1\n      sstore\n      pop\n        /* \"contracts/Exchange.sol\":28802:28808  tokens */\n      0x1\n        /* \"contracts/Exchange.sol\":28802:28824  tokens[tokenNameIndex] */\n      0x0\n        /* \"contracts/Exchange.sol\":28809:28823  tokenNameIndex */\n      dup9\n        /* \"contracts/Exchange.sol\":28802:28824  tokens[tokenNameIndex] */\n      0xff\n      and\n      0xff\n      and\n      dup2\n      mstore\n      0x20\n      add\n      swap1\n      dup2\n      mstore\n      0x20\n      add\n      0x0\n      keccak256\n        /* \"contracts/Exchange.sol\":28802:28836  tokens[tokenNameIndex].curBuyPrice */\n      0x3\n      add\n      sload\n        /* \"contracts/Exchange.sol\":28702:28708  tokens */\n      0x1\n        /* \"contracts/Exchange.sol\":28702:28724  tokens[tokenNameIndex] */\n      0x0\n        /* \"contracts/Exchange.sol\":28709:28723  tokenNameIndex */\n      dup10\n        /* \"contracts/Exchange.sol\":28702:28724  tokens[tokenNameIndex] */\n      0xff\n      and\n      0xff\n      and\n      dup2\n      mstore\n      0x20\n      add\n      swap1\n      dup2\n      mstore\n      0x20\n      add\n      0x0\n      keccak256\n        /* \"contracts/Exchange.sol\":28702:28732  tokens[tokenNameIndex].buyBook */\n      0x2\n      add\n        /* \"contracts/Exchange.sol\":28702:28787  tokens[tokenNameIndex].buyBook[tokens[tokenNameIndex].buyBook[whilePrice].lowerPrice] */\n      0x0\n        /* \"contracts/Exchange.sol\":28733:28739  tokens */\n      0x1\n        /* \"contracts/Exchange.sol\":28733:28755  tokens[tokenNameIndex] */\n      0x0\n        /* \"contracts/Exchange.sol\":28740:28754  tokenNameIndex */\n      dup12\n        /* \"contracts/Exchange.sol\":28733:28755  tokens[tokenNameIndex] */\n      0xff\n      and\n      0xff\n      and\n      dup2\n      mstore\n      0x20\n      add\n      swap1\n      dup2\n      mstore\n      0x20\n      add\n      0x0\n      keccak256\n        /* \"contracts/Exchange.sol\":28733:28763  tokens[tokenNameIndex].buyBook */\n      0x2\n      add\n        /* \"contracts/Exchange.sol\":28733:28775  tokens[tokenNameIndex].buyBook[whilePrice] */\n      0x0\n        /* \"contracts/Exchange.sol\":28764:28774  whilePrice */\n      dup9\n        /* \"contracts/Exchange.sol\":28733:28775  tokens[tokenNameIndex].buyBook[whilePrice] */\n      dup2\n      mstore\n      0x20\n      add\n      swap1\n      dup2\n      mstore\n      0x20\n      add\n      0x0\n      keccak256\n        /* \"contracts/Exchange.sol\":28733:28786  tokens[tokenNameIndex].buyBook[whilePrice].lowerPrice */\n      0x1\n      add\n      sload\n        /* \"contracts/Exchange.sol\":28702:28787  tokens[tokenNameIndex].buyBook[tokens[tokenNameIndex].buyBook[whilePrice].lowerPrice] */\n      dup2\n      mstore\n      0x20\n      add\n      swap1\n      dup2\n      mstore\n      0x20\n      add\n      0x0\n      keccak256\n        /* \"contracts/Exchange.sol\":28702:28799  tokens[tokenNameIndex].buyBook[tokens[tokenNameIndex].buyBook[whilePrice].lowerPrice].higherPrice */\n      0x0\n      add\n        /* \"contracts/Exchange.sol\":28702:28836  tokens[tokenNameIndex].buyBook[tokens[tokenNameIndex].buyBook[whilePrice].lowerPrice].higherPrice = tokens[tokenNameIndex].curBuyPrice */\n      dup2\n      swap1\n      sstore\n      pop\n        /* \"contracts/Exchange.sol\":28231:28863  if (whilePrice == tokens[tokenNameIndex].buyBook[whilePrice].lowerPrice || tokens[tokenNameIndex].buyBook[whilePrice].lowerPrice == 0) {... */\n    tag_177:\n        /* \"contracts/Exchange.sol\":27818:28885  if (... */\n    tag_174:\n        /* \"contracts/Exchange.sol\":28906:28918  offers_key++ */\n      dup2\n      dup1\n      0x1\n      add\n      swap3\n      pop\n      pop\n        /* \"contracts/Exchange.sol\":23346:28937  while (offers_key <= tokens[tokenNameIndex].buyBook[whilePrice].offers_length && amountNecessary > 0) {//and the first order (FIFO)... */\n      jump(tag_159)\n    tag_160:\n        /* \"contracts/Exchange.sol\":29102:29108  tokens */\n      0x1\n        /* \"contracts/Exchange.sol\":29102:29124  tokens[tokenNameIndex] */\n      0x0\n        /* \"contracts/Exchange.sol\":29109:29123  tokenNameIndex */\n      dup9\n        /* \"contracts/Exchange.sol\":29102:29124  tokens[tokenNameIndex] */\n      0xff\n      and\n      0xff\n      and\n      dup2\n      mstore\n      0x20\n      add\n      swap1\n      dup2\n      mstore\n      0x20\n      add\n      0x0\n      keccak256\n        /* \"contracts/Exchange.sol\":29102:29136  tokens[tokenNameIndex].curBuyPrice */\n      0x3\n      add\n      sload\n        /* \"contracts/Exchange.sol\":29089:29136  whilePrice = tokens[tokenNameIndex].curBuyPrice */\n      swap4\n      pop\n        /* \"contracts/Exchange.sol\":23150:29151  while (whilePrice >= priceInWei && amountNecessary > 0) {//we start with the highest buy price.... */\n      jump(tag_156)\n    tag_157:\n        /* \"contracts/Exchange.sol\":29187:29188  0 */\n      0x0\n        /* \"contracts/Exchange.sol\":29169:29184  amountNecessary */\n      dup4\n        /* \"contracts/Exchange.sol\":29169:29188  amountNecessary > 0 */\n      gt\n        /* \"contracts/Exchange.sol\":29165:29346  if (amountNecessary > 0) {... */\n      iszero\n      tag_178\n      jumpi\n        /* \"contracts/Exchange.sol\":29208:29258  sellToken(symbolName, priceInWei, amountNecessary) */\n      tag_179\n        /* \"contracts/Exchange.sol\":29218:29228  symbolName */\n      dup11\n        /* \"contracts/Exchange.sol\":29230:29240  priceInWei */\n      dup11\n        /* \"contracts/Exchange.sol\":29242:29257  amountNecessary */\n      dup6\n        /* \"contracts/Exchange.sol\":29208:29217  sellToken */\n      tag_51\n        /* \"contracts/Exchange.sol\":29208:29258  sellToken(symbolName, priceInWei, amountNecessary) */\n      jump\t// in\n    tag_179:\n        /* \"contracts/Exchange.sol\":29165:29346  if (amountNecessary > 0) {... */\n    tag_178:\n        /* \"contracts/Exchange.sol\":21271:29357  if (tokens[tokenNameIndex].amountBuyPrices == 0 || tokens[tokenNameIndex].curBuyPrice < priceInWei) {... */\n    tag_155:\n        /* \"contracts/Exchange.sol\":21024:29363  function sellToken(string symbolName, uint priceInWei, uint amount) public {... */\n      pop\n      pop\n      pop\n      pop\n      pop\n      pop\n      pop\n      pop\n      pop\n      pop\n      jump\t// out\n        /* \"contracts/Exchange.sol\":3660:3864  function hasToken(string symbolName) view public returns (bool) {... */\n    tag_54:\n        /* \"contracts/Exchange.sol\":3718:3722  bool */\n      0x0\n        /* \"contracts/Exchange.sol\":3734:3745  uint8 index */\n      dup1\n        /* \"contracts/Exchange.sol\":3748:3774  getSymbolIndex(symbolName) */\n      tag_181\n        /* \"contracts/Exchange.sol\":3763:3773  symbolName */\n      dup4\n        /* \"contracts/Exchange.sol\":3748:3762  getSymbolIndex */\n      tag_182\n        /* \"contracts/Exchange.sol\":3748:3774  getSymbolIndex(symbolName) */\n      jump\t// in\n    tag_181:\n        /* \"contracts/Exchange.sol\":3734:3774  uint8 index = getSymbolIndex(symbolName) */\n      swap1\n      pop\n        /* \"contracts/Exchange.sol\":3797:3798  0 */\n      0x0\n        /* \"contracts/Exchange.sol\":3788:3793  index */\n      dup2\n        /* \"contracts/Exchange.sol\":3788:3798  index == 0 */\n      0xff\n      and\n      eq\n        /* \"contracts/Exchange.sol\":3784:3837  if (index == 0) {... */\n      iszero\n      tag_183\n      jumpi\n        /* \"contracts/Exchange.sol\":3821:3826  false */\n      0x0\n        /* \"contracts/Exchange.sol\":3814:3826  return false */\n      swap2\n      pop\n      jump(tag_180)\n        /* \"contracts/Exchange.sol\":3784:3837  if (index == 0) {... */\n    tag_183:\n        /* \"contracts/Exchange.sol\":3853:3857  true */\n      0x1\n        /* \"contracts/Exchange.sol\":3846:3857  return true */\n      swap2\n      pop\n        /* \"contracts/Exchange.sol\":3660:3864  function hasToken(string symbolName) view public returns (bool) {... */\n    tag_180:\n      pop\n      swap2\n      swap1\n      pop\n      jump\t// out\n        /* \"contracts/Exchange.sol\":4142:4327  function getSymbolIndexOrThrow(string symbolName) public view returns (uint8) {... */\n    tag_57:\n        /* \"contracts/Exchange.sol\":4213:4218  uint8 */\n      0x0\n        /* \"contracts/Exchange.sol\":4230:4241  uint8 index */\n      dup1\n        /* \"contracts/Exchange.sol\":4244:4270  getSymbolIndex(symbolName) */\n      tag_185\n        /* \"contracts/Exchange.sol\":4259:4269  symbolName */\n      dup4\n        /* \"contracts/Exchange.sol\":4244:4258  getSymbolIndex */\n      tag_182\n        /* \"contracts/Exchange.sol\":4244:4270  getSymbolIndex(symbolName) */\n      jump\t// in\n    tag_185:\n        /* \"contracts/Exchange.sol\":4230:4270  uint8 index = getSymbolIndex(symbolName) */\n      swap1\n      pop\n        /* \"contracts/Exchange.sol\":4296:4297  0 */\n      0x0\n        /* \"contracts/Exchange.sol\":4288:4293  index */\n      dup2\n        /* \"contracts/Exchange.sol\":4288:4297  index > 0 */\n      0xff\n      and\n      gt\n        /* \"contracts/Exchange.sol\":4280:4298  require(index > 0) */\n      iszero\n      iszero\n      tag_186\n      jumpi\n      0x0\n      dup1\n      revert\n    tag_186:\n        /* \"contracts/Exchange.sol\":4315:4320  index */\n      dup1\n        /* \"contracts/Exchange.sol\":4308:4320  return index */\n      swap2\n      pop\n        /* \"contracts/Exchange.sol\":4142:4327  function getSymbolIndexOrThrow(string symbolName) public view returns (uint8) {... */\n      pop\n      swap2\n      swap1\n      pop\n      jump\t// out\n        /* \"contracts/Exchange.sol\":2421:2685  function depositEther() public payable {... */\n    tag_59:\n        /* \"contracts/Exchange.sol\":2526:2546  balanceEthForAddress */\n      0x4\n        /* \"contracts/Exchange.sol\":2526:2558  balanceEthForAddress[msg.sender] */\n      0x0\n        /* \"contracts/Exchange.sol\":2547:2557  msg.sender */\n      caller\n        /* \"contracts/Exchange.sol\":2526:2558  balanceEthForAddress[msg.sender] */\n      0xffffffffffffffffffffffffffffffffffffffff\n      and\n      0xffffffffffffffffffffffffffffffffffffffff\n      and\n      dup2\n      mstore\n      0x20\n      add\n      swap1\n      dup2\n      mstore\n      0x20\n      add\n      0x0\n      keccak256\n      sload\n        /* \"contracts/Exchange.sol\":2513:2522  msg.value */\n      callvalue\n        /* \"contracts/Exchange.sol\":2478:2498  balanceEthForAddress */\n      0x4\n        /* \"contracts/Exchange.sol\":2478:2510  balanceEthForAddress[msg.sender] */\n      0x0\n        /* \"contracts/Exchange.sol\":2499:2509  msg.sender */\n      caller\n        /* \"contracts/Exchange.sol\":2478:2510  balanceEthForAddress[msg.sender] */\n      0xffffffffffffffffffffffffffffffffffffffff\n      and\n      0xffffffffffffffffffffffffffffffffffffffff\n      and\n      dup2\n      mstore\n      0x20\n      add\n      swap1\n      dup2\n      mstore\n      0x20\n      add\n      0x0\n      keccak256\n      sload\n        /* \"contracts/Exchange.sol\":2478:2522  balanceEthForAddress[msg.sender] + msg.value */\n      add\n        /* \"contracts/Exchange.sol\":2478:2558  balanceEthForAddress[msg.sender] + msg.value >= balanceEthForAddress[msg.sender] */\n      lt\n      iszero\n        /* \"contracts/Exchange.sol\":2470:2559  require(balanceEthForAddress[msg.sender] + msg.value >= balanceEthForAddress[msg.sender]) */\n      iszero\n      iszero\n      tag_188\n      jumpi\n      0x0\n      dup1\n      revert\n    tag_188:\n        /* \"contracts/Exchange.sol\":2605:2614  msg.value */\n      callvalue\n        /* \"contracts/Exchange.sol\":2569:2589  balanceEthForAddress */\n      0x4\n        /* \"contracts/Exchange.sol\":2569:2601  balanceEthForAddress[msg.sender] */\n      0x0\n        /* \"contracts/Exchange.sol\":2590:2600  msg.sender */\n      caller\n        /* \"contracts/Exchange.sol\":2569:2601  balanceEthForAddress[msg.sender] */\n      0xffffffffffffffffffffffffffffffffffffffff\n      and\n      0xffffffffffffffffffffffffffffffffffffffff\n      and\n      dup2\n      mstore\n      0x20\n      add\n      swap1\n      dup2\n      mstore\n      0x20\n      add\n      0x0\n      keccak256\n      0x0\n        /* \"contracts/Exchange.sol\":2569:2614  balanceEthForAddress[msg.sender] += msg.value */\n      dup3\n      dup3\n      sload\n      add\n      swap3\n      pop\n      pop\n      dup2\n      swap1\n      sstore\n      pop\n        /* \"contracts/Exchange.sol\":2651:2661  msg.sender */\n      caller\n        /* \"contracts/Exchange.sol\":2629:2678  DepositForEthReceived(msg.sender, msg.value, now) */\n      0xffffffffffffffffffffffffffffffffffffffff\n      and\n      0x42dbebeb8f6fb795e3007753aef2d4b1a292dd123f6de06a4105018674150637\n        /* \"contracts/Exchange.sol\":2663:2672  msg.value */\n      callvalue\n        /* \"contracts/Exchange.sol\":2674:2677  now */\n      timestamp\n        /* \"contracts/Exchange.sol\":2629:2678  DepositForEthReceived(msg.sender, msg.value, now) */\n      mload(0x40)\n      dup1\n      dup4\n      dup2\n      mstore\n      0x20\n      add\n      dup3\n      dup2\n      mstore\n      0x20\n      add\n      swap3\n      pop\n      pop\n      pop\n      mload(0x40)\n      dup1\n      swap2\n      sub\n      swap1\n      log2\n        /* \"contracts/Exchange.sol\":2421:2685  function depositEther() public payable {... */\n      jump\t// out\n        /* \"contracts/Exchange.sol\":3281:3654  function addToken(string symbolName, address erc20TokenAddress) public onlyowner {... */\n    tag_62:\n        /* \"contracts/owned.sol\":119:124  owner */\n      0x0\n      dup1\n      swap1\n      sload\n      swap1\n      0x100\n      exp\n      swap1\n      div\n      0xffffffffffffffffffffffffffffffffffffffff\n      and\n        /* \"contracts/owned.sol\":105:124  msg.sender == owner */\n      0xffffffffffffffffffffffffffffffffffffffff\n      and\n        /* \"contracts/owned.sol\":105:115  msg.sender */\n      caller\n        /* \"contracts/owned.sol\":105:124  msg.sender == owner */\n      0xffffffffffffffffffffffffffffffffffffffff\n      and\n      eq\n        /* \"contracts/owned.sol\":97:125  require(msg.sender == owner) */\n      iszero\n      iszero\n      tag_190\n      jumpi\n      0x0\n      dup1\n      revert\n    tag_190:\n        /* \"contracts/Exchange.sol\":3381:3401  hasToken(symbolName) */\n      tag_192\n        /* \"contracts/Exchange.sol\":3390:3400  symbolName */\n      dup3\n        /* \"contracts/Exchange.sol\":3381:3389  hasToken */\n      tag_54\n        /* \"contracts/Exchange.sol\":3381:3401  hasToken(symbolName) */\n      jump\t// in\n    tag_192:\n        /* \"contracts/Exchange.sol\":3380:3401  !hasToken(symbolName) */\n      iszero\n        /* \"contracts/Exchange.sol\":3372:3402  require(!hasToken(symbolName)) */\n      iszero\n      iszero\n      tag_193\n      jumpi\n      0x0\n      dup1\n      revert\n    tag_193:\n        /* \"contracts/Exchange.sol\":3437:3447  tokenIndex */\n      0x2\n      0x0\n      swap1\n      sload\n      swap1\n      0x100\n      exp\n      swap1\n      div\n      0xff\n      and\n        /* \"contracts/Exchange.sol\":3420:3447  tokenIndex + 1 > tokenIndex */\n      0xff\n      and\n        /* \"contracts/Exchange.sol\":3433:3434  1 */\n      0x1\n        /* \"contracts/Exchange.sol\":3420:3430  tokenIndex */\n      0x2\n      0x0\n      swap1\n      sload\n      swap1\n      0x100\n      exp\n      swap1\n      div\n      0xff\n      and\n        /* \"contracts/Exchange.sol\":3420:3434  tokenIndex + 1 */\n      add\n        /* \"contracts/Exchange.sol\":3420:3447  tokenIndex + 1 > tokenIndex */\n      0xff\n      and\n      gt\n        /* \"contracts/Exchange.sol\":3412:3448  require(tokenIndex + 1 > tokenIndex) */\n      iszero\n      iszero\n      tag_194\n      jumpi\n      0x0\n      dup1\n      revert\n    tag_194:\n        /* \"contracts/Exchange.sol\":3458:3468  tokenIndex */\n      0x2\n      0x0\n        /* \"contracts/Exchange.sol\":3458:3470  tokenIndex++ */\n      dup2\n      dup2\n      swap1\n      sload\n      swap1\n      0x100\n      exp\n      swap1\n      div\n      0xff\n      and\n      dup1\n      swap3\n      swap2\n      swap1\n      0x1\n      add\n      swap2\n      swap1\n      0x100\n      exp\n      dup2\n      sload\n      dup2\n      0xff\n      mul\n      not\n      and\n      swap1\n      dup4\n      0xff\n      and\n      mul\n      or\n      swap1\n      sstore\n      pop\n      pop\n        /* \"contracts/Exchange.sol\":3513:3523  symbolName */\n      dup2\n        /* \"contracts/Exchange.sol\":3481:3487  tokens */\n      0x1\n        /* \"contracts/Exchange.sol\":3481:3499  tokens[tokenIndex] */\n      0x0\n        /* \"contracts/Exchange.sol\":3488:3498  tokenIndex */\n      0x2\n      0x0\n      swap1\n      sload\n      swap1\n      0x100\n      exp\n      swap1\n      div\n      0xff\n      and\n        /* \"contracts/Exchange.sol\":3481:3499  tokens[tokenIndex] */\n      0xff\n      and\n      0xff\n      and\n      dup2\n      mstore\n      0x20\n      add\n      swap1\n      dup2\n      mstore\n      0x20\n      add\n      0x0\n      keccak256\n        /* \"contracts/Exchange.sol\":3481:3510  tokens[tokenIndex].symbolName */\n      0x1\n      add\n        /* \"contracts/Exchange.sol\":3481:3523  tokens[tokenIndex].symbolName = symbolName */\n      swap1\n      dup1\n      mload\n      swap1\n      0x20\n      add\n      swap1\n      tag_195\n      swap3\n      swap2\n      swap1\n      jump\t// in(tag_196)\n    tag_195:\n      pop\n        /* \"contracts/Exchange.sol\":3568:3585  erc20TokenAddress */\n      dup1\n        /* \"contracts/Exchange.sol\":3533:3539  tokens */\n      0x1\n        /* \"contracts/Exchange.sol\":3533:3551  tokens[tokenIndex] */\n      0x0\n        /* \"contracts/Exchange.sol\":3540:3550  tokenIndex */\n      0x2\n      0x0\n      swap1\n      sload\n      swap1\n      0x100\n      exp\n      swap1\n      div\n      0xff\n      and\n        /* \"contracts/Exchange.sol\":3533:3551  tokens[tokenIndex] */\n      0xff\n      and\n      0xff\n      and\n      dup2\n      mstore\n      0x20\n      add\n      swap1\n      dup2\n      mstore\n      0x20\n      add\n      0x0\n      keccak256\n        /* \"contracts/Exchange.sol\":3533:3565  tokens[tokenIndex].tokenContract */\n      0x0\n      add\n      0x0\n        /* \"contracts/Exchange.sol\":3533:3585  tokens[tokenIndex].tokenContract = erc20TokenAddress */\n      0x100\n      exp\n      dup2\n      sload\n      dup2\n      0xffffffffffffffffffffffffffffffffffffffff\n      mul\n      not\n      and\n      swap1\n      dup4\n      0xffffffffffffffffffffffffffffffffffffffff\n      and\n      mul\n      or\n      swap1\n      sstore\n      pop\n        /* \"contracts/Exchange.sol\":3600:3647  TokenAddedToSystem(tokenIndex, symbolName, now) */\n      0x6c71eb76d5d82031f490d3e44dc01d298444e569078199b14510435d81b59ff7\n        /* \"contracts/Exchange.sol\":3619:3629  tokenIndex */\n      0x2\n      0x0\n      swap1\n      sload\n      swap1\n      0x100\n      exp\n      swap1\n      div\n      0xff\n      and\n        /* \"contracts/Exchange.sol\":3631:3641  symbolName */\n      dup4\n        /* \"contracts/Exchange.sol\":3643:3646  now */\n      timestamp\n        /* \"contracts/Exchange.sol\":3600:3647  TokenAddedToSystem(tokenIndex, symbolName, now) */\n      mload(0x40)\n      dup1\n      dup5\n      0xff\n      and\n      dup2\n      mstore\n      0x20\n      add\n      dup1\n      0x20\n      add\n      dup4\n      dup2\n      mstore\n      0x20\n      add\n      dup3\n      dup2\n      sub\n      dup3\n      mstore\n      dup5\n      dup2\n      dup2\n      mload\n      dup2\n      mstore\n      0x20\n      add\n      swap2\n      pop\n      dup1\n      mload\n      swap1\n      0x20\n      add\n      swap1\n      dup1\n      dup4\n      dup4\n        /* \"--CODEGEN--\":23:24   */\n      0x0\n        /* \"--CODEGEN--\":8:108   */\n    tag_197:\n        /* \"--CODEGEN--\":33:36   */\n      dup4\n        /* \"--CODEGEN--\":30:31   */\n      dup2\n        /* \"--CODEGEN--\":27:37   */\n      lt\n        /* \"--CODEGEN--\":8:108   */\n      iszero\n      tag_198\n      jumpi\n        /* \"--CODEGEN--\":99:100   */\n      dup1\n        /* \"--CODEGEN--\":94:97   */\n      dup3\n        /* \"--CODEGEN--\":90:101   */\n      add\n        /* \"--CODEGEN--\":84:102   */\n      mload\n        /* \"--CODEGEN--\":80:81   */\n      dup2\n        /* \"--CODEGEN--\":75:78   */\n      dup5\n        /* \"--CODEGEN--\":71:82   */\n      add\n        /* \"--CODEGEN--\":64:103   */\n      mstore\n        /* \"--CODEGEN--\":52:54   */\n      0x20\n        /* \"--CODEGEN--\":49:50   */\n      dup2\n        /* \"--CODEGEN--\":45:55   */\n      add\n        /* \"--CODEGEN--\":40:55   */\n      swap1\n      pop\n        /* \"--CODEGEN--\":8:108   */\n      jump(tag_197)\n    tag_198:\n        /* \"--CODEGEN--\":12:26   */\n      pop\n        /* \"contracts/Exchange.sol\":3600:3647  TokenAddedToSystem(tokenIndex, symbolName, now) */\n      pop\n      pop\n      pop\n      swap1\n      pop\n      swap1\n      dup2\n      add\n      swap1\n      0x1f\n      and\n      dup1\n      iszero\n      tag_200\n      jumpi\n      dup1\n      dup3\n      sub\n      dup1\n      mload\n      0x1\n      dup4\n      0x20\n      sub\n      0x100\n      exp\n      sub\n      not\n      and\n      dup2\n      mstore\n      0x20\n      add\n      swap2\n      pop\n    tag_200:\n      pop\n      swap5\n      pop\n      pop\n      pop\n      pop\n      pop\n      mload(0x40)\n      dup1\n      swap2\n      sub\n      swap1\n      log1\n        /* \"contracts/Exchange.sol\":3281:3654  function addToken(string symbolName, address erc20TokenAddress) public onlyowner {... */\n      pop\n      pop\n      jump\t// out\n        /* \"contracts/Exchange.sol\":5120:5837  function withdrawToken(string symbolName, uint amount) public {... */\n    tag_65:\n        /* \"contracts/Exchange.sol\":5192:5213  uint8 symbolNameIndex */\n      0x0\n        /* \"contracts/Exchange.sol\":5330:5350  ERC20Interface token */\n      dup1\n        /* \"contracts/Exchange.sol\":5216:5249  getSymbolIndexOrThrow(symbolName) */\n      tag_202\n        /* \"contracts/Exchange.sol\":5238:5248  symbolName */\n      dup5\n        /* \"contracts/Exchange.sol\":5216:5237  getSymbolIndexOrThrow */\n      tag_57\n        /* \"contracts/Exchange.sol\":5216:5249  getSymbolIndexOrThrow(symbolName) */\n      jump\t// in\n    tag_202:\n        /* \"contracts/Exchange.sol\":5192:5249  uint8 symbolNameIndex = getSymbolIndexOrThrow(symbolName) */\n      swap2\n      pop\n        /* \"contracts/Exchange.sol\":5316:5317  0 */\n      0x0\n        /* \"contracts/Exchange.sol\":5267:5318  tokens[symbolNameIndex].tokenContract != address(0) */\n      0xffffffffffffffffffffffffffffffffffffffff\n      and\n        /* \"contracts/Exchange.sol\":5267:5273  tokens */\n      0x1\n        /* \"contracts/Exchange.sol\":5267:5290  tokens[symbolNameIndex] */\n      0x0\n        /* \"contracts/Exchange.sol\":5274:5289  symbolNameIndex */\n      dup5\n        /* \"contracts/Exchange.sol\":5267:5290  tokens[symbolNameIndex] */\n      0xff\n      and\n      0xff\n      and\n      dup2\n      mstore\n      0x20\n      add\n      swap1\n      dup2\n      mstore\n      0x20\n      add\n      0x0\n      keccak256\n        /* \"contracts/Exchange.sol\":5267:5304  tokens[symbolNameIndex].tokenContract */\n      0x0\n      add\n      0x0\n      swap1\n      sload\n      swap1\n      0x100\n      exp\n      swap1\n      div\n      0xffffffffffffffffffffffffffffffffffffffff\n      and\n        /* \"contracts/Exchange.sol\":5267:5318  tokens[symbolNameIndex].tokenContract != address(0) */\n      0xffffffffffffffffffffffffffffffffffffffff\n      and\n      eq\n      iszero\n        /* \"contracts/Exchange.sol\":5259:5319  require(tokens[symbolNameIndex].tokenContract != address(0)) */\n      iszero\n      iszero\n      tag_203\n      jumpi\n      0x0\n      dup1\n      revert\n    tag_203:\n        /* \"contracts/Exchange.sol\":5368:5374  tokens */\n      0x1\n        /* \"contracts/Exchange.sol\":5368:5391  tokens[symbolNameIndex] */\n      0x0\n        /* \"contracts/Exchange.sol\":5375:5390  symbolNameIndex */\n      dup4\n        /* \"contracts/Exchange.sol\":5368:5391  tokens[symbolNameIndex] */\n      0xff\n      and\n      0xff\n      and\n      dup2\n      mstore\n      0x20\n      add\n      swap1\n      dup2\n      mstore\n      0x20\n      add\n      0x0\n      keccak256\n        /* \"contracts/Exchange.sol\":5368:5405  tokens[symbolNameIndex].tokenContract */\n      0x0\n      add\n      0x0\n      swap1\n      sload\n      swap1\n      0x100\n      exp\n      swap1\n      div\n      0xffffffffffffffffffffffffffffffffffffffff\n      and\n        /* \"contracts/Exchange.sol\":5330:5406  ERC20Interface token = ERC20Interface(tokens[symbolNameIndex].tokenContract) */\n      swap1\n      pop\n        /* \"contracts/Exchange.sol\":5489:5490  0 */\n      0x0\n        /* \"contracts/Exchange.sol\":5479:5485  amount */\n      dup4\n        /* \"contracts/Exchange.sol\":5425:5447  tokenBalanceForAddress */\n      0x3\n        /* \"contracts/Exchange.sol\":5425:5459  tokenBalanceForAddress[msg.sender] */\n      0x0\n        /* \"contracts/Exchange.sol\":5448:5458  msg.sender */\n      caller\n        /* \"contracts/Exchange.sol\":5425:5459  tokenBalanceForAddress[msg.sender] */\n      0xffffffffffffffffffffffffffffffffffffffff\n      and\n      0xffffffffffffffffffffffffffffffffffffffff\n      and\n      dup2\n      mstore\n      0x20\n      add\n      swap1\n      dup2\n      mstore\n      0x20\n      add\n      0x0\n      keccak256\n        /* \"contracts/Exchange.sol\":5425:5476  tokenBalanceForAddress[msg.sender][symbolNameIndex] */\n      0x0\n        /* \"contracts/Exchange.sol\":5460:5475  symbolNameIndex */\n      dup6\n        /* \"contracts/Exchange.sol\":5425:5476  tokenBalanceForAddress[msg.sender][symbolNameIndex] */\n      0xff\n      and\n      0xff\n      and\n      dup2\n      mstore\n      0x20\n      add\n      swap1\n      dup2\n      mstore\n      0x20\n      add\n      0x0\n      keccak256\n      sload\n        /* \"contracts/Exchange.sol\":5425:5485  tokenBalanceForAddress[msg.sender][symbolNameIndex] - amount */\n      sub\n        /* \"contracts/Exchange.sol\":5425:5490  tokenBalanceForAddress[msg.sender][symbolNameIndex] - amount >= 0 */\n      lt\n      iszero\n        /* \"contracts/Exchange.sol\":5417:5491  require(tokenBalanceForAddress[msg.sender][symbolNameIndex] - amount >= 0) */\n      iszero\n      iszero\n      tag_204\n      jumpi\n      0x0\n      dup1\n      revert\n    tag_204:\n        /* \"contracts/Exchange.sol\":5573:5595  tokenBalanceForAddress */\n      0x3\n        /* \"contracts/Exchange.sol\":5573:5607  tokenBalanceForAddress[msg.sender] */\n      0x0\n        /* \"contracts/Exchange.sol\":5596:5606  msg.sender */\n      caller\n        /* \"contracts/Exchange.sol\":5573:5607  tokenBalanceForAddress[msg.sender] */\n      0xffffffffffffffffffffffffffffffffffffffff\n      and\n      0xffffffffffffffffffffffffffffffffffffffff\n      and\n      dup2\n      mstore\n      0x20\n      add\n      swap1\n      dup2\n      mstore\n      0x20\n      add\n      0x0\n      keccak256\n        /* \"contracts/Exchange.sol\":5573:5624  tokenBalanceForAddress[msg.sender][symbolNameIndex] */\n      0x0\n        /* \"contracts/Exchange.sol\":5608:5623  symbolNameIndex */\n      dup4\n        /* \"contracts/Exchange.sol\":5573:5624  tokenBalanceForAddress[msg.sender][symbolNameIndex] */\n      0xff\n      and\n      0xff\n      and\n      dup2\n      mstore\n      0x20\n      add\n      swap1\n      dup2\n      mstore\n      0x20\n      add\n      0x0\n      keccak256\n      sload\n        /* \"contracts/Exchange.sol\":5563:5569  amount */\n      dup4\n        /* \"contracts/Exchange.sol\":5509:5531  tokenBalanceForAddress */\n      0x3\n        /* \"contracts/Exchange.sol\":5509:5543  tokenBalanceForAddress[msg.sender] */\n      0x0\n        /* \"contracts/Exchange.sol\":5532:5542  msg.sender */\n      caller\n        /* \"contracts/Exchange.sol\":5509:5543  tokenBalanceForAddress[msg.sender] */\n      0xffffffffffffffffffffffffffffffffffffffff\n      and\n      0xffffffffffffffffffffffffffffffffffffffff\n      and\n      dup2\n      mstore\n      0x20\n      add\n      swap1\n      dup2\n      mstore\n      0x20\n      add\n      0x0\n      keccak256\n        /* \"contracts/Exchange.sol\":5509:5560  tokenBalanceForAddress[msg.sender][symbolNameIndex] */\n      0x0\n        /* \"contracts/Exchange.sol\":5544:5559  symbolNameIndex */\n      dup6\n        /* \"contracts/Exchange.sol\":5509:5560  tokenBalanceForAddress[msg.sender][symbolNameIndex] */\n      0xff\n      and\n      0xff\n      and\n      dup2\n      mstore\n      0x20\n      add\n      swap1\n      dup2\n      mstore\n      0x20\n      add\n      0x0\n      keccak256\n      sload\n        /* \"contracts/Exchange.sol\":5509:5569  tokenBalanceForAddress[msg.sender][symbolNameIndex] - amount */\n      sub\n        /* \"contracts/Exchange.sol\":5509:5624  tokenBalanceForAddress[msg.sender][symbolNameIndex] - amount <= tokenBalanceForAddress[msg.sender][symbolNameIndex] */\n      gt\n      iszero\n        /* \"contracts/Exchange.sol\":5501:5625  require(tokenBalanceForAddress[msg.sender][symbolNameIndex] - amount <= tokenBalanceForAddress[msg.sender][symbolNameIndex]) */\n      iszero\n      iszero\n      tag_205\n      jumpi\n      0x0\n      dup1\n      revert\n    tag_205:\n        /* \"contracts/Exchange.sol\":5691:5697  amount */\n      dup3\n        /* \"contracts/Exchange.sol\":5636:5658  tokenBalanceForAddress */\n      0x3\n        /* \"contracts/Exchange.sol\":5636:5670  tokenBalanceForAddress[msg.sender] */\n      0x0\n        /* \"contracts/Exchange.sol\":5659:5669  msg.sender */\n      caller\n        /* \"contracts/Exchange.sol\":5636:5670  tokenBalanceForAddress[msg.sender] */\n      0xffffffffffffffffffffffffffffffffffffffff\n      and\n      0xffffffffffffffffffffffffffffffffffffffff\n      and\n      dup2\n      mstore\n      0x20\n      add\n      swap1\n      dup2\n      mstore\n      0x20\n      add\n      0x0\n      keccak256\n        /* \"contracts/Exchange.sol\":5636:5687  tokenBalanceForAddress[msg.sender][symbolNameIndex] */\n      0x0\n        /* \"contracts/Exchange.sol\":5671:5686  symbolNameIndex */\n      dup5\n        /* \"contracts/Exchange.sol\":5636:5687  tokenBalanceForAddress[msg.sender][symbolNameIndex] */\n      0xff\n      and\n      0xff\n      and\n      dup2\n      mstore\n      0x20\n      add\n      swap1\n      dup2\n      mstore\n      0x20\n      add\n      0x0\n      keccak256\n      0x0\n        /* \"contracts/Exchange.sol\":5636:5697  tokenBalanceForAddress[msg.sender][symbolNameIndex] -= amount */\n      dup3\n      dup3\n      sload\n      sub\n      swap3\n      pop\n      pop\n      dup2\n      swap1\n      sstore\n      pop\n        /* \"contracts/Exchange.sol\":5753:5757  true */\n      0x1\n        /* \"contracts/Exchange.sol\":5715:5757  token.transfer(msg.sender, amount) == true */\n      iszero\n      iszero\n        /* \"contracts/Exchange.sol\":5715:5720  token */\n      dup2\n        /* \"contracts/Exchange.sol\":5715:5729  token.transfer */\n      0xffffffffffffffffffffffffffffffffffffffff\n      and\n      0xa9059cbb\n        /* \"contracts/Exchange.sol\":5730:5740  msg.sender */\n      caller\n        /* \"contracts/Exchange.sol\":5742:5748  amount */\n      dup7\n        /* \"contracts/Exchange.sol\":5715:5749  token.transfer(msg.sender, amount) */\n      mload(0x40)\n      dup4\n      0xffffffff\n      and\n      0x100000000000000000000000000000000000000000000000000000000\n      mul\n      dup2\n      mstore\n      0x4\n      add\n      dup1\n      dup4\n      0xffffffffffffffffffffffffffffffffffffffff\n      and\n      0xffffffffffffffffffffffffffffffffffffffff\n      and\n      dup2\n      mstore\n      0x20\n      add\n      dup3\n      dup2\n      mstore\n      0x20\n      add\n      swap3\n      pop\n      pop\n      pop\n      0x20\n      mload(0x40)\n      dup1\n      dup4\n      sub\n      dup2\n      0x0\n      dup8\n      dup1\n      extcodesize\n      iszero\n        /* \"--CODEGEN--\":8:17   */\n      dup1\n        /* \"--CODEGEN--\":5:7   */\n      iszero\n      tag_206\n      jumpi\n        /* \"--CODEGEN--\":30:31   */\n      0x0\n        /* \"--CODEGEN--\":27:28   */\n      dup1\n        /* \"--CODEGEN--\":20:32   */\n      revert\n        /* \"--CODEGEN--\":5:7   */\n    tag_206:\n        /* \"contracts/Exchange.sol\":5715:5749  token.transfer(msg.sender, amount) */\n      pop\n      gas\n      call\n      iszero\n        /* \"--CODEGEN--\":8:17   */\n      dup1\n        /* \"--CODEGEN--\":5:7   */\n      iszero\n      tag_207\n      jumpi\n        /* \"--CODEGEN--\":45:61   */\n      returndatasize\n        /* \"--CODEGEN--\":42:43   */\n      0x0\n        /* \"--CODEGEN--\":39:40   */\n      dup1\n        /* \"--CODEGEN--\":24:62   */\n      returndatacopy\n        /* \"--CODEGEN--\":77:93   */\n      returndatasize\n        /* \"--CODEGEN--\":74:75   */\n      0x0\n        /* \"--CODEGEN--\":67:94   */\n      revert\n        /* \"--CODEGEN--\":5:7   */\n    tag_207:\n        /* \"contracts/Exchange.sol\":5715:5749  token.transfer(msg.sender, amount) */\n      pop\n      pop\n      pop\n      pop\n      mload(0x40)\n      returndatasize\n        /* \"--CODEGEN--\":13:15   */\n      0x20\n        /* \"--CODEGEN--\":8:11   */\n      dup2\n        /* \"--CODEGEN--\":5:16   */\n      lt\n        /* \"--CODEGEN--\":2:4   */\n      iszero\n      tag_208\n      jumpi\n        /* \"--CODEGEN--\":29:30   */\n      0x0\n        /* \"--CODEGEN--\":26:27   */\n      dup1\n        /* \"--CODEGEN--\":19:31   */\n      revert\n        /* \"--CODEGEN--\":2:4   */\n    tag_208:\n        /* \"contracts/Exchange.sol\":5715:5749  token.transfer(msg.sender, amount) */\n      dup2\n      add\n      swap1\n      dup1\n      dup1\n      mload\n      swap1\n      0x20\n      add\n      swap1\n      swap3\n      swap2\n      swap1\n      pop\n      pop\n      pop\n        /* \"contracts/Exchange.sol\":5715:5757  token.transfer(msg.sender, amount) == true */\n      iszero\n      iszero\n      eq\n        /* \"contracts/Exchange.sol\":5707:5758  require(token.transfer(msg.sender, amount) == true) */\n      iszero\n      iszero\n      tag_209\n      jumpi\n      0x0\n      dup1\n      revert\n    tag_209:\n        /* \"contracts/Exchange.sol\":5801:5816  symbolNameIndex */\n      dup2\n        /* \"contracts/Exchange.sol\":5773:5830  WithdrawalToken(msg.sender, symbolNameIndex, amount, now) */\n      0xff\n      and\n        /* \"contracts/Exchange.sol\":5789:5799  msg.sender */\n      caller\n        /* \"contracts/Exchange.sol\":5773:5830  WithdrawalToken(msg.sender, symbolNameIndex, amount, now) */\n      0xffffffffffffffffffffffffffffffffffffffff\n      and\n      0xaed5c5198ccd7615c0128c72fcfc060e97b14315cb791a46bf42b5b6f36c38b9\n        /* \"contracts/Exchange.sol\":5818:5824  amount */\n      dup6\n        /* \"contracts/Exchange.sol\":5826:5829  now */\n      timestamp\n        /* \"contracts/Exchange.sol\":5773:5830  WithdrawalToken(msg.sender, symbolNameIndex, amount, now) */\n      mload(0x40)\n      dup1\n      dup4\n      dup2\n      mstore\n      0x20\n      add\n      dup3\n      dup2\n      mstore\n      0x20\n      add\n      swap3\n      pop\n      pop\n      pop\n      mload(0x40)\n      dup1\n      swap2\n      sub\n      swap1\n      log3\n        /* \"contracts/Exchange.sol\":5120:5837  function withdrawToken(string symbolName, uint amount) public {... */\n      pop\n      pop\n      pop\n      pop\n      jump\t// out\n        /* \"contracts/Exchange.sol\":33127:34500  function cancelOrder(string symbolName, bool isSellOrder, uint priceInWei, uint offerKey) public {... */\n    tag_68:\n        /* \"contracts/Exchange.sol\":33234:33255  uint8 symbolNameIndex */\n      0x0\n        /* \"contracts/Exchange.sol\":33435:33452  uint tokensAmount */\n      dup1\n        /* \"contracts/Exchange.sol\":34052:34070  uint etherToRefund */\n      0x0\n        /* \"contracts/Exchange.sol\":33258:33291  getSymbolIndexOrThrow(symbolName) */\n      tag_211\n        /* \"contracts/Exchange.sol\":33280:33290  symbolName */\n      dup8\n        /* \"contracts/Exchange.sol\":33258:33279  getSymbolIndexOrThrow */\n      tag_57\n        /* \"contracts/Exchange.sol\":33258:33291  getSymbolIndexOrThrow(symbolName) */\n      jump\t// in\n    tag_211:\n        /* \"contracts/Exchange.sol\":33234:33291  uint8 symbolNameIndex = getSymbolIndexOrThrow(symbolName) */\n      swap3\n      pop\n        /* \"contracts/Exchange.sol\":33305:33316  isSellOrder */\n      dup6\n        /* \"contracts/Exchange.sol\":33301:34494  if (isSellOrder) {... */\n      iszero\n      tag_212\n      jumpi\n        /* \"contracts/Exchange.sol\":33409:33419  msg.sender */\n      caller\n        /* \"contracts/Exchange.sol\":33340:33419  tokens[symbolNameIndex].sellBook[priceInWei].offers[offerKey].who == msg.sender */\n      0xffffffffffffffffffffffffffffffffffffffff\n      and\n        /* \"contracts/Exchange.sol\":33340:33346  tokens */\n      0x1\n        /* \"contracts/Exchange.sol\":33340:33363  tokens[symbolNameIndex] */\n      0x0\n        /* \"contracts/Exchange.sol\":33347:33362  symbolNameIndex */\n      dup6\n        /* \"contracts/Exchange.sol\":33340:33363  tokens[symbolNameIndex] */\n      0xff\n      and\n      0xff\n      and\n      dup2\n      mstore\n      0x20\n      add\n      swap1\n      dup2\n      mstore\n      0x20\n      add\n      0x0\n      keccak256\n        /* \"contracts/Exchange.sol\":33340:33372  tokens[symbolNameIndex].sellBook */\n      0x6\n      add\n        /* \"contracts/Exchange.sol\":33340:33384  tokens[symbolNameIndex].sellBook[priceInWei] */\n      0x0\n        /* \"contracts/Exchange.sol\":33373:33383  priceInWei */\n      dup8\n        /* \"contracts/Exchange.sol\":33340:33384  tokens[symbolNameIndex].sellBook[priceInWei] */\n      dup2\n      mstore\n      0x20\n      add\n      swap1\n      dup2\n      mstore\n      0x20\n      add\n      0x0\n      keccak256\n        /* \"contracts/Exchange.sol\":33340:33391  tokens[symbolNameIndex].sellBook[priceInWei].offers */\n      0x2\n      add\n        /* \"contracts/Exchange.sol\":33340:33401  tokens[symbolNameIndex].sellBook[priceInWei].offers[offerKey] */\n      0x0\n        /* \"contracts/Exchange.sol\":33392:33400  offerKey */\n      dup7\n        /* \"contracts/Exchange.sol\":33340:33401  tokens[symbolNameIndex].sellBook[priceInWei].offers[offerKey] */\n      dup2\n      mstore\n      0x20\n      add\n      swap1\n      dup2\n      mstore\n      0x20\n      add\n      0x0\n      keccak256\n        /* \"contracts/Exchange.sol\":33340:33405  tokens[symbolNameIndex].sellBook[priceInWei].offers[offerKey].who */\n      0x1\n      add\n      0x0\n      swap1\n      sload\n      swap1\n      0x100\n      exp\n      swap1\n      div\n      0xffffffffffffffffffffffffffffffffffffffff\n      and\n        /* \"contracts/Exchange.sol\":33340:33419  tokens[symbolNameIndex].sellBook[priceInWei].offers[offerKey].who == msg.sender */\n      0xffffffffffffffffffffffffffffffffffffffff\n      and\n      eq\n        /* \"contracts/Exchange.sol\":33332:33420  require(tokens[symbolNameIndex].sellBook[priceInWei].offers[offerKey].who == msg.sender) */\n      iszero\n      iszero\n      tag_213\n      jumpi\n      0x0\n      dup1\n      revert\n    tag_213:\n        /* \"contracts/Exchange.sol\":33455:33461  tokens */\n      0x1\n        /* \"contracts/Exchange.sol\":33455:33478  tokens[symbolNameIndex] */\n      0x0\n        /* \"contracts/Exchange.sol\":33462:33477  symbolNameIndex */\n      dup5\n        /* \"contracts/Exchange.sol\":33455:33478  tokens[symbolNameIndex] */\n      0xff\n      and\n      0xff\n      and\n      dup2\n      mstore\n      0x20\n      add\n      swap1\n      dup2\n      mstore\n      0x20\n      add\n      0x0\n      keccak256\n        /* \"contracts/Exchange.sol\":33455:33487  tokens[symbolNameIndex].sellBook */\n      0x6\n      add\n        /* \"contracts/Exchange.sol\":33455:33499  tokens[symbolNameIndex].sellBook[priceInWei] */\n      0x0\n        /* \"contracts/Exchange.sol\":33488:33498  priceInWei */\n      dup7\n        /* \"contracts/Exchange.sol\":33455:33499  tokens[symbolNameIndex].sellBook[priceInWei] */\n      dup2\n      mstore\n      0x20\n      add\n      swap1\n      dup2\n      mstore\n      0x20\n      add\n      0x0\n      keccak256\n        /* \"contracts/Exchange.sol\":33455:33506  tokens[symbolNameIndex].sellBook[priceInWei].offers */\n      0x2\n      add\n        /* \"contracts/Exchange.sol\":33455:33516  tokens[symbolNameIndex].sellBook[priceInWei].offers[offerKey] */\n      0x0\n        /* \"contracts/Exchange.sol\":33507:33515  offerKey */\n      dup6\n        /* \"contracts/Exchange.sol\":33455:33516  tokens[symbolNameIndex].sellBook[priceInWei].offers[offerKey] */\n      dup2\n      mstore\n      0x20\n      add\n      swap1\n      dup2\n      mstore\n      0x20\n      add\n      0x0\n      keccak256\n        /* \"contracts/Exchange.sol\":33455:33523  tokens[symbolNameIndex].sellBook[priceInWei].offers[offerKey].amount */\n      0x0\n      add\n      sload\n        /* \"contracts/Exchange.sol\":33435:33523  uint tokensAmount = tokens[symbolNameIndex].sellBook[priceInWei].offers[offerKey].amount */\n      swap2\n      pop\n        /* \"contracts/Exchange.sol\":33615:33637  tokenBalanceForAddress */\n      0x3\n        /* \"contracts/Exchange.sol\":33615:33649  tokenBalanceForAddress[msg.sender] */\n      0x0\n        /* \"contracts/Exchange.sol\":33638:33648  msg.sender */\n      caller\n        /* \"contracts/Exchange.sol\":33615:33649  tokenBalanceForAddress[msg.sender] */\n      0xffffffffffffffffffffffffffffffffffffffff\n      and\n      0xffffffffffffffffffffffffffffffffffffffff\n      and\n      dup2\n      mstore\n      0x20\n      add\n      swap1\n      dup2\n      mstore\n      0x20\n      add\n      0x0\n      keccak256\n        /* \"contracts/Exchange.sol\":33615:33666  tokenBalanceForAddress[msg.sender][symbolNameIndex] */\n      0x0\n        /* \"contracts/Exchange.sol\":33650:33665  symbolNameIndex */\n      dup5\n        /* \"contracts/Exchange.sol\":33615:33666  tokenBalanceForAddress[msg.sender][symbolNameIndex] */\n      0xff\n      and\n      0xff\n      and\n      dup2\n      mstore\n      0x20\n      add\n      swap1\n      dup2\n      mstore\n      0x20\n      add\n      0x0\n      keccak256\n      sload\n        /* \"contracts/Exchange.sol\":33599:33611  tokensAmount */\n      dup3\n        /* \"contracts/Exchange.sol\":33545:33567  tokenBalanceForAddress */\n      0x3\n        /* \"contracts/Exchange.sol\":33545:33579  tokenBalanceForAddress[msg.sender] */\n      0x0\n        /* \"contracts/Exchange.sol\":33568:33578  msg.sender */\n      caller\n        /* \"contracts/Exchange.sol\":33545:33579  tokenBalanceForAddress[msg.sender] */\n      0xffffffffffffffffffffffffffffffffffffffff\n      and\n      0xffffffffffffffffffffffffffffffffffffffff\n      and\n      dup2\n      mstore\n      0x20\n      add\n      swap1\n      dup2\n      mstore\n      0x20\n      add\n      0x0\n      keccak256\n        /* \"contracts/Exchange.sol\":33545:33596  tokenBalanceForAddress[msg.sender][symbolNameIndex] */\n      0x0\n        /* \"contracts/Exchange.sol\":33580:33595  symbolNameIndex */\n      dup7\n        /* \"contracts/Exchange.sol\":33545:33596  tokenBalanceForAddress[msg.sender][symbolNameIndex] */\n      0xff\n      and\n      0xff\n      and\n      dup2\n      mstore\n      0x20\n      add\n      swap1\n      dup2\n      mstore\n      0x20\n      add\n      0x0\n      keccak256\n      sload\n        /* \"contracts/Exchange.sol\":33545:33611  tokenBalanceForAddress[msg.sender][symbolNameIndex] + tokensAmount */\n      add\n        /* \"contracts/Exchange.sol\":33545:33666  tokenBalanceForAddress[msg.sender][symbolNameIndex] + tokensAmount >= tokenBalanceForAddress[msg.sender][symbolNameIndex] */\n      lt\n      iszero\n        /* \"contracts/Exchange.sol\":33537:33667  require(tokenBalanceForAddress[msg.sender][symbolNameIndex] + tokensAmount >= tokenBalanceForAddress[msg.sender][symbolNameIndex]) */\n      iszero\n      iszero\n      tag_214\n      jumpi\n      0x0\n      dup1\n      revert\n    tag_214:\n        /* \"contracts/Exchange.sol\":33738:33750  tokensAmount */\n      dup2\n        /* \"contracts/Exchange.sol\":33683:33705  tokenBalanceForAddress */\n      0x3\n        /* \"contracts/Exchange.sol\":33683:33717  tokenBalanceForAddress[msg.sender] */\n      0x0\n        /* \"contracts/Exchange.sol\":33706:33716  msg.sender */\n      caller\n        /* \"contracts/Exchange.sol\":33683:33717  tokenBalanceForAddress[msg.sender] */\n      0xffffffffffffffffffffffffffffffffffffffff\n      and\n      0xffffffffffffffffffffffffffffffffffffffff\n      and\n      dup2\n      mstore\n      0x20\n      add\n      swap1\n      dup2\n      mstore\n      0x20\n      add\n      0x0\n      keccak256\n        /* \"contracts/Exchange.sol\":33683:33734  tokenBalanceForAddress[msg.sender][symbolNameIndex] */\n      0x0\n        /* \"contracts/Exchange.sol\":33718:33733  symbolNameIndex */\n      dup6\n        /* \"contracts/Exchange.sol\":33683:33734  tokenBalanceForAddress[msg.sender][symbolNameIndex] */\n      0xff\n      and\n      0xff\n      and\n      dup2\n      mstore\n      0x20\n      add\n      swap1\n      dup2\n      mstore\n      0x20\n      add\n      0x0\n      keccak256\n      0x0\n        /* \"contracts/Exchange.sol\":33683:33750  tokenBalanceForAddress[msg.sender][symbolNameIndex] += tokensAmount */\n      dup3\n      dup3\n      sload\n      add\n      swap3\n      pop\n      pop\n      dup2\n      swap1\n      sstore\n      pop\n        /* \"contracts/Exchange.sol\":33835:33836  0 */\n      0x0\n        /* \"contracts/Exchange.sol\":33764:33770  tokens */\n      0x1\n        /* \"contracts/Exchange.sol\":33764:33787  tokens[symbolNameIndex] */\n      0x0\n        /* \"contracts/Exchange.sol\":33771:33786  symbolNameIndex */\n      dup6\n        /* \"contracts/Exchange.sol\":33764:33787  tokens[symbolNameIndex] */\n      0xff\n      and\n      0xff\n      and\n      dup2\n      mstore\n      0x20\n      add\n      swap1\n      dup2\n      mstore\n      0x20\n      add\n      0x0\n      keccak256\n        /* \"contracts/Exchange.sol\":33764:33796  tokens[symbolNameIndex].sellBook */\n      0x6\n      add\n        /* \"contracts/Exchange.sol\":33764:33808  tokens[symbolNameIndex].sellBook[priceInWei] */\n      0x0\n        /* \"contracts/Exchange.sol\":33797:33807  priceInWei */\n      dup8\n        /* \"contracts/Exchange.sol\":33764:33808  tokens[symbolNameIndex].sellBook[priceInWei] */\n      dup2\n      mstore\n      0x20\n      add\n      swap1\n      dup2\n      mstore\n      0x20\n      add\n      0x0\n      keccak256\n        /* \"contracts/Exchange.sol\":33764:33815  tokens[symbolNameIndex].sellBook[priceInWei].offers */\n      0x2\n      add\n        /* \"contracts/Exchange.sol\":33764:33825  tokens[symbolNameIndex].sellBook[priceInWei].offers[offerKey] */\n      0x0\n        /* \"contracts/Exchange.sol\":33816:33824  offerKey */\n      dup7\n        /* \"contracts/Exchange.sol\":33764:33825  tokens[symbolNameIndex].sellBook[priceInWei].offers[offerKey] */\n      dup2\n      mstore\n      0x20\n      add\n      swap1\n      dup2\n      mstore\n      0x20\n      add\n      0x0\n      keccak256\n        /* \"contracts/Exchange.sol\":33764:33832  tokens[symbolNameIndex].sellBook[priceInWei].offers[offerKey].amount */\n      0x0\n      add\n        /* \"contracts/Exchange.sol\":33764:33836  tokens[symbolNameIndex].sellBook[priceInWei].offers[offerKey].amount = 0 */\n      dup2\n      swap1\n      sstore\n      pop\n        /* \"contracts/Exchange.sol\":33873:33888  symbolNameIndex */\n      dup3\n        /* \"contracts/Exchange.sol\":33855:33911  SellOrderCanceled(symbolNameIndex, priceInWei, offerKey) */\n      0xff\n      and\n      0xffac5f4941e92bc6814610a825eeff0ae9bb4a17d47c0e2353c6889b2b550fb8\n        /* \"contracts/Exchange.sol\":33890:33900  priceInWei */\n      dup7\n        /* \"contracts/Exchange.sol\":33902:33910  offerKey */\n      dup7\n        /* \"contracts/Exchange.sol\":33855:33911  SellOrderCanceled(symbolNameIndex, priceInWei, offerKey) */\n      mload(0x40)\n      dup1\n      dup4\n      dup2\n      mstore\n      0x20\n      add\n      dup3\n      dup2\n      mstore\n      0x20\n      add\n      swap3\n      pop\n      pop\n      pop\n      mload(0x40)\n      dup1\n      swap2\n      sub\n      swap1\n      log2\n        /* \"contracts/Exchange.sol\":33301:34494  if (isSellOrder) {... */\n      jump(tag_215)\n    tag_212:\n        /* \"contracts/Exchange.sol\":34027:34037  msg.sender */\n      caller\n        /* \"contracts/Exchange.sol\":33959:34037  tokens[symbolNameIndex].buyBook[priceInWei].offers[offerKey].who == msg.sender */\n      0xffffffffffffffffffffffffffffffffffffffff\n      and\n        /* \"contracts/Exchange.sol\":33959:33965  tokens */\n      0x1\n        /* \"contracts/Exchange.sol\":33959:33982  tokens[symbolNameIndex] */\n      0x0\n        /* \"contracts/Exchange.sol\":33966:33981  symbolNameIndex */\n      dup6\n        /* \"contracts/Exchange.sol\":33959:33982  tokens[symbolNameIndex] */\n      0xff\n      and\n      0xff\n      and\n      dup2\n      mstore\n      0x20\n      add\n      swap1\n      dup2\n      mstore\n      0x20\n      add\n      0x0\n      keccak256\n        /* \"contracts/Exchange.sol\":33959:33990  tokens[symbolNameIndex].buyBook */\n      0x2\n      add\n        /* \"contracts/Exchange.sol\":33959:34002  tokens[symbolNameIndex].buyBook[priceInWei] */\n      0x0\n        /* \"contracts/Exchange.sol\":33991:34001  priceInWei */\n      dup8\n        /* \"contracts/Exchange.sol\":33959:34002  tokens[symbolNameIndex].buyBook[priceInWei] */\n      dup2\n      mstore\n      0x20\n      add\n      swap1\n      dup2\n      mstore\n      0x20\n      add\n      0x0\n      keccak256\n        /* \"contracts/Exchange.sol\":33959:34009  tokens[symbolNameIndex].buyBook[priceInWei].offers */\n      0x2\n      add\n        /* \"contracts/Exchange.sol\":33959:34019  tokens[symbolNameIndex].buyBook[priceInWei].offers[offerKey] */\n      0x0\n        /* \"contracts/Exchange.sol\":34010:34018  offerKey */\n      dup7\n        /* \"contracts/Exchange.sol\":33959:34019  tokens[symbolNameIndex].buyBook[priceInWei].offers[offerKey] */\n      dup2\n      mstore\n      0x20\n      add\n      swap1\n      dup2\n      mstore\n      0x20\n      add\n      0x0\n      keccak256\n        /* \"contracts/Exchange.sol\":33959:34023  tokens[symbolNameIndex].buyBook[priceInWei].offers[offerKey].who */\n      0x1\n      add\n      0x0\n      swap1\n      sload\n      swap1\n      0x100\n      exp\n      swap1\n      div\n      0xffffffffffffffffffffffffffffffffffffffff\n      and\n        /* \"contracts/Exchange.sol\":33959:34037  tokens[symbolNameIndex].buyBook[priceInWei].offers[offerKey].who == msg.sender */\n      0xffffffffffffffffffffffffffffffffffffffff\n      and\n      eq\n        /* \"contracts/Exchange.sol\":33951:34038  require(tokens[symbolNameIndex].buyBook[priceInWei].offers[offerKey].who == msg.sender) */\n      iszero\n      iszero\n      tag_216\n      jumpi\n      0x0\n      dup1\n      revert\n    tag_216:\n        /* \"contracts/Exchange.sol\":34143:34153  priceInWei */\n      dup5\n        /* \"contracts/Exchange.sol\":34073:34079  tokens */\n      0x1\n        /* \"contracts/Exchange.sol\":34073:34096  tokens[symbolNameIndex] */\n      0x0\n        /* \"contracts/Exchange.sol\":34080:34095  symbolNameIndex */\n      dup6\n        /* \"contracts/Exchange.sol\":34073:34096  tokens[symbolNameIndex] */\n      0xff\n      and\n      0xff\n      and\n      dup2\n      mstore\n      0x20\n      add\n      swap1\n      dup2\n      mstore\n      0x20\n      add\n      0x0\n      keccak256\n        /* \"contracts/Exchange.sol\":34073:34104  tokens[symbolNameIndex].buyBook */\n      0x2\n      add\n        /* \"contracts/Exchange.sol\":34073:34116  tokens[symbolNameIndex].buyBook[priceInWei] */\n      0x0\n        /* \"contracts/Exchange.sol\":34105:34115  priceInWei */\n      dup8\n        /* \"contracts/Exchange.sol\":34073:34116  tokens[symbolNameIndex].buyBook[priceInWei] */\n      dup2\n      mstore\n      0x20\n      add\n      swap1\n      dup2\n      mstore\n      0x20\n      add\n      0x0\n      keccak256\n        /* \"contracts/Exchange.sol\":34073:34123  tokens[symbolNameIndex].buyBook[priceInWei].offers */\n      0x2\n      add\n        /* \"contracts/Exchange.sol\":34073:34133  tokens[symbolNameIndex].buyBook[priceInWei].offers[offerKey] */\n      0x0\n        /* \"contracts/Exchange.sol\":34124:34132  offerKey */\n      dup7\n        /* \"contracts/Exchange.sol\":34073:34133  tokens[symbolNameIndex].buyBook[priceInWei].offers[offerKey] */\n      dup2\n      mstore\n      0x20\n      add\n      swap1\n      dup2\n      mstore\n      0x20\n      add\n      0x0\n      keccak256\n        /* \"contracts/Exchange.sol\":34073:34140  tokens[symbolNameIndex].buyBook[priceInWei].offers[offerKey].amount */\n      0x0\n      add\n      sload\n        /* \"contracts/Exchange.sol\":34073:34153  tokens[symbolNameIndex].buyBook[priceInWei].offers[offerKey].amount * priceInWei */\n      mul\n        /* \"contracts/Exchange.sol\":34052:34153  uint etherToRefund = tokens[symbolNameIndex].buyBook[priceInWei].offers[offerKey].amount * priceInWei */\n      swap1\n      pop\n        /* \"contracts/Exchange.sol\":34227:34247  balanceEthForAddress */\n      0x4\n        /* \"contracts/Exchange.sol\":34227:34259  balanceEthForAddress[msg.sender] */\n      0x0\n        /* \"contracts/Exchange.sol\":34248:34258  msg.sender */\n      caller\n        /* \"contracts/Exchange.sol\":34227:34259  balanceEthForAddress[msg.sender] */\n      0xffffffffffffffffffffffffffffffffffffffff\n      and\n      0xffffffffffffffffffffffffffffffffffffffff\n      and\n      dup2\n      mstore\n      0x20\n      add\n      swap1\n      dup2\n      mstore\n      0x20\n      add\n      0x0\n      keccak256\n      sload\n        /* \"contracts/Exchange.sol\":34210:34223  etherToRefund */\n      dup2\n        /* \"contracts/Exchange.sol\":34175:34195  balanceEthForAddress */\n      0x4\n        /* \"contracts/Exchange.sol\":34175:34207  balanceEthForAddress[msg.sender] */\n      0x0\n        /* \"contracts/Exchange.sol\":34196:34206  msg.sender */\n      caller\n        /* \"contracts/Exchange.sol\":34175:34207  balanceEthForAddress[msg.sender] */\n      0xffffffffffffffffffffffffffffffffffffffff\n      and\n      0xffffffffffffffffffffffffffffffffffffffff\n      and\n      dup2\n      mstore\n      0x20\n      add\n      swap1\n      dup2\n      mstore\n      0x20\n      add\n      0x0\n      keccak256\n      sload\n        /* \"contracts/Exchange.sol\":34175:34223  balanceEthForAddress[msg.sender] + etherToRefund */\n      add\n        /* \"contracts/Exchange.sol\":34175:34259  balanceEthForAddress[msg.sender] + etherToRefund >= balanceEthForAddress[msg.sender] */\n      lt\n      iszero\n        /* \"contracts/Exchange.sol\":34167:34260  require(balanceEthForAddress[msg.sender] + etherToRefund >= balanceEthForAddress[msg.sender]) */\n      iszero\n      iszero\n      tag_217\n      jumpi\n      0x0\n      dup1\n      revert\n    tag_217:\n        /* \"contracts/Exchange.sol\":34311:34324  etherToRefund */\n      dup1\n        /* \"contracts/Exchange.sol\":34275:34295  balanceEthForAddress */\n      0x4\n        /* \"contracts/Exchange.sol\":34275:34307  balanceEthForAddress[msg.sender] */\n      0x0\n        /* \"contracts/Exchange.sol\":34296:34306  msg.sender */\n      caller\n        /* \"contracts/Exchange.sol\":34275:34307  balanceEthForAddress[msg.sender] */\n      0xffffffffffffffffffffffffffffffffffffffff\n      and\n      0xffffffffffffffffffffffffffffffffffffffff\n      and\n      dup2\n      mstore\n      0x20\n      add\n      swap1\n      dup2\n      mstore\n      0x20\n      add\n      0x0\n      keccak256\n      0x0\n        /* \"contracts/Exchange.sol\":34275:34324  balanceEthForAddress[msg.sender] += etherToRefund */\n      dup3\n      dup3\n      sload\n      add\n      swap3\n      pop\n      pop\n      dup2\n      swap1\n      sstore\n      pop\n        /* \"contracts/Exchange.sol\":34408:34409  0 */\n      0x0\n        /* \"contracts/Exchange.sol\":34338:34344  tokens */\n      0x1\n        /* \"contracts/Exchange.sol\":34338:34361  tokens[symbolNameIndex] */\n      0x0\n        /* \"contracts/Exchange.sol\":34345:34360  symbolNameIndex */\n      dup6\n        /* \"contracts/Exchange.sol\":34338:34361  tokens[symbolNameIndex] */\n      0xff\n      and\n      0xff\n      and\n      dup2\n      mstore\n      0x20\n      add\n      swap1\n      dup2\n      mstore\n      0x20\n      add\n      0x0\n      keccak256\n        /* \"contracts/Exchange.sol\":34338:34369  tokens[symbolNameIndex].buyBook */\n      0x2\n      add\n        /* \"contracts/Exchange.sol\":34338:34381  tokens[symbolNameIndex].buyBook[priceInWei] */\n      0x0\n        /* \"contracts/Exchange.sol\":34370:34380  priceInWei */\n      dup8\n        /* \"contracts/Exchange.sol\":34338:34381  tokens[symbolNameIndex].buyBook[priceInWei] */\n      dup2\n      mstore\n      0x20\n      add\n      swap1\n      dup2\n      mstore\n      0x20\n      add\n      0x0\n      keccak256\n        /* \"contracts/Exchange.sol\":34338:34388  tokens[symbolNameIndex].buyBook[priceInWei].offers */\n      0x2\n      add\n        /* \"contracts/Exchange.sol\":34338:34398  tokens[symbolNameIndex].buyBook[priceInWei].offers[offerKey] */\n      0x0\n        /* \"contracts/Exchange.sol\":34389:34397  offerKey */\n      dup7\n        /* \"contracts/Exchange.sol\":34338:34398  tokens[symbolNameIndex].buyBook[priceInWei].offers[offerKey] */\n      dup2\n      mstore\n      0x20\n      add\n      swap1\n      dup2\n      mstore\n      0x20\n      add\n      0x0\n      keccak256\n        /* \"contracts/Exchange.sol\":34338:34405  tokens[symbolNameIndex].buyBook[priceInWei].offers[offerKey].amount */\n      0x0\n      add\n        /* \"contracts/Exchange.sol\":34338:34409  tokens[symbolNameIndex].buyBook[priceInWei].offers[offerKey].amount = 0 */\n      dup2\n      swap1\n      sstore\n      pop\n        /* \"contracts/Exchange.sol\":34445:34460  symbolNameIndex */\n      dup3\n        /* \"contracts/Exchange.sol\":34428:34483  BuyOrderCanceled(symbolNameIndex, priceInWei, offerKey) */\n      0xff\n      and\n      0x5f2fdca15d8ab2ad3f590066add3054471b3603ca44a66f12e124e9c97ec1955\n        /* \"contracts/Exchange.sol\":34462:34472  priceInWei */\n      dup7\n        /* \"contracts/Exchange.sol\":34474:34482  offerKey */\n      dup7\n        /* \"contracts/Exchange.sol\":34428:34483  BuyOrderCanceled(symbolNameIndex, priceInWei, offerKey) */\n      mload(0x40)\n      dup1\n      dup4\n      dup2\n      mstore\n      0x20\n      add\n      dup3\n      dup2\n      mstore\n      0x20\n      add\n      swap3\n      pop\n      pop\n      pop\n      mload(0x40)\n      dup1\n      swap2\n      sub\n      swap1\n      log2\n        /* \"contracts/Exchange.sol\":33301:34494  if (isSellOrder) {... */\n    tag_215:\n        /* \"contracts/Exchange.sol\":33127:34500  function cancelOrder(string symbolName, bool isSellOrder, uint priceInWei, uint offerKey) public {... */\n      pop\n      pop\n      pop\n      pop\n      pop\n      pop\n      pop\n      jump\t// out\n        /* \"contracts/Exchange.sol\":17425:20918  function addBuyOffer(uint8 _tokenIndex, uint priceInWei, uint amount, address who) internal {... */\n    tag_107:\n        /* \"contracts/Exchange.sol\":18086:18102  uint curBuyPrice */\n      0x0\n        /* \"contracts/Exchange.sol\":18151:18170  uint lowestBuyPrice */\n      dup1\n        /* \"contracts/Exchange.sol\":19647:19660  uint buyPrice */\n      0x0\n        /* \"contracts/Exchange.sol\":19712:19726  bool weFoundIt */\n      dup1\n        /* \"contracts/Exchange.sol\":17527:17533  tokens */\n      0x1\n        /* \"contracts/Exchange.sol\":17527:17546  tokens[_tokenIndex] */\n      0x0\n        /* \"contracts/Exchange.sol\":17534:17545  _tokenIndex */\n      dup10\n        /* \"contracts/Exchange.sol\":17527:17546  tokens[_tokenIndex] */\n      0xff\n      and\n      0xff\n      and\n      dup2\n      mstore\n      0x20\n      add\n      swap1\n      dup2\n      mstore\n      0x20\n      add\n      0x0\n      keccak256\n        /* \"contracts/Exchange.sol\":17527:17554  tokens[_tokenIndex].buyBook */\n      0x2\n      add\n        /* \"contracts/Exchange.sol\":17527:17566  tokens[_tokenIndex].buyBook[priceInWei] */\n      0x0\n        /* \"contracts/Exchange.sol\":17555:17565  priceInWei */\n      dup9\n        /* \"contracts/Exchange.sol\":17527:17566  tokens[_tokenIndex].buyBook[priceInWei] */\n      dup2\n      mstore\n      0x20\n      add\n      swap1\n      dup2\n      mstore\n      0x20\n      add\n      0x0\n      keccak256\n        /* \"contracts/Exchange.sol\":17527:17580  tokens[_tokenIndex].buyBook[priceInWei].offers_length */\n      0x4\n      add\n      0x0\n        /* \"contracts/Exchange.sol\":17527:17582  tokens[_tokenIndex].buyBook[priceInWei].offers_length++ */\n      dup2\n      sload\n      dup1\n      swap3\n      swap2\n      swap1\n      0x1\n      add\n      swap2\n      swap1\n      pop\n      sstore\n      pop\n        /* \"contracts/Exchange.sol\":17696:17714  Offer(amount, who) */\n      0x40\n      dup1\n      mload\n      swap1\n      dup2\n      add\n      0x40\n      mstore\n      dup1\n        /* \"contracts/Exchange.sol\":17702:17708  amount */\n      dup8\n        /* \"contracts/Exchange.sol\":17696:17714  Offer(amount, who) */\n      dup2\n      mstore\n      0x20\n      add\n        /* \"contracts/Exchange.sol\":17710:17713  who */\n      dup7\n        /* \"contracts/Exchange.sol\":17696:17714  Offer(amount, who) */\n      0xffffffffffffffffffffffffffffffffffffffff\n      and\n      dup2\n      mstore\n      pop\n        /* \"contracts/Exchange.sol\":17592:17598  tokens */\n      0x1\n        /* \"contracts/Exchange.sol\":17592:17611  tokens[_tokenIndex] */\n      0x0\n        /* \"contracts/Exchange.sol\":17599:17610  _tokenIndex */\n      dup11\n        /* \"contracts/Exchange.sol\":17592:17611  tokens[_tokenIndex] */\n      0xff\n      and\n      0xff\n      and\n      dup2\n      mstore\n      0x20\n      add\n      swap1\n      dup2\n      mstore\n      0x20\n      add\n      0x0\n      keccak256\n        /* \"contracts/Exchange.sol\":17592:17619  tokens[_tokenIndex].buyBook */\n      0x2\n      add\n        /* \"contracts/Exchange.sol\":17592:17631  tokens[_tokenIndex].buyBook[priceInWei] */\n      0x0\n        /* \"contracts/Exchange.sol\":17620:17630  priceInWei */\n      dup10\n        /* \"contracts/Exchange.sol\":17592:17631  tokens[_tokenIndex].buyBook[priceInWei] */\n      dup2\n      mstore\n      0x20\n      add\n      swap1\n      dup2\n      mstore\n      0x20\n      add\n      0x0\n      keccak256\n        /* \"contracts/Exchange.sol\":17592:17638  tokens[_tokenIndex].buyBook[priceInWei].offers */\n      0x2\n      add\n        /* \"contracts/Exchange.sol\":17592:17693  tokens[_tokenIndex].buyBook[priceInWei].offers[tokens[_tokenIndex].buyBook[priceInWei].offers_length] */\n      0x0\n        /* \"contracts/Exchange.sol\":17639:17645  tokens */\n      0x1\n        /* \"contracts/Exchange.sol\":17639:17658  tokens[_tokenIndex] */\n      0x0\n        /* \"contracts/Exchange.sol\":17646:17657  _tokenIndex */\n      dup13\n        /* \"contracts/Exchange.sol\":17639:17658  tokens[_tokenIndex] */\n      0xff\n      and\n      0xff\n      and\n      dup2\n      mstore\n      0x20\n      add\n      swap1\n      dup2\n      mstore\n      0x20\n      add\n      0x0\n      keccak256\n        /* \"contracts/Exchange.sol\":17639:17666  tokens[_tokenIndex].buyBook */\n      0x2\n      add\n        /* \"contracts/Exchange.sol\":17639:17678  tokens[_tokenIndex].buyBook[priceInWei] */\n      0x0\n        /* \"contracts/Exchange.sol\":17667:17677  priceInWei */\n      dup12\n        /* \"contracts/Exchange.sol\":17639:17678  tokens[_tokenIndex].buyBook[priceInWei] */\n      dup2\n      mstore\n      0x20\n      add\n      swap1\n      dup2\n      mstore\n      0x20\n      add\n      0x0\n      keccak256\n        /* \"contracts/Exchange.sol\":17639:17692  tokens[_tokenIndex].buyBook[priceInWei].offers_length */\n      0x4\n      add\n      sload\n        /* \"contracts/Exchange.sol\":17592:17693  tokens[_tokenIndex].buyBook[priceInWei].offers[tokens[_tokenIndex].buyBook[priceInWei].offers_length] */\n      dup2\n      mstore\n      0x20\n      add\n      swap1\n      dup2\n      mstore\n      0x20\n      add\n      0x0\n      keccak256\n        /* \"contracts/Exchange.sol\":17592:17714  tokens[_tokenIndex].buyBook[priceInWei].offers[tokens[_tokenIndex].buyBook[priceInWei].offers_length] = Offer(amount, who) */\n      0x0\n      dup3\n      add\n      mload\n      dup2\n      0x0\n      add\n      sstore\n      0x20\n      dup3\n      add\n      mload\n      dup2\n      0x1\n      add\n      exp(0x100, 0x0)\n      dup2\n      sload\n      dup2\n      0xffffffffffffffffffffffffffffffffffffffff\n      mul\n      not\n      and\n      swap1\n      dup4\n      0xffffffffffffffffffffffffffffffffffffffff\n      and\n      mul\n      or\n      swap1\n      sstore\n      pop\n      swap1\n      pop\n      pop\n        /* \"contracts/Exchange.sol\":17787:17788  1 */\n      0x1\n        /* \"contracts/Exchange.sol\":17730:17736  tokens */\n      dup1\n        /* \"contracts/Exchange.sol\":17730:17749  tokens[_tokenIndex] */\n      0x0\n        /* \"contracts/Exchange.sol\":17737:17748  _tokenIndex */\n      dup11\n        /* \"contracts/Exchange.sol\":17730:17749  tokens[_tokenIndex] */\n      0xff\n      and\n      0xff\n      and\n      dup2\n      mstore\n      0x20\n      add\n      swap1\n      dup2\n      mstore\n      0x20\n      add\n      0x0\n      keccak256\n        /* \"contracts/Exchange.sol\":17730:17757  tokens[_tokenIndex].buyBook */\n      0x2\n      add\n        /* \"contracts/Exchange.sol\":17730:17769  tokens[_tokenIndex].buyBook[priceInWei] */\n      0x0\n        /* \"contracts/Exchange.sol\":17758:17768  priceInWei */\n      dup10\n        /* \"contracts/Exchange.sol\":17730:17769  tokens[_tokenIndex].buyBook[priceInWei] */\n      dup2\n      mstore\n      0x20\n      add\n      swap1\n      dup2\n      mstore\n      0x20\n      add\n      0x0\n      keccak256\n        /* \"contracts/Exchange.sol\":17730:17783  tokens[_tokenIndex].buyBook[priceInWei].offers_length */\n      0x4\n      add\n      sload\n        /* \"contracts/Exchange.sol\":17730:17788  tokens[_tokenIndex].buyBook[priceInWei].offers_length == 1 */\n      eq\n        /* \"contracts/Exchange.sol\":17726:20912  if (tokens[_tokenIndex].buyBook[priceInWei].offers_length == 1) {... */\n      iszero\n      tag_219\n      jumpi\n        /* \"contracts/Exchange.sol\":17857:17858  1 */\n      0x1\n        /* \"contracts/Exchange.sol\":17804:17810  tokens */\n      dup1\n        /* \"contracts/Exchange.sol\":17804:17823  tokens[_tokenIndex] */\n      0x0\n        /* \"contracts/Exchange.sol\":17811:17822  _tokenIndex */\n      dup11\n        /* \"contracts/Exchange.sol\":17804:17823  tokens[_tokenIndex] */\n      0xff\n      and\n      0xff\n      and\n      dup2\n      mstore\n      0x20\n      add\n      swap1\n      dup2\n      mstore\n      0x20\n      add\n      0x0\n      keccak256\n        /* \"contracts/Exchange.sol\":17804:17831  tokens[_tokenIndex].buyBook */\n      0x2\n      add\n        /* \"contracts/Exchange.sol\":17804:17843  tokens[_tokenIndex].buyBook[priceInWei] */\n      0x0\n        /* \"contracts/Exchange.sol\":17832:17842  priceInWei */\n      dup10\n        /* \"contracts/Exchange.sol\":17804:17843  tokens[_tokenIndex].buyBook[priceInWei] */\n      dup2\n      mstore\n      0x20\n      add\n      swap1\n      dup2\n      mstore\n      0x20\n      add\n      0x0\n      keccak256\n        /* \"contracts/Exchange.sol\":17804:17854  tokens[_tokenIndex].buyBook[priceInWei].offers_key */\n      0x3\n      add\n        /* \"contracts/Exchange.sol\":17804:17858  tokens[_tokenIndex].buyBook[priceInWei].offers_key = 1 */\n      dup2\n      swap1\n      sstore\n      pop\n        /* \"contracts/Exchange.sol\":17977:17983  tokens */\n      0x1\n        /* \"contracts/Exchange.sol\":17977:17996  tokens[_tokenIndex] */\n      0x0\n        /* \"contracts/Exchange.sol\":17984:17995  _tokenIndex */\n      dup10\n        /* \"contracts/Exchange.sol\":17977:17996  tokens[_tokenIndex] */\n      0xff\n      and\n      0xff\n      and\n      dup2\n      mstore\n      0x20\n      add\n      swap1\n      dup2\n      mstore\n      0x20\n      add\n      0x0\n      keccak256\n        /* \"contracts/Exchange.sol\":17977:18012  tokens[_tokenIndex].amountBuyPrices */\n      0x5\n      add\n      0x0\n        /* \"contracts/Exchange.sol\":17977:18014  tokens[_tokenIndex].amountBuyPrices++ */\n      dup2\n      sload\n      dup1\n      swap3\n      swap2\n      swap1\n      0x1\n      add\n      swap2\n      swap1\n      pop\n      sstore\n      pop\n        /* \"contracts/Exchange.sol\":18105:18111  tokens */\n      0x1\n        /* \"contracts/Exchange.sol\":18105:18124  tokens[_tokenIndex] */\n      0x0\n        /* \"contracts/Exchange.sol\":18112:18123  _tokenIndex */\n      dup10\n        /* \"contracts/Exchange.sol\":18105:18124  tokens[_tokenIndex] */\n      0xff\n      and\n      0xff\n      and\n      dup2\n      mstore\n      0x20\n      add\n      swap1\n      dup2\n      mstore\n      0x20\n      add\n      0x0\n      keccak256\n        /* \"contracts/Exchange.sol\":18105:18136  tokens[_tokenIndex].curBuyPrice */\n      0x3\n      add\n      sload\n        /* \"contracts/Exchange.sol\":18086:18136  uint curBuyPrice = tokens[_tokenIndex].curBuyPrice */\n      swap4\n      pop\n        /* \"contracts/Exchange.sol\":18173:18179  tokens */\n      0x1\n        /* \"contracts/Exchange.sol\":18173:18192  tokens[_tokenIndex] */\n      0x0\n        /* \"contracts/Exchange.sol\":18180:18191  _tokenIndex */\n      dup10\n        /* \"contracts/Exchange.sol\":18173:18192  tokens[_tokenIndex] */\n      0xff\n      and\n      0xff\n      and\n      dup2\n      mstore\n      0x20\n      add\n      swap1\n      dup2\n      mstore\n      0x20\n      add\n      0x0\n      keccak256\n        /* \"contracts/Exchange.sol\":18173:18207  tokens[_tokenIndex].lowestBuyPrice */\n      0x4\n      add\n      sload\n        /* \"contracts/Exchange.sol\":18151:18207  uint lowestBuyPrice = tokens[_tokenIndex].lowestBuyPrice */\n      swap3\n      pop\n        /* \"contracts/Exchange.sol\":18243:18244  0 */\n      0x0\n        /* \"contracts/Exchange.sol\":18225:18239  lowestBuyPrice */\n      dup4\n        /* \"contracts/Exchange.sol\":18225:18244  lowestBuyPrice == 0 */\n      eq\n        /* \"contracts/Exchange.sol\":18225:18275  lowestBuyPrice == 0 || lowestBuyPrice > priceInWei */\n      dup1\n      tag_220\n      jumpi\n      pop\n        /* \"contracts/Exchange.sol\":18265:18275  priceInWei */\n      dup7\n        /* \"contracts/Exchange.sol\":18248:18262  lowestBuyPrice */\n      dup4\n        /* \"contracts/Exchange.sol\":18248:18275  lowestBuyPrice > priceInWei */\n      gt\n        /* \"contracts/Exchange.sol\":18225:18275  lowestBuyPrice == 0 || lowestBuyPrice > priceInWei */\n    tag_220:\n        /* \"contracts/Exchange.sol\":18221:20902  if (lowestBuyPrice == 0 || lowestBuyPrice > priceInWei) {... */\n      iszero\n      tag_221\n      jumpi\n        /* \"contracts/Exchange.sol\":18314:18315  0 */\n      0x0\n        /* \"contracts/Exchange.sol\":18299:18310  curBuyPrice */\n      dup5\n        /* \"contracts/Exchange.sol\":18299:18315  curBuyPrice == 0 */\n      eq\n        /* \"contracts/Exchange.sol\":18295:18976  if (curBuyPrice == 0) {... */\n      iszero\n      tag_222\n      jumpi\n        /* \"contracts/Exchange.sol\":18449:18459  priceInWei */\n      dup7\n        /* \"contracts/Exchange.sol\":18415:18421  tokens */\n      0x1\n        /* \"contracts/Exchange.sol\":18415:18434  tokens[_tokenIndex] */\n      0x0\n        /* \"contracts/Exchange.sol\":18422:18433  _tokenIndex */\n      dup11\n        /* \"contracts/Exchange.sol\":18415:18434  tokens[_tokenIndex] */\n      0xff\n      and\n      0xff\n      and\n      dup2\n      mstore\n      0x20\n      add\n      swap1\n      dup2\n      mstore\n      0x20\n      add\n      0x0\n      keccak256\n        /* \"contracts/Exchange.sol\":18415:18446  tokens[_tokenIndex].curBuyPrice */\n      0x3\n      add\n        /* \"contracts/Exchange.sol\":18415:18459  tokens[_tokenIndex].curBuyPrice = priceInWei */\n      dup2\n      swap1\n      sstore\n      pop\n        /* \"contracts/Exchange.sol\":18535:18545  priceInWei */\n      dup7\n        /* \"contracts/Exchange.sol\":18481:18487  tokens */\n      0x1\n        /* \"contracts/Exchange.sol\":18481:18500  tokens[_tokenIndex] */\n      0x0\n        /* \"contracts/Exchange.sol\":18488:18499  _tokenIndex */\n      dup11\n        /* \"contracts/Exchange.sol\":18481:18500  tokens[_tokenIndex] */\n      0xff\n      and\n      0xff\n      and\n      dup2\n      mstore\n      0x20\n      add\n      swap1\n      dup2\n      mstore\n      0x20\n      add\n      0x0\n      keccak256\n        /* \"contracts/Exchange.sol\":18481:18508  tokens[_tokenIndex].buyBook */\n      0x2\n      add\n        /* \"contracts/Exchange.sol\":18481:18520  tokens[_tokenIndex].buyBook[priceInWei] */\n      0x0\n        /* \"contracts/Exchange.sol\":18509:18519  priceInWei */\n      dup10\n        /* \"contracts/Exchange.sol\":18481:18520  tokens[_tokenIndex].buyBook[priceInWei] */\n      dup2\n      mstore\n      0x20\n      add\n      swap1\n      dup2\n      mstore\n      0x20\n      add\n      0x0\n      keccak256\n        /* \"contracts/Exchange.sol\":18481:18532  tokens[_tokenIndex].buyBook[priceInWei].higherPrice */\n      0x0\n      add\n        /* \"contracts/Exchange.sol\":18481:18545  tokens[_tokenIndex].buyBook[priceInWei].higherPrice = priceInWei */\n      dup2\n      swap1\n      sstore\n      pop\n        /* \"contracts/Exchange.sol\":18620:18621  0 */\n      0x0\n        /* \"contracts/Exchange.sol\":18567:18573  tokens */\n      0x1\n        /* \"contracts/Exchange.sol\":18567:18586  tokens[_tokenIndex] */\n      0x0\n        /* \"contracts/Exchange.sol\":18574:18585  _tokenIndex */\n      dup11\n        /* \"contracts/Exchange.sol\":18567:18586  tokens[_tokenIndex] */\n      0xff\n      and\n      0xff\n      and\n      dup2\n      mstore\n      0x20\n      add\n      swap1\n      dup2\n      mstore\n      0x20\n      add\n      0x0\n      keccak256\n        /* \"contracts/Exchange.sol\":18567:18594  tokens[_tokenIndex].buyBook */\n      0x2\n      add\n        /* \"contracts/Exchange.sol\":18567:18606  tokens[_tokenIndex].buyBook[priceInWei] */\n      0x0\n        /* \"contracts/Exchange.sol\":18595:18605  priceInWei */\n      dup10\n        /* \"contracts/Exchange.sol\":18567:18606  tokens[_tokenIndex].buyBook[priceInWei] */\n      dup2\n      mstore\n      0x20\n      add\n      swap1\n      dup2\n      mstore\n      0x20\n      add\n      0x0\n      keccak256\n        /* \"contracts/Exchange.sol\":18567:18617  tokens[_tokenIndex].buyBook[priceInWei].lowerPrice */\n      0x1\n      add\n        /* \"contracts/Exchange.sol\":18567:18621  tokens[_tokenIndex].buyBook[priceInWei].lowerPrice = 0 */\n      dup2\n      swap1\n      sstore\n      pop\n        /* \"contracts/Exchange.sol\":18295:18976  if (curBuyPrice == 0) {... */\n      jump(tag_223)\n    tag_222:\n        /* \"contracts/Exchange.sol\":18781:18791  priceInWei */\n      dup7\n        /* \"contracts/Exchange.sol\":18724:18730  tokens */\n      0x1\n        /* \"contracts/Exchange.sol\":18724:18743  tokens[_tokenIndex] */\n      0x0\n        /* \"contracts/Exchange.sol\":18731:18742  _tokenIndex */\n      dup11\n        /* \"contracts/Exchange.sol\":18724:18743  tokens[_tokenIndex] */\n      0xff\n      and\n      0xff\n      and\n      dup2\n      mstore\n      0x20\n      add\n      swap1\n      dup2\n      mstore\n      0x20\n      add\n      0x0\n      keccak256\n        /* \"contracts/Exchange.sol\":18724:18751  tokens[_tokenIndex].buyBook */\n      0x2\n      add\n        /* \"contracts/Exchange.sol\":18724:18767  tokens[_tokenIndex].buyBook[lowestBuyPrice] */\n      0x0\n        /* \"contracts/Exchange.sol\":18752:18766  lowestBuyPrice */\n      dup6\n        /* \"contracts/Exchange.sol\":18724:18767  tokens[_tokenIndex].buyBook[lowestBuyPrice] */\n      dup2\n      mstore\n      0x20\n      add\n      swap1\n      dup2\n      mstore\n      0x20\n      add\n      0x0\n      keccak256\n        /* \"contracts/Exchange.sol\":18724:18778  tokens[_tokenIndex].buyBook[lowestBuyPrice].lowerPrice */\n      0x1\n      add\n        /* \"contracts/Exchange.sol\":18724:18791  tokens[_tokenIndex].buyBook[lowestBuyPrice].lowerPrice = priceInWei */\n      dup2\n      swap1\n      sstore\n      pop\n        /* \"contracts/Exchange.sol\":18867:18881  lowestBuyPrice */\n      dup3\n        /* \"contracts/Exchange.sol\":18813:18819  tokens */\n      0x1\n        /* \"contracts/Exchange.sol\":18813:18832  tokens[_tokenIndex] */\n      0x0\n        /* \"contracts/Exchange.sol\":18820:18831  _tokenIndex */\n      dup11\n        /* \"contracts/Exchange.sol\":18813:18832  tokens[_tokenIndex] */\n      0xff\n      and\n      0xff\n      and\n      dup2\n      mstore\n      0x20\n      add\n      swap1\n      dup2\n      mstore\n      0x20\n      add\n      0x0\n      keccak256\n        /* \"contracts/Exchange.sol\":18813:18840  tokens[_tokenIndex].buyBook */\n      0x2\n      add\n        /* \"contracts/Exchange.sol\":18813:18852  tokens[_tokenIndex].buyBook[priceInWei] */\n      0x0\n        /* \"contracts/Exchange.sol\":18841:18851  priceInWei */\n      dup10\n        /* \"contracts/Exchange.sol\":18813:18852  tokens[_tokenIndex].buyBook[priceInWei] */\n      dup2\n      mstore\n      0x20\n      add\n      swap1\n      dup2\n      mstore\n      0x20\n      add\n      0x0\n      keccak256\n        /* \"contracts/Exchange.sol\":18813:18864  tokens[_tokenIndex].buyBook[priceInWei].higherPrice */\n      0x0\n      add\n        /* \"contracts/Exchange.sol\":18813:18881  tokens[_tokenIndex].buyBook[priceInWei].higherPrice = lowestBuyPrice */\n      dup2\n      swap1\n      sstore\n      pop\n        /* \"contracts/Exchange.sol\":18956:18957  0 */\n      0x0\n        /* \"contracts/Exchange.sol\":18903:18909  tokens */\n      0x1\n        /* \"contracts/Exchange.sol\":18903:18922  tokens[_tokenIndex] */\n      0x0\n        /* \"contracts/Exchange.sol\":18910:18921  _tokenIndex */\n      dup11\n        /* \"contracts/Exchange.sol\":18903:18922  tokens[_tokenIndex] */\n      0xff\n      and\n      0xff\n      and\n      dup2\n      mstore\n      0x20\n      add\n      swap1\n      dup2\n      mstore\n      0x20\n      add\n      0x0\n      keccak256\n        /* \"contracts/Exchange.sol\":18903:18930  tokens[_tokenIndex].buyBook */\n      0x2\n      add\n        /* \"contracts/Exchange.sol\":18903:18942  tokens[_tokenIndex].buyBook[priceInWei] */\n      0x0\n        /* \"contracts/Exchange.sol\":18931:18941  priceInWei */\n      dup10\n        /* \"contracts/Exchange.sol\":18903:18942  tokens[_tokenIndex].buyBook[priceInWei] */\n      dup2\n      mstore\n      0x20\n      add\n      swap1\n      dup2\n      mstore\n      0x20\n      add\n      0x0\n      keccak256\n        /* \"contracts/Exchange.sol\":18903:18953  tokens[_tokenIndex].buyBook[priceInWei].lowerPrice */\n      0x1\n      add\n        /* \"contracts/Exchange.sol\":18903:18957  tokens[_tokenIndex].buyBook[priceInWei].lowerPrice = 0 */\n      dup2\n      swap1\n      sstore\n      pop\n        /* \"contracts/Exchange.sol\":18295:18976  if (curBuyPrice == 0) {... */\n    tag_223:\n        /* \"contracts/Exchange.sol\":19030:19040  priceInWei */\n      dup7\n        /* \"contracts/Exchange.sol\":18993:18999  tokens */\n      0x1\n        /* \"contracts/Exchange.sol\":18993:19012  tokens[_tokenIndex] */\n      0x0\n        /* \"contracts/Exchange.sol\":19000:19011  _tokenIndex */\n      dup11\n        /* \"contracts/Exchange.sol\":18993:19012  tokens[_tokenIndex] */\n      0xff\n      and\n      0xff\n      and\n      dup2\n      mstore\n      0x20\n      add\n      swap1\n      dup2\n      mstore\n      0x20\n      add\n      0x0\n      keccak256\n        /* \"contracts/Exchange.sol\":18993:19027  tokens[_tokenIndex].lowestBuyPrice */\n      0x4\n      add\n        /* \"contracts/Exchange.sol\":18993:19040  tokens[_tokenIndex].lowestBuyPrice = priceInWei */\n      dup2\n      swap1\n      sstore\n      pop\n        /* \"contracts/Exchange.sol\":18221:20902  if (lowestBuyPrice == 0 || lowestBuyPrice > priceInWei) {... */\n      jump(tag_224)\n    tag_221:\n        /* \"contracts/Exchange.sol\":19091:19101  priceInWei */\n      dup7\n        /* \"contracts/Exchange.sol\":19077:19088  curBuyPrice */\n      dup5\n        /* \"contracts/Exchange.sol\":19077:19101  curBuyPrice < priceInWei */\n      lt\n        /* \"contracts/Exchange.sol\":19073:20902  if (curBuyPrice < priceInWei) {... */\n      iszero\n      tag_225\n      jumpi\n        /* \"contracts/Exchange.sol\":19268:19278  priceInWei */\n      dup7\n        /* \"contracts/Exchange.sol\":19213:19219  tokens */\n      0x1\n        /* \"contracts/Exchange.sol\":19213:19232  tokens[_tokenIndex] */\n      0x0\n        /* \"contracts/Exchange.sol\":19220:19231  _tokenIndex */\n      dup11\n        /* \"contracts/Exchange.sol\":19213:19232  tokens[_tokenIndex] */\n      0xff\n      and\n      0xff\n      and\n      dup2\n      mstore\n      0x20\n      add\n      swap1\n      dup2\n      mstore\n      0x20\n      add\n      0x0\n      keccak256\n        /* \"contracts/Exchange.sol\":19213:19240  tokens[_tokenIndex].buyBook */\n      0x2\n      add\n        /* \"contracts/Exchange.sol\":19213:19253  tokens[_tokenIndex].buyBook[curBuyPrice] */\n      0x0\n        /* \"contracts/Exchange.sol\":19241:19252  curBuyPrice */\n      dup7\n        /* \"contracts/Exchange.sol\":19213:19253  tokens[_tokenIndex].buyBook[curBuyPrice] */\n      dup2\n      mstore\n      0x20\n      add\n      swap1\n      dup2\n      mstore\n      0x20\n      add\n      0x0\n      keccak256\n        /* \"contracts/Exchange.sol\":19213:19265  tokens[_tokenIndex].buyBook[curBuyPrice].higherPrice */\n      0x0\n      add\n        /* \"contracts/Exchange.sol\":19213:19278  tokens[_tokenIndex].buyBook[curBuyPrice].higherPrice = priceInWei */\n      dup2\n      swap1\n      sstore\n      pop\n        /* \"contracts/Exchange.sol\":19350:19360  priceInWei */\n      dup7\n        /* \"contracts/Exchange.sol\":19296:19302  tokens */\n      0x1\n        /* \"contracts/Exchange.sol\":19296:19315  tokens[_tokenIndex] */\n      0x0\n        /* \"contracts/Exchange.sol\":19303:19314  _tokenIndex */\n      dup11\n        /* \"contracts/Exchange.sol\":19296:19315  tokens[_tokenIndex] */\n      0xff\n      and\n      0xff\n      and\n      dup2\n      mstore\n      0x20\n      add\n      swap1\n      dup2\n      mstore\n      0x20\n      add\n      0x0\n      keccak256\n        /* \"contracts/Exchange.sol\":19296:19323  tokens[_tokenIndex].buyBook */\n      0x2\n      add\n        /* \"contracts/Exchange.sol\":19296:19335  tokens[_tokenIndex].buyBook[priceInWei] */\n      0x0\n        /* \"contracts/Exchange.sol\":19324:19334  priceInWei */\n      dup10\n        /* \"contracts/Exchange.sol\":19296:19335  tokens[_tokenIndex].buyBook[priceInWei] */\n      dup2\n      mstore\n      0x20\n      add\n      swap1\n      dup2\n      mstore\n      0x20\n      add\n      0x0\n      keccak256\n        /* \"contracts/Exchange.sol\":19296:19347  tokens[_tokenIndex].buyBook[priceInWei].higherPrice */\n      0x0\n      add\n        /* \"contracts/Exchange.sol\":19296:19360  tokens[_tokenIndex].buyBook[priceInWei].higherPrice = priceInWei */\n      dup2\n      swap1\n      sstore\n      pop\n        /* \"contracts/Exchange.sol\":19431:19442  curBuyPrice */\n      dup4\n        /* \"contracts/Exchange.sol\":19378:19384  tokens */\n      0x1\n        /* \"contracts/Exchange.sol\":19378:19397  tokens[_tokenIndex] */\n      0x0\n        /* \"contracts/Exchange.sol\":19385:19396  _tokenIndex */\n      dup11\n        /* \"contracts/Exchange.sol\":19378:19397  tokens[_tokenIndex] */\n      0xff\n      and\n      0xff\n      and\n      dup2\n      mstore\n      0x20\n      add\n      swap1\n      dup2\n      mstore\n      0x20\n      add\n      0x0\n      keccak256\n        /* \"contracts/Exchange.sol\":19378:19405  tokens[_tokenIndex].buyBook */\n      0x2\n      add\n        /* \"contracts/Exchange.sol\":19378:19417  tokens[_tokenIndex].buyBook[priceInWei] */\n      0x0\n        /* \"contracts/Exchange.sol\":19406:19416  priceInWei */\n      dup10\n        /* \"contracts/Exchange.sol\":19378:19417  tokens[_tokenIndex].buyBook[priceInWei] */\n      dup2\n      mstore\n      0x20\n      add\n      swap1\n      dup2\n      mstore\n      0x20\n      add\n      0x0\n      keccak256\n        /* \"contracts/Exchange.sol\":19378:19428  tokens[_tokenIndex].buyBook[priceInWei].lowerPrice */\n      0x1\n      add\n        /* \"contracts/Exchange.sol\":19378:19442  tokens[_tokenIndex].buyBook[priceInWei].lowerPrice = curBuyPrice */\n      dup2\n      swap1\n      sstore\n      pop\n        /* \"contracts/Exchange.sol\":19494:19504  priceInWei */\n      dup7\n        /* \"contracts/Exchange.sol\":19460:19466  tokens */\n      0x1\n        /* \"contracts/Exchange.sol\":19460:19479  tokens[_tokenIndex] */\n      0x0\n        /* \"contracts/Exchange.sol\":19467:19478  _tokenIndex */\n      dup11\n        /* \"contracts/Exchange.sol\":19460:19479  tokens[_tokenIndex] */\n      0xff\n      and\n      0xff\n      and\n      dup2\n      mstore\n      0x20\n      add\n      swap1\n      dup2\n      mstore\n      0x20\n      add\n      0x0\n      keccak256\n        /* \"contracts/Exchange.sol\":19460:19491  tokens[_tokenIndex].curBuyPrice */\n      0x3\n      add\n        /* \"contracts/Exchange.sol\":19460:19504  tokens[_tokenIndex].curBuyPrice = priceInWei */\n      dup2\n      swap1\n      sstore\n      pop\n        /* \"contracts/Exchange.sol\":19073:20902  if (curBuyPrice < priceInWei) {... */\n      jump(tag_226)\n    tag_225:\n        /* \"contracts/Exchange.sol\":19663:19669  tokens */\n      0x1\n        /* \"contracts/Exchange.sol\":19663:19682  tokens[_tokenIndex] */\n      0x0\n        /* \"contracts/Exchange.sol\":19670:19681  _tokenIndex */\n      dup10\n        /* \"contracts/Exchange.sol\":19663:19682  tokens[_tokenIndex] */\n      0xff\n      and\n      0xff\n      and\n      dup2\n      mstore\n      0x20\n      add\n      swap1\n      dup2\n      mstore\n      0x20\n      add\n      0x0\n      keccak256\n        /* \"contracts/Exchange.sol\":19663:19694  tokens[_tokenIndex].curBuyPrice */\n      0x3\n      add\n      sload\n        /* \"contracts/Exchange.sol\":19647:19694  uint buyPrice = tokens[_tokenIndex].curBuyPrice */\n      swap2\n      pop\n        /* \"contracts/Exchange.sol\":19729:19734  false */\n      0x0\n        /* \"contracts/Exchange.sol\":19712:19734  bool weFoundIt = false */\n      swap1\n      pop\n        /* \"contracts/Exchange.sol\":19752:20888  while (buyPrice > 0 && !weFoundIt) {... */\n    tag_227:\n        /* \"contracts/Exchange.sol\":19770:19771  0 */\n      0x0\n        /* \"contracts/Exchange.sol\":19759:19767  buyPrice */\n      dup3\n        /* \"contracts/Exchange.sol\":19759:19771  buyPrice > 0 */\n      gt\n        /* \"contracts/Exchange.sol\":19759:19785  buyPrice > 0 && !weFoundIt */\n      dup1\n      iszero\n      tag_229\n      jumpi\n      pop\n        /* \"contracts/Exchange.sol\":19776:19785  weFoundIt */\n      dup1\n        /* \"contracts/Exchange.sol\":19775:19785  !weFoundIt */\n      iszero\n        /* \"contracts/Exchange.sol\":19759:19785  buyPrice > 0 && !weFoundIt */\n    tag_229:\n        /* \"contracts/Exchange.sol\":19752:20888  while (buyPrice > 0 && !weFoundIt) {... */\n      iszero\n      tag_228\n      jumpi\n        /* \"contracts/Exchange.sol\":19845:19855  priceInWei */\n      dup7\n        /* \"contracts/Exchange.sol\":19834:19842  buyPrice */\n      dup3\n        /* \"contracts/Exchange.sol\":19834:19855  buyPrice < priceInWei */\n      lt\n        /* \"contracts/Exchange.sol\":19834:19941  buyPrice < priceInWei &&... */\n      dup1\n      iszero\n      tag_230\n      jumpi\n      pop\n        /* \"contracts/Exchange.sol\":19931:19941  priceInWei */\n      dup7\n        /* \"contracts/Exchange.sol\":19879:19885  tokens */\n      0x1\n        /* \"contracts/Exchange.sol\":19879:19898  tokens[_tokenIndex] */\n      0x0\n        /* \"contracts/Exchange.sol\":19886:19897  _tokenIndex */\n      dup11\n        /* \"contracts/Exchange.sol\":19879:19898  tokens[_tokenIndex] */\n      0xff\n      and\n      0xff\n      and\n      dup2\n      mstore\n      0x20\n      add\n      swap1\n      dup2\n      mstore\n      0x20\n      add\n      0x0\n      keccak256\n        /* \"contracts/Exchange.sol\":19879:19906  tokens[_tokenIndex].buyBook */\n      0x2\n      add\n        /* \"contracts/Exchange.sol\":19879:19916  tokens[_tokenIndex].buyBook[buyPrice] */\n      0x0\n        /* \"contracts/Exchange.sol\":19907:19915  buyPrice */\n      dup5\n        /* \"contracts/Exchange.sol\":19879:19916  tokens[_tokenIndex].buyBook[buyPrice] */\n      dup2\n      mstore\n      0x20\n      add\n      swap1\n      dup2\n      mstore\n      0x20\n      add\n      0x0\n      keccak256\n        /* \"contracts/Exchange.sol\":19879:19928  tokens[_tokenIndex].buyBook[buyPrice].higherPrice */\n      0x0\n      add\n      sload\n        /* \"contracts/Exchange.sol\":19879:19941  tokens[_tokenIndex].buyBook[buyPrice].higherPrice > priceInWei */\n      gt\n        /* \"contracts/Exchange.sol\":19834:19941  buyPrice < priceInWei &&... */\n    tag_230:\n        /* \"contracts/Exchange.sol\":19809:20789  if (... */\n      iszero\n      tag_231\n      jumpi\n        /* \"contracts/Exchange.sol\":20128:20136  buyPrice */\n      dup2\n        /* \"contracts/Exchange.sol\":20075:20081  tokens */\n      0x1\n        /* \"contracts/Exchange.sol\":20075:20094  tokens[_tokenIndex] */\n      0x0\n        /* \"contracts/Exchange.sol\":20082:20093  _tokenIndex */\n      dup11\n        /* \"contracts/Exchange.sol\":20075:20094  tokens[_tokenIndex] */\n      0xff\n      and\n      0xff\n      and\n      dup2\n      mstore\n      0x20\n      add\n      swap1\n      dup2\n      mstore\n      0x20\n      add\n      0x0\n      keccak256\n        /* \"contracts/Exchange.sol\":20075:20102  tokens[_tokenIndex].buyBook */\n      0x2\n      add\n        /* \"contracts/Exchange.sol\":20075:20114  tokens[_tokenIndex].buyBook[priceInWei] */\n      0x0\n        /* \"contracts/Exchange.sol\":20103:20113  priceInWei */\n      dup10\n        /* \"contracts/Exchange.sol\":20075:20114  tokens[_tokenIndex].buyBook[priceInWei] */\n      dup2\n      mstore\n      0x20\n      add\n      swap1\n      dup2\n      mstore\n      0x20\n      add\n      0x0\n      keccak256\n        /* \"contracts/Exchange.sol\":20075:20125  tokens[_tokenIndex].buyBook[priceInWei].lowerPrice */\n      0x1\n      add\n        /* \"contracts/Exchange.sol\":20075:20136  tokens[_tokenIndex].buyBook[priceInWei].lowerPrice = buyPrice */\n      dup2\n      swap1\n      sstore\n      pop\n        /* \"contracts/Exchange.sol\":20216:20222  tokens */\n      0x1\n        /* \"contracts/Exchange.sol\":20216:20235  tokens[_tokenIndex] */\n      0x0\n        /* \"contracts/Exchange.sol\":20223:20234  _tokenIndex */\n      dup10\n        /* \"contracts/Exchange.sol\":20216:20235  tokens[_tokenIndex] */\n      0xff\n      and\n      0xff\n      and\n      dup2\n      mstore\n      0x20\n      add\n      swap1\n      dup2\n      mstore\n      0x20\n      add\n      0x0\n      keccak256\n        /* \"contracts/Exchange.sol\":20216:20243  tokens[_tokenIndex].buyBook */\n      0x2\n      add\n        /* \"contracts/Exchange.sol\":20216:20253  tokens[_tokenIndex].buyBook[buyPrice] */\n      0x0\n        /* \"contracts/Exchange.sol\":20244:20252  buyPrice */\n      dup4\n        /* \"contracts/Exchange.sol\":20216:20253  tokens[_tokenIndex].buyBook[buyPrice] */\n      dup2\n      mstore\n      0x20\n      add\n      swap1\n      dup2\n      mstore\n      0x20\n      add\n      0x0\n      keccak256\n        /* \"contracts/Exchange.sol\":20216:20265  tokens[_tokenIndex].buyBook[buyPrice].higherPrice */\n      0x0\n      add\n      sload\n        /* \"contracts/Exchange.sol\":20162:20168  tokens */\n      0x1\n        /* \"contracts/Exchange.sol\":20162:20181  tokens[_tokenIndex] */\n      0x0\n        /* \"contracts/Exchange.sol\":20169:20180  _tokenIndex */\n      dup11\n        /* \"contracts/Exchange.sol\":20162:20181  tokens[_tokenIndex] */\n      0xff\n      and\n      0xff\n      and\n      dup2\n      mstore\n      0x20\n      add\n      swap1\n      dup2\n      mstore\n      0x20\n      add\n      0x0\n      keccak256\n        /* \"contracts/Exchange.sol\":20162:20189  tokens[_tokenIndex].buyBook */\n      0x2\n      add\n        /* \"contracts/Exchange.sol\":20162:20201  tokens[_tokenIndex].buyBook[priceInWei] */\n      0x0\n        /* \"contracts/Exchange.sol\":20190:20200  priceInWei */\n      dup10\n        /* \"contracts/Exchange.sol\":20162:20201  tokens[_tokenIndex].buyBook[priceInWei] */\n      dup2\n      mstore\n      0x20\n      add\n      swap1\n      dup2\n      mstore\n      0x20\n      add\n      0x0\n      keccak256\n        /* \"contracts/Exchange.sol\":20162:20213  tokens[_tokenIndex].buyBook[priceInWei].higherPrice */\n      0x0\n      add\n        /* \"contracts/Exchange.sol\":20162:20265  tokens[_tokenIndex].buyBook[priceInWei].higherPrice = tokens[_tokenIndex].buyBook[buyPrice].higherPrice */\n      dup2\n      swap1\n      sstore\n      pop\n        /* \"contracts/Exchange.sol\":20483:20493  priceInWei */\n      dup7\n        /* \"contracts/Exchange.sol\":20391:20397  tokens */\n      0x1\n        /* \"contracts/Exchange.sol\":20391:20410  tokens[_tokenIndex] */\n      0x0\n        /* \"contracts/Exchange.sol\":20398:20409  _tokenIndex */\n      dup11\n        /* \"contracts/Exchange.sol\":20391:20410  tokens[_tokenIndex] */\n      0xff\n      and\n      0xff\n      and\n      dup2\n      mstore\n      0x20\n      add\n      swap1\n      dup2\n      mstore\n      0x20\n      add\n      0x0\n      keccak256\n        /* \"contracts/Exchange.sol\":20391:20418  tokens[_tokenIndex].buyBook */\n      0x2\n      add\n        /* \"contracts/Exchange.sol\":20391:20469  tokens[_tokenIndex].buyBook[tokens[_tokenIndex].buyBook[buyPrice].higherPrice] */\n      0x0\n        /* \"contracts/Exchange.sol\":20419:20425  tokens */\n      0x1\n        /* \"contracts/Exchange.sol\":20419:20438  tokens[_tokenIndex] */\n      0x0\n        /* \"contracts/Exchange.sol\":20426:20437  _tokenIndex */\n      dup13\n        /* \"contracts/Exchange.sol\":20419:20438  tokens[_tokenIndex] */\n      0xff\n      and\n      0xff\n      and\n      dup2\n      mstore\n      0x20\n      add\n      swap1\n      dup2\n      mstore\n      0x20\n      add\n      0x0\n      keccak256\n        /* \"contracts/Exchange.sol\":20419:20446  tokens[_tokenIndex].buyBook */\n      0x2\n      add\n        /* \"contracts/Exchange.sol\":20419:20456  tokens[_tokenIndex].buyBook[buyPrice] */\n      0x0\n        /* \"contracts/Exchange.sol\":20447:20455  buyPrice */\n      dup7\n        /* \"contracts/Exchange.sol\":20419:20456  tokens[_tokenIndex].buyBook[buyPrice] */\n      dup2\n      mstore\n      0x20\n      add\n      swap1\n      dup2\n      mstore\n      0x20\n      add\n      0x0\n      keccak256\n        /* \"contracts/Exchange.sol\":20419:20468  tokens[_tokenIndex].buyBook[buyPrice].higherPrice */\n      0x0\n      add\n      sload\n        /* \"contracts/Exchange.sol\":20391:20469  tokens[_tokenIndex].buyBook[tokens[_tokenIndex].buyBook[buyPrice].higherPrice] */\n      dup2\n      mstore\n      0x20\n      add\n      swap1\n      dup2\n      mstore\n      0x20\n      add\n      0x0\n      keccak256\n        /* \"contracts/Exchange.sol\":20391:20480  tokens[_tokenIndex].buyBook[tokens[_tokenIndex].buyBook[buyPrice].higherPrice].lowerPrice */\n      0x1\n      add\n        /* \"contracts/Exchange.sol\":20391:20493  tokens[_tokenIndex].buyBook[tokens[_tokenIndex].buyBook[buyPrice].higherPrice].lowerPrice = priceInWei */\n      dup2\n      swap1\n      sstore\n      pop\n        /* \"contracts/Exchange.sol\":20670:20680  priceInWei */\n      dup7\n        /* \"contracts/Exchange.sol\":20618:20624  tokens */\n      0x1\n        /* \"contracts/Exchange.sol\":20618:20637  tokens[_tokenIndex] */\n      0x0\n        /* \"contracts/Exchange.sol\":20625:20636  _tokenIndex */\n      dup11\n        /* \"contracts/Exchange.sol\":20618:20637  tokens[_tokenIndex] */\n      0xff\n      and\n      0xff\n      and\n      dup2\n      mstore\n      0x20\n      add\n      swap1\n      dup2\n      mstore\n      0x20\n      add\n      0x0\n      keccak256\n        /* \"contracts/Exchange.sol\":20618:20645  tokens[_tokenIndex].buyBook */\n      0x2\n      add\n        /* \"contracts/Exchange.sol\":20618:20655  tokens[_tokenIndex].buyBook[buyPrice] */\n      0x0\n        /* \"contracts/Exchange.sol\":20646:20654  buyPrice */\n      dup5\n        /* \"contracts/Exchange.sol\":20618:20655  tokens[_tokenIndex].buyBook[buyPrice] */\n      dup2\n      mstore\n      0x20\n      add\n      swap1\n      dup2\n      mstore\n      0x20\n      add\n      0x0\n      keccak256\n        /* \"contracts/Exchange.sol\":20618:20667  tokens[_tokenIndex].buyBook[buyPrice].higherPrice */\n      0x0\n      add\n        /* \"contracts/Exchange.sol\":20618:20680  tokens[_tokenIndex].buyBook[buyPrice].higherPrice = priceInWei */\n      dup2\n      swap1\n      sstore\n      pop\n        /* \"contracts/Exchange.sol\":20762:20766  true */\n      0x1\n        /* \"contracts/Exchange.sol\":20750:20766  weFoundIt = true */\n      swap1\n      pop\n        /* \"contracts/Exchange.sol\":19809:20789  if (... */\n    tag_231:\n        /* \"contracts/Exchange.sol\":20821:20827  tokens */\n      0x1\n        /* \"contracts/Exchange.sol\":20821:20840  tokens[_tokenIndex] */\n      0x0\n        /* \"contracts/Exchange.sol\":20828:20839  _tokenIndex */\n      dup10\n        /* \"contracts/Exchange.sol\":20821:20840  tokens[_tokenIndex] */\n      0xff\n      and\n      0xff\n      and\n      dup2\n      mstore\n      0x20\n      add\n      swap1\n      dup2\n      mstore\n      0x20\n      add\n      0x0\n      keccak256\n        /* \"contracts/Exchange.sol\":20821:20848  tokens[_tokenIndex].buyBook */\n      0x2\n      add\n        /* \"contracts/Exchange.sol\":20821:20858  tokens[_tokenIndex].buyBook[buyPrice] */\n      0x0\n        /* \"contracts/Exchange.sol\":20849:20857  buyPrice */\n      dup4\n        /* \"contracts/Exchange.sol\":20821:20858  tokens[_tokenIndex].buyBook[buyPrice] */\n      dup2\n      mstore\n      0x20\n      add\n      swap1\n      dup2\n      mstore\n      0x20\n      add\n      0x0\n      keccak256\n        /* \"contracts/Exchange.sol\":20821:20869  tokens[_tokenIndex].buyBook[buyPrice].lowerPrice */\n      0x1\n      add\n      sload\n        /* \"contracts/Exchange.sol\":20810:20869  buyPrice = tokens[_tokenIndex].buyBook[buyPrice].lowerPrice */\n      swap2\n      pop\n        /* \"contracts/Exchange.sol\":19752:20888  while (buyPrice > 0 && !weFoundIt) {... */\n      jump(tag_227)\n    tag_228:\n        /* \"contracts/Exchange.sol\":19073:20902  if (curBuyPrice < priceInWei) {... */\n    tag_226:\n        /* \"contracts/Exchange.sol\":18221:20902  if (lowestBuyPrice == 0 || lowestBuyPrice > priceInWei) {... */\n    tag_224:\n        /* \"contracts/Exchange.sol\":17726:20912  if (tokens[_tokenIndex].buyBook[priceInWei].offers_length == 1) {... */\n    tag_219:\n        /* \"contracts/Exchange.sol\":17425:20918  function addBuyOffer(uint8 _tokenIndex, uint priceInWei, uint amount, address who) internal {... */\n      pop\n      pop\n      pop\n      pop\n      pop\n      pop\n      pop\n      pop\n      jump\t// out\n        /* \"contracts/Exchange.sol\":29467:33016  function addSellOffer(uint8 _tokenIndex, uint priceInWei, uint amount, address who) internal {... */\n    tag_154:\n        /* \"contracts/Exchange.sol\":30135:30152  uint curSellPrice */\n      0x0\n        /* \"contracts/Exchange.sol\":30202:30223  uint highestSellPrice */\n      dup1\n        /* \"contracts/Exchange.sol\":31725:31739  uint sellPrice */\n      0x0\n        /* \"contracts/Exchange.sol\":31792:31806  bool weFoundIt */\n      dup1\n        /* \"contracts/Exchange.sol\":29570:29576  tokens */\n      0x1\n        /* \"contracts/Exchange.sol\":29570:29589  tokens[_tokenIndex] */\n      0x0\n        /* \"contracts/Exchange.sol\":29577:29588  _tokenIndex */\n      dup10\n        /* \"contracts/Exchange.sol\":29570:29589  tokens[_tokenIndex] */\n      0xff\n      and\n      0xff\n      and\n      dup2\n      mstore\n      0x20\n      add\n      swap1\n      dup2\n      mstore\n      0x20\n      add\n      0x0\n      keccak256\n        /* \"contracts/Exchange.sol\":29570:29598  tokens[_tokenIndex].sellBook */\n      0x6\n      add\n        /* \"contracts/Exchange.sol\":29570:29610  tokens[_tokenIndex].sellBook[priceInWei] */\n      0x0\n        /* \"contracts/Exchange.sol\":29599:29609  priceInWei */\n      dup9\n        /* \"contracts/Exchange.sol\":29570:29610  tokens[_tokenIndex].sellBook[priceInWei] */\n      dup2\n      mstore\n      0x20\n      add\n      swap1\n      dup2\n      mstore\n      0x20\n      add\n      0x0\n      keccak256\n        /* \"contracts/Exchange.sol\":29570:29624  tokens[_tokenIndex].sellBook[priceInWei].offers_length */\n      0x4\n      add\n      0x0\n        /* \"contracts/Exchange.sol\":29570:29626  tokens[_tokenIndex].sellBook[priceInWei].offers_length++ */\n      dup2\n      sload\n      dup1\n      swap3\n      swap2\n      swap1\n      0x1\n      add\n      swap2\n      swap1\n      pop\n      sstore\n      pop\n        /* \"contracts/Exchange.sol\":29742:29760  Offer(amount, who) */\n      0x40\n      dup1\n      mload\n      swap1\n      dup2\n      add\n      0x40\n      mstore\n      dup1\n        /* \"contracts/Exchange.sol\":29748:29754  amount */\n      dup8\n        /* \"contracts/Exchange.sol\":29742:29760  Offer(amount, who) */\n      dup2\n      mstore\n      0x20\n      add\n        /* \"contracts/Exchange.sol\":29756:29759  who */\n      dup7\n        /* \"contracts/Exchange.sol\":29742:29760  Offer(amount, who) */\n      0xffffffffffffffffffffffffffffffffffffffff\n      and\n      dup2\n      mstore\n      pop\n        /* \"contracts/Exchange.sol\":29636:29642  tokens */\n      0x1\n        /* \"contracts/Exchange.sol\":29636:29655  tokens[_tokenIndex] */\n      0x0\n        /* \"contracts/Exchange.sol\":29643:29654  _tokenIndex */\n      dup11\n        /* \"contracts/Exchange.sol\":29636:29655  tokens[_tokenIndex] */\n      0xff\n      and\n      0xff\n      and\n      dup2\n      mstore\n      0x20\n      add\n      swap1\n      dup2\n      mstore\n      0x20\n      add\n      0x0\n      keccak256\n        /* \"contracts/Exchange.sol\":29636:29664  tokens[_tokenIndex].sellBook */\n      0x6\n      add\n        /* \"contracts/Exchange.sol\":29636:29676  tokens[_tokenIndex].sellBook[priceInWei] */\n      0x0\n        /* \"contracts/Exchange.sol\":29665:29675  priceInWei */\n      dup10\n        /* \"contracts/Exchange.sol\":29636:29676  tokens[_tokenIndex].sellBook[priceInWei] */\n      dup2\n      mstore\n      0x20\n      add\n      swap1\n      dup2\n      mstore\n      0x20\n      add\n      0x0\n      keccak256\n        /* \"contracts/Exchange.sol\":29636:29683  tokens[_tokenIndex].sellBook[priceInWei].offers */\n      0x2\n      add\n        /* \"contracts/Exchange.sol\":29636:29739  tokens[_tokenIndex].sellBook[priceInWei].offers[tokens[_tokenIndex].sellBook[priceInWei].offers_length] */\n      0x0\n        /* \"contracts/Exchange.sol\":29684:29690  tokens */\n      0x1\n        /* \"contracts/Exchange.sol\":29684:29703  tokens[_tokenIndex] */\n      0x0\n        /* \"contracts/Exchange.sol\":29691:29702  _tokenIndex */\n      dup13\n        /* \"contracts/Exchange.sol\":29684:29703  tokens[_tokenIndex] */\n      0xff\n      and\n      0xff\n      and\n      dup2\n      mstore\n      0x20\n      add\n      swap1\n      dup2\n      mstore\n      0x20\n      add\n      0x0\n      keccak256\n        /* \"contracts/Exchange.sol\":29684:29712  tokens[_tokenIndex].sellBook */\n      0x6\n      add\n        /* \"contracts/Exchange.sol\":29684:29724  tokens[_tokenIndex].sellBook[priceInWei] */\n      0x0\n        /* \"contracts/Exchange.sol\":29713:29723  priceInWei */\n      dup12\n        /* \"contracts/Exchange.sol\":29684:29724  tokens[_tokenIndex].sellBook[priceInWei] */\n      dup2\n      mstore\n      0x20\n      add\n      swap1\n      dup2\n      mstore\n      0x20\n      add\n      0x0\n      keccak256\n        /* \"contracts/Exchange.sol\":29684:29738  tokens[_tokenIndex].sellBook[priceInWei].offers_length */\n      0x4\n      add\n      sload\n        /* \"contracts/Exchange.sol\":29636:29739  tokens[_tokenIndex].sellBook[priceInWei].offers[tokens[_tokenIndex].sellBook[priceInWei].offers_length] */\n      dup2\n      mstore\n      0x20\n      add\n      swap1\n      dup2\n      mstore\n      0x20\n      add\n      0x0\n      keccak256\n        /* \"contracts/Exchange.sol\":29636:29760  tokens[_tokenIndex].sellBook[priceInWei].offers[tokens[_tokenIndex].sellBook[priceInWei].offers_length] = Offer(amount, who) */\n      0x0\n      dup3\n      add\n      mload\n      dup2\n      0x0\n      add\n      sstore\n      0x20\n      dup3\n      add\n      mload\n      dup2\n      0x1\n      add\n      exp(0x100, 0x0)\n      dup2\n      sload\n      dup2\n      0xffffffffffffffffffffffffffffffffffffffff\n      mul\n      not\n      and\n      swap1\n      dup4\n      0xffffffffffffffffffffffffffffffffffffffff\n      and\n      mul\n      or\n      swap1\n      sstore\n      pop\n      swap1\n      pop\n      pop\n        /* \"contracts/Exchange.sol\":29834:29835  1 */\n      0x1\n        /* \"contracts/Exchange.sol\":29776:29782  tokens */\n      dup1\n        /* \"contracts/Exchange.sol\":29776:29795  tokens[_tokenIndex] */\n      0x0\n        /* \"contracts/Exchange.sol\":29783:29794  _tokenIndex */\n      dup11\n        /* \"contracts/Exchange.sol\":29776:29795  tokens[_tokenIndex] */\n      0xff\n      and\n      0xff\n      and\n      dup2\n      mstore\n      0x20\n      add\n      swap1\n      dup2\n      mstore\n      0x20\n      add\n      0x0\n      keccak256\n        /* \"contracts/Exchange.sol\":29776:29804  tokens[_tokenIndex].sellBook */\n      0x6\n      add\n        /* \"contracts/Exchange.sol\":29776:29816  tokens[_tokenIndex].sellBook[priceInWei] */\n      0x0\n        /* \"contracts/Exchange.sol\":29805:29815  priceInWei */\n      dup10\n        /* \"contracts/Exchange.sol\":29776:29816  tokens[_tokenIndex].sellBook[priceInWei] */\n      dup2\n      mstore\n      0x20\n      add\n      swap1\n      dup2\n      mstore\n      0x20\n      add\n      0x0\n      keccak256\n        /* \"contracts/Exchange.sol\":29776:29830  tokens[_tokenIndex].sellBook[priceInWei].offers_length */\n      0x4\n      add\n      sload\n        /* \"contracts/Exchange.sol\":29776:29835  tokens[_tokenIndex].sellBook[priceInWei].offers_length == 1 */\n      eq\n        /* \"contracts/Exchange.sol\":29772:33010  if (tokens[_tokenIndex].sellBook[priceInWei].offers_length == 1) {... */\n      iszero\n      tag_233\n      jumpi\n        /* \"contracts/Exchange.sol\":29905:29906  1 */\n      0x1\n        /* \"contracts/Exchange.sol\":29851:29857  tokens */\n      dup1\n        /* \"contracts/Exchange.sol\":29851:29870  tokens[_tokenIndex] */\n      0x0\n        /* \"contracts/Exchange.sol\":29858:29869  _tokenIndex */\n      dup11\n        /* \"contracts/Exchange.sol\":29851:29870  tokens[_tokenIndex] */\n      0xff\n      and\n      0xff\n      and\n      dup2\n      mstore\n      0x20\n      add\n      swap1\n      dup2\n      mstore\n      0x20\n      add\n      0x0\n      keccak256\n        /* \"contracts/Exchange.sol\":29851:29879  tokens[_tokenIndex].sellBook */\n      0x6\n      add\n        /* \"contracts/Exchange.sol\":29851:29891  tokens[_tokenIndex].sellBook[priceInWei] */\n      0x0\n        /* \"contracts/Exchange.sol\":29880:29890  priceInWei */\n      dup10\n        /* \"contracts/Exchange.sol\":29851:29891  tokens[_tokenIndex].sellBook[priceInWei] */\n      dup2\n      mstore\n      0x20\n      add\n      swap1\n      dup2\n      mstore\n      0x20\n      add\n      0x0\n      keccak256\n        /* \"contracts/Exchange.sol\":29851:29902  tokens[_tokenIndex].sellBook[priceInWei].offers_key */\n      0x3\n      add\n        /* \"contracts/Exchange.sol\":29851:29906  tokens[_tokenIndex].sellBook[priceInWei].offers_key = 1 */\n      dup2\n      swap1\n      sstore\n      pop\n        /* \"contracts/Exchange.sol\":30026:30032  tokens */\n      0x1\n        /* \"contracts/Exchange.sol\":30026:30045  tokens[_tokenIndex] */\n      0x0\n        /* \"contracts/Exchange.sol\":30033:30044  _tokenIndex */\n      dup10\n        /* \"contracts/Exchange.sol\":30026:30045  tokens[_tokenIndex] */\n      0xff\n      and\n      0xff\n      and\n      dup2\n      mstore\n      0x20\n      add\n      swap1\n      dup2\n      mstore\n      0x20\n      add\n      0x0\n      keccak256\n        /* \"contracts/Exchange.sol\":30026:30062  tokens[_tokenIndex].amountSellPrices */\n      0x9\n      add\n      0x0\n        /* \"contracts/Exchange.sol\":30026:30064  tokens[_tokenIndex].amountSellPrices++ */\n      dup2\n      sload\n      dup1\n      swap3\n      swap2\n      swap1\n      0x1\n      add\n      swap2\n      swap1\n      pop\n      sstore\n      pop\n        /* \"contracts/Exchange.sol\":30155:30161  tokens */\n      0x1\n        /* \"contracts/Exchange.sol\":30155:30174  tokens[_tokenIndex] */\n      0x0\n        /* \"contracts/Exchange.sol\":30162:30173  _tokenIndex */\n      dup10\n        /* \"contracts/Exchange.sol\":30155:30174  tokens[_tokenIndex] */\n      0xff\n      and\n      0xff\n      and\n      dup2\n      mstore\n      0x20\n      add\n      swap1\n      dup2\n      mstore\n      0x20\n      add\n      0x0\n      keccak256\n        /* \"contracts/Exchange.sol\":30155:30187  tokens[_tokenIndex].curSellPrice */\n      0x7\n      add\n      sload\n        /* \"contracts/Exchange.sol\":30135:30187  uint curSellPrice = tokens[_tokenIndex].curSellPrice */\n      swap4\n      pop\n        /* \"contracts/Exchange.sol\":30226:30232  tokens */\n      0x1\n        /* \"contracts/Exchange.sol\":30226:30245  tokens[_tokenIndex] */\n      0x0\n        /* \"contracts/Exchange.sol\":30233:30244  _tokenIndex */\n      dup10\n        /* \"contracts/Exchange.sol\":30226:30245  tokens[_tokenIndex] */\n      0xff\n      and\n      0xff\n      and\n      dup2\n      mstore\n      0x20\n      add\n      swap1\n      dup2\n      mstore\n      0x20\n      add\n      0x0\n      keccak256\n        /* \"contracts/Exchange.sol\":30226:30262  tokens[_tokenIndex].highestSellPrice */\n      0x8\n      add\n      sload\n        /* \"contracts/Exchange.sol\":30202:30262  uint highestSellPrice = tokens[_tokenIndex].highestSellPrice */\n      swap3\n      pop\n        /* \"contracts/Exchange.sol\":30300:30301  0 */\n      0x0\n        /* \"contracts/Exchange.sol\":30280:30296  highestSellPrice */\n      dup4\n        /* \"contracts/Exchange.sol\":30280:30301  highestSellPrice == 0 */\n      eq\n        /* \"contracts/Exchange.sol\":30280:30334  highestSellPrice == 0 || highestSellPrice < priceInWei */\n      dup1\n      tag_234\n      jumpi\n      pop\n        /* \"contracts/Exchange.sol\":30324:30334  priceInWei */\n      dup7\n        /* \"contracts/Exchange.sol\":30305:30321  highestSellPrice */\n      dup4\n        /* \"contracts/Exchange.sol\":30305:30334  highestSellPrice < priceInWei */\n      lt\n        /* \"contracts/Exchange.sol\":30280:30334  highestSellPrice == 0 || highestSellPrice < priceInWei */\n    tag_234:\n        /* \"contracts/Exchange.sol\":30276:33000  if (highestSellPrice == 0 || highestSellPrice < priceInWei) {... */\n      iszero\n      tag_235\n      jumpi\n        /* \"contracts/Exchange.sol\":30374:30375  0 */\n      0x0\n        /* \"contracts/Exchange.sol\":30358:30370  curSellPrice */\n      dup5\n        /* \"contracts/Exchange.sol\":30358:30375  curSellPrice == 0 */\n      eq\n        /* \"contracts/Exchange.sol\":30354:31053  if (curSellPrice == 0) {... */\n      iszero\n      tag_236\n      jumpi\n        /* \"contracts/Exchange.sol\":30511:30521  priceInWei */\n      dup7\n        /* \"contracts/Exchange.sol\":30476:30482  tokens */\n      0x1\n        /* \"contracts/Exchange.sol\":30476:30495  tokens[_tokenIndex] */\n      0x0\n        /* \"contracts/Exchange.sol\":30483:30494  _tokenIndex */\n      dup11\n        /* \"contracts/Exchange.sol\":30476:30495  tokens[_tokenIndex] */\n      0xff\n      and\n      0xff\n      and\n      dup2\n      mstore\n      0x20\n      add\n      swap1\n      dup2\n      mstore\n      0x20\n      add\n      0x0\n      keccak256\n        /* \"contracts/Exchange.sol\":30476:30508  tokens[_tokenIndex].curSellPrice */\n      0x7\n      add\n        /* \"contracts/Exchange.sol\":30476:30521  tokens[_tokenIndex].curSellPrice = priceInWei */\n      dup2\n      swap1\n      sstore\n      pop\n        /* \"contracts/Exchange.sol\":30598:30599  0 */\n      0x0\n        /* \"contracts/Exchange.sol\":30543:30549  tokens */\n      0x1\n        /* \"contracts/Exchange.sol\":30543:30562  tokens[_tokenIndex] */\n      0x0\n        /* \"contracts/Exchange.sol\":30550:30561  _tokenIndex */\n      dup11\n        /* \"contracts/Exchange.sol\":30543:30562  tokens[_tokenIndex] */\n      0xff\n      and\n      0xff\n      and\n      dup2\n      mstore\n      0x20\n      add\n      swap1\n      dup2\n      mstore\n      0x20\n      add\n      0x0\n      keccak256\n        /* \"contracts/Exchange.sol\":30543:30571  tokens[_tokenIndex].sellBook */\n      0x6\n      add\n        /* \"contracts/Exchange.sol\":30543:30583  tokens[_tokenIndex].sellBook[priceInWei] */\n      0x0\n        /* \"contracts/Exchange.sol\":30572:30582  priceInWei */\n      dup10\n        /* \"contracts/Exchange.sol\":30543:30583  tokens[_tokenIndex].sellBook[priceInWei] */\n      dup2\n      mstore\n      0x20\n      add\n      swap1\n      dup2\n      mstore\n      0x20\n      add\n      0x0\n      keccak256\n        /* \"contracts/Exchange.sol\":30543:30595  tokens[_tokenIndex].sellBook[priceInWei].higherPrice */\n      0x0\n      add\n        /* \"contracts/Exchange.sol\":30543:30599  tokens[_tokenIndex].sellBook[priceInWei].higherPrice = 0 */\n      dup2\n      swap1\n      sstore\n      pop\n        /* \"contracts/Exchange.sol\":30675:30676  0 */\n      0x0\n        /* \"contracts/Exchange.sol\":30621:30627  tokens */\n      0x1\n        /* \"contracts/Exchange.sol\":30621:30640  tokens[_tokenIndex] */\n      0x0\n        /* \"contracts/Exchange.sol\":30628:30639  _tokenIndex */\n      dup11\n        /* \"contracts/Exchange.sol\":30621:30640  tokens[_tokenIndex] */\n      0xff\n      and\n      0xff\n      and\n      dup2\n      mstore\n      0x20\n      add\n      swap1\n      dup2\n      mstore\n      0x20\n      add\n      0x0\n      keccak256\n        /* \"contracts/Exchange.sol\":30621:30649  tokens[_tokenIndex].sellBook */\n      0x6\n      add\n        /* \"contracts/Exchange.sol\":30621:30661  tokens[_tokenIndex].sellBook[priceInWei] */\n      0x0\n        /* \"contracts/Exchange.sol\":30650:30660  priceInWei */\n      dup10\n        /* \"contracts/Exchange.sol\":30621:30661  tokens[_tokenIndex].sellBook[priceInWei] */\n      dup2\n      mstore\n      0x20\n      add\n      swap1\n      dup2\n      mstore\n      0x20\n      add\n      0x0\n      keccak256\n        /* \"contracts/Exchange.sol\":30621:30672  tokens[_tokenIndex].sellBook[priceInWei].lowerPrice */\n      0x1\n      add\n        /* \"contracts/Exchange.sol\":30621:30676  tokens[_tokenIndex].sellBook[priceInWei].lowerPrice = 0 */\n      dup2\n      swap1\n      sstore\n      pop\n        /* \"contracts/Exchange.sol\":30354:31053  if (curSellPrice == 0) {... */\n      jump(tag_237)\n    tag_236:\n        /* \"contracts/Exchange.sol\":30854:30864  priceInWei */\n      dup7\n        /* \"contracts/Exchange.sol\":30793:30799  tokens */\n      0x1\n        /* \"contracts/Exchange.sol\":30793:30812  tokens[_tokenIndex] */\n      0x0\n        /* \"contracts/Exchange.sol\":30800:30811  _tokenIndex */\n      dup11\n        /* \"contracts/Exchange.sol\":30793:30812  tokens[_tokenIndex] */\n      0xff\n      and\n      0xff\n      and\n      dup2\n      mstore\n      0x20\n      add\n      swap1\n      dup2\n      mstore\n      0x20\n      add\n      0x0\n      keccak256\n        /* \"contracts/Exchange.sol\":30793:30821  tokens[_tokenIndex].sellBook */\n      0x6\n      add\n        /* \"contracts/Exchange.sol\":30793:30839  tokens[_tokenIndex].sellBook[highestSellPrice] */\n      0x0\n        /* \"contracts/Exchange.sol\":30822:30838  highestSellPrice */\n      dup6\n        /* \"contracts/Exchange.sol\":30793:30839  tokens[_tokenIndex].sellBook[highestSellPrice] */\n      dup2\n      mstore\n      0x20\n      add\n      swap1\n      dup2\n      mstore\n      0x20\n      add\n      0x0\n      keccak256\n        /* \"contracts/Exchange.sol\":30793:30851  tokens[_tokenIndex].sellBook[highestSellPrice].higherPrice */\n      0x0\n      add\n        /* \"contracts/Exchange.sol\":30793:30864  tokens[_tokenIndex].sellBook[highestSellPrice].higherPrice = priceInWei */\n      dup2\n      swap1\n      sstore\n      pop\n        /* \"contracts/Exchange.sol\":30940:30956  highestSellPrice */\n      dup3\n        /* \"contracts/Exchange.sol\":30886:30892  tokens */\n      0x1\n        /* \"contracts/Exchange.sol\":30886:30905  tokens[_tokenIndex] */\n      0x0\n        /* \"contracts/Exchange.sol\":30893:30904  _tokenIndex */\n      dup11\n        /* \"contracts/Exchange.sol\":30886:30905  tokens[_tokenIndex] */\n      0xff\n      and\n      0xff\n      and\n      dup2\n      mstore\n      0x20\n      add\n      swap1\n      dup2\n      mstore\n      0x20\n      add\n      0x0\n      keccak256\n        /* \"contracts/Exchange.sol\":30886:30914  tokens[_tokenIndex].sellBook */\n      0x6\n      add\n        /* \"contracts/Exchange.sol\":30886:30926  tokens[_tokenIndex].sellBook[priceInWei] */\n      0x0\n        /* \"contracts/Exchange.sol\":30915:30925  priceInWei */\n      dup10\n        /* \"contracts/Exchange.sol\":30886:30926  tokens[_tokenIndex].sellBook[priceInWei] */\n      dup2\n      mstore\n      0x20\n      add\n      swap1\n      dup2\n      mstore\n      0x20\n      add\n      0x0\n      keccak256\n        /* \"contracts/Exchange.sol\":30886:30937  tokens[_tokenIndex].sellBook[priceInWei].lowerPrice */\n      0x1\n      add\n        /* \"contracts/Exchange.sol\":30886:30956  tokens[_tokenIndex].sellBook[priceInWei].lowerPrice = highestSellPrice */\n      dup2\n      swap1\n      sstore\n      pop\n        /* \"contracts/Exchange.sol\":31033:31034  0 */\n      0x0\n        /* \"contracts/Exchange.sol\":30978:30984  tokens */\n      0x1\n        /* \"contracts/Exchange.sol\":30978:30997  tokens[_tokenIndex] */\n      0x0\n        /* \"contracts/Exchange.sol\":30985:30996  _tokenIndex */\n      dup11\n        /* \"contracts/Exchange.sol\":30978:30997  tokens[_tokenIndex] */\n      0xff\n      and\n      0xff\n      and\n      dup2\n      mstore\n      0x20\n      add\n      swap1\n      dup2\n      mstore\n      0x20\n      add\n      0x0\n      keccak256\n        /* \"contracts/Exchange.sol\":30978:31006  tokens[_tokenIndex].sellBook */\n      0x6\n      add\n        /* \"contracts/Exchange.sol\":30978:31018  tokens[_tokenIndex].sellBook[priceInWei] */\n      0x0\n        /* \"contracts/Exchange.sol\":31007:31017  priceInWei */\n      dup10\n        /* \"contracts/Exchange.sol\":30978:31018  tokens[_tokenIndex].sellBook[priceInWei] */\n      dup2\n      mstore\n      0x20\n      add\n      swap1\n      dup2\n      mstore\n      0x20\n      add\n      0x0\n      keccak256\n        /* \"contracts/Exchange.sol\":30978:31030  tokens[_tokenIndex].sellBook[priceInWei].higherPrice */\n      0x0\n      add\n        /* \"contracts/Exchange.sol\":30978:31034  tokens[_tokenIndex].sellBook[priceInWei].higherPrice = 0 */\n      dup2\n      swap1\n      sstore\n      pop\n        /* \"contracts/Exchange.sol\":30354:31053  if (curSellPrice == 0) {... */\n    tag_237:\n        /* \"contracts/Exchange.sol\":31110:31120  priceInWei */\n      dup7\n        /* \"contracts/Exchange.sol\":31071:31077  tokens */\n      0x1\n        /* \"contracts/Exchange.sol\":31071:31090  tokens[_tokenIndex] */\n      0x0\n        /* \"contracts/Exchange.sol\":31078:31089  _tokenIndex */\n      dup11\n        /* \"contracts/Exchange.sol\":31071:31090  tokens[_tokenIndex] */\n      0xff\n      and\n      0xff\n      and\n      dup2\n      mstore\n      0x20\n      add\n      swap1\n      dup2\n      mstore\n      0x20\n      add\n      0x0\n      keccak256\n        /* \"contracts/Exchange.sol\":31071:31107  tokens[_tokenIndex].highestSellPrice */\n      0x8\n      add\n        /* \"contracts/Exchange.sol\":31071:31120  tokens[_tokenIndex].highestSellPrice = priceInWei */\n      dup2\n      swap1\n      sstore\n      pop\n        /* \"contracts/Exchange.sol\":30276:33000  if (highestSellPrice == 0 || highestSellPrice < priceInWei) {... */\n      jump(tag_238)\n    tag_235:\n        /* \"contracts/Exchange.sol\":31173:31183  priceInWei */\n      dup7\n        /* \"contracts/Exchange.sol\":31158:31170  curSellPrice */\n      dup5\n        /* \"contracts/Exchange.sol\":31158:31183  curSellPrice > priceInWei */\n      gt\n        /* \"contracts/Exchange.sol\":31154:33000  if (curSellPrice > priceInWei) {... */\n      iszero\n      tag_239\n      jumpi\n        /* \"contracts/Exchange.sol\":31351:31361  priceInWei */\n      dup7\n        /* \"contracts/Exchange.sol\":31295:31301  tokens */\n      0x1\n        /* \"contracts/Exchange.sol\":31295:31314  tokens[_tokenIndex] */\n      0x0\n        /* \"contracts/Exchange.sol\":31302:31313  _tokenIndex */\n      dup11\n        /* \"contracts/Exchange.sol\":31295:31314  tokens[_tokenIndex] */\n      0xff\n      and\n      0xff\n      and\n      dup2\n      mstore\n      0x20\n      add\n      swap1\n      dup2\n      mstore\n      0x20\n      add\n      0x0\n      keccak256\n        /* \"contracts/Exchange.sol\":31295:31323  tokens[_tokenIndex].sellBook */\n      0x6\n      add\n        /* \"contracts/Exchange.sol\":31295:31337  tokens[_tokenIndex].sellBook[curSellPrice] */\n      0x0\n        /* \"contracts/Exchange.sol\":31324:31336  curSellPrice */\n      dup7\n        /* \"contracts/Exchange.sol\":31295:31337  tokens[_tokenIndex].sellBook[curSellPrice] */\n      dup2\n      mstore\n      0x20\n      add\n      swap1\n      dup2\n      mstore\n      0x20\n      add\n      0x0\n      keccak256\n        /* \"contracts/Exchange.sol\":31295:31348  tokens[_tokenIndex].sellBook[curSellPrice].lowerPrice */\n      0x1\n      add\n        /* \"contracts/Exchange.sol\":31295:31361  tokens[_tokenIndex].sellBook[curSellPrice].lowerPrice = priceInWei */\n      dup2\n      swap1\n      sstore\n      pop\n        /* \"contracts/Exchange.sol\":31434:31446  curSellPrice */\n      dup4\n        /* \"contracts/Exchange.sol\":31379:31385  tokens */\n      0x1\n        /* \"contracts/Exchange.sol\":31379:31398  tokens[_tokenIndex] */\n      0x0\n        /* \"contracts/Exchange.sol\":31386:31397  _tokenIndex */\n      dup11\n        /* \"contracts/Exchange.sol\":31379:31398  tokens[_tokenIndex] */\n      0xff\n      and\n      0xff\n      and\n      dup2\n      mstore\n      0x20\n      add\n      swap1\n      dup2\n      mstore\n      0x20\n      add\n      0x0\n      keccak256\n        /* \"contracts/Exchange.sol\":31379:31407  tokens[_tokenIndex].sellBook */\n      0x6\n      add\n        /* \"contracts/Exchange.sol\":31379:31419  tokens[_tokenIndex].sellBook[priceInWei] */\n      0x0\n        /* \"contracts/Exchange.sol\":31408:31418  priceInWei */\n      dup10\n        /* \"contracts/Exchange.sol\":31379:31419  tokens[_tokenIndex].sellBook[priceInWei] */\n      dup2\n      mstore\n      0x20\n      add\n      swap1\n      dup2\n      mstore\n      0x20\n      add\n      0x0\n      keccak256\n        /* \"contracts/Exchange.sol\":31379:31431  tokens[_tokenIndex].sellBook[priceInWei].higherPrice */\n      0x0\n      add\n        /* \"contracts/Exchange.sol\":31379:31446  tokens[_tokenIndex].sellBook[priceInWei].higherPrice = curSellPrice */\n      dup2\n      swap1\n      sstore\n      pop\n        /* \"contracts/Exchange.sol\":31518:31519  0 */\n      0x0\n        /* \"contracts/Exchange.sol\":31464:31470  tokens */\n      0x1\n        /* \"contracts/Exchange.sol\":31464:31483  tokens[_tokenIndex] */\n      0x0\n        /* \"contracts/Exchange.sol\":31471:31482  _tokenIndex */\n      dup11\n        /* \"contracts/Exchange.sol\":31464:31483  tokens[_tokenIndex] */\n      0xff\n      and\n      0xff\n      and\n      dup2\n      mstore\n      0x20\n      add\n      swap1\n      dup2\n      mstore\n      0x20\n      add\n      0x0\n      keccak256\n        /* \"contracts/Exchange.sol\":31464:31492  tokens[_tokenIndex].sellBook */\n      0x6\n      add\n        /* \"contracts/Exchange.sol\":31464:31504  tokens[_tokenIndex].sellBook[priceInWei] */\n      0x0\n        /* \"contracts/Exchange.sol\":31493:31503  priceInWei */\n      dup10\n        /* \"contracts/Exchange.sol\":31464:31504  tokens[_tokenIndex].sellBook[priceInWei] */\n      dup2\n      mstore\n      0x20\n      add\n      swap1\n      dup2\n      mstore\n      0x20\n      add\n      0x0\n      keccak256\n        /* \"contracts/Exchange.sol\":31464:31515  tokens[_tokenIndex].sellBook[priceInWei].lowerPrice */\n      0x1\n      add\n        /* \"contracts/Exchange.sol\":31464:31519  tokens[_tokenIndex].sellBook[priceInWei].lowerPrice = 0 */\n      dup2\n      swap1\n      sstore\n      pop\n        /* \"contracts/Exchange.sol\":31572:31582  priceInWei */\n      dup7\n        /* \"contracts/Exchange.sol\":31537:31543  tokens */\n      0x1\n        /* \"contracts/Exchange.sol\":31537:31556  tokens[_tokenIndex] */\n      0x0\n        /* \"contracts/Exchange.sol\":31544:31555  _tokenIndex */\n      dup11\n        /* \"contracts/Exchange.sol\":31537:31556  tokens[_tokenIndex] */\n      0xff\n      and\n      0xff\n      and\n      dup2\n      mstore\n      0x20\n      add\n      swap1\n      dup2\n      mstore\n      0x20\n      add\n      0x0\n      keccak256\n        /* \"contracts/Exchange.sol\":31537:31569  tokens[_tokenIndex].curSellPrice */\n      0x7\n      add\n        /* \"contracts/Exchange.sol\":31537:31582  tokens[_tokenIndex].curSellPrice = priceInWei */\n      dup2\n      swap1\n      sstore\n      pop\n        /* \"contracts/Exchange.sol\":31154:33000  if (curSellPrice > priceInWei) {... */\n      jump(tag_240)\n    tag_239:\n        /* \"contracts/Exchange.sol\":31742:31748  tokens */\n      0x1\n        /* \"contracts/Exchange.sol\":31742:31761  tokens[_tokenIndex] */\n      0x0\n        /* \"contracts/Exchange.sol\":31749:31760  _tokenIndex */\n      dup10\n        /* \"contracts/Exchange.sol\":31742:31761  tokens[_tokenIndex] */\n      0xff\n      and\n      0xff\n      and\n      dup2\n      mstore\n      0x20\n      add\n      swap1\n      dup2\n      mstore\n      0x20\n      add\n      0x0\n      keccak256\n        /* \"contracts/Exchange.sol\":31742:31774  tokens[_tokenIndex].curSellPrice */\n      0x7\n      add\n      sload\n        /* \"contracts/Exchange.sol\":31725:31774  uint sellPrice = tokens[_tokenIndex].curSellPrice */\n      swap2\n      pop\n        /* \"contracts/Exchange.sol\":31809:31814  false */\n      0x0\n        /* \"contracts/Exchange.sol\":31792:31814  bool weFoundIt = false */\n      swap1\n      pop\n        /* \"contracts/Exchange.sol\":31832:32986  while (sellPrice > 0 && !weFoundIt) {... */\n    tag_241:\n        /* \"contracts/Exchange.sol\":31851:31852  0 */\n      0x0\n        /* \"contracts/Exchange.sol\":31839:31848  sellPrice */\n      dup3\n        /* \"contracts/Exchange.sol\":31839:31852  sellPrice > 0 */\n      gt\n        /* \"contracts/Exchange.sol\":31839:31866  sellPrice > 0 && !weFoundIt */\n      dup1\n      iszero\n      tag_243\n      jumpi\n      pop\n        /* \"contracts/Exchange.sol\":31857:31866  weFoundIt */\n      dup1\n        /* \"contracts/Exchange.sol\":31856:31866  !weFoundIt */\n      iszero\n        /* \"contracts/Exchange.sol\":31839:31866  sellPrice > 0 && !weFoundIt */\n    tag_243:\n        /* \"contracts/Exchange.sol\":31832:32986  while (sellPrice > 0 && !weFoundIt) {... */\n      iszero\n      tag_242\n      jumpi\n        /* \"contracts/Exchange.sol\":31927:31937  priceInWei */\n      dup7\n        /* \"contracts/Exchange.sol\":31915:31924  sellPrice */\n      dup3\n        /* \"contracts/Exchange.sol\":31915:31937  sellPrice < priceInWei */\n      lt\n        /* \"contracts/Exchange.sol\":31915:32025  sellPrice < priceInWei &&... */\n      dup1\n      iszero\n      tag_244\n      jumpi\n      pop\n        /* \"contracts/Exchange.sol\":32015:32025  priceInWei */\n      dup7\n        /* \"contracts/Exchange.sol\":31961:31967  tokens */\n      0x1\n        /* \"contracts/Exchange.sol\":31961:31980  tokens[_tokenIndex] */\n      0x0\n        /* \"contracts/Exchange.sol\":31968:31979  _tokenIndex */\n      dup11\n        /* \"contracts/Exchange.sol\":31961:31980  tokens[_tokenIndex] */\n      0xff\n      and\n      0xff\n      and\n      dup2\n      mstore\n      0x20\n      add\n      swap1\n      dup2\n      mstore\n      0x20\n      add\n      0x0\n      keccak256\n        /* \"contracts/Exchange.sol\":31961:31989  tokens[_tokenIndex].sellBook */\n      0x6\n      add\n        /* \"contracts/Exchange.sol\":31961:32000  tokens[_tokenIndex].sellBook[sellPrice] */\n      0x0\n        /* \"contracts/Exchange.sol\":31990:31999  sellPrice */\n      dup5\n        /* \"contracts/Exchange.sol\":31961:32000  tokens[_tokenIndex].sellBook[sellPrice] */\n      dup2\n      mstore\n      0x20\n      add\n      swap1\n      dup2\n      mstore\n      0x20\n      add\n      0x0\n      keccak256\n        /* \"contracts/Exchange.sol\":31961:32012  tokens[_tokenIndex].sellBook[sellPrice].higherPrice */\n      0x0\n      add\n      sload\n        /* \"contracts/Exchange.sol\":31961:32025  tokens[_tokenIndex].sellBook[sellPrice].higherPrice > priceInWei */\n      gt\n        /* \"contracts/Exchange.sol\":31915:32025  sellPrice < priceInWei &&... */\n    tag_244:\n        /* \"contracts/Exchange.sol\":31890:32883  if (... */\n      iszero\n      tag_245\n      jumpi\n        /* \"contracts/Exchange.sol\":32213:32222  sellPrice */\n      dup2\n        /* \"contracts/Exchange.sol\":32159:32165  tokens */\n      0x1\n        /* \"contracts/Exchange.sol\":32159:32178  tokens[_tokenIndex] */\n      0x0\n        /* \"contracts/Exchange.sol\":32166:32177  _tokenIndex */\n      dup11\n        /* \"contracts/Exchange.sol\":32159:32178  tokens[_tokenIndex] */\n      0xff\n      and\n      0xff\n      and\n      dup2\n      mstore\n      0x20\n      add\n      swap1\n      dup2\n      mstore\n      0x20\n      add\n      0x0\n      keccak256\n        /* \"contracts/Exchange.sol\":32159:32187  tokens[_tokenIndex].sellBook */\n      0x6\n      add\n        /* \"contracts/Exchange.sol\":32159:32199  tokens[_tokenIndex].sellBook[priceInWei] */\n      0x0\n        /* \"contracts/Exchange.sol\":32188:32198  priceInWei */\n      dup10\n        /* \"contracts/Exchange.sol\":32159:32199  tokens[_tokenIndex].sellBook[priceInWei] */\n      dup2\n      mstore\n      0x20\n      add\n      swap1\n      dup2\n      mstore\n      0x20\n      add\n      0x0\n      keccak256\n        /* \"contracts/Exchange.sol\":32159:32210  tokens[_tokenIndex].sellBook[priceInWei].lowerPrice */\n      0x1\n      add\n        /* \"contracts/Exchange.sol\":32159:32222  tokens[_tokenIndex].sellBook[priceInWei].lowerPrice = sellPrice */\n      dup2\n      swap1\n      sstore\n      pop\n        /* \"contracts/Exchange.sol\":32303:32309  tokens */\n      0x1\n        /* \"contracts/Exchange.sol\":32303:32322  tokens[_tokenIndex] */\n      0x0\n        /* \"contracts/Exchange.sol\":32310:32321  _tokenIndex */\n      dup10\n        /* \"contracts/Exchange.sol\":32303:32322  tokens[_tokenIndex] */\n      0xff\n      and\n      0xff\n      and\n      dup2\n      mstore\n      0x20\n      add\n      swap1\n      dup2\n      mstore\n      0x20\n      add\n      0x0\n      keccak256\n        /* \"contracts/Exchange.sol\":32303:32331  tokens[_tokenIndex].sellBook */\n      0x6\n      add\n        /* \"contracts/Exchange.sol\":32303:32342  tokens[_tokenIndex].sellBook[sellPrice] */\n      0x0\n        /* \"contracts/Exchange.sol\":32332:32341  sellPrice */\n      dup4\n        /* \"contracts/Exchange.sol\":32303:32342  tokens[_tokenIndex].sellBook[sellPrice] */\n      dup2\n      mstore\n      0x20\n      add\n      swap1\n      dup2\n      mstore\n      0x20\n      add\n      0x0\n      keccak256\n        /* \"contracts/Exchange.sol\":32303:32354  tokens[_tokenIndex].sellBook[sellPrice].higherPrice */\n      0x0\n      add\n      sload\n        /* \"contracts/Exchange.sol\":32248:32254  tokens */\n      0x1\n        /* \"contracts/Exchange.sol\":32248:32267  tokens[_tokenIndex] */\n      0x0\n        /* \"contracts/Exchange.sol\":32255:32266  _tokenIndex */\n      dup11\n        /* \"contracts/Exchange.sol\":32248:32267  tokens[_tokenIndex] */\n      0xff\n      and\n      0xff\n      and\n      dup2\n      mstore\n      0x20\n      add\n      swap1\n      dup2\n      mstore\n      0x20\n      add\n      0x0\n      keccak256\n        /* \"contracts/Exchange.sol\":32248:32276  tokens[_tokenIndex].sellBook */\n      0x6\n      add\n        /* \"contracts/Exchange.sol\":32248:32288  tokens[_tokenIndex].sellBook[priceInWei] */\n      0x0\n        /* \"contracts/Exchange.sol\":32277:32287  priceInWei */\n      dup10\n        /* \"contracts/Exchange.sol\":32248:32288  tokens[_tokenIndex].sellBook[priceInWei] */\n      dup2\n      mstore\n      0x20\n      add\n      swap1\n      dup2\n      mstore\n      0x20\n      add\n      0x0\n      keccak256\n        /* \"contracts/Exchange.sol\":32248:32300  tokens[_tokenIndex].sellBook[priceInWei].higherPrice */\n      0x0\n      add\n        /* \"contracts/Exchange.sol\":32248:32354  tokens[_tokenIndex].sellBook[priceInWei].higherPrice = tokens[_tokenIndex].sellBook[sellPrice].higherPrice */\n      dup2\n      swap1\n      sstore\n      pop\n        /* \"contracts/Exchange.sol\":32575:32585  priceInWei */\n      dup7\n        /* \"contracts/Exchange.sol\":32480:32486  tokens */\n      0x1\n        /* \"contracts/Exchange.sol\":32480:32499  tokens[_tokenIndex] */\n      0x0\n        /* \"contracts/Exchange.sol\":32487:32498  _tokenIndex */\n      dup11\n        /* \"contracts/Exchange.sol\":32480:32499  tokens[_tokenIndex] */\n      0xff\n      and\n      0xff\n      and\n      dup2\n      mstore\n      0x20\n      add\n      swap1\n      dup2\n      mstore\n      0x20\n      add\n      0x0\n      keccak256\n        /* \"contracts/Exchange.sol\":32480:32508  tokens[_tokenIndex].sellBook */\n      0x6\n      add\n        /* \"contracts/Exchange.sol\":32480:32561  tokens[_tokenIndex].sellBook[tokens[_tokenIndex].sellBook[sellPrice].higherPrice] */\n      0x0\n        /* \"contracts/Exchange.sol\":32509:32515  tokens */\n      0x1\n        /* \"contracts/Exchange.sol\":32509:32528  tokens[_tokenIndex] */\n      0x0\n        /* \"contracts/Exchange.sol\":32516:32527  _tokenIndex */\n      dup13\n        /* \"contracts/Exchange.sol\":32509:32528  tokens[_tokenIndex] */\n      0xff\n      and\n      0xff\n      and\n      dup2\n      mstore\n      0x20\n      add\n      swap1\n      dup2\n      mstore\n      0x20\n      add\n      0x0\n      keccak256\n        /* \"contracts/Exchange.sol\":32509:32537  tokens[_tokenIndex].sellBook */\n      0x6\n      add\n        /* \"contracts/Exchange.sol\":32509:32548  tokens[_tokenIndex].sellBook[sellPrice] */\n      0x0\n        /* \"contracts/Exchange.sol\":32538:32547  sellPrice */\n      dup7\n        /* \"contracts/Exchange.sol\":32509:32548  tokens[_tokenIndex].sellBook[sellPrice] */\n      dup2\n      mstore\n      0x20\n      add\n      swap1\n      dup2\n      mstore\n      0x20\n      add\n      0x0\n      keccak256\n        /* \"contracts/Exchange.sol\":32509:32560  tokens[_tokenIndex].sellBook[sellPrice].higherPrice */\n      0x0\n      add\n      sload\n        /* \"contracts/Exchange.sol\":32480:32561  tokens[_tokenIndex].sellBook[tokens[_tokenIndex].sellBook[sellPrice].higherPrice] */\n      dup2\n      mstore\n      0x20\n      add\n      swap1\n      dup2\n      mstore\n      0x20\n      add\n      0x0\n      keccak256\n        /* \"contracts/Exchange.sol\":32480:32572  tokens[_tokenIndex].sellBook[tokens[_tokenIndex].sellBook[sellPrice].higherPrice].lowerPrice */\n      0x1\n      add\n        /* \"contracts/Exchange.sol\":32480:32585  tokens[_tokenIndex].sellBook[tokens[_tokenIndex].sellBook[sellPrice].higherPrice].lowerPrice = priceInWei */\n      dup2\n      swap1\n      sstore\n      pop\n        /* \"contracts/Exchange.sol\":32764:32774  priceInWei */\n      dup7\n        /* \"contracts/Exchange.sol\":32710:32716  tokens */\n      0x1\n        /* \"contracts/Exchange.sol\":32710:32729  tokens[_tokenIndex] */\n      0x0\n        /* \"contracts/Exchange.sol\":32717:32728  _tokenIndex */\n      dup11\n        /* \"contracts/Exchange.sol\":32710:32729  tokens[_tokenIndex] */\n      0xff\n      and\n      0xff\n      and\n      dup2\n      mstore\n      0x20\n      add\n      swap1\n      dup2\n      mstore\n      0x20\n      add\n      0x0\n      keccak256\n        /* \"contracts/Exchange.sol\":32710:32738  tokens[_tokenIndex].sellBook */\n      0x6\n      add\n        /* \"contracts/Exchange.sol\":32710:32749  tokens[_tokenIndex].sellBook[sellPrice] */\n      0x0\n        /* \"contracts/Exchange.sol\":32739:32748  sellPrice */\n      dup5\n        /* \"contracts/Exchange.sol\":32710:32749  tokens[_tokenIndex].sellBook[sellPrice] */\n      dup2\n      mstore\n      0x20\n      add\n      swap1\n      dup2\n      mstore\n      0x20\n      add\n      0x0\n      keccak256\n        /* \"contracts/Exchange.sol\":32710:32761  tokens[_tokenIndex].sellBook[sellPrice].higherPrice */\n      0x0\n      add\n        /* \"contracts/Exchange.sol\":32710:32774  tokens[_tokenIndex].sellBook[sellPrice].higherPrice = priceInWei */\n      dup2\n      swap1\n      sstore\n      pop\n        /* \"contracts/Exchange.sol\":32856:32860  true */\n      0x1\n        /* \"contracts/Exchange.sol\":32844:32860  weFoundIt = true */\n      swap1\n      pop\n        /* \"contracts/Exchange.sol\":31890:32883  if (... */\n    tag_245:\n        /* \"contracts/Exchange.sol\":32916:32922  tokens */\n      0x1\n        /* \"contracts/Exchange.sol\":32916:32935  tokens[_tokenIndex] */\n      0x0\n        /* \"contracts/Exchange.sol\":32923:32934  _tokenIndex */\n      dup10\n        /* \"contracts/Exchange.sol\":32916:32935  tokens[_tokenIndex] */\n      0xff\n      and\n      0xff\n      and\n      dup2\n      mstore\n      0x20\n      add\n      swap1\n      dup2\n      mstore\n      0x20\n      add\n      0x0\n      keccak256\n        /* \"contracts/Exchange.sol\":32916:32944  tokens[_tokenIndex].sellBook */\n      0x6\n      add\n        /* \"contracts/Exchange.sol\":32916:32955  tokens[_tokenIndex].sellBook[sellPrice] */\n      0x0\n        /* \"contracts/Exchange.sol\":32945:32954  sellPrice */\n      dup4\n        /* \"contracts/Exchange.sol\":32916:32955  tokens[_tokenIndex].sellBook[sellPrice] */\n      dup2\n      mstore\n      0x20\n      add\n      swap1\n      dup2\n      mstore\n      0x20\n      add\n      0x0\n      keccak256\n        /* \"contracts/Exchange.sol\":32916:32967  tokens[_tokenIndex].sellBook[sellPrice].higherPrice */\n      0x0\n      add\n      sload\n        /* \"contracts/Exchange.sol\":32904:32967  sellPrice = tokens[_tokenIndex].sellBook[sellPrice].higherPrice */\n      swap2\n      pop\n        /* \"contracts/Exchange.sol\":31832:32986  while (sellPrice > 0 && !weFoundIt) {... */\n      jump(tag_241)\n    tag_242:\n        /* \"contracts/Exchange.sol\":31154:33000  if (curSellPrice > priceInWei) {... */\n    tag_240:\n        /* \"contracts/Exchange.sol\":30276:33000  if (highestSellPrice == 0 || highestSellPrice < priceInWei) {... */\n    tag_238:\n        /* \"contracts/Exchange.sol\":29772:33010  if (tokens[_tokenIndex].sellBook[priceInWei].offers_length == 1) {... */\n    tag_233:\n        /* \"contracts/Exchange.sol\":29467:33016  function addSellOffer(uint8 _tokenIndex, uint priceInWei, uint amount, address who) internal {... */\n      pop\n      pop\n      pop\n      pop\n      pop\n      pop\n      pop\n      pop\n      jump\t// out\n        /* \"contracts/Exchange.sol\":3871:4135  function getSymbolIndex(string symbolName) internal view returns (uint8) {... */\n    tag_182:\n        /* \"contracts/Exchange.sol\":3937:3942  uint8 */\n      0x0\n        /* \"contracts/Exchange.sol\":3959:3966  uint8 i */\n      dup1\n        /* \"contracts/Exchange.sol\":3969:3970  1 */\n      0x1\n        /* \"contracts/Exchange.sol\":3959:3970  uint8 i = 1 */\n      swap1\n      pop\n        /* \"contracts/Exchange.sol\":3954:4111  for (uint8 i = 1; i <= tokenIndex; i++) {... */\n    tag_247:\n        /* \"contracts/Exchange.sol\":3977:3987  tokenIndex */\n      0x2\n      0x0\n      swap1\n      sload\n      swap1\n      0x100\n      exp\n      swap1\n      div\n      0xff\n      and\n        /* \"contracts/Exchange.sol\":3972:3987  i <= tokenIndex */\n      0xff\n      and\n        /* \"contracts/Exchange.sol\":3972:3973  i */\n      dup2\n        /* \"contracts/Exchange.sol\":3972:3987  i <= tokenIndex */\n      0xff\n      and\n      gt\n      iszero\n        /* \"contracts/Exchange.sol\":3954:4111  for (uint8 i = 1; i <= tokenIndex; i++) {... */\n      iszero\n      tag_248\n      jumpi\n        /* \"contracts/Exchange.sol\":4012:4058  stringsEqual(tokens[i].symbolName, symbolName) */\n      tag_250\n        /* \"contracts/Exchange.sol\":4025:4031  tokens */\n      0x1\n        /* \"contracts/Exchange.sol\":4025:4034  tokens[i] */\n      0x0\n        /* \"contracts/Exchange.sol\":4032:4033  i */\n      dup4\n        /* \"contracts/Exchange.sol\":4025:4034  tokens[i] */\n      0xff\n      and\n      0xff\n      and\n      dup2\n      mstore\n      0x20\n      add\n      swap1\n      dup2\n      mstore\n      0x20\n      add\n      0x0\n      keccak256\n        /* \"contracts/Exchange.sol\":4025:4045  tokens[i].symbolName */\n      0x1\n      add\n        /* \"contracts/Exchange.sol\":4012:4058  stringsEqual(tokens[i].symbolName, symbolName) */\n      dup1\n      sload\n      0x1\n      dup2\n      0x1\n      and\n      iszero\n      0x100\n      mul\n      sub\n      and\n      0x2\n      swap1\n      div\n      dup1\n      0x1f\n      add\n      0x20\n      dup1\n      swap2\n      div\n      mul\n      0x20\n      add\n      mload(0x40)\n      swap1\n      dup2\n      add\n      0x40\n      mstore\n      dup1\n      swap3\n      swap2\n      swap1\n      dup2\n      dup2\n      mstore\n      0x20\n      add\n      dup3\n      dup1\n      sload\n      0x1\n      dup2\n      0x1\n      and\n      iszero\n      0x100\n      mul\n      sub\n      and\n      0x2\n      swap1\n      div\n      dup1\n      iszero\n      tag_251\n      jumpi\n      dup1\n      0x1f\n      lt\n      tag_252\n      jumpi\n      0x100\n      dup1\n      dup4\n      sload\n      div\n      mul\n      dup4\n      mstore\n      swap2\n      0x20\n      add\n      swap2\n      jump(tag_251)\n    tag_252:\n      dup3\n      add\n      swap2\n      swap1\n      0x0\n      mstore\n      keccak256(0x0, 0x20)\n      swap1\n    tag_253:\n      dup2\n      sload\n      dup2\n      mstore\n      swap1\n      0x1\n      add\n      swap1\n      0x20\n      add\n      dup1\n      dup4\n      gt\n      tag_253\n      jumpi\n      dup3\n      swap1\n      sub\n      0x1f\n      and\n      dup3\n      add\n      swap2\n    tag_251:\n      pop\n      pop\n      pop\n      pop\n      pop\n        /* \"contracts/Exchange.sol\":4047:4057  symbolName */\n      dup5\n        /* \"contracts/Exchange.sol\":4012:4024  stringsEqual */\n      tag_254\n        /* \"contracts/Exchange.sol\":4012:4058  stringsEqual(tokens[i].symbolName, symbolName) */\n      jump\t// in\n    tag_250:\n        /* \"contracts/Exchange.sol\":4008:4101  if (stringsEqual(tokens[i].symbolName, symbolName)) {... */\n      iszero\n      tag_255\n      jumpi\n        /* \"contracts/Exchange.sol\":4085:4086  i */\n      dup1\n        /* \"contracts/Exchange.sol\":4078:4086  return i */\n      swap2\n      pop\n      jump(tag_246)\n        /* \"contracts/Exchange.sol\":4008:4101  if (stringsEqual(tokens[i].symbolName, symbolName)) {... */\n    tag_255:\n        /* \"contracts/Exchange.sol\":3989:3992  i++ */\n      dup1\n      dup1\n      0x1\n      add\n      swap2\n      pop\n      pop\n        /* \"contracts/Exchange.sol\":3954:4111  for (uint8 i = 1; i <= tokenIndex; i++) {... */\n      jump(tag_247)\n    tag_248:\n        /* \"contracts/Exchange.sol\":4127:4128  0 */\n      0x0\n        /* \"contracts/Exchange.sol\":4120:4128  return 0 */\n      swap2\n      pop\n        /* \"contracts/Exchange.sol\":3871:4135  function getSymbolIndex(string symbolName) internal view returns (uint8) {... */\n    tag_246:\n      pop\n      swap2\n      swap1\n      pop\n      jump\t// out\n        /* \"contracts/Exchange.sol\":34622:34749  function stringsEqual(string _a, string _b) internal pure returns (bool) {... */\n    tag_254:\n        /* \"contracts/Exchange.sol\":34689:34693  bool */\n      0x0\n        /* \"contracts/Exchange.sol\":34739:34741  _b */\n      dup2\n        /* \"contracts/Exchange.sol\":34729:34742  keccak256(_b) */\n      mload(0x40)\n      dup1\n      dup3\n      dup1\n      mload\n      swap1\n      0x20\n      add\n      swap1\n      dup1\n      dup4\n      dup4\n        /* \"--CODEGEN--\":36:189   */\n    tag_257:\n        /* \"--CODEGEN--\":66:68   */\n      0x20\n        /* \"--CODEGEN--\":61:64   */\n      dup4\n        /* \"--CODEGEN--\":58:69   */\n      lt\n        /* \"--CODEGEN--\":51:70   */\n      iszero\n        /* \"--CODEGEN--\":36:189   */\n      iszero\n      tag_258\n      jumpi\n        /* \"--CODEGEN--\":182:185   */\n      dup1\n        /* \"--CODEGEN--\":176:186   */\n      mload\n        /* \"--CODEGEN--\":171:174   */\n      dup3\n        /* \"--CODEGEN--\":164:187   */\n      mstore\n        /* \"--CODEGEN--\":98:100   */\n      0x20\n        /* \"--CODEGEN--\":93:96   */\n      dup3\n        /* \"--CODEGEN--\":89:101   */\n      add\n        /* \"--CODEGEN--\":82:101   */\n      swap2\n      pop\n        /* \"--CODEGEN--\":123:125   */\n      0x20\n        /* \"--CODEGEN--\":118:121   */\n      dup2\n        /* \"--CODEGEN--\":114:126   */\n      add\n        /* \"--CODEGEN--\":107:126   */\n      swap1\n      pop\n        /* \"--CODEGEN--\":148:150   */\n      0x20\n        /* \"--CODEGEN--\":143:146   */\n      dup4\n        /* \"--CODEGEN--\":139:151   */\n      sub\n        /* \"--CODEGEN--\":132:151   */\n      swap3\n      pop\n        /* \"--CODEGEN--\":36:189   */\n      jump(tag_257)\n    tag_258:\n        /* \"--CODEGEN--\":274:275   */\n      0x1\n        /* \"--CODEGEN--\":267:270   */\n      dup4\n        /* \"--CODEGEN--\":263:265   */\n      0x20\n        /* \"--CODEGEN--\":259:271   */\n      sub\n        /* \"--CODEGEN--\":254:257   */\n      0x100\n        /* \"--CODEGEN--\":250:272   */\n      exp\n        /* \"--CODEGEN--\":246:276   */\n      sub\n        /* \"--CODEGEN--\":315:319   */\n      dup1\n        /* \"--CODEGEN--\":311:320   */\n      not\n        /* \"--CODEGEN--\":305:308   */\n      dup3\n        /* \"--CODEGEN--\":299:309   */\n      mload\n        /* \"--CODEGEN--\":295:321   */\n      and\n        /* \"--CODEGEN--\":356:360   */\n      dup2\n        /* \"--CODEGEN--\":350:353   */\n      dup5\n        /* \"--CODEGEN--\":344:354   */\n      mload\n        /* \"--CODEGEN--\":340:361   */\n      and\n        /* \"--CODEGEN--\":389:396   */\n      dup1\n        /* \"--CODEGEN--\":380:387   */\n      dup3\n        /* \"--CODEGEN--\":377:397   */\n      or\n        /* \"--CODEGEN--\":372:375   */\n      dup6\n        /* \"--CODEGEN--\":365:398   */\n      mstore\n        /* \"--CODEGEN--\":3:402   */\n      pop\n      pop\n      pop\n        /* \"contracts/Exchange.sol\":34729:34742  keccak256(_b) */\n      pop\n      pop\n      pop\n      swap1\n      pop\n      add\n      swap2\n      pop\n      pop\n      mload(0x40)\n      dup1\n      swap2\n      sub\n      swap1\n      keccak256\n        /* \"contracts/Exchange.sol\":34712:34742  keccak256(_a) == keccak256(_b) */\n      not(0x0)\n      and\n        /* \"contracts/Exchange.sol\":34722:34724  _a */\n      dup4\n        /* \"contracts/Exchange.sol\":34712:34725  keccak256(_a) */\n      mload(0x40)\n      dup1\n      dup3\n      dup1\n      mload\n      swap1\n      0x20\n      add\n      swap1\n      dup1\n      dup4\n      dup4\n        /* \"--CODEGEN--\":36:189   */\n    tag_260:\n        /* \"--CODEGEN--\":66:68   */\n      0x20\n        /* \"--CODEGEN--\":61:64   */\n      dup4\n        /* \"--CODEGEN--\":58:69   */\n      lt\n        /* \"--CODEGEN--\":51:70   */\n      iszero\n        /* \"--CODEGEN--\":36:189   */\n      iszero\n      tag_261\n      jumpi\n        /* \"--CODEGEN--\":182:185   */\n      dup1\n        /* \"--CODEGEN--\":176:186   */\n      mload\n        /* \"--CODEGEN--\":171:174   */\n      dup3\n        /* \"--CODEGEN--\":164:187   */\n      mstore\n        /* \"--CODEGEN--\":98:100   */\n      0x20\n        /* \"--CODEGEN--\":93:96   */\n      dup3\n        /* \"--CODEGEN--\":89:101   */\n      add\n        /* \"--CODEGEN--\":82:101   */\n      swap2\n      pop\n        /* \"--CODEGEN--\":123:125   */\n      0x20\n        /* \"--CODEGEN--\":118:121   */\n      dup2\n        /* \"--CODEGEN--\":114:126   */\n      add\n        /* \"--CODEGEN--\":107:126   */\n      swap1\n      pop\n        /* \"--CODEGEN--\":148:150   */\n      0x20\n        /* \"--CODEGEN--\":143:146   */\n      dup4\n        /* \"--CODEGEN--\":139:151   */\n      sub\n        /* \"--CODEGEN--\":132:151   */\n      swap3\n      pop\n        /* \"--CODEGEN--\":36:189   */\n      jump(tag_260)\n    tag_261:\n        /* \"--CODEGEN--\":274:275   */\n      0x1\n        /* \"--CODEGEN--\":267:270   */\n      dup4\n        /* \"--CODEGEN--\":263:265   */\n      0x20\n        /* \"--CODEGEN--\":259:271   */\n      sub\n        /* \"--CODEGEN--\":254:257   */\n      0x100\n        /* \"--CODEGEN--\":250:272   */\n      exp\n        /* \"--CODEGEN--\":246:276   */\n      sub\n        /* \"--CODEGEN--\":315:319   */\n      dup1\n        /* \"--CODEGEN--\":311:320   */\n      not\n        /* \"--CODEGEN--\":305:308   */\n      dup3\n        /* \"--CODEGEN--\":299:309   */\n      mload\n        /* \"--CODEGEN--\":295:321   */\n      and\n        /* \"--CODEGEN--\":356:360   */\n      dup2\n        /* \"--CODEGEN--\":350:353   */\n      dup5\n        /* \"--CODEGEN--\":344:354   */\n      mload\n        /* \"--CODEGEN--\":340:361   */\n      and\n        /* \"--CODEGEN--\":389:396   */\n      dup1\n        /* \"--CODEGEN--\":380:387   */\n      dup3\n        /* \"--CODEGEN--\":377:397   */\n      or\n        /* \"--CODEGEN--\":372:375   */\n      dup6\n        /* \"--CODEGEN--\":365:398   */\n      mstore\n        /* \"--CODEGEN--\":3:402   */\n      pop\n      pop\n      pop\n        /* \"contracts/Exchange.sol\":34712:34725  keccak256(_a) */\n      pop\n      pop\n      pop\n      swap1\n      pop\n      add\n      swap2\n      pop\n      pop\n      mload(0x40)\n      dup1\n      swap2\n      sub\n      swap1\n      keccak256\n        /* \"contracts/Exchange.sol\":34712:34742  keccak256(_a) == keccak256(_b) */\n      not(0x0)\n      and\n      eq\n        /* \"contracts/Exchange.sol\":34705:34742  return keccak256(_a) == keccak256(_b) */\n      swap1\n      pop\n        /* \"contracts/Exchange.sol\":34622:34749  function stringsEqual(string _a, string _b) internal pure returns (bool) {... */\n      swap3\n      swap2\n      pop\n      pop\n      jump\t// out\n        /* \"contracts/Exchange.sol\":84:34753  contract Exchange is owned {... */\n    tag_196:\n      dup3\n      dup1\n      sload\n      0x1\n      dup2\n      0x1\n      and\n      iszero\n      0x100\n      mul\n      sub\n      and\n      0x2\n      swap1\n      div\n      swap1\n      0x0\n      mstore\n      keccak256(0x0, 0x20)\n      swap1\n      0x1f\n      add\n      0x20\n      swap1\n      div\n      dup2\n      add\n      swap3\n      dup3\n      0x1f\n      lt\n      tag_264\n      jumpi\n      dup1\n      mload\n      not(0xff)\n      and\n      dup4\n      dup1\n      add\n      or\n      dup6\n      sstore\n      jump(tag_263)\n    tag_264:\n      dup3\n      dup1\n      add\n      0x1\n      add\n      dup6\n      sstore\n      dup3\n      iszero\n      tag_263\n      jumpi\n      swap2\n      dup3\n      add\n    tag_265:\n      dup3\n      dup2\n      gt\n      iszero\n      tag_266\n      jumpi\n      dup3\n      mload\n      dup3\n      sstore\n      swap2\n      0x20\n      add\n      swap2\n      swap1\n      0x1\n      add\n      swap1\n      jump(tag_265)\n    tag_266:\n    tag_263:\n      pop\n      swap1\n      pop\n      tag_267\n      swap2\n      swap1\n      jump\t// in(tag_268)\n    tag_267:\n      pop\n      swap1\n      jump\t// out\n    tag_268:\n      tag_269\n      swap2\n      swap1\n    tag_270:\n      dup1\n      dup3\n      gt\n      iszero\n      tag_271\n      jumpi\n      0x0\n      dup2\n      0x0\n      swap1\n      sstore\n      pop\n      0x1\n      add\n      jump(tag_270)\n    tag_271:\n      pop\n      swap1\n      jump\n    tag_269:\n      swap1\n      jump\t// out\n\n    auxdata: 0xa165627a7a723058201ff11e0f2d00da6a1bd20471fc11e91b3ee234ee0a5b0910c1234510e4ec325e0029\n}\n",
				"bytecode": {
					"linkReferences": {},
					"object": "6080604052336000806101000a81548173ffffffffffffffffffffffffffffffffffffffff021916908373ffffffffffffffffffffffffffffffffffffffff160217905550614ef8806100536000396000f3006080604052600436106100d0576000357c0100000000000000000000000000000000000000000000000000000000900463ffffffff16806303bc4a27146100d55780631a8eb72b146101db57806333ad57e4146102065780633a51d246146102795780633bed33ce146102f65780635ab8ea3314610323578063728ff029146103a0578063851030fe146104a65780638ea0081814610523578063977377f8146105a457806398ea5fca14610627578063b0b22c2c14610631578063c97a413a146106ba578063d1a3b0251461072d575b600080fd5b3480156100e157600080fd5b5061013c600480360381019080803590602001908201803590602001908080601f01602080910402602001604051908101604052809392919081815260200183838082843782019150505050505091929192905050506107b6565b604051808060200180602001838103835285818151815260200191508051906020019060200280838360005b83811015610183578082015181840152602081019050610168565b50505050905001838103825284818151815260200191508051906020019060200280838360005b838110156101c55780820151818401526020810190506101aa565b5050505090500194505050505060405180910390f35b3480156101e757600080fd5b506101f0610a6e565b6040518082815260200191505060405180910390f35b34801561021257600080fd5b50610277600480360381019080803590602001908201803590602001908080601f016020809104026020016040519081016040528093929190818152602001838380828437820191505050505050919291929080359060200190929190505050610ab5565b005b34801561028557600080fd5b506102e0600480360381019080803590602001908201803590602001908080601f0160208091040260200160405190810160405280939291908181526020018383808284378201915050505050509192919290505050610e1f565b6040518082815260200191505060405180910390f35b34801561030257600080fd5b5061032160048036038101908080359060200190929190505050610e8c565b005b34801561032f57600080fd5b5061039e600480360381019080803590602001908201803590602001908080601f01602080910402602001604051908101604052809392919081815260200183838082843782019150505050505091929192908035906020019092919080359060200190929190505050611059565b005b3480156103ac57600080fd5b50610407600480360381019080803590602001908201803590602001908080601f0160208091040260200160405190810160405280939291908181526020018383808284378201915050505050509192919290505050611fd7565b604051808060200180602001838103835285818151815260200191508051906020019060200280838360005b8381101561044e578082015181840152602081019050610433565b50505050905001838103825284818151815260200191508051906020019060200280838360005b83811015610490578082015181840152602081019050610475565b5050505090500194505050505060405180910390f35b3480156104b257600080fd5b50610521600480360381019080803590602001908201803590602001908080601f01602080910402602001604051908101604052809392919081815260200183838082843782019150505050505091929192908035906020019092919080359060200190929190505050612290565b005b34801561052f57600080fd5b5061058a600480360381019080803590602001908201803590602001908080601f0160208091040260200160405190810160405280939291908181526020018383808284378201915050505050509192919290505050613343565b604051808215151515815260200191505060405180910390f35b3480156105b057600080fd5b5061060b600480360381019080803590602001908201803590602001908080601f0160208091040260200160405190810160405280939291908181526020018383808284378201915050505050509192919290505050613371565b604051808260ff1660ff16815260200191505060405180910390f35b61062f61339a565b005b34801561063d57600080fd5b506106b8600480360381019080803590602001908201803590602001908080601f0160208091040260200160405190810160405280939291908181526020018383808284378201915050505050509192919290803573ffffffffffffffffffffffffffffffffffffffff1690602001909291905050506134ce565b005b3480156106c657600080fd5b5061072b600480360381019080803590602001908201803590602001908080601f016020809104026020016040519081016040528093929190818152602001838380828437820191505050505050919291929080359060200190929190505050613711565b005b34801561073957600080fd5b506107b4600480360381019080803590602001908201803590602001908080601f01602080910402602001604051908101604052809392919081815260200183838082843782019150505050505091929192908035151590602001909291908035906020019092919080359060200190929190505050613aaf565b005b60608060006060806000806000806107cd8a613371565b9650600160008860ff1660ff1681526020019081526020016000206005015460405190808252806020026020018201604052801561081a5781602001602082028038833980820191505090505b509550600160008860ff1660ff168152602001908152602001600020600501546040519080825280602002602001820160405280156108685781602001602082028038833980820191505090505b509450600160008860ff1660ff168152602001908152602001600020600401549350600092506000600160008960ff1660ff168152602001908152602001600020600301541115610a5c575b600160008860ff1660ff1681526020019081526020016000206003015484111515610a5b578386848151811015156108e857fe5b90602001906020020181815250506000915060009050600160008860ff1660ff16815260200190815260200160002060020160008581526020019081526020016000206003015490505b600160008860ff1660ff168152602001908152602001600020600201600085815260200190815260200160002060040154811115156109c157600160008860ff1660ff1681526020019081526020016000206002016000858152602001908152602001600020600201600082815260200190815260200160002060000154820191508080600101915050610932565b8185848151811015156109d057fe5b9060200190602002018181525050600160008860ff1660ff168152602001908152602001600020600201600085815260200190815260200160002060000154841415610a1b57610a5b565b600160008860ff1660ff168152602001908152602001600020600201600085815260200190815260200160002060000154935082806001019350506108b4565b5b85859850985050505050505050915091565b6000600460003373ffffffffffffffffffffffffffffffffffffffff1673ffffffffffffffffffffffffffffffffffffffff16815260200190815260200160002054905090565b600080610ac184613371565b9150600073ffffffffffffffffffffffffffffffffffffffff16600160008460ff1660ff16815260200190815260200160002060000160009054906101000a900473ffffffffffffffffffffffffffffffffffffffff1673ffffffffffffffffffffffffffffffffffffffff1614151515610b3b57600080fd5b600160008360ff1660ff16815260200190815260200160002060000160009054906101000a900473ffffffffffffffffffffffffffffffffffffffff169050600115158173ffffffffffffffffffffffffffffffffffffffff166323b872dd3330876040518463ffffffff167c0100000000000000000000000000000000000000000000000000000000028152600401808473ffffffffffffffffffffffffffffffffffffffff1673ffffffffffffffffffffffffffffffffffffffff1681526020018373ffffffffffffffffffffffffffffffffffffffff1673ffffffffffffffffffffffffffffffffffffffff1681526020018281526020019350505050602060405180830381600087803b158015610c5557600080fd5b505af1158015610c69573d6000803e3d6000fd5b505050506040513d6020811015610c7f57600080fd5b81019080805190602001909291905050501515141515610c9e57600080fd5b600360003373ffffffffffffffffffffffffffffffffffffffff1673ffffffffffffffffffffffffffffffffffffffff16815260200190815260200160002060008360ff1660ff1681526020019081526020016000205483600360003373ffffffffffffffffffffffffffffffffffffffff1673ffffffffffffffffffffffffffffffffffffffff16815260200190815260200160002060008560ff1660ff168152602001908152602001600020540110151515610d5b57600080fd5b82600360003373ffffffffffffffffffffffffffffffffffffffff1673ffffffffffffffffffffffffffffffffffffffff16815260200190815260200160002060008460ff1660ff168152602001908152602001600020600082825401925050819055508160ff163373ffffffffffffffffffffffffffffffffffffffff167fc0aa5496c7b01c4b317a58e270b45f383bcd6ae57f9e5124db9c0674b77764998542604051808381526020018281526020019250505060405180910390a350505050565b600080610e2b83613371565b9050600360003373ffffffffffffffffffffffffffffffffffffffff1673ffffffffffffffffffffffffffffffffffffffff16815260200190815260200160002060008260ff1660ff16815260200190815260200160002054915050919050565b600081600460003373ffffffffffffffffffffffffffffffffffffffff1673ffffffffffffffffffffffffffffffffffffffff168152602001908152602001600020540310151515610edd57600080fd5b600460003373ffffffffffffffffffffffffffffffffffffffff1673ffffffffffffffffffffffffffffffffffffffff1681526020019081526020016000205481600460003373ffffffffffffffffffffffffffffffffffffffff1673ffffffffffffffffffffffffffffffffffffffff168152602001908152602001600020540311151515610f6c57600080fd5b80600460003373ffffffffffffffffffffffffffffffffffffffff1673ffffffffffffffffffffffffffffffffffffffff168152602001908152602001600020600082825403925050819055503373ffffffffffffffffffffffffffffffffffffffff166108fc829081150290604051600060405180830381858888f19350505050158015610fff573d6000803e3d6000fd5b503373ffffffffffffffffffffffffffffffffffffffff167fac9513adf40097763b4664bee3693d0f051127c5ac55e33f68926c1612ac59958242604051808381526020018281526020019250505060405180910390a250565b600080600080600080600061106d8a613371565b9650600095506000600160008960ff1660ff1681526020019081526020016000206009015414806110b9575088600160008960ff1660ff16815260200190815260200160002060070154115b156112ff5788880295508786101515156110d257600080fd5b8886101515156110e157600080fd5b85600460003373ffffffffffffffffffffffffffffffffffffffff1673ffffffffffffffffffffffffffffffffffffffff168152602001908152602001600020541015151561112f57600080fd5b600086600460003373ffffffffffffffffffffffffffffffffffffffff1673ffffffffffffffffffffffffffffffffffffffff16815260200190815260200160002054031015151561118057600080fd5b600460003373ffffffffffffffffffffffffffffffffffffffff1673ffffffffffffffffffffffffffffffffffffffff1681526020019081526020016000205486600460003373ffffffffffffffffffffffffffffffffffffffff1673ffffffffffffffffffffffffffffffffffffffff16815260200190815260200160002054031115151561120f57600080fd5b85600460003373ffffffffffffffffffffffffffffffffffffffff1673ffffffffffffffffffffffffffffffffffffffff16815260200190815260200160002060008282540392505081905550611268878a8a33613fb7565b3373ffffffffffffffffffffffffffffffffffffffff168760ff167f2ef51fa215957689865f55575d7d89840bee8fce54b23ef826fea1a304acdd3f8a8c600160008d60ff1660ff16815260200190815260200160002060020160008f81526020019081526020016000206004015460405180848152602001838152602001828152602001935050505060405180910390a3611fcb565b60009450600160008860ff1660ff1681526020019081526020016000206007015493508792505b8884111580156113365750600083115b15611fb557600160008860ff1660ff16815260200190815260200160002060060160008581526020019081526020016000206003015491505b600160008860ff1660ff16815260200190815260200160002060060160008581526020019081526020016000206004015482111580156113af5750600083115b15611f9157600160008860ff1660ff16815260200190815260200160002060060160008581526020019081526020016000206002016000838152602001908152602001600020600001549050828111151561193b57838102945084600460003373ffffffffffffffffffffffffffffffffffffffff1673ffffffffffffffffffffffffffffffffffffffff168152602001908152602001600020541015151561145757600080fd5b600460003373ffffffffffffffffffffffffffffffffffffffff1673ffffffffffffffffffffffffffffffffffffffff1681526020019081526020016000205485600460003373ffffffffffffffffffffffffffffffffffffffff1673ffffffffffffffffffffffffffffffffffffffff1681526020019081526020016000205403111515156114e657600080fd5b84600460003373ffffffffffffffffffffffffffffffffffffffff1673ffffffffffffffffffffffffffffffffffffffff16815260200190815260200160002060008282540392505081905550600360003373ffffffffffffffffffffffffffffffffffffffff1673ffffffffffffffffffffffffffffffffffffffff16815260200190815260200160002060008860ff1660ff1681526020019081526020016000205481600360003373ffffffffffffffffffffffffffffffffffffffff1673ffffffffffffffffffffffffffffffffffffffff16815260200190815260200160002060008a60ff1660ff1681526020019081526020016000205401101515156115f057600080fd5b60046000600160008a60ff1660ff1681526020019081526020016000206006016000878152602001908152602001600020600201600085815260200190815260200160002060010160009054906101000a900473ffffffffffffffffffffffffffffffffffffffff1673ffffffffffffffffffffffffffffffffffffffff1673ffffffffffffffffffffffffffffffffffffffff168152602001908152602001600020548560046000600160008c60ff1660ff1681526020019081526020016000206006016000898152602001908152602001600020600201600087815260200190815260200160002060010160009054906101000a900473ffffffffffffffffffffffffffffffffffffffff1673ffffffffffffffffffffffffffffffffffffffff1673ffffffffffffffffffffffffffffffffffffffff16815260200190815260200160002054011015151561174757600080fd5b80600360003373ffffffffffffffffffffffffffffffffffffffff1673ffffffffffffffffffffffffffffffffffffffff16815260200190815260200160002060008960ff1660ff168152602001908152602001600020600082825401925050819055506000600160008960ff1660ff16815260200190815260200160002060060160008681526020019081526020016000206002016000848152602001908152602001600020600001819055508460046000600160008b60ff1660ff1681526020019081526020016000206006016000888152602001908152602001600020600201600086815260200190815260200160002060010160009054906101000a900473ffffffffffffffffffffffffffffffffffffffff1673ffffffffffffffffffffffffffffffffffffffff1673ffffffffffffffffffffffffffffffffffffffff16815260200190815260200160002060008282540192505081905550600160008860ff1660ff1681526020019081526020016000206006016000858152602001908152602001600020600301600081548092919060010191905055508660ff167fcbfa5edcd918ef1ec42746c71ac83c456f37330c83a22e44d6cfdca22d56471082868560405180848152602001838152602001828152602001935050505060405180910390a28083039250611d7c565b82600160008960ff1660ff168152602001908152602001600020600601600086815260200190815260200160002060020160008481526020019081526020016000206000015411151561198d57600080fd5b8383029550600460003373ffffffffffffffffffffffffffffffffffffffff1673ffffffffffffffffffffffffffffffffffffffff1681526020019081526020016000205486600460003373ffffffffffffffffffffffffffffffffffffffff1673ffffffffffffffffffffffffffffffffffffffff168152602001908152602001600020540311151515611a2157600080fd5b85600460003373ffffffffffffffffffffffffffffffffffffffff1673ffffffffffffffffffffffffffffffffffffffff1681526020019081526020016000206000828254039250508190555060046000600160008a60ff1660ff1681526020019081526020016000206006016000878152602001908152602001600020600201600085815260200190815260200160002060010160009054906101000a900473ffffffffffffffffffffffffffffffffffffffff1673ffffffffffffffffffffffffffffffffffffffff1673ffffffffffffffffffffffffffffffffffffffff168152602001908152602001600020548660046000600160008c60ff1660ff1681526020019081526020016000206006016000898152602001908152602001600020600201600087815260200190815260200160002060010160009054906101000a900473ffffffffffffffffffffffffffffffffffffffff1673ffffffffffffffffffffffffffffffffffffffff1673ffffffffffffffffffffffffffffffffffffffff168152602001908152602001600020540110151515611bc557600080fd5b82600160008960ff1660ff16815260200190815260200160002060060160008681526020019081526020016000206002016000848152602001908152602001600020600001600082825403925050819055508560046000600160008b60ff1660ff1681526020019081526020016000206006016000888152602001908152602001600020600201600086815260200190815260200160002060010160009054906101000a900473ffffffffffffffffffffffffffffffffffffffff1673ffffffffffffffffffffffffffffffffffffffff1673ffffffffffffffffffffffffffffffffffffffff1681526020019081526020016000206000828254019250508190555082600360003373ffffffffffffffffffffffffffffffffffffffff1673ffffffffffffffffffffffffffffffffffffffff16815260200190815260200160002060008960ff1660ff16815260200190815260200160002060008282540192505081905550600092508660ff167fcbfa5edcd918ef1ec42746c71ac83c456f37330c83a22e44d6cfdca22d56471084868560405180848152602001838152602001828152602001935050505060405180910390a25b600160008860ff1660ff16815260200190815260200160002060060160008581526020019081526020016000206004015482148015611dff57506000600160008960ff1660ff1681526020019081526020016000206006016000868152602001908152602001600020600201600084815260200190815260200160002060000154145b15611f8457600160008860ff1660ff1681526020019081526020016000206009016000815480929190600190039190505550600160008860ff1660ff168152602001908152602001600020600601600085815260200190815260200160002060000154841480611e9f57506000600160008960ff1660ff168152602001908152602001600020600201600086815260200190815260200160002060000154145b15611ecb576000600160008960ff1660ff16815260200190815260200160002060070181905550611f83565b600160008860ff1660ff168152602001908152602001600020600601600085815260200190815260200160002060000154600160008960ff1660ff168152602001908152602001600020600701819055506000600160008960ff1660ff1681526020019081526020016000206006016000600160008b60ff1660ff1681526020019081526020016000206002016000888152602001908152602001600020600001548152602001908152602001600020600101819055505b5b818060010192505061136f565b600160008860ff1660ff168152602001908152602001600020600701549350611326565b6000831115611fca57611fc98a8a85611059565b5b5b50505050505050505050565b6060806000606080600080600080611fee8a613371565b9650600160008860ff1660ff1681526020019081526020016000206009015460405190808252806020026020018201604052801561203b5781602001602082028038833980820191505090505b509550600160008860ff1660ff168152602001908152602001600020600901546040519080825280602002602001820160405280156120895781602001602082028038833980820191505090505b509450600160008860ff1660ff168152602001908152602001600020600701549350600092506000600160008960ff1660ff16815260200190815260200160002060070154111561227e575b600160008860ff1660ff168152602001908152602001600020600801548411151561227d5783868481518110151561210957fe5b90602001906020020181815250506000915060009050600160008860ff1660ff16815260200190815260200160002060060160008581526020019081526020016000206003015490505b600160008860ff1660ff168152602001908152602001600020600601600085815260200190815260200160002060040154811115156121e257600160008860ff1660ff1681526020019081526020016000206006016000858152602001908152602001600020600201600082815260200190815260200160002060000154820191508080600101915050612153565b8185848151811015156121f157fe5b90602001906020020181815250506000600160008960ff1660ff168152602001908152602001600020600601600086815260200190815260200160002060000154141561223d5761227d565b600160008860ff1660ff168152602001908152602001600020600601600085815260200190815260200160002060000154935082806001019350506120d5565b5b85859850985050505050505050915091565b60008060008060008060006122a48a613371565b965060009550600094506000600160008960ff1660ff1681526020019081526020016000206005015414806122f4575088600160008960ff1660ff16815260200190815260200160002060030154105b1561257f57888802955087861015151561230d57600080fd5b88861015151561231c57600080fd5b87600360003373ffffffffffffffffffffffffffffffffffffffff1673ffffffffffffffffffffffffffffffffffffffff16815260200190815260200160002060008960ff1660ff168152602001908152602001600020541015151561238157600080fd5b600088600360003373ffffffffffffffffffffffffffffffffffffffff1673ffffffffffffffffffffffffffffffffffffffff16815260200190815260200160002060008a60ff1660ff1681526020019081526020016000205403101515156123e957600080fd5b600460003373ffffffffffffffffffffffffffffffffffffffff1673ffffffffffffffffffffffffffffffffffffffff1681526020019081526020016000205486600460003373ffffffffffffffffffffffffffffffffffffffff1673ffffffffffffffffffffffffffffffffffffffff16815260200190815260200160002054011015151561247857600080fd5b87600360003373ffffffffffffffffffffffffffffffffffffffff1673ffffffffffffffffffffffffffffffffffffffff16815260200190815260200160002060008960ff1660ff168152602001908152602001600020600082825403925050819055506124e8878a8a336145fd565b3373ffffffffffffffffffffffffffffffffffffffff168760ff167fc7d136f10bcb424de2ff60d5473d863ed2fdcd5d352e045d89ee9581f54f6afb8a8c600160008d60ff1660ff16815260200190815260200160002060060160008f81526020019081526020016000206004015460405180848152602001838152602001828152602001935050505060405180910390a3613337565b600160008860ff1660ff1681526020019081526020016000206003015493508792505b8884101580156125b25750600083115b1561332157600160008860ff1660ff16815260200190815260200160002060020160008581526020019081526020016000206003015491505b600160008860ff1660ff168152602001908152602001600020600201600085815260200190815260200160002060040154821115801561262b5750600083115b156132fd57600160008860ff1660ff168152602001908152602001600020600201600085815260200190815260200160002060020160008381526020019081526020016000206000015490508281111515612bbe57838102945080600360003373ffffffffffffffffffffffffffffffffffffffff1673ffffffffffffffffffffffffffffffffffffffff16815260200190815260200160002060008960ff1660ff16815260200190815260200160002054101515156126ea57600080fd5b80600360003373ffffffffffffffffffffffffffffffffffffffff1673ffffffffffffffffffffffffffffffffffffffff16815260200190815260200160002060008960ff1660ff16815260200190815260200160002060008282540392505081905550600081600360003373ffffffffffffffffffffffffffffffffffffffff1673ffffffffffffffffffffffffffffffffffffffff16815260200190815260200160002060008a60ff1660ff1681526020019081526020016000205403101515156127b657600080fd5b60036000600160008a60ff1660ff1681526020019081526020016000206002016000878152602001908152602001600020600201600085815260200190815260200160002060010160009054906101000a900473ffffffffffffffffffffffffffffffffffffffff1673ffffffffffffffffffffffffffffffffffffffff1673ffffffffffffffffffffffffffffffffffffffff16815260200190815260200160002060008860ff1660ff168152602001908152602001600020548160036000600160008c60ff1660ff1681526020019081526020016000206002016000898152602001908152602001600020600201600087815260200190815260200160002060010160009054906101000a900473ffffffffffffffffffffffffffffffffffffffff1673ffffffffffffffffffffffffffffffffffffffff1673ffffffffffffffffffffffffffffffffffffffff16815260200190815260200160002060008a60ff1660ff16815260200190815260200160002054011015151561293b57600080fd5b600460003373ffffffffffffffffffffffffffffffffffffffff1673ffffffffffffffffffffffffffffffffffffffff1681526020019081526020016000205485600460003373ffffffffffffffffffffffffffffffffffffffff1673ffffffffffffffffffffffffffffffffffffffff1681526020019081526020016000205401101515156129ca57600080fd5b8060036000600160008b60ff1660ff1681526020019081526020016000206002016000888152602001908152602001600020600201600086815260200190815260200160002060010160009054906101000a900473ffffffffffffffffffffffffffffffffffffffff1673ffffffffffffffffffffffffffffffffffffffff1673ffffffffffffffffffffffffffffffffffffffff16815260200190815260200160002060008960ff1660ff168152602001908152602001600020600082825401925050819055506000600160008960ff1660ff168152602001908152602001600020600201600086815260200190815260200160002060020160008481526020019081526020016000206000018190555084600460003373ffffffffffffffffffffffffffffffffffffffff1673ffffffffffffffffffffffffffffffffffffffff16815260200190815260200160002060008282540192505081905550600160008860ff1660ff1681526020019081526020016000206002016000858152602001908152602001600020600301600081548092919060010191905055508660ff167fcbfa5edcd918ef1ec42746c71ac83c456f37330c83a22e44d6cfdca22d56471082868560405180848152602001838152602001828152602001935050505060405180910390a280830392506130cd565b6000838203111515612bcf57600080fd5b838302955082600360003373ffffffffffffffffffffffffffffffffffffffff1673ffffffffffffffffffffffffffffffffffffffff16815260200190815260200160002060008960ff1660ff1681526020019081526020016000205410151515612c3957600080fd5b82600360003373ffffffffffffffffffffffffffffffffffffffff1673ffffffffffffffffffffffffffffffffffffffff16815260200190815260200160002060008960ff1660ff1681526020019081526020016000206000828254039250508190555082600360003373ffffffffffffffffffffffffffffffffffffffff1673ffffffffffffffffffffffffffffffffffffffff16815260200190815260200160002060008960ff1660ff1681526020019081526020016000205410151515612d0257600080fd5b600460003373ffffffffffffffffffffffffffffffffffffffff1673ffffffffffffffffffffffffffffffffffffffff1681526020019081526020016000205486600460003373ffffffffffffffffffffffffffffffffffffffff1673ffffffffffffffffffffffffffffffffffffffff168152602001908152602001600020540110151515612d9157600080fd5b60036000600160008a60ff1660ff1681526020019081526020016000206002016000878152602001908152602001600020600201600085815260200190815260200160002060010160009054906101000a900473ffffffffffffffffffffffffffffffffffffffff1673ffffffffffffffffffffffffffffffffffffffff1673ffffffffffffffffffffffffffffffffffffffff16815260200190815260200160002060008860ff1660ff168152602001908152602001600020548360036000600160008c60ff1660ff1681526020019081526020016000206002016000898152602001908152602001600020600201600087815260200190815260200160002060010160009054906101000a900473ffffffffffffffffffffffffffffffffffffffff1673ffffffffffffffffffffffffffffffffffffffff1673ffffffffffffffffffffffffffffffffffffffff16815260200190815260200160002060008a60ff1660ff168152602001908152602001600020540110151515612f1657600080fd5b82600160008960ff1660ff168152602001908152602001600020600201600086815260200190815260200160002060020160008481526020019081526020016000206000016000828254039250508190555085600460003373ffffffffffffffffffffffffffffffffffffffff1673ffffffffffffffffffffffffffffffffffffffff168152602001908152602001600020600082825401925050819055508260036000600160008b60ff1660ff1681526020019081526020016000206002016000888152602001908152602001600020600201600086815260200190815260200160002060010160009054906101000a900473ffffffffffffffffffffffffffffffffffffffff1673ffffffffffffffffffffffffffffffffffffffff1673ffffffffffffffffffffffffffffffffffffffff16815260200190815260200160002060008960ff1660ff168152602001908152602001600020600082825401925050819055508660ff167fcbfa5edcd918ef1ec42746c71ac83c456f37330c83a22e44d6cfdca22d56471084868560405180848152602001838152602001828152602001935050505060405180910390a2600092505b600160008860ff1660ff1681526020019081526020016000206002016000858152602001908152602001600020600401548214801561315057506000600160008960ff1660ff1681526020019081526020016000206002016000868152602001908152602001600020600201600084815260200190815260200160002060000154145b156132f057600160008860ff1660ff1681526020019081526020016000206005016000815480929190600190039190505550600160008860ff1660ff1681526020019081526020016000206002016000858152602001908152602001600020600101548414806131f057506000600160008960ff1660ff168152602001908152602001600020600201600086815260200190815260200160002060010154145b1561321c576000600160008960ff1660ff168152602001908152602001600020600301819055506132ef565b600160008860ff1660ff168152602001908152602001600020600201600085815260200190815260200160002060010154600160008960ff1660ff16815260200190815260200160002060030181905550600160008860ff1660ff16815260200190815260200160002060030154600160008960ff1660ff1681526020019081526020016000206002016000600160008b60ff1660ff1681526020019081526020016000206002016000888152602001908152602001600020600101548152602001908152602001600020600001819055505b5b81806001019250506125eb565b600160008860ff1660ff1681526020019081526020016000206003015493506125a2565b6000831115613336576133358a8a85612290565b5b5b50505050505050505050565b60008061334f83614c45565b905060008160ff161415613366576000915061336b565b600191505b50919050565b60008061337d83614c45565b905060008160ff1611151561339157600080fd5b80915050919050565b600460003373ffffffffffffffffffffffffffffffffffffffff1673ffffffffffffffffffffffffffffffffffffffff1681526020019081526020016000205434600460003373ffffffffffffffffffffffffffffffffffffffff1673ffffffffffffffffffffffffffffffffffffffff16815260200190815260200160002054011015151561342957600080fd5b34600460003373ffffffffffffffffffffffffffffffffffffffff1673ffffffffffffffffffffffffffffffffffffffff168152602001908152602001600020600082825401925050819055503373ffffffffffffffffffffffffffffffffffffffff167f42dbebeb8f6fb795e3007753aef2d4b1a292dd123f6de06a41050186741506373442604051808381526020018281526020019250505060405180910390a2565b6000809054906101000a900473ffffffffffffffffffffffffffffffffffffffff1673ffffffffffffffffffffffffffffffffffffffff163373ffffffffffffffffffffffffffffffffffffffff1614151561352957600080fd5b61353282613343565b15151561353e57600080fd5b600260009054906101000a900460ff1660ff166001600260009054906101000a900460ff160160ff1611151561357357600080fd5b6002600081819054906101000a900460ff168092919060010191906101000a81548160ff021916908360ff160217905550508160016000600260009054906101000a900460ff1660ff1660ff16815260200190815260200160002060010190805190602001906135e4929190614e27565b508060016000600260009054906101000a900460ff1660ff1660ff16815260200190815260200160002060000160006101000a81548173ffffffffffffffffffffffffffffffffffffffff021916908373ffffffffffffffffffffffffffffffffffffffff1602179055507f6c71eb76d5d82031f490d3e44dc01d298444e569078199b14510435d81b59ff7600260009054906101000a900460ff168342604051808460ff16815260200180602001838152602001828103825284818151815260200191508051906020019080838360005b838110156136d15780820151818401526020810190506136b6565b50505050905090810190601f1680156136fe5780820380516001836020036101000a031916815260200191505b5094505050505060405180910390a15050565b60008061371d84613371565b9150600073ffffffffffffffffffffffffffffffffffffffff16600160008460ff1660ff16815260200190815260200160002060000160009054906101000a900473ffffffffffffffffffffffffffffffffffffffff1673ffffffffffffffffffffffffffffffffffffffff161415151561379757600080fd5b600160008360ff1660ff16815260200190815260200160002060000160009054906101000a900473ffffffffffffffffffffffffffffffffffffffff169050600083600360003373ffffffffffffffffffffffffffffffffffffffff1673ffffffffffffffffffffffffffffffffffffffff16815260200190815260200160002060008560ff1660ff16815260200190815260200160002054031015151561383e57600080fd5b600360003373ffffffffffffffffffffffffffffffffffffffff1673ffffffffffffffffffffffffffffffffffffffff16815260200190815260200160002060008360ff1660ff1681526020019081526020016000205483600360003373ffffffffffffffffffffffffffffffffffffffff1673ffffffffffffffffffffffffffffffffffffffff16815260200190815260200160002060008560ff1660ff1681526020019081526020016000205403111515156138fb57600080fd5b82600360003373ffffffffffffffffffffffffffffffffffffffff1673ffffffffffffffffffffffffffffffffffffffff16815260200190815260200160002060008460ff1660ff16815260200190815260200160002060008282540392505081905550600115158173ffffffffffffffffffffffffffffffffffffffff1663a9059cbb33866040518363ffffffff167c0100000000000000000000000000000000000000000000000000000000028152600401808373ffffffffffffffffffffffffffffffffffffffff1673ffffffffffffffffffffffffffffffffffffffff16815260200182815260200192505050602060405180830381600087803b158015613a0657600080fd5b505af1158015613a1a573d6000803e3d6000fd5b505050506040513d6020811015613a3057600080fd5b81019080805190602001909291905050501515141515613a4f57600080fd5b8160ff163373ffffffffffffffffffffffffffffffffffffffff167faed5c5198ccd7615c0128c72fcfc060e97b14315cb791a46bf42b5b6f36c38b98542604051808381526020018281526020019250505060405180910390a350505050565b6000806000613abd87613371565b92508515613d5d573373ffffffffffffffffffffffffffffffffffffffff16600160008560ff1660ff1681526020019081526020016000206006016000878152602001908152602001600020600201600086815260200190815260200160002060010160009054906101000a900473ffffffffffffffffffffffffffffffffffffffff1673ffffffffffffffffffffffffffffffffffffffff16141515613b6357600080fd5b600160008460ff1660ff16815260200190815260200160002060060160008681526020019081526020016000206002016000858152602001908152602001600020600001549150600360003373ffffffffffffffffffffffffffffffffffffffff1673ffffffffffffffffffffffffffffffffffffffff16815260200190815260200160002060008460ff1660ff1681526020019081526020016000205482600360003373ffffffffffffffffffffffffffffffffffffffff1673ffffffffffffffffffffffffffffffffffffffff16815260200190815260200160002060008660ff1660ff168152602001908152602001600020540110151515613c6757600080fd5b81600360003373ffffffffffffffffffffffffffffffffffffffff1673ffffffffffffffffffffffffffffffffffffffff16815260200190815260200160002060008560ff1660ff168152602001908152602001600020600082825401925050819055506000600160008560ff1660ff16815260200190815260200160002060060160008781526020019081526020016000206002016000868152602001908152602001600020600001819055508260ff167fffac5f4941e92bc6814610a825eeff0ae9bb4a17d47c0e2353c6889b2b550fb88686604051808381526020018281526020019250505060405180910390a2613fae565b3373ffffffffffffffffffffffffffffffffffffffff16600160008560ff1660ff1681526020019081526020016000206002016000878152602001908152602001600020600201600086815260200190815260200160002060010160009054906101000a900473ffffffffffffffffffffffffffffffffffffffff1673ffffffffffffffffffffffffffffffffffffffff16141515613dfb57600080fd5b84600160008560ff1660ff1681526020019081526020016000206002016000878152602001908152602001600020600201600086815260200190815260200160002060000154029050600460003373ffffffffffffffffffffffffffffffffffffffff1673ffffffffffffffffffffffffffffffffffffffff1681526020019081526020016000205481600460003373ffffffffffffffffffffffffffffffffffffffff1673ffffffffffffffffffffffffffffffffffffffff168152602001908152602001600020540110151515613ed357600080fd5b80600460003373ffffffffffffffffffffffffffffffffffffffff1673ffffffffffffffffffffffffffffffffffffffff168152602001908152602001600020600082825401925050819055506000600160008560ff1660ff16815260200190815260200160002060020160008781526020019081526020016000206002016000868152602001908152602001600020600001819055508260ff167f5f2fdca15d8ab2ad3f590066add3054471b3603ca44a66f12e124e9c97ec19558686604051808381526020018281526020019250505060405180910390a25b50505050505050565b600080600080600160008960ff1660ff16815260200190815260200160002060020160008881526020019081526020016000206004016000815480929190600101919050555060408051908101604052808781526020018673ffffffffffffffffffffffffffffffffffffffff16815250600160008a60ff1660ff16815260200190815260200160002060020160008981526020019081526020016000206002016000600160008c60ff1660ff16815260200190815260200160002060020160008b81526020019081526020016000206004015481526020019081526020016000206000820151816000015560208201518160010160006101000a81548173ffffffffffffffffffffffffffffffffffffffff021916908373ffffffffffffffffffffffffffffffffffffffff16021790555090505060018060008a60ff1660ff16815260200190815260200160002060020160008981526020019081526020016000206004015414156145f35760018060008a60ff1660ff168152602001908152602001600020600201600089815260200190815260200160002060030181905550600160008960ff1660ff16815260200190815260200160002060050160008154809291906001019190505550600160008960ff1660ff168152602001908152602001600020600301549350600160008960ff1660ff16815260200190815260200160002060040154925060008314806141d257508683115b156143385760008414156142715786600160008a60ff1660ff1681526020019081526020016000206003018190555086600160008a60ff1660ff1681526020019081526020016000206002016000898152602001908152602001600020600001819055506000600160008a60ff1660ff168152602001908152602001600020600201600089815260200190815260200160002060010181905550614312565b86600160008a60ff1660ff16815260200190815260200160002060020160008581526020019081526020016000206001018190555082600160008a60ff1660ff1681526020019081526020016000206002016000898152602001908152602001600020600001819055506000600160008a60ff1660ff1681526020019081526020016000206002016000898152602001908152602001600020600101819055505b86600160008a60ff1660ff168152602001908152602001600020600401819055506145f2565b868410156144055786600160008a60ff1660ff16815260200190815260200160002060020160008681526020019081526020016000206000018190555086600160008a60ff1660ff16815260200190815260200160002060020160008981526020019081526020016000206000018190555083600160008a60ff1660ff16815260200190815260200160002060020160008981526020019081526020016000206001018190555086600160008a60ff1660ff168152602001908152602001600020600301819055506145f1565b600160008960ff1660ff168152602001908152602001600020600301549150600090505b600082118015614437575080155b156145f057868210801561447a575086600160008a60ff1660ff168152602001908152602001600020600201600084815260200190815260200160002060000154115b156145b85781600160008a60ff1660ff168152602001908152602001600020600201600089815260200190815260200160002060010181905550600160008960ff1660ff168152602001908152602001600020600201600083815260200190815260200160002060000154600160008a60ff1660ff16815260200190815260200160002060020160008981526020019081526020016000206000018190555086600160008a60ff1660ff1681526020019081526020016000206002016000600160008c60ff1660ff16815260200190815260200160002060020160008681526020019081526020016000206000015481526020019081526020016000206001018190555086600160008a60ff1660ff168152602001908152602001600020600201600084815260200190815260200160002060000181905550600190505b600160008960ff1660ff1681526020019081526020016000206002016000838152602001908152602001600020600101549150614429565b5b5b5b5050505050505050565b600080600080600160008960ff1660ff16815260200190815260200160002060060160008881526020019081526020016000206004016000815480929190600101919050555060408051908101604052808781526020018673ffffffffffffffffffffffffffffffffffffffff16815250600160008a60ff1660ff16815260200190815260200160002060060160008981526020019081526020016000206002016000600160008c60ff1660ff16815260200190815260200160002060060160008b81526020019081526020016000206004015481526020019081526020016000206000820151816000015560208201518160010160006101000a81548173ffffffffffffffffffffffffffffffffffffffff021916908373ffffffffffffffffffffffffffffffffffffffff16021790555090505060018060008a60ff1660ff1681526020019081526020016000206006016000898152602001908152602001600020600401541415614c3b5760018060008a60ff1660ff168152602001908152602001600020600601600089815260200190815260200160002060030181905550600160008960ff1660ff16815260200190815260200160002060090160008154809291906001019190505550600160008960ff1660ff168152602001908152602001600020600701549350600160008960ff1660ff168152602001908152602001600020600801549250600083148061481857508683105b1561497f5760008414156148b85786600160008a60ff1660ff168152602001908152602001600020600701819055506000600160008a60ff1660ff1681526020019081526020016000206006016000898152602001908152602001600020600001819055506000600160008a60ff1660ff168152602001908152602001600020600601600089815260200190815260200160002060010181905550614959565b86600160008a60ff1660ff16815260200190815260200160002060060160008581526020019081526020016000206000018190555082600160008a60ff1660ff1681526020019081526020016000206006016000898152602001908152602001600020600101819055506000600160008a60ff1660ff1681526020019081526020016000206006016000898152602001908152602001600020600001819055505b86600160008a60ff1660ff16815260200190815260200160002060080181905550614c3a565b86841115614a4d5786600160008a60ff1660ff16815260200190815260200160002060060160008681526020019081526020016000206001018190555083600160008a60ff1660ff1681526020019081526020016000206006016000898152602001908152602001600020600001819055506000600160008a60ff1660ff16815260200190815260200160002060060160008981526020019081526020016000206001018190555086600160008a60ff1660ff16815260200190815260200160002060070181905550614c39565b600160008960ff1660ff168152602001908152602001600020600701549150600090505b600082118015614a7f575080155b15614c38578682108015614ac2575086600160008a60ff1660ff168152602001908152602001600020600601600084815260200190815260200160002060000154115b15614c005781600160008a60ff1660ff168152602001908152602001600020600601600089815260200190815260200160002060010181905550600160008960ff1660ff168152602001908152602001600020600601600083815260200190815260200160002060000154600160008a60ff1660ff16815260200190815260200160002060060160008981526020019081526020016000206000018190555086600160008a60ff1660ff1681526020019081526020016000206006016000600160008c60ff1660ff16815260200190815260200160002060060160008681526020019081526020016000206000015481526020019081526020016000206001018190555086600160008a60ff1660ff168152602001908152602001600020600601600084815260200190815260200160002060000181905550600190505b600160008960ff1660ff1681526020019081526020016000206006016000838152602001908152602001600020600001549150614a71565b5b5b5b5050505050505050565b600080600190505b600260009054906101000a900460ff1660ff168160ff16111515614d4357614d29600160008360ff1660ff1681526020019081526020016000206001018054600181600116156101000203166002900480601f016020809104026020016040519081016040528092919081815260200182805460018160011615610100020316600290048015614d1e5780601f10614cf357610100808354040283529160200191614d1e565b820191906000526020600020905b815481529060010190602001808311614d0157829003601f168201915b505050505084614d4e565b15614d3657809150614d48565b8080600101915050614c4d565b600091505b50919050565b6000816040518082805190602001908083835b602083101515614d865780518252602082019150602081019050602083039250614d61565b6001836020036101000a038019825116818451168082178552505050505050905001915050604051809103902060001916836040518082805190602001908083835b602083101515614ded5780518252602082019150602081019050602083039250614dc8565b6001836020036101000a03801982511681845116808217855250505050505090500191505060405180910390206000191614905092915050565b828054600181600116156101000203166002900490600052602060002090601f016020900481019282601f10614e6857805160ff1916838001178555614e96565b82800160010185558215614e96579182015b82811115614e95578251825591602001919060010190614e7a565b5b509050614ea39190614ea7565b5090565b614ec991905b80821115614ec5576000816000905550600101614ead565b5090565b905600a165627a7a723058201ff11e0f2d00da6a1bd20471fc11e91b3ee234ee0a5b0910c1234510e4ec325e0029",
					"opcodes": "PUSH1 0x80 PUSH1 0x40 MSTORE CALLER PUSH1 0x0 DUP1 PUSH2 0x100 EXP DUP2 SLOAD DUP2 PUSH20 0xFFFFFFFFFFFFFFFFFFFFFFFFFFFFFFFFFFFFFFFF MUL NOT AND SWAP1 DUP4 PUSH20 0xFFFFFFFFFFFFFFFFFFFFFFFFFFFFFFFFFFFFFFFF AND MUL OR SWAP1 SSTORE POP PUSH2 0x4EF8 DUP1 PUSH2 0x53 PUSH1 0x0 CODECOPY PUSH1 0x0 RETURN STOP PUSH1 0x80 PUSH1 0x40 MSTORE PUSH1 0x4 CALLDATASIZE LT PUSH2 0xD0 JUMPI PUSH1 0x0 CALLDATALOAD PUSH29 0x100000000000000000000000000000000000000000000000000000000 SWAP1 DIV PUSH4 0xFFFFFFFF AND DUP1 PUSH4 0x3BC4A27 EQ PUSH2 0xD5 JUMPI DUP1 PUSH4 0x1A8EB72B EQ PUSH2 0x1DB JUMPI DUP1 PUSH4 0x33AD57E4 EQ PUSH2 0x206 JUMPI DUP1 PUSH4 0x3A51D246 EQ PUSH2 0x279 JUMPI DUP1 PUSH4 0x3BED33CE EQ PUSH2 0x2F6 JUMPI DUP1 PUSH4 0x5AB8EA33 EQ PUSH2 0x323 JUMPI DUP1 PUSH4 0x728FF029 EQ PUSH2 0x3A0 JUMPI DUP1 PUSH4 0x851030FE EQ PUSH2 0x4A6 JUMPI DUP1 PUSH4 0x8EA00818 EQ PUSH2 0x523 JUMPI DUP1 PUSH4 0x977377F8 EQ PUSH2 0x5A4 JUMPI DUP1 PUSH4 0x98EA5FCA EQ PUSH2 0x627 JUMPI DUP1 PUSH4 0xB0B22C2C EQ PUSH2 0x631 JUMPI DUP1 PUSH4 0xC97A413A EQ PUSH2 0x6BA JUMPI DUP1 PUSH4 0xD1A3B025 EQ PUSH2 0x72D JUMPI JUMPDEST PUSH1 0x0 DUP1 REVERT JUMPDEST CALLVALUE DUP1 ISZERO PUSH2 0xE1 JUMPI PUSH1 0x0 DUP1 REVERT JUMPDEST POP PUSH2 0x13C PUSH1 0x4 DUP1 CALLDATASIZE SUB DUP2 ADD SWAP1 DUP1 DUP1 CALLDATALOAD SWAP1 PUSH1 0x20 ADD SWAP1 DUP3 ADD DUP1 CALLDATALOAD SWAP1 PUSH1 0x20 ADD SWAP1 DUP1 DUP1 PUSH1 0x1F ADD PUSH1 0x20 DUP1 SWAP2 DIV MUL PUSH1 0x20 ADD PUSH1 0x40 MLOAD SWAP1 DUP2 ADD PUSH1 0x40 MSTORE DUP1 SWAP4 SWAP3 SWAP2 SWAP1 DUP2 DUP2 MSTORE PUSH1 0x20 ADD DUP4 DUP4 DUP1 DUP3 DUP5 CALLDATACOPY DUP3 ADD SWAP2 POP POP POP POP POP POP SWAP2 SWAP3 SWAP2 SWAP3 SWAP1 POP POP POP PUSH2 0x7B6 JUMP JUMPDEST PUSH1 0x40 MLOAD DUP1 DUP1 PUSH1 0x20 ADD DUP1 PUSH1 0x20 ADD DUP4 DUP2 SUB DUP4 MSTORE DUP6 DUP2 DUP2 MLOAD DUP2 MSTORE PUSH1 0x20 ADD SWAP2 POP DUP1 MLOAD SWAP1 PUSH1 0x20 ADD SWAP1 PUSH1 0x20 MUL DUP1 DUP4 DUP4 PUSH1 0x0 JUMPDEST DUP4 DUP2 LT ISZERO PUSH2 0x183 JUMPI DUP1 DUP3 ADD MLOAD DUP2 DUP5 ADD MSTORE PUSH1 0x20 DUP2 ADD SWAP1 POP PUSH2 0x168 JUMP JUMPDEST POP POP POP POP SWAP1 POP ADD DUP4 DUP2 SUB DUP3 MSTORE DUP5 DUP2 DUP2 MLOAD DUP2 MSTORE PUSH1 0x20 ADD SWAP2 POP DUP1 MLOAD SWAP1 PUSH1 0x20 ADD SWAP1 PUSH1 0x20 MUL DUP1 DUP4 DUP4 PUSH1 0x0 JUMPDEST DUP4 DUP2 LT ISZERO PUSH2 0x1C5 JUMPI DUP1 DUP3 ADD MLOAD DUP2 DUP5 ADD MSTORE PUSH1 0x20 DUP2 ADD SWAP1 POP PUSH2 0x1AA JUMP JUMPDEST POP POP POP POP SWAP1 POP ADD SWAP5 POP POP POP POP POP PUSH1 0x40 MLOAD DUP1 SWAP2 SUB SWAP1 RETURN JUMPDEST CALLVALUE DUP1 ISZERO PUSH2 0x1E7 JUMPI PUSH1 0x0 DUP1 REVERT JUMPDEST POP PUSH2 0x1F0 PUSH2 0xA6E JUMP JUMPDEST PUSH1 0x40 MLOAD DUP1 DUP3 DUP2 MSTORE PUSH1 0x20 ADD SWAP2 POP POP PUSH1 0x40 MLOAD DUP1 SWAP2 SUB SWAP1 RETURN JUMPDEST CALLVALUE DUP1 ISZERO PUSH2 0x212 JUMPI PUSH1 0x0 DUP1 REVERT JUMPDEST POP PUSH2 0x277 PUSH1 0x4 DUP1 CALLDATASIZE SUB DUP2 ADD SWAP1 DUP1 DUP1 CALLDATALOAD SWAP1 PUSH1 0x20 ADD SWAP1 DUP3 ADD DUP1 CALLDATALOAD SWAP1 PUSH1 0x20 ADD SWAP1 DUP1 DUP1 PUSH1 0x1F ADD PUSH1 0x20 DUP1 SWAP2 DIV MUL PUSH1 0x20 ADD PUSH1 0x40 MLOAD SWAP1 DUP2 ADD PUSH1 0x40 MSTORE DUP1 SWAP4 SWAP3 SWAP2 SWAP1 DUP2 DUP2 MSTORE PUSH1 0x20 ADD DUP4 DUP4 DUP1 DUP3 DUP5 CALLDATACOPY DUP3 ADD SWAP2 POP POP POP POP POP POP SWAP2 SWAP3 SWAP2 SWAP3 SWAP1 DUP1 CALLDATALOAD SWAP1 PUSH1 0x20 ADD SWAP1 SWAP3 SWAP2 SWAP1 POP POP POP PUSH2 0xAB5 JUMP JUMPDEST STOP JUMPDEST CALLVALUE DUP1 ISZERO PUSH2 0x285 JUMPI PUSH1 0x0 DUP1 REVERT JUMPDEST POP PUSH2 0x2E0 PUSH1 0x4 DUP1 CALLDATASIZE SUB DUP2 ADD SWAP1 DUP1 DUP1 CALLDATALOAD SWAP1 PUSH1 0x20 ADD SWAP1 DUP3 ADD DUP1 CALLDATALOAD SWAP1 PUSH1 0x20 ADD SWAP1 DUP1 DUP1 PUSH1 0x1F ADD PUSH1 0x20 DUP1 SWAP2 DIV MUL PUSH1 0x20 ADD PUSH1 0x40 MLOAD SWAP1 DUP2 ADD PUSH1 0x40 MSTORE DUP1 SWAP4 SWAP3 SWAP2 SWAP1 DUP2 DUP2 MSTORE PUSH1 0x20 ADD DUP4 DUP4 DUP1 DUP3 DUP5 CALLDATACOPY DUP3 ADD SWAP2 POP POP POP POP POP POP SWAP2 SWAP3 SWAP2 SWAP3 SWAP1 POP POP POP PUSH2 0xE1F JUMP JUMPDEST PUSH1 0x40 MLOAD DUP1 DUP3 DUP2 MSTORE PUSH1 0x20 ADD SWAP2 POP POP PUSH1 0x40 MLOAD DUP1 SWAP2 SUB SWAP1 RETURN JUMPDEST CALLVALUE DUP1 ISZERO PUSH2 0x302 JUMPI PUSH1 0x0 DUP1 REVERT JUMPDEST POP PUSH2 0x321 PUSH1 0x4 DUP1 CALLDATASIZE SUB DUP2 ADD SWAP1 DUP1 DUP1 CALLDATALOAD SWAP1 PUSH1 0x20 ADD SWAP1 SWAP3 SWAP2 SWAP1 POP POP POP PUSH2 0xE8C JUMP JUMPDEST STOP JUMPDEST CALLVALUE DUP1 ISZERO PUSH2 0x32F JUMPI PUSH1 0x0 DUP1 REVERT JUMPDEST POP PUSH2 0x39E PUSH1 0x4 DUP1 CALLDATASIZE SUB DUP2 ADD SWAP1 DUP1 DUP1 CALLDATALOAD SWAP1 PUSH1 0x20 ADD SWAP1 DUP3 ADD DUP1 CALLDATALOAD SWAP1 PUSH1 0x20 ADD SWAP1 DUP1 DUP1 PUSH1 0x1F ADD PUSH1 0x20 DUP1 SWAP2 DIV MUL PUSH1 0x20 ADD PUSH1 0x40 MLOAD SWAP1 DUP2 ADD PUSH1 0x40 MSTORE DUP1 SWAP4 SWAP3 SWAP2 SWAP1 DUP2 DUP2 MSTORE PUSH1 0x20 ADD DUP4 DUP4 DUP1 DUP3 DUP5 CALLDATACOPY DUP3 ADD SWAP2 POP POP POP POP POP POP SWAP2 SWAP3 SWAP2 SWAP3 SWAP1 DUP1 CALLDATALOAD SWAP1 PUSH1 0x20 ADD SWAP1 SWAP3 SWAP2 SWAP1 DUP1 CALLDATALOAD SWAP1 PUSH1 0x20 ADD SWAP1 SWAP3 SWAP2 SWAP1 POP POP POP PUSH2 0x1059 JUMP JUMPDEST STOP JUMPDEST CALLVALUE DUP1 ISZERO PUSH2 0x3AC JUMPI PUSH1 0x0 DUP1 REVERT JUMPDEST POP PUSH2 0x407 PUSH1 0x4 DUP1 CALLDATASIZE SUB DUP2 ADD SWAP1 DUP1 DUP1 CALLDATALOAD SWAP1 PUSH1 0x20 ADD SWAP1 DUP3 ADD DUP1 CALLDATALOAD SWAP1 PUSH1 0x20 ADD SWAP1 DUP1 DUP1 PUSH1 0x1F ADD PUSH1 0x20 DUP1 SWAP2 DIV MUL PUSH1 0x20 ADD PUSH1 0x40 MLOAD SWAP1 DUP2 ADD PUSH1 0x40 MSTORE DUP1 SWAP4 SWAP3 SWAP2 SWAP1 DUP2 DUP2 MSTORE PUSH1 0x20 ADD DUP4 DUP4 DUP1 DUP3 DUP5 CALLDATACOPY DUP3 ADD SWAP2 POP POP POP POP POP POP SWAP2 SWAP3 SWAP2 SWAP3 SWAP1 POP POP POP PUSH2 0x1FD7 JUMP JUMPDEST PUSH1 0x40 MLOAD DUP1 DUP1 PUSH1 0x20 ADD DUP1 PUSH1 0x20 ADD DUP4 DUP2 SUB DUP4 MSTORE DUP6 DUP2 DUP2 MLOAD DUP2 MSTORE PUSH1 0x20 ADD SWAP2 POP DUP1 MLOAD SWAP1 PUSH1 0x20 ADD SWAP1 PUSH1 0x20 MUL DUP1 DUP4 DUP4 PUSH1 0x0 JUMPDEST DUP4 DUP2 LT ISZERO PUSH2 0x44E JUMPI DUP1 DUP3 ADD MLOAD DUP2 DUP5 ADD MSTORE PUSH1 0x20 DUP2 ADD SWAP1 POP PUSH2 0x433 JUMP JUMPDEST POP POP POP POP SWAP1 POP ADD DUP4 DUP2 SUB DUP3 MSTORE DUP5 DUP2 DUP2 MLOAD DUP2 MSTORE PUSH1 0x20 ADD SWAP2 POP DUP1 MLOAD SWAP1 PUSH1 0x20 ADD SWAP1 PUSH1 0x20 MUL DUP1 DUP4 DUP4 PUSH1 0x0 JUMPDEST DUP4 DUP2 LT ISZERO PUSH2 0x490 JUMPI DUP1 DUP3 ADD MLOAD DUP2 DUP5 ADD MSTORE PUSH1 0x20 DUP2 ADD SWAP1 POP PUSH2 0x475 JUMP JUMPDEST POP POP POP POP SWAP1 POP ADD SWAP5 POP POP POP POP POP PUSH1 0x40 MLOAD DUP1 SWAP2 SUB SWAP1 RETURN JUMPDEST CALLVALUE DUP1 ISZERO PUSH2 0x4B2 JUMPI PUSH1 0x0 DUP1 REVERT JUMPDEST POP PUSH2 0x521 PUSH1 0x4 DUP1 CALLDATASIZE SUB DUP2 ADD SWAP1 DUP1 DUP1 CALLDATALOAD SWAP1 PUSH1 0x20 ADD SWAP1 DUP3 ADD DUP1 CALLDATALOAD SWAP1 PUSH1 0x20 ADD SWAP1 DUP1 DUP1 PUSH1 0x1F ADD PUSH1 0x20 DUP1 SWAP2 DIV MUL PUSH1 0x20 ADD PUSH1 0x40 MLOAD SWAP1 DUP2 ADD PUSH1 0x40 MSTORE DUP1 SWAP4 SWAP3 SWAP2 SWAP1 DUP2 DUP2 MSTORE PUSH1 0x20 ADD DUP4 DUP4 DUP1 DUP3 DUP5 CALLDATACOPY DUP3 ADD SWAP2 POP POP POP POP POP POP SWAP2 SWAP3 SWAP2 SWAP3 SWAP1 DUP1 CALLDATALOAD SWAP1 PUSH1 0x20 ADD SWAP1 SWAP3 SWAP2 SWAP1 DUP1 CALLDATALOAD SWAP1 PUSH1 0x20 ADD SWAP1 SWAP3 SWAP2 SWAP1 POP POP POP PUSH2 0x2290 JUMP JUMPDEST STOP JUMPDEST CALLVALUE DUP1 ISZERO PUSH2 0x52F JUMPI PUSH1 0x0 DUP1 REVERT JUMPDEST POP PUSH2 0x58A PUSH1 0x4 DUP1 CALLDATASIZE SUB DUP2 ADD SWAP1 DUP1 DUP1 CALLDATALOAD SWAP1 PUSH1 0x20 ADD SWAP1 DUP3 ADD DUP1 CALLDATALOAD SWAP1 PUSH1 0x20 ADD SWAP1 DUP1 DUP1 PUSH1 0x1F ADD PUSH1 0x20 DUP1 SWAP2 DIV MUL PUSH1 0x20 ADD PUSH1 0x40 MLOAD SWAP1 DUP2 ADD PUSH1 0x40 MSTORE DUP1 SWAP4 SWAP3 SWAP2 SWAP1 DUP2 DUP2 MSTORE PUSH1 0x20 ADD DUP4 DUP4 DUP1 DUP3 DUP5 CALLDATACOPY DUP3 ADD SWAP2 POP POP POP POP POP POP SWAP2 SWAP3 SWAP2 SWAP3 SWAP1 POP POP POP PUSH2 0x3343 JUMP JUMPDEST PUSH1 0x40 MLOAD DUP1 DUP3 ISZERO ISZERO ISZERO ISZERO DUP2 MSTORE PUSH1 0x20 ADD SWAP2 POP POP PUSH1 0x40 MLOAD DUP1 SWAP2 SUB SWAP1 RETURN JUMPDEST CALLVALUE DUP1 ISZERO PUSH2 0x5B0 JUMPI PUSH1 0x0 DUP1 REVERT JUMPDEST POP PUSH2 0x60B PUSH1 0x4 DUP1 CALLDATASIZE SUB DUP2 ADD SWAP1 DUP1 DUP1 CALLDATALOAD SWAP1 PUSH1 0x20 ADD SWAP1 DUP3 ADD DUP1 CALLDATALOAD SWAP1 PUSH1 0x20 ADD SWAP1 DUP1 DUP1 PUSH1 0x1F ADD PUSH1 0x20 DUP1 SWAP2 DIV MUL PUSH1 0x20 ADD PUSH1 0x40 MLOAD SWAP1 DUP2 ADD PUSH1 0x40 MSTORE DUP1 SWAP4 SWAP3 SWAP2 SWAP1 DUP2 DUP2 MSTORE PUSH1 0x20 ADD DUP4 DUP4 DUP1 DUP3 DUP5 CALLDATACOPY DUP3 ADD SWAP2 POP POP POP POP POP POP SWAP2 SWAP3 SWAP2 SWAP3 SWAP1 POP POP POP PUSH2 0x3371 JUMP JUMPDEST PUSH1 0x40 MLOAD DUP1 DUP3 PUSH1 0xFF AND PUSH1 0xFF AND DUP2 MSTORE PUSH1 0x20 ADD SWAP2 POP POP PUSH1 0x40 MLOAD DUP1 SWAP2 SUB SWAP1 RETURN JUMPDEST PUSH2 0x62F PUSH2 0x339A JUMP JUMPDEST STOP JUMPDEST CALLVALUE DUP1 ISZERO PUSH2 0x63D JUMPI PUSH1 0x0 DUP1 REVERT JUMPDEST POP PUSH2 0x6B8 PUSH1 0x4 DUP1 CALLDATASIZE SUB DUP2 ADD SWAP1 DUP1 DUP1 CALLDATALOAD SWAP1 PUSH1 0x20 ADD SWAP1 DUP3 ADD DUP1 CALLDATALOAD SWAP1 PUSH1 0x20 ADD SWAP1 DUP1 DUP1 PUSH1 0x1F ADD PUSH1 0x20 DUP1 SWAP2 DIV MUL PUSH1 0x20 ADD PUSH1 0x40 MLOAD SWAP1 DUP2 ADD PUSH1 0x40 MSTORE DUP1 SWAP4 SWAP3 SWAP2 SWAP1 DUP2 DUP2 MSTORE PUSH1 0x20 ADD DUP4 DUP4 DUP1 DUP3 DUP5 CALLDATACOPY DUP3 ADD SWAP2 POP POP POP POP POP POP SWAP2 SWAP3 SWAP2 SWAP3 SWAP1 DUP1 CALLDATALOAD PUSH20 0xFFFFFFFFFFFFFFFFFFFFFFFFFFFFFFFFFFFFFFFF AND SWAP1 PUSH1 0x20 ADD SWAP1 SWAP3 SWAP2 SWAP1 POP POP POP PUSH2 0x34CE JUMP JUMPDEST STOP JUMPDEST CALLVALUE DUP1 ISZERO PUSH2 0x6C6 JUMPI PUSH1 0x0 DUP1 REVERT JUMPDEST POP PUSH2 0x72B PUSH1 0x4 DUP1 CALLDATASIZE SUB DUP2 ADD SWAP1 DUP1 DUP1 CALLDATALOAD SWAP1 PUSH1 0x20 ADD SWAP1 DUP3 ADD DUP1 CALLDATALOAD SWAP1 PUSH1 0x20 ADD SWAP1 DUP1 DUP1 PUSH1 0x1F ADD PUSH1 0x20 DUP1 SWAP2 DIV MUL PUSH1 0x20 ADD PUSH1 0x40 MLOAD SWAP1 DUP2 ADD PUSH1 0x40 MSTORE DUP1 SWAP4 SWAP3 SWAP2 SWAP1 DUP2 DUP2 MSTORE PUSH1 0x20 ADD DUP4 DUP4 DUP1 DUP3 DUP5 CALLDATACOPY DUP3 ADD SWAP2 POP POP POP POP POP POP SWAP2 SWAP3 SWAP2 SWAP3 SWAP1 DUP1 CALLDATALOAD SWAP1 PUSH1 0x20 ADD SWAP1 SWAP3 SWAP2 SWAP1 POP POP POP PUSH2 0x3711 JUMP JUMPDEST STOP JUMPDEST CALLVALUE DUP1 ISZERO PUSH2 0x739 JUMPI PUSH1 0x0 DUP1 REVERT JUMPDEST POP PUSH2 0x7B4 PUSH1 0x4 DUP1 CALLDATASIZE SUB DUP2 ADD SWAP1 DUP1 DUP1 CALLDATALOAD SWAP1 PUSH1 0x20 ADD SWAP1 DUP3 ADD DUP1 CALLDATALOAD SWAP1 PUSH1 0x20 ADD SWAP1 DUP1 DUP1 PUSH1 0x1F ADD PUSH1 0x20 DUP1 SWAP2 DIV MUL PUSH1 0x20 ADD PUSH1 0x40 MLOAD SWAP1 DUP2 ADD PUSH1 0x40 MSTORE DUP1 SWAP4 SWAP3 SWAP2 SWAP1 DUP2 DUP2 MSTORE PUSH1 0x20 ADD DUP4 DUP4 DUP1 DUP3 DUP5 CALLDATACOPY DUP3 ADD SWAP2 POP POP POP POP POP POP SWAP2 SWAP3 SWAP2 SWAP3 SWAP1 DUP1 CALLDATALOAD ISZERO ISZERO SWAP1 PUSH1 0x20 ADD SWAP1 SWAP3 SWAP2 SWAP1 DUP1 CALLDATALOAD SWAP1 PUSH1 0x20 ADD SWAP1 SWAP3 SWAP2 SWAP1 DUP1 CALLDATALOAD SWAP1 PUSH1 0x20 ADD SWAP1 SWAP3 SWAP2 SWAP1 POP POP POP PUSH2 0x3AAF JUMP JUMPDEST STOP JUMPDEST PUSH1 0x60 DUP1 PUSH1 0x0 PUSH1 0x60 DUP1 PUSH1 0x0 DUP1 PUSH1 0x0 DUP1 PUSH2 0x7CD DUP11 PUSH2 0x3371 JUMP JUMPDEST SWAP7 POP PUSH1 0x1 PUSH1 0x0 DUP9 PUSH1 0xFF AND PUSH1 0xFF AND DUP2 MSTORE PUSH1 0x20 ADD SWAP1 DUP2 MSTORE PUSH1 0x20 ADD PUSH1 0x0 KECCAK256 PUSH1 0x5 ADD SLOAD PUSH1 0x40 MLOAD SWAP1 DUP1 DUP3 MSTORE DUP1 PUSH1 0x20 MUL PUSH1 0x20 ADD DUP3 ADD PUSH1 0x40 MSTORE DUP1 ISZERO PUSH2 0x81A JUMPI DUP2 PUSH1 0x20 ADD PUSH1 0x20 DUP3 MUL DUP1 CODESIZE DUP4 CODECOPY DUP1 DUP3 ADD SWAP2 POP POP SWAP1 POP JUMPDEST POP SWAP6 POP PUSH1 0x1 PUSH1 0x0 DUP9 PUSH1 0xFF AND PUSH1 0xFF AND DUP2 MSTORE PUSH1 0x20 ADD SWAP1 DUP2 MSTORE PUSH1 0x20 ADD PUSH1 0x0 KECCAK256 PUSH1 0x5 ADD SLOAD PUSH1 0x40 MLOAD SWAP1 DUP1 DUP3 MSTORE DUP1 PUSH1 0x20 MUL PUSH1 0x20 ADD DUP3 ADD PUSH1 0x40 MSTORE DUP1 ISZERO PUSH2 0x868 JUMPI DUP2 PUSH1 0x20 ADD PUSH1 0x20 DUP3 MUL DUP1 CODESIZE DUP4 CODECOPY DUP1 DUP3 ADD SWAP2 POP POP SWAP1 POP JUMPDEST POP SWAP5 POP PUSH1 0x1 PUSH1 0x0 DUP9 PUSH1 0xFF AND PUSH1 0xFF AND DUP2 MSTORE PUSH1 0x20 ADD SWAP1 DUP2 MSTORE PUSH1 0x20 ADD PUSH1 0x0 KECCAK256 PUSH1 0x4 ADD SLOAD SWAP4 POP PUSH1 0x0 SWAP3 POP PUSH1 0x0 PUSH1 0x1 PUSH1 0x0 DUP10 PUSH1 0xFF AND PUSH1 0xFF AND DUP2 MSTORE PUSH1 0x20 ADD SWAP1 DUP2 MSTORE PUSH1 0x20 ADD PUSH1 0x0 KECCAK256 PUSH1 0x3 ADD SLOAD GT ISZERO PUSH2 0xA5C JUMPI JUMPDEST PUSH1 0x1 PUSH1 0x0 DUP9 PUSH1 0xFF AND PUSH1 0xFF AND DUP2 MSTORE PUSH1 0x20 ADD SWAP1 DUP2 MSTORE PUSH1 0x20 ADD PUSH1 0x0 KECCAK256 PUSH1 0x3 ADD SLOAD DUP5 GT ISZERO ISZERO PUSH2 0xA5B JUMPI DUP4 DUP7 DUP5 DUP2 MLOAD DUP2 LT ISZERO ISZERO PUSH2 0x8E8 JUMPI INVALID JUMPDEST SWAP1 PUSH1 0x20 ADD SWAP1 PUSH1 0x20 MUL ADD DUP2 DUP2 MSTORE POP POP PUSH1 0x0 SWAP2 POP PUSH1 0x0 SWAP1 POP PUSH1 0x1 PUSH1 0x0 DUP9 PUSH1 0xFF AND PUSH1 0xFF AND DUP2 MSTORE PUSH1 0x20 ADD SWAP1 DUP2 MSTORE PUSH1 0x20 ADD PUSH1 0x0 KECCAK256 PUSH1 0x2 ADD PUSH1 0x0 DUP6 DUP2 MSTORE PUSH1 0x20 ADD SWAP1 DUP2 MSTORE PUSH1 0x20 ADD PUSH1 0x0 KECCAK256 PUSH1 0x3 ADD SLOAD SWAP1 POP JUMPDEST PUSH1 0x1 PUSH1 0x0 DUP9 PUSH1 0xFF AND PUSH1 0xFF AND DUP2 MSTORE PUSH1 0x20 ADD SWAP1 DUP2 MSTORE PUSH1 0x20 ADD PUSH1 0x0 KECCAK256 PUSH1 0x2 ADD PUSH1 0x0 DUP6 DUP2 MSTORE PUSH1 0x20 ADD SWAP1 DUP2 MSTORE PUSH1 0x20 ADD PUSH1 0x0 KECCAK256 PUSH1 0x4 ADD SLOAD DUP2 GT ISZERO ISZERO PUSH2 0x9C1 JUMPI PUSH1 0x1 PUSH1 0x0 DUP9 PUSH1 0xFF AND PUSH1 0xFF AND DUP2 MSTORE PUSH1 0x20 ADD SWAP1 DUP2 MSTORE PUSH1 0x20 ADD PUSH1 0x0 KECCAK256 PUSH1 0x2 ADD PUSH1 0x0 DUP6 DUP2 MSTORE PUSH1 0x20 ADD SWAP1 DUP2 MSTORE PUSH1 0x20 ADD PUSH1 0x0 KECCAK256 PUSH1 0x2 ADD PUSH1 0x0 DUP3 DUP2 MSTORE PUSH1 0x20 ADD SWAP1 DUP2 MSTORE PUSH1 0x20 ADD PUSH1 0x0 KECCAK256 PUSH1 0x0 ADD SLOAD DUP3 ADD SWAP2 POP DUP1 DUP1 PUSH1 0x1 ADD SWAP2 POP POP PUSH2 0x932 JUMP JUMPDEST DUP2 DUP6 DUP5 DUP2 MLOAD DUP2 LT ISZERO ISZERO PUSH2 0x9D0 JUMPI INVALID JUMPDEST SWAP1 PUSH1 0x20 ADD SWAP1 PUSH1 0x20 MUL ADD DUP2 DUP2 MSTORE POP POP PUSH1 0x1 PUSH1 0x0 DUP9 PUSH1 0xFF AND PUSH1 0xFF AND DUP2 MSTORE PUSH1 0x20 ADD SWAP1 DUP2 MSTORE PUSH1 0x20 ADD PUSH1 0x0 KECCAK256 PUSH1 0x2 ADD PUSH1 0x0 DUP6 DUP2 MSTORE PUSH1 0x20 ADD SWAP1 DUP2 MSTORE PUSH1 0x20 ADD PUSH1 0x0 KECCAK256 PUSH1 0x0 ADD SLOAD DUP5 EQ ISZERO PUSH2 0xA1B JUMPI PUSH2 0xA5B JUMP JUMPDEST PUSH1 0x1 PUSH1 0x0 DUP9 PUSH1 0xFF AND PUSH1 0xFF AND DUP2 MSTORE PUSH1 0x20 ADD SWAP1 DUP2 MSTORE PUSH1 0x20 ADD PUSH1 0x0 KECCAK256 PUSH1 0x2 ADD PUSH1 0x0 DUP6 DUP2 MSTORE PUSH1 0x20 ADD SWAP1 DUP2 MSTORE PUSH1 0x20 ADD PUSH1 0x0 KECCAK256 PUSH1 0x0 ADD SLOAD SWAP4 POP DUP3 DUP1 PUSH1 0x1 ADD SWAP4 POP POP PUSH2 0x8B4 JUMP JUMPDEST JUMPDEST DUP6 DUP6 SWAP9 POP SWAP9 POP POP POP POP POP POP POP POP SWAP2 POP SWAP2 JUMP JUMPDEST PUSH1 0x0 PUSH1 0x4 PUSH1 0x0 CALLER PUSH20 0xFFFFFFFFFFFFFFFFFFFFFFFFFFFFFFFFFFFFFFFF AND PUSH20 0xFFFFFFFFFFFFFFFFFFFFFFFFFFFFFFFFFFFFFFFF AND DUP2 MSTORE PUSH1 0x20 ADD SWAP1 DUP2 MSTORE PUSH1 0x20 ADD PUSH1 0x0 KECCAK256 SLOAD SWAP1 POP SWAP1 JUMP JUMPDEST PUSH1 0x0 DUP1 PUSH2 0xAC1 DUP5 PUSH2 0x3371 JUMP JUMPDEST SWAP2 POP PUSH1 0x0 PUSH20 0xFFFFFFFFFFFFFFFFFFFFFFFFFFFFFFFFFFFFFFFF AND PUSH1 0x1 PUSH1 0x0 DUP5 PUSH1 0xFF AND PUSH1 0xFF AND DUP2 MSTORE PUSH1 0x20 ADD SWAP1 DUP2 MSTORE PUSH1 0x20 ADD PUSH1 0x0 KECCAK256 PUSH1 0x0 ADD PUSH1 0x0 SWAP1 SLOAD SWAP1 PUSH2 0x100 EXP SWAP1 DIV PUSH20 0xFFFFFFFFFFFFFFFFFFFFFFFFFFFFFFFFFFFFFFFF AND PUSH20 0xFFFFFFFFFFFFFFFFFFFFFFFFFFFFFFFFFFFFFFFF AND EQ ISZERO ISZERO ISZERO PUSH2 0xB3B JUMPI PUSH1 0x0 DUP1 REVERT JUMPDEST PUSH1 0x1 PUSH1 0x0 DUP4 PUSH1 0xFF AND PUSH1 0xFF AND DUP2 MSTORE PUSH1 0x20 ADD SWAP1 DUP2 MSTORE PUSH1 0x20 ADD PUSH1 0x0 KECCAK256 PUSH1 0x0 ADD PUSH1 0x0 SWAP1 SLOAD SWAP1 PUSH2 0x100 EXP SWAP1 DIV PUSH20 0xFFFFFFFFFFFFFFFFFFFFFFFFFFFFFFFFFFFFFFFF AND SWAP1 POP PUSH1 0x1 ISZERO ISZERO DUP2 PUSH20 0xFFFFFFFFFFFFFFFFFFFFFFFFFFFFFFFFFFFFFFFF AND PUSH4 0x23B872DD CALLER ADDRESS DUP8 PUSH1 0x40 MLOAD DUP5 PUSH4 0xFFFFFFFF AND PUSH29 0x100000000000000000000000000000000000000000000000000000000 MUL DUP2 MSTORE PUSH1 0x4 ADD DUP1 DUP5 PUSH20 0xFFFFFFFFFFFFFFFFFFFFFFFFFFFFFFFFFFFFFFFF AND PUSH20 0xFFFFFFFFFFFFFFFFFFFFFFFFFFFFFFFFFFFFFFFF AND DUP2 MSTORE PUSH1 0x20 ADD DUP4 PUSH20 0xFFFFFFFFFFFFFFFFFFFFFFFFFFFFFFFFFFFFFFFF AND PUSH20 0xFFFFFFFFFFFFFFFFFFFFFFFFFFFFFFFFFFFFFFFF AND DUP2 MSTORE PUSH1 0x20 ADD DUP3 DUP2 MSTORE PUSH1 0x20 ADD SWAP4 POP POP POP POP PUSH1 0x20 PUSH1 0x40 MLOAD DUP1 DUP4 SUB DUP2 PUSH1 0x0 DUP8 DUP1 EXTCODESIZE ISZERO DUP1 ISZERO PUSH2 0xC55 JUMPI PUSH1 0x0 DUP1 REVERT JUMPDEST POP GAS CALL ISZERO DUP1 ISZERO PUSH2 0xC69 JUMPI RETURNDATASIZE PUSH1 0x0 DUP1 RETURNDATACOPY RETURNDATASIZE PUSH1 0x0 REVERT JUMPDEST POP POP POP POP PUSH1 0x40 MLOAD RETURNDATASIZE PUSH1 0x20 DUP2 LT ISZERO PUSH2 0xC7F JUMPI PUSH1 0x0 DUP1 REVERT JUMPDEST DUP2 ADD SWAP1 DUP1 DUP1 MLOAD SWAP1 PUSH1 0x20 ADD SWAP1 SWAP3 SWAP2 SWAP1 POP POP POP ISZERO ISZERO EQ ISZERO ISZERO PUSH2 0xC9E JUMPI PUSH1 0x0 DUP1 REVERT JUMPDEST PUSH1 0x3 PUSH1 0x0 CALLER PUSH20 0xFFFFFFFFFFFFFFFFFFFFFFFFFFFFFFFFFFFFFFFF AND PUSH20 0xFFFFFFFFFFFFFFFFFFFFFFFFFFFFFFFFFFFFFFFF AND DUP2 MSTORE PUSH1 0x20 ADD SWAP1 DUP2 MSTORE PUSH1 0x20 ADD PUSH1 0x0 KECCAK256 PUSH1 0x0 DUP4 PUSH1 0xFF AND PUSH1 0xFF AND DUP2 MSTORE PUSH1 0x20 ADD SWAP1 DUP2 MSTORE PUSH1 0x20 ADD PUSH1 0x0 KECCAK256 SLOAD DUP4 PUSH1 0x3 PUSH1 0x0 CALLER PUSH20 0xFFFFFFFFFFFFFFFFFFFFFFFFFFFFFFFFFFFFFFFF AND PUSH20 0xFFFFFFFFFFFFFFFFFFFFFFFFFFFFFFFFFFFFFFFF AND DUP2 MSTORE PUSH1 0x20 ADD SWAP1 DUP2 MSTORE PUSH1 0x20 ADD PUSH1 0x0 KECCAK256 PUSH1 0x0 DUP6 PUSH1 0xFF AND PUSH1 0xFF AND DUP2 MSTORE PUSH1 0x20 ADD SWAP1 DUP2 MSTORE PUSH1 0x20 ADD PUSH1 0x0 KECCAK256 SLOAD ADD LT ISZERO ISZERO ISZERO PUSH2 0xD5B JUMPI PUSH1 0x0 DUP1 REVERT JUMPDEST DUP3 PUSH1 0x3 PUSH1 0x0 CALLER PUSH20 0xFFFFFFFFFFFFFFFFFFFFFFFFFFFFFFFFFFFFFFFF AND PUSH20 0xFFFFFFFFFFFFFFFFFFFFFFFFFFFFFFFFFFFFFFFF AND DUP2 MSTORE PUSH1 0x20 ADD SWAP1 DUP2 MSTORE PUSH1 0x20 ADD PUSH1 0x0 KECCAK256 PUSH1 0x0 DUP5 PUSH1 0xFF AND PUSH1 0xFF AND DUP2 MSTORE PUSH1 0x20 ADD SWAP1 DUP2 MSTORE PUSH1 0x20 ADD PUSH1 0x0 KECCAK256 PUSH1 0x0 DUP3 DUP3 SLOAD ADD SWAP3 POP POP DUP2 SWAP1 SSTORE POP DUP2 PUSH1 0xFF AND CALLER PUSH20 0xFFFFFFFFFFFFFFFFFFFFFFFFFFFFFFFFFFFFFFFF AND PUSH32 0xC0AA5496C7B01C4B317A58E270B45F383BCD6AE57F9E5124DB9C0674B7776499 DUP6 TIMESTAMP PUSH1 0x40 MLOAD DUP1 DUP4 DUP2 MSTORE PUSH1 0x20 ADD DUP3 DUP2 MSTORE PUSH1 0x20 ADD SWAP3 POP POP POP PUSH1 0x40 MLOAD DUP1 SWAP2 SUB SWAP1 LOG3 POP POP POP POP JUMP JUMPDEST PUSH1 0x0 DUP1 PUSH2 0xE2B DUP4 PUSH2 0x3371 JUMP JUMPDEST SWAP1 POP PUSH1 0x3 PUSH1 0x0 CALLER PUSH20 0xFFFFFFFFFFFFFFFFFFFFFFFFFFFFFFFFFFFFFFFF AND PUSH20 0xFFFFFFFFFFFFFFFFFFFFFFFFFFFFFFFFFFFFFFFF AND DUP2 MSTORE PUSH1 0x20 ADD SWAP1 DUP2 MSTORE PUSH1 0x20 ADD PUSH1 0x0 KECCAK256 PUSH1 0x0 DUP3 PUSH1 0xFF AND PUSH1 0xFF AND DUP2 MSTORE PUSH1 0x20 ADD SWAP1 DUP2 MSTORE PUSH1 0x20 ADD PUSH1 0x0 KECCAK256 SLOAD SWAP2 POP POP SWAP2 SWAP1 POP JUMP JUMPDEST PUSH1 0x0 DUP2 PUSH1 0x4 PUSH1 0x0 CALLER PUSH20 0xFFFFFFFFFFFFFFFFFFFFFFFFFFFFFFFFFFFFFFFF AND PUSH20 0xFFFFFFFFFFFFFFFFFFFFFFFFFFFFFFFFFFFFFFFF AND DUP2 MSTORE PUSH1 0x20 ADD SWAP1 DUP2 MSTORE PUSH1 0x20 ADD PUSH1 0x0 KECCAK256 SLOAD SUB LT ISZERO ISZERO ISZERO PUSH2 0xEDD JUMPI PUSH1 0x0 DUP1 REVERT JUMPDEST PUSH1 0x4 PUSH1 0x0 CALLER PUSH20 0xFFFFFFFFFFFFFFFFFFFFFFFFFFFFFFFFFFFFFFFF AND PUSH20 0xFFFFFFFFFFFFFFFFFFFFFFFFFFFFFFFFFFFFFFFF AND DUP2 MSTORE PUSH1 0x20 ADD SWAP1 DUP2 MSTORE PUSH1 0x20 ADD PUSH1 0x0 KECCAK256 SLOAD DUP2 PUSH1 0x4 PUSH1 0x0 CALLER PUSH20 0xFFFFFFFFFFFFFFFFFFFFFFFFFFFFFFFFFFFFFFFF AND PUSH20 0xFFFFFFFFFFFFFFFFFFFFFFFFFFFFFFFFFFFFFFFF AND DUP2 MSTORE PUSH1 0x20 ADD SWAP1 DUP2 MSTORE PUSH1 0x20 ADD PUSH1 0x0 KECCAK256 SLOAD SUB GT ISZERO ISZERO ISZERO PUSH2 0xF6C JUMPI PUSH1 0x0 DUP1 REVERT JUMPDEST DUP1 PUSH1 0x4 PUSH1 0x0 CALLER PUSH20 0xFFFFFFFFFFFFFFFFFFFFFFFFFFFFFFFFFFFFFFFF AND PUSH20 0xFFFFFFFFFFFFFFFFFFFFFFFFFFFFFFFFFFFFFFFF AND DUP2 MSTORE PUSH1 0x20 ADD SWAP1 DUP2 MSTORE PUSH1 0x20 ADD PUSH1 0x0 KECCAK256 PUSH1 0x0 DUP3 DUP3 SLOAD SUB SWAP3 POP POP DUP2 SWAP1 SSTORE POP CALLER PUSH20 0xFFFFFFFFFFFFFFFFFFFFFFFFFFFFFFFFFFFFFFFF AND PUSH2 0x8FC DUP3 SWAP1 DUP2 ISZERO MUL SWAP1 PUSH1 0x40 MLOAD PUSH1 0x0 PUSH1 0x40 MLOAD DUP1 DUP4 SUB DUP2 DUP6 DUP9 DUP9 CALL SWAP4 POP POP POP POP ISZERO DUP1 ISZERO PUSH2 0xFFF JUMPI RETURNDATASIZE PUSH1 0x0 DUP1 RETURNDATACOPY RETURNDATASIZE PUSH1 0x0 REVERT JUMPDEST POP CALLER PUSH20 0xFFFFFFFFFFFFFFFFFFFFFFFFFFFFFFFFFFFFFFFF AND PUSH32 0xAC9513ADF40097763B4664BEE3693D0F051127C5AC55E33F68926C1612AC5995 DUP3 TIMESTAMP PUSH1 0x40 MLOAD DUP1 DUP4 DUP2 MSTORE PUSH1 0x20 ADD DUP3 DUP2 MSTORE PUSH1 0x20 ADD SWAP3 POP POP POP PUSH1 0x40 MLOAD DUP1 SWAP2 SUB SWAP1 LOG2 POP JUMP JUMPDEST PUSH1 0x0 DUP1 PUSH1 0x0 DUP1 PUSH1 0x0 DUP1 PUSH1 0x0 PUSH2 0x106D DUP11 PUSH2 0x3371 JUMP JUMPDEST SWAP7 POP PUSH1 0x0 SWAP6 POP PUSH1 0x0 PUSH1 0x1 PUSH1 0x0 DUP10 PUSH1 0xFF AND PUSH1 0xFF AND DUP2 MSTORE PUSH1 0x20 ADD SWAP1 DUP2 MSTORE PUSH1 0x20 ADD PUSH1 0x0 KECCAK256 PUSH1 0x9 ADD SLOAD EQ DUP1 PUSH2 0x10B9 JUMPI POP DUP9 PUSH1 0x1 PUSH1 0x0 DUP10 PUSH1 0xFF AND PUSH1 0xFF AND DUP2 MSTORE PUSH1 0x20 ADD SWAP1 DUP2 MSTORE PUSH1 0x20 ADD PUSH1 0x0 KECCAK256 PUSH1 0x7 ADD SLOAD GT JUMPDEST ISZERO PUSH2 0x12FF JUMPI DUP9 DUP9 MUL SWAP6 POP DUP8 DUP7 LT ISZERO ISZERO ISZERO PUSH2 0x10D2 JUMPI PUSH1 0x0 DUP1 REVERT JUMPDEST DUP9 DUP7 LT ISZERO ISZERO ISZERO PUSH2 0x10E1 JUMPI PUSH1 0x0 DUP1 REVERT JUMPDEST DUP6 PUSH1 0x4 PUSH1 0x0 CALLER PUSH20 0xFFFFFFFFFFFFFFFFFFFFFFFFFFFFFFFFFFFFFFFF AND PUSH20 0xFFFFFFFFFFFFFFFFFFFFFFFFFFFFFFFFFFFFFFFF AND DUP2 MSTORE PUSH1 0x20 ADD SWAP1 DUP2 MSTORE PUSH1 0x20 ADD PUSH1 0x0 KECCAK256 SLOAD LT ISZERO ISZERO ISZERO PUSH2 0x112F JUMPI PUSH1 0x0 DUP1 REVERT JUMPDEST PUSH1 0x0 DUP7 PUSH1 0x4 PUSH1 0x0 CALLER PUSH20 0xFFFFFFFFFFFFFFFFFFFFFFFFFFFFFFFFFFFFFFFF AND PUSH20 0xFFFFFFFFFFFFFFFFFFFFFFFFFFFFFFFFFFFFFFFF AND DUP2 MSTORE PUSH1 0x20 ADD SWAP1 DUP2 MSTORE PUSH1 0x20 ADD PUSH1 0x0 KECCAK256 SLOAD SUB LT ISZERO ISZERO ISZERO PUSH2 0x1180 JUMPI PUSH1 0x0 DUP1 REVERT JUMPDEST PUSH1 0x4 PUSH1 0x0 CALLER PUSH20 0xFFFFFFFFFFFFFFFFFFFFFFFFFFFFFFFFFFFFFFFF AND PUSH20 0xFFFFFFFFFFFFFFFFFFFFFFFFFFFFFFFFFFFFFFFF AND DUP2 MSTORE PUSH1 0x20 ADD SWAP1 DUP2 MSTORE PUSH1 0x20 ADD PUSH1 0x0 KECCAK256 SLOAD DUP7 PUSH1 0x4 PUSH1 0x0 CALLER PUSH20 0xFFFFFFFFFFFFFFFFFFFFFFFFFFFFFFFFFFFFFFFF AND PUSH20 0xFFFFFFFFFFFFFFFFFFFFFFFFFFFFFFFFFFFFFFFF AND DUP2 MSTORE PUSH1 0x20 ADD SWAP1 DUP2 MSTORE PUSH1 0x20 ADD PUSH1 0x0 KECCAK256 SLOAD SUB GT ISZERO ISZERO ISZERO PUSH2 0x120F JUMPI PUSH1 0x0 DUP1 REVERT JUMPDEST DUP6 PUSH1 0x4 PUSH1 0x0 CALLER PUSH20 0xFFFFFFFFFFFFFFFFFFFFFFFFFFFFFFFFFFFFFFFF AND PUSH20 0xFFFFFFFFFFFFFFFFFFFFFFFFFFFFFFFFFFFFFFFF AND DUP2 MSTORE PUSH1 0x20 ADD SWAP1 DUP2 MSTORE PUSH1 0x20 ADD PUSH1 0x0 KECCAK256 PUSH1 0x0 DUP3 DUP3 SLOAD SUB SWAP3 POP POP DUP2 SWAP1 SSTORE POP PUSH2 0x1268 DUP8 DUP11 DUP11 CALLER PUSH2 0x3FB7 JUMP JUMPDEST CALLER PUSH20 0xFFFFFFFFFFFFFFFFFFFFFFFFFFFFFFFFFFFFFFFF AND DUP8 PUSH1 0xFF AND PUSH32 0x2EF51FA215957689865F55575D7D89840BEE8FCE54B23EF826FEA1A304ACDD3F DUP11 DUP13 PUSH1 0x1 PUSH1 0x0 DUP14 PUSH1 0xFF AND PUSH1 0xFF AND DUP2 MSTORE PUSH1 0x20 ADD SWAP1 DUP2 MSTORE PUSH1 0x20 ADD PUSH1 0x0 KECCAK256 PUSH1 0x2 ADD PUSH1 0x0 DUP16 DUP2 MSTORE PUSH1 0x20 ADD SWAP1 DUP2 MSTORE PUSH1 0x20 ADD PUSH1 0x0 KECCAK256 PUSH1 0x4 ADD SLOAD PUSH1 0x40 MLOAD DUP1 DUP5 DUP2 MSTORE PUSH1 0x20 ADD DUP4 DUP2 MSTORE PUSH1 0x20 ADD DUP3 DUP2 MSTORE PUSH1 0x20 ADD SWAP4 POP POP POP POP PUSH1 0x40 MLOAD DUP1 SWAP2 SUB SWAP1 LOG3 PUSH2 0x1FCB JUMP JUMPDEST PUSH1 0x0 SWAP5 POP PUSH1 0x1 PUSH1 0x0 DUP9 PUSH1 0xFF AND PUSH1 0xFF AND DUP2 MSTORE PUSH1 0x20 ADD SWAP1 DUP2 MSTORE PUSH1 0x20 ADD PUSH1 0x0 KECCAK256 PUSH1 0x7 ADD SLOAD SWAP4 POP DUP8 SWAP3 POP JUMPDEST DUP9 DUP5 GT ISZERO DUP1 ISZERO PUSH2 0x1336 JUMPI POP PUSH1 0x0 DUP4 GT JUMPDEST ISZERO PUSH2 0x1FB5 JUMPI PUSH1 0x1 PUSH1 0x0 DUP9 PUSH1 0xFF AND PUSH1 0xFF AND DUP2 MSTORE PUSH1 0x20 ADD SWAP1 DUP2 MSTORE PUSH1 0x20 ADD PUSH1 0x0 KECCAK256 PUSH1 0x6 ADD PUSH1 0x0 DUP6 DUP2 MSTORE PUSH1 0x20 ADD SWAP1 DUP2 MSTORE PUSH1 0x20 ADD PUSH1 0x0 KECCAK256 PUSH1 0x3 ADD SLOAD SWAP2 POP JUMPDEST PUSH1 0x1 PUSH1 0x0 DUP9 PUSH1 0xFF AND PUSH1 0xFF AND DUP2 MSTORE PUSH1 0x20 ADD SWAP1 DUP2 MSTORE PUSH1 0x20 ADD PUSH1 0x0 KECCAK256 PUSH1 0x6 ADD PUSH1 0x0 DUP6 DUP2 MSTORE PUSH1 0x20 ADD SWAP1 DUP2 MSTORE PUSH1 0x20 ADD PUSH1 0x0 KECCAK256 PUSH1 0x4 ADD SLOAD DUP3 GT ISZERO DUP1 ISZERO PUSH2 0x13AF JUMPI POP PUSH1 0x0 DUP4 GT JUMPDEST ISZERO PUSH2 0x1F91 JUMPI PUSH1 0x1 PUSH1 0x0 DUP9 PUSH1 0xFF AND PUSH1 0xFF AND DUP2 MSTORE PUSH1 0x20 ADD SWAP1 DUP2 MSTORE PUSH1 0x20 ADD PUSH1 0x0 KECCAK256 PUSH1 0x6 ADD PUSH1 0x0 DUP6 DUP2 MSTORE PUSH1 0x20 ADD SWAP1 DUP2 MSTORE PUSH1 0x20 ADD PUSH1 0x0 KECCAK256 PUSH1 0x2 ADD PUSH1 0x0 DUP4 DUP2 MSTORE PUSH1 0x20 ADD SWAP1 DUP2 MSTORE PUSH1 0x20 ADD PUSH1 0x0 KECCAK256 PUSH1 0x0 ADD SLOAD SWAP1 POP DUP3 DUP2 GT ISZERO ISZERO PUSH2 0x193B JUMPI DUP4 DUP2 MUL SWAP5 POP DUP5 PUSH1 0x4 PUSH1 0x0 CALLER PUSH20 0xFFFFFFFFFFFFFFFFFFFFFFFFFFFFFFFFFFFFFFFF AND PUSH20 0xFFFFFFFFFFFFFFFFFFFFFFFFFFFFFFFFFFFFFFFF AND DUP2 MSTORE PUSH1 0x20 ADD SWAP1 DUP2 MSTORE PUSH1 0x20 ADD PUSH1 0x0 KECCAK256 SLOAD LT ISZERO ISZERO ISZERO PUSH2 0x1457 JUMPI PUSH1 0x0 DUP1 REVERT JUMPDEST PUSH1 0x4 PUSH1 0x0 CALLER PUSH20 0xFFFFFFFFFFFFFFFFFFFFFFFFFFFFFFFFFFFFFFFF AND PUSH20 0xFFFFFFFFFFFFFFFFFFFFFFFFFFFFFFFFFFFFFFFF AND DUP2 MSTORE PUSH1 0x20 ADD SWAP1 DUP2 MSTORE PUSH1 0x20 ADD PUSH1 0x0 KECCAK256 SLOAD DUP6 PUSH1 0x4 PUSH1 0x0 CALLER PUSH20 0xFFFFFFFFFFFFFFFFFFFFFFFFFFFFFFFFFFFFFFFF AND PUSH20 0xFFFFFFFFFFFFFFFFFFFFFFFFFFFFFFFFFFFFFFFF AND DUP2 MSTORE PUSH1 0x20 ADD SWAP1 DUP2 MSTORE PUSH1 0x20 ADD PUSH1 0x0 KECCAK256 SLOAD SUB GT ISZERO ISZERO ISZERO PUSH2 0x14E6 JUMPI PUSH1 0x0 DUP1 REVERT JUMPDEST DUP5 PUSH1 0x4 PUSH1 0x0 CALLER PUSH20 0xFFFFFFFFFFFFFFFFFFFFFFFFFFFFFFFFFFFFFFFF AND PUSH20 0xFFFFFFFFFFFFFFFFFFFFFFFFFFFFFFFFFFFFFFFF AND DUP2 MSTORE PUSH1 0x20 ADD SWAP1 DUP2 MSTORE PUSH1 0x20 ADD PUSH1 0x0 KECCAK256 PUSH1 0x0 DUP3 DUP3 SLOAD SUB SWAP3 POP POP DUP2 SWAP1 SSTORE POP PUSH1 0x3 PUSH1 0x0 CALLER PUSH20 0xFFFFFFFFFFFFFFFFFFFFFFFFFFFFFFFFFFFFFFFF AND PUSH20 0xFFFFFFFFFFFFFFFFFFFFFFFFFFFFFFFFFFFFFFFF AND DUP2 MSTORE PUSH1 0x20 ADD SWAP1 DUP2 MSTORE PUSH1 0x20 ADD PUSH1 0x0 KECCAK256 PUSH1 0x0 DUP9 PUSH1 0xFF AND PUSH1 0xFF AND DUP2 MSTORE PUSH1 0x20 ADD SWAP1 DUP2 MSTORE PUSH1 0x20 ADD PUSH1 0x0 KECCAK256 SLOAD DUP2 PUSH1 0x3 PUSH1 0x0 CALLER PUSH20 0xFFFFFFFFFFFFFFFFFFFFFFFFFFFFFFFFFFFFFFFF AND PUSH20 0xFFFFFFFFFFFFFFFFFFFFFFFFFFFFFFFFFFFFFFFF AND DUP2 MSTORE PUSH1 0x20 ADD SWAP1 DUP2 MSTORE PUSH1 0x20 ADD PUSH1 0x0 KECCAK256 PUSH1 0x0 DUP11 PUSH1 0xFF AND PUSH1 0xFF AND DUP2 MSTORE PUSH1 0x20 ADD SWAP1 DUP2 MSTORE PUSH1 0x20 ADD PUSH1 0x0 KECCAK256 SLOAD ADD LT ISZERO ISZERO ISZERO PUSH2 0x15F0 JUMPI PUSH1 0x0 DUP1 REVERT JUMPDEST PUSH1 0x4 PUSH1 0x0 PUSH1 0x1 PUSH1 0x0 DUP11 PUSH1 0xFF AND PUSH1 0xFF AND DUP2 MSTORE PUSH1 0x20 ADD SWAP1 DUP2 MSTORE PUSH1 0x20 ADD PUSH1 0x0 KECCAK256 PUSH1 0x6 ADD PUSH1 0x0 DUP8 DUP2 MSTORE PUSH1 0x20 ADD SWAP1 DUP2 MSTORE PUSH1 0x20 ADD PUSH1 0x0 KECCAK256 PUSH1 0x2 ADD PUSH1 0x0 DUP6 DUP2 MSTORE PUSH1 0x20 ADD SWAP1 DUP2 MSTORE PUSH1 0x20 ADD PUSH1 0x0 KECCAK256 PUSH1 0x1 ADD PUSH1 0x0 SWAP1 SLOAD SWAP1 PUSH2 0x100 EXP SWAP1 DIV PUSH20 0xFFFFFFFFFFFFFFFFFFFFFFFFFFFFFFFFFFFFFFFF AND PUSH20 0xFFFFFFFFFFFFFFFFFFFFFFFFFFFFFFFFFFFFFFFF AND PUSH20 0xFFFFFFFFFFFFFFFFFFFFFFFFFFFFFFFFFFFFFFFF AND DUP2 MSTORE PUSH1 0x20 ADD SWAP1 DUP2 MSTORE PUSH1 0x20 ADD PUSH1 0x0 KECCAK256 SLOAD DUP6 PUSH1 0x4 PUSH1 0x0 PUSH1 0x1 PUSH1 0x0 DUP13 PUSH1 0xFF AND PUSH1 0xFF AND DUP2 MSTORE PUSH1 0x20 ADD SWAP1 DUP2 MSTORE PUSH1 0x20 ADD PUSH1 0x0 KECCAK256 PUSH1 0x6 ADD PUSH1 0x0 DUP10 DUP2 MSTORE PUSH1 0x20 ADD SWAP1 DUP2 MSTORE PUSH1 0x20 ADD PUSH1 0x0 KECCAK256 PUSH1 0x2 ADD PUSH1 0x0 DUP8 DUP2 MSTORE PUSH1 0x20 ADD SWAP1 DUP2 MSTORE PUSH1 0x20 ADD PUSH1 0x0 KECCAK256 PUSH1 0x1 ADD PUSH1 0x0 SWAP1 SLOAD SWAP1 PUSH2 0x100 EXP SWAP1 DIV PUSH20 0xFFFFFFFFFFFFFFFFFFFFFFFFFFFFFFFFFFFFFFFF AND PUSH20 0xFFFFFFFFFFFFFFFFFFFFFFFFFFFFFFFFFFFFFFFF AND PUSH20 0xFFFFFFFFFFFFFFFFFFFFFFFFFFFFFFFFFFFFFFFF AND DUP2 MSTORE PUSH1 0x20 ADD SWAP1 DUP2 MSTORE PUSH1 0x20 ADD PUSH1 0x0 KECCAK256 SLOAD ADD LT ISZERO ISZERO ISZERO PUSH2 0x1747 JUMPI PUSH1 0x0 DUP1 REVERT JUMPDEST DUP1 PUSH1 0x3 PUSH1 0x0 CALLER PUSH20 0xFFFFFFFFFFFFFFFFFFFFFFFFFFFFFFFFFFFFFFFF AND PUSH20 0xFFFFFFFFFFFFFFFFFFFFFFFFFFFFFFFFFFFFFFFF AND DUP2 MSTORE PUSH1 0x20 ADD SWAP1 DUP2 MSTORE PUSH1 0x20 ADD PUSH1 0x0 KECCAK256 PUSH1 0x0 DUP10 PUSH1 0xFF AND PUSH1 0xFF AND DUP2 MSTORE PUSH1 0x20 ADD SWAP1 DUP2 MSTORE PUSH1 0x20 ADD PUSH1 0x0 KECCAK256 PUSH1 0x0 DUP3 DUP3 SLOAD ADD SWAP3 POP POP DUP2 SWAP1 SSTORE POP PUSH1 0x0 PUSH1 0x1 PUSH1 0x0 DUP10 PUSH1 0xFF AND PUSH1 0xFF AND DUP2 MSTORE PUSH1 0x20 ADD SWAP1 DUP2 MSTORE PUSH1 0x20 ADD PUSH1 0x0 KECCAK256 PUSH1 0x6 ADD PUSH1 0x0 DUP7 DUP2 MSTORE PUSH1 0x20 ADD SWAP1 DUP2 MSTORE PUSH1 0x20 ADD PUSH1 0x0 KECCAK256 PUSH1 0x2 ADD PUSH1 0x0 DUP5 DUP2 MSTORE PUSH1 0x20 ADD SWAP1 DUP2 MSTORE PUSH1 0x20 ADD PUSH1 0x0 KECCAK256 PUSH1 0x0 ADD DUP2 SWAP1 SSTORE POP DUP5 PUSH1 0x4 PUSH1 0x0 PUSH1 0x1 PUSH1 0x0 DUP12 PUSH1 0xFF AND PUSH1 0xFF AND DUP2 MSTORE PUSH1 0x20 ADD SWAP1 DUP2 MSTORE PUSH1 0x20 ADD PUSH1 0x0 KECCAK256 PUSH1 0x6 ADD PUSH1 0x0 DUP9 DUP2 MSTORE PUSH1 0x20 ADD SWAP1 DUP2 MSTORE PUSH1 0x20 ADD PUSH1 0x0 KECCAK256 PUSH1 0x2 ADD PUSH1 0x0 DUP7 DUP2 MSTORE PUSH1 0x20 ADD SWAP1 DUP2 MSTORE PUSH1 0x20 ADD PUSH1 0x0 KECCAK256 PUSH1 0x1 ADD PUSH1 0x0 SWAP1 SLOAD SWAP1 PUSH2 0x100 EXP SWAP1 DIV PUSH20 0xFFFFFFFFFFFFFFFFFFFFFFFFFFFFFFFFFFFFFFFF AND PUSH20 0xFFFFFFFFFFFFFFFFFFFFFFFFFFFFFFFFFFFFFFFF AND PUSH20 0xFFFFFFFFFFFFFFFFFFFFFFFFFFFFFFFFFFFFFFFF AND DUP2 MSTORE PUSH1 0x20 ADD SWAP1 DUP2 MSTORE PUSH1 0x20 ADD PUSH1 0x0 KECCAK256 PUSH1 0x0 DUP3 DUP3 SLOAD ADD SWAP3 POP POP DUP2 SWAP1 SSTORE POP PUSH1 0x1 PUSH1 0x0 DUP9 PUSH1 0xFF AND PUSH1 0xFF AND DUP2 MSTORE PUSH1 0x20 ADD SWAP1 DUP2 MSTORE PUSH1 0x20 ADD PUSH1 0x0 KECCAK256 PUSH1 0x6 ADD PUSH1 0x0 DUP6 DUP2 MSTORE PUSH1 0x20 ADD SWAP1 DUP2 MSTORE PUSH1 0x20 ADD PUSH1 0x0 KECCAK256 PUSH1 0x3 ADD PUSH1 0x0 DUP2 SLOAD DUP1 SWAP3 SWAP2 SWAP1 PUSH1 0x1 ADD SWAP2 SWAP1 POP SSTORE POP DUP7 PUSH1 0xFF AND PUSH32 0xCBFA5EDCD918EF1EC42746C71AC83C456F37330C83A22E44D6CFDCA22D564710 DUP3 DUP7 DUP6 PUSH1 0x40 MLOAD DUP1 DUP5 DUP2 MSTORE PUSH1 0x20 ADD DUP4 DUP2 MSTORE PUSH1 0x20 ADD DUP3 DUP2 MSTORE PUSH1 0x20 ADD SWAP4 POP POP POP POP PUSH1 0x40 MLOAD DUP1 SWAP2 SUB SWAP1 LOG2 DUP1 DUP4 SUB SWAP3 POP PUSH2 0x1D7C JUMP JUMPDEST DUP3 PUSH1 0x1 PUSH1 0x0 DUP10 PUSH1 0xFF AND PUSH1 0xFF AND DUP2 MSTORE PUSH1 0x20 ADD SWAP1 DUP2 MSTORE PUSH1 0x20 ADD PUSH1 0x0 KECCAK256 PUSH1 0x6 ADD PUSH1 0x0 DUP7 DUP2 MSTORE PUSH1 0x20 ADD SWAP1 DUP2 MSTORE PUSH1 0x20 ADD PUSH1 0x0 KECCAK256 PUSH1 0x2 ADD PUSH1 0x0 DUP5 DUP2 MSTORE PUSH1 0x20 ADD SWAP1 DUP2 MSTORE PUSH1 0x20 ADD PUSH1 0x0 KECCAK256 PUSH1 0x0 ADD SLOAD GT ISZERO ISZERO PUSH2 0x198D JUMPI PUSH1 0x0 DUP1 REVERT JUMPDEST DUP4 DUP4 MUL SWAP6 POP PUSH1 0x4 PUSH1 0x0 CALLER PUSH20 0xFFFFFFFFFFFFFFFFFFFFFFFFFFFFFFFFFFFFFFFF AND PUSH20 0xFFFFFFFFFFFFFFFFFFFFFFFFFFFFFFFFFFFFFFFF AND DUP2 MSTORE PUSH1 0x20 ADD SWAP1 DUP2 MSTORE PUSH1 0x20 ADD PUSH1 0x0 KECCAK256 SLOAD DUP7 PUSH1 0x4 PUSH1 0x0 CALLER PUSH20 0xFFFFFFFFFFFFFFFFFFFFFFFFFFFFFFFFFFFFFFFF AND PUSH20 0xFFFFFFFFFFFFFFFFFFFFFFFFFFFFFFFFFFFFFFFF AND DUP2 MSTORE PUSH1 0x20 ADD SWAP1 DUP2 MSTORE PUSH1 0x20 ADD PUSH1 0x0 KECCAK256 SLOAD SUB GT ISZERO ISZERO ISZERO PUSH2 0x1A21 JUMPI PUSH1 0x0 DUP1 REVERT JUMPDEST DUP6 PUSH1 0x4 PUSH1 0x0 CALLER PUSH20 0xFFFFFFFFFFFFFFFFFFFFFFFFFFFFFFFFFFFFFFFF AND PUSH20 0xFFFFFFFFFFFFFFFFFFFFFFFFFFFFFFFFFFFFFFFF AND DUP2 MSTORE PUSH1 0x20 ADD SWAP1 DUP2 MSTORE PUSH1 0x20 ADD PUSH1 0x0 KECCAK256 PUSH1 0x0 DUP3 DUP3 SLOAD SUB SWAP3 POP POP DUP2 SWAP1 SSTORE POP PUSH1 0x4 PUSH1 0x0 PUSH1 0x1 PUSH1 0x0 DUP11 PUSH1 0xFF AND PUSH1 0xFF AND DUP2 MSTORE PUSH1 0x20 ADD SWAP1 DUP2 MSTORE PUSH1 0x20 ADD PUSH1 0x0 KECCAK256 PUSH1 0x6 ADD PUSH1 0x0 DUP8 DUP2 MSTORE PUSH1 0x20 ADD SWAP1 DUP2 MSTORE PUSH1 0x20 ADD PUSH1 0x0 KECCAK256 PUSH1 0x2 ADD PUSH1 0x0 DUP6 DUP2 MSTORE PUSH1 0x20 ADD SWAP1 DUP2 MSTORE PUSH1 0x20 ADD PUSH1 0x0 KECCAK256 PUSH1 0x1 ADD PUSH1 0x0 SWAP1 SLOAD SWAP1 PUSH2 0x100 EXP SWAP1 DIV PUSH20 0xFFFFFFFFFFFFFFFFFFFFFFFFFFFFFFFFFFFFFFFF AND PUSH20 0xFFFFFFFFFFFFFFFFFFFFFFFFFFFFFFFFFFFFFFFF AND PUSH20 0xFFFFFFFFFFFFFFFFFFFFFFFFFFFFFFFFFFFFFFFF AND DUP2 MSTORE PUSH1 0x20 ADD SWAP1 DUP2 MSTORE PUSH1 0x20 ADD PUSH1 0x0 KECCAK256 SLOAD DUP7 PUSH1 0x4 PUSH1 0x0 PUSH1 0x1 PUSH1 0x0 DUP13 PUSH1 0xFF AND PUSH1 0xFF AND DUP2 MSTORE PUSH1 0x20 ADD SWAP1 DUP2 MSTORE PUSH1 0x20 ADD PUSH1 0x0 KECCAK256 PUSH1 0x6 ADD PUSH1 0x0 DUP10 DUP2 MSTORE PUSH1 0x20 ADD SWAP1 DUP2 MSTORE PUSH1 0x20 ADD PUSH1 0x0 KECCAK256 PUSH1 0x2 ADD PUSH1 0x0 DUP8 DUP2 MSTORE PUSH1 0x20 ADD SWAP1 DUP2 MSTORE PUSH1 0x20 ADD PUSH1 0x0 KECCAK256 PUSH1 0x1 ADD PUSH1 0x0 SWAP1 SLOAD SWAP1 PUSH2 0x100 EXP SWAP1 DIV PUSH20 0xFFFFFFFFFFFFFFFFFFFFFFFFFFFFFFFFFFFFFFFF AND PUSH20 0xFFFFFFFFFFFFFFFFFFFFFFFFFFFFFFFFFFFFFFFF AND PUSH20 0xFFFFFFFFFFFFFFFFFFFFFFFFFFFFFFFFFFFFFFFF AND DUP2 MSTORE PUSH1 0x20 ADD SWAP1 DUP2 MSTORE PUSH1 0x20 ADD PUSH1 0x0 KECCAK256 SLOAD ADD LT ISZERO ISZERO ISZERO PUSH2 0x1BC5 JUMPI PUSH1 0x0 DUP1 REVERT JUMPDEST DUP3 PUSH1 0x1 PUSH1 0x0 DUP10 PUSH1 0xFF AND PUSH1 0xFF AND DUP2 MSTORE PUSH1 0x20 ADD SWAP1 DUP2 MSTORE PUSH1 0x20 ADD PUSH1 0x0 KECCAK256 PUSH1 0x6 ADD PUSH1 0x0 DUP7 DUP2 MSTORE PUSH1 0x20 ADD SWAP1 DUP2 MSTORE PUSH1 0x20 ADD PUSH1 0x0 KECCAK256 PUSH1 0x2 ADD PUSH1 0x0 DUP5 DUP2 MSTORE PUSH1 0x20 ADD SWAP1 DUP2 MSTORE PUSH1 0x20 ADD PUSH1 0x0 KECCAK256 PUSH1 0x0 ADD PUSH1 0x0 DUP3 DUP3 SLOAD SUB SWAP3 POP POP DUP2 SWAP1 SSTORE POP DUP6 PUSH1 0x4 PUSH1 0x0 PUSH1 0x1 PUSH1 0x0 DUP12 PUSH1 0xFF AND PUSH1 0xFF AND DUP2 MSTORE PUSH1 0x20 ADD SWAP1 DUP2 MSTORE PUSH1 0x20 ADD PUSH1 0x0 KECCAK256 PUSH1 0x6 ADD PUSH1 0x0 DUP9 DUP2 MSTORE PUSH1 0x20 ADD SWAP1 DUP2 MSTORE PUSH1 0x20 ADD PUSH1 0x0 KECCAK256 PUSH1 0x2 ADD PUSH1 0x0 DUP7 DUP2 MSTORE PUSH1 0x20 ADD SWAP1 DUP2 MSTORE PUSH1 0x20 ADD PUSH1 0x0 KECCAK256 PUSH1 0x1 ADD PUSH1 0x0 SWAP1 SLOAD SWAP1 PUSH2 0x100 EXP SWAP1 DIV PUSH20 0xFFFFFFFFFFFFFFFFFFFFFFFFFFFFFFFFFFFFFFFF AND PUSH20 0xFFFFFFFFFFFFFFFFFFFFFFFFFFFFFFFFFFFFFFFF AND PUSH20 0xFFFFFFFFFFFFFFFFFFFFFFFFFFFFFFFFFFFFFFFF AND DUP2 MSTORE PUSH1 0x20 ADD SWAP1 DUP2 MSTORE PUSH1 0x20 ADD PUSH1 0x0 KECCAK256 PUSH1 0x0 DUP3 DUP3 SLOAD ADD SWAP3 POP POP DUP2 SWAP1 SSTORE POP DUP3 PUSH1 0x3 PUSH1 0x0 CALLER PUSH20 0xFFFFFFFFFFFFFFFFFFFFFFFFFFFFFFFFFFFFFFFF AND PUSH20 0xFFFFFFFFFFFFFFFFFFFFFFFFFFFFFFFFFFFFFFFF AND DUP2 MSTORE PUSH1 0x20 ADD SWAP1 DUP2 MSTORE PUSH1 0x20 ADD PUSH1 0x0 KECCAK256 PUSH1 0x0 DUP10 PUSH1 0xFF AND PUSH1 0xFF AND DUP2 MSTORE PUSH1 0x20 ADD SWAP1 DUP2 MSTORE PUSH1 0x20 ADD PUSH1 0x0 KECCAK256 PUSH1 0x0 DUP3 DUP3 SLOAD ADD SWAP3 POP POP DUP2 SWAP1 SSTORE POP PUSH1 0x0 SWAP3 POP DUP7 PUSH1 0xFF AND PUSH32 0xCBFA5EDCD918EF1EC42746C71AC83C456F37330C83A22E44D6CFDCA22D564710 DUP5 DUP7 DUP6 PUSH1 0x40 MLOAD DUP1 DUP5 DUP2 MSTORE PUSH1 0x20 ADD DUP4 DUP2 MSTORE PUSH1 0x20 ADD DUP3 DUP2 MSTORE PUSH1 0x20 ADD SWAP4 POP POP POP POP PUSH1 0x40 MLOAD DUP1 SWAP2 SUB SWAP1 LOG2 JUMPDEST PUSH1 0x1 PUSH1 0x0 DUP9 PUSH1 0xFF AND PUSH1 0xFF AND DUP2 MSTORE PUSH1 0x20 ADD SWAP1 DUP2 MSTORE PUSH1 0x20 ADD PUSH1 0x0 KECCAK256 PUSH1 0x6 ADD PUSH1 0x0 DUP6 DUP2 MSTORE PUSH1 0x20 ADD SWAP1 DUP2 MSTORE PUSH1 0x20 ADD PUSH1 0x0 KECCAK256 PUSH1 0x4 ADD SLOAD DUP3 EQ DUP1 ISZERO PUSH2 0x1DFF JUMPI POP PUSH1 0x0 PUSH1 0x1 PUSH1 0x0 DUP10 PUSH1 0xFF AND PUSH1 0xFF AND DUP2 MSTORE PUSH1 0x20 ADD SWAP1 DUP2 MSTORE PUSH1 0x20 ADD PUSH1 0x0 KECCAK256 PUSH1 0x6 ADD PUSH1 0x0 DUP7 DUP2 MSTORE PUSH1 0x20 ADD SWAP1 DUP2 MSTORE PUSH1 0x20 ADD PUSH1 0x0 KECCAK256 PUSH1 0x2 ADD PUSH1 0x0 DUP5 DUP2 MSTORE PUSH1 0x20 ADD SWAP1 DUP2 MSTORE PUSH1 0x20 ADD PUSH1 0x0 KECCAK256 PUSH1 0x0 ADD SLOAD EQ JUMPDEST ISZERO PUSH2 0x1F84 JUMPI PUSH1 0x1 PUSH1 0x0 DUP9 PUSH1 0xFF AND PUSH1 0xFF AND DUP2 MSTORE PUSH1 0x20 ADD SWAP1 DUP2 MSTORE PUSH1 0x20 ADD PUSH1 0x0 KECCAK256 PUSH1 0x9 ADD PUSH1 0x0 DUP2 SLOAD DUP1 SWAP3 SWAP2 SWAP1 PUSH1 0x1 SWAP1 SUB SWAP2 SWAP1 POP SSTORE POP PUSH1 0x1 PUSH1 0x0 DUP9 PUSH1 0xFF AND PUSH1 0xFF AND DUP2 MSTORE PUSH1 0x20 ADD SWAP1 DUP2 MSTORE PUSH1 0x20 ADD PUSH1 0x0 KECCAK256 PUSH1 0x6 ADD PUSH1 0x0 DUP6 DUP2 MSTORE PUSH1 0x20 ADD SWAP1 DUP2 MSTORE PUSH1 0x20 ADD PUSH1 0x0 KECCAK256 PUSH1 0x0 ADD SLOAD DUP5 EQ DUP1 PUSH2 0x1E9F JUMPI POP PUSH1 0x0 PUSH1 0x1 PUSH1 0x0 DUP10 PUSH1 0xFF AND PUSH1 0xFF AND DUP2 MSTORE PUSH1 0x20 ADD SWAP1 DUP2 MSTORE PUSH1 0x20 ADD PUSH1 0x0 KECCAK256 PUSH1 0x2 ADD PUSH1 0x0 DUP7 DUP2 MSTORE PUSH1 0x20 ADD SWAP1 DUP2 MSTORE PUSH1 0x20 ADD PUSH1 0x0 KECCAK256 PUSH1 0x0 ADD SLOAD EQ JUMPDEST ISZERO PUSH2 0x1ECB JUMPI PUSH1 0x0 PUSH1 0x1 PUSH1 0x0 DUP10 PUSH1 0xFF AND PUSH1 0xFF AND DUP2 MSTORE PUSH1 0x20 ADD SWAP1 DUP2 MSTORE PUSH1 0x20 ADD PUSH1 0x0 KECCAK256 PUSH1 0x7 ADD DUP2 SWAP1 SSTORE POP PUSH2 0x1F83 JUMP JUMPDEST PUSH1 0x1 PUSH1 0x0 DUP9 PUSH1 0xFF AND PUSH1 0xFF AND DUP2 MSTORE PUSH1 0x20 ADD SWAP1 DUP2 MSTORE PUSH1 0x20 ADD PUSH1 0x0 KECCAK256 PUSH1 0x6 ADD PUSH1 0x0 DUP6 DUP2 MSTORE PUSH1 0x20 ADD SWAP1 DUP2 MSTORE PUSH1 0x20 ADD PUSH1 0x0 KECCAK256 PUSH1 0x0 ADD SLOAD PUSH1 0x1 PUSH1 0x0 DUP10 PUSH1 0xFF AND PUSH1 0xFF AND DUP2 MSTORE PUSH1 0x20 ADD SWAP1 DUP2 MSTORE PUSH1 0x20 ADD PUSH1 0x0 KECCAK256 PUSH1 0x7 ADD DUP2 SWAP1 SSTORE POP PUSH1 0x0 PUSH1 0x1 PUSH1 0x0 DUP10 PUSH1 0xFF AND PUSH1 0xFF AND DUP2 MSTORE PUSH1 0x20 ADD SWAP1 DUP2 MSTORE PUSH1 0x20 ADD PUSH1 0x0 KECCAK256 PUSH1 0x6 ADD PUSH1 0x0 PUSH1 0x1 PUSH1 0x0 DUP12 PUSH1 0xFF AND PUSH1 0xFF AND DUP2 MSTORE PUSH1 0x20 ADD SWAP1 DUP2 MSTORE PUSH1 0x20 ADD PUSH1 0x0 KECCAK256 PUSH1 0x2 ADD PUSH1 0x0 DUP9 DUP2 MSTORE PUSH1 0x20 ADD SWAP1 DUP2 MSTORE PUSH1 0x20 ADD PUSH1 0x0 KECCAK256 PUSH1 0x0 ADD SLOAD DUP2 MSTORE PUSH1 0x20 ADD SWAP1 DUP2 MSTORE PUSH1 0x20 ADD PUSH1 0x0 KECCAK256 PUSH1 0x1 ADD DUP2 SWAP1 SSTORE POP JUMPDEST JUMPDEST DUP2 DUP1 PUSH1 0x1 ADD SWAP3 POP POP PUSH2 0x136F JUMP JUMPDEST PUSH1 0x1 PUSH1 0x0 DUP9 PUSH1 0xFF AND PUSH1 0xFF AND DUP2 MSTORE PUSH1 0x20 ADD SWAP1 DUP2 MSTORE PUSH1 0x20 ADD PUSH1 0x0 KECCAK256 PUSH1 0x7 ADD SLOAD SWAP4 POP PUSH2 0x1326 JUMP JUMPDEST PUSH1 0x0 DUP4 GT ISZERO PUSH2 0x1FCA JUMPI PUSH2 0x1FC9 DUP11 DUP11 DUP6 PUSH2 0x1059 JUMP JUMPDEST JUMPDEST JUMPDEST POP POP POP POP POP POP POP POP POP POP JUMP JUMPDEST PUSH1 0x60 DUP1 PUSH1 0x0 PUSH1 0x60 DUP1 PUSH1 0x0 DUP1 PUSH1 0x0 DUP1 PUSH2 0x1FEE DUP11 PUSH2 0x3371 JUMP JUMPDEST SWAP7 POP PUSH1 0x1 PUSH1 0x0 DUP9 PUSH1 0xFF AND PUSH1 0xFF AND DUP2 MSTORE PUSH1 0x20 ADD SWAP1 DUP2 MSTORE PUSH1 0x20 ADD PUSH1 0x0 KECCAK256 PUSH1 0x9 ADD SLOAD PUSH1 0x40 MLOAD SWAP1 DUP1 DUP3 MSTORE DUP1 PUSH1 0x20 MUL PUSH1 0x20 ADD DUP3 ADD PUSH1 0x40 MSTORE DUP1 ISZERO PUSH2 0x203B JUMPI DUP2 PUSH1 0x20 ADD PUSH1 0x20 DUP3 MUL DUP1 CODESIZE DUP4 CODECOPY DUP1 DUP3 ADD SWAP2 POP POP SWAP1 POP JUMPDEST POP SWAP6 POP PUSH1 0x1 PUSH1 0x0 DUP9 PUSH1 0xFF AND PUSH1 0xFF AND DUP2 MSTORE PUSH1 0x20 ADD SWAP1 DUP2 MSTORE PUSH1 0x20 ADD PUSH1 0x0 KECCAK256 PUSH1 0x9 ADD SLOAD PUSH1 0x40 MLOAD SWAP1 DUP1 DUP3 MSTORE DUP1 PUSH1 0x20 MUL PUSH1 0x20 ADD DUP3 ADD PUSH1 0x40 MSTORE DUP1 ISZERO PUSH2 0x2089 JUMPI DUP2 PUSH1 0x20 ADD PUSH1 0x20 DUP3 MUL DUP1 CODESIZE DUP4 CODECOPY DUP1 DUP3 ADD SWAP2 POP POP SWAP1 POP JUMPDEST POP SWAP5 POP PUSH1 0x1 PUSH1 0x0 DUP9 PUSH1 0xFF AND PUSH1 0xFF AND DUP2 MSTORE PUSH1 0x20 ADD SWAP1 DUP2 MSTORE PUSH1 0x20 ADD PUSH1 0x0 KECCAK256 PUSH1 0x7 ADD SLOAD SWAP4 POP PUSH1 0x0 SWAP3 POP PUSH1 0x0 PUSH1 0x1 PUSH1 0x0 DUP10 PUSH1 0xFF AND PUSH1 0xFF AND DUP2 MSTORE PUSH1 0x20 ADD SWAP1 DUP2 MSTORE PUSH1 0x20 ADD PUSH1 0x0 KECCAK256 PUSH1 0x7 ADD SLOAD GT ISZERO PUSH2 0x227E JUMPI JUMPDEST PUSH1 0x1 PUSH1 0x0 DUP9 PUSH1 0xFF AND PUSH1 0xFF AND DUP2 MSTORE PUSH1 0x20 ADD SWAP1 DUP2 MSTORE PUSH1 0x20 ADD PUSH1 0x0 KECCAK256 PUSH1 0x8 ADD SLOAD DUP5 GT ISZERO ISZERO PUSH2 0x227D JUMPI DUP4 DUP7 DUP5 DUP2 MLOAD DUP2 LT ISZERO ISZERO PUSH2 0x2109 JUMPI INVALID JUMPDEST SWAP1 PUSH1 0x20 ADD SWAP1 PUSH1 0x20 MUL ADD DUP2 DUP2 MSTORE POP POP PUSH1 0x0 SWAP2 POP PUSH1 0x0 SWAP1 POP PUSH1 0x1 PUSH1 0x0 DUP9 PUSH1 0xFF AND PUSH1 0xFF AND DUP2 MSTORE PUSH1 0x20 ADD SWAP1 DUP2 MSTORE PUSH1 0x20 ADD PUSH1 0x0 KECCAK256 PUSH1 0x6 ADD PUSH1 0x0 DUP6 DUP2 MSTORE PUSH1 0x20 ADD SWAP1 DUP2 MSTORE PUSH1 0x20 ADD PUSH1 0x0 KECCAK256 PUSH1 0x3 ADD SLOAD SWAP1 POP JUMPDEST PUSH1 0x1 PUSH1 0x0 DUP9 PUSH1 0xFF AND PUSH1 0xFF AND DUP2 MSTORE PUSH1 0x20 ADD SWAP1 DUP2 MSTORE PUSH1 0x20 ADD PUSH1 0x0 KECCAK256 PUSH1 0x6 ADD PUSH1 0x0 DUP6 DUP2 MSTORE PUSH1 0x20 ADD SWAP1 DUP2 MSTORE PUSH1 0x20 ADD PUSH1 0x0 KECCAK256 PUSH1 0x4 ADD SLOAD DUP2 GT ISZERO ISZERO PUSH2 0x21E2 JUMPI PUSH1 0x1 PUSH1 0x0 DUP9 PUSH1 0xFF AND PUSH1 0xFF AND DUP2 MSTORE PUSH1 0x20 ADD SWAP1 DUP2 MSTORE PUSH1 0x20 ADD PUSH1 0x0 KECCAK256 PUSH1 0x6 ADD PUSH1 0x0 DUP6 DUP2 MSTORE PUSH1 0x20 ADD SWAP1 DUP2 MSTORE PUSH1 0x20 ADD PUSH1 0x0 KECCAK256 PUSH1 0x2 ADD PUSH1 0x0 DUP3 DUP2 MSTORE PUSH1 0x20 ADD SWAP1 DUP2 MSTORE PUSH1 0x20 ADD PUSH1 0x0 KECCAK256 PUSH1 0x0 ADD SLOAD DUP3 ADD SWAP2 POP DUP1 DUP1 PUSH1 0x1 ADD SWAP2 POP POP PUSH2 0x2153 JUMP JUMPDEST DUP2 DUP6 DUP5 DUP2 MLOAD DUP2 LT ISZERO ISZERO PUSH2 0x21F1 JUMPI INVALID JUMPDEST SWAP1 PUSH1 0x20 ADD SWAP1 PUSH1 0x20 MUL ADD DUP2 DUP2 MSTORE POP POP PUSH1 0x0 PUSH1 0x1 PUSH1 0x0 DUP10 PUSH1 0xFF AND PUSH1 0xFF AND DUP2 MSTORE PUSH1 0x20 ADD SWAP1 DUP2 MSTORE PUSH1 0x20 ADD PUSH1 0x0 KECCAK256 PUSH1 0x6 ADD PUSH1 0x0 DUP7 DUP2 MSTORE PUSH1 0x20 ADD SWAP1 DUP2 MSTORE PUSH1 0x20 ADD PUSH1 0x0 KECCAK256 PUSH1 0x0 ADD SLOAD EQ ISZERO PUSH2 0x223D JUMPI PUSH2 0x227D JUMP JUMPDEST PUSH1 0x1 PUSH1 0x0 DUP9 PUSH1 0xFF AND PUSH1 0xFF AND DUP2 MSTORE PUSH1 0x20 ADD SWAP1 DUP2 MSTORE PUSH1 0x20 ADD PUSH1 0x0 KECCAK256 PUSH1 0x6 ADD PUSH1 0x0 DUP6 DUP2 MSTORE PUSH1 0x20 ADD SWAP1 DUP2 MSTORE PUSH1 0x20 ADD PUSH1 0x0 KECCAK256 PUSH1 0x0 ADD SLOAD SWAP4 POP DUP3 DUP1 PUSH1 0x1 ADD SWAP4 POP POP PUSH2 0x20D5 JUMP JUMPDEST JUMPDEST DUP6 DUP6 SWAP9 POP SWAP9 POP POP POP POP POP POP POP POP SWAP2 POP SWAP2 JUMP JUMPDEST PUSH1 0x0 DUP1 PUSH1 0x0 DUP1 PUSH1 0x0 DUP1 PUSH1 0x0 PUSH2 0x22A4 DUP11 PUSH2 0x3371 JUMP JUMPDEST SWAP7 POP PUSH1 0x0 SWAP6 POP PUSH1 0x0 SWAP5 POP PUSH1 0x0 PUSH1 0x1 PUSH1 0x0 DUP10 PUSH1 0xFF AND PUSH1 0xFF AND DUP2 MSTORE PUSH1 0x20 ADD SWAP1 DUP2 MSTORE PUSH1 0x20 ADD PUSH1 0x0 KECCAK256 PUSH1 0x5 ADD SLOAD EQ DUP1 PUSH2 0x22F4 JUMPI POP DUP9 PUSH1 0x1 PUSH1 0x0 DUP10 PUSH1 0xFF AND PUSH1 0xFF AND DUP2 MSTORE PUSH1 0x20 ADD SWAP1 DUP2 MSTORE PUSH1 0x20 ADD PUSH1 0x0 KECCAK256 PUSH1 0x3 ADD SLOAD LT JUMPDEST ISZERO PUSH2 0x257F JUMPI DUP9 DUP9 MUL SWAP6 POP DUP8 DUP7 LT ISZERO ISZERO ISZERO PUSH2 0x230D JUMPI PUSH1 0x0 DUP1 REVERT JUMPDEST DUP9 DUP7 LT ISZERO ISZERO ISZERO PUSH2 0x231C JUMPI PUSH1 0x0 DUP1 REVERT JUMPDEST DUP8 PUSH1 0x3 PUSH1 0x0 CALLER PUSH20 0xFFFFFFFFFFFFFFFFFFFFFFFFFFFFFFFFFFFFFFFF AND PUSH20 0xFFFFFFFFFFFFFFFFFFFFFFFFFFFFFFFFFFFFFFFF AND DUP2 MSTORE PUSH1 0x20 ADD SWAP1 DUP2 MSTORE PUSH1 0x20 ADD PUSH1 0x0 KECCAK256 PUSH1 0x0 DUP10 PUSH1 0xFF AND PUSH1 0xFF AND DUP2 MSTORE PUSH1 0x20 ADD SWAP1 DUP2 MSTORE PUSH1 0x20 ADD PUSH1 0x0 KECCAK256 SLOAD LT ISZERO ISZERO ISZERO PUSH2 0x2381 JUMPI PUSH1 0x0 DUP1 REVERT JUMPDEST PUSH1 0x0 DUP9 PUSH1 0x3 PUSH1 0x0 CALLER PUSH20 0xFFFFFFFFFFFFFFFFFFFFFFFFFFFFFFFFFFFFFFFF AND PUSH20 0xFFFFFFFFFFFFFFFFFFFFFFFFFFFFFFFFFFFFFFFF AND DUP2 MSTORE PUSH1 0x20 ADD SWAP1 DUP2 MSTORE PUSH1 0x20 ADD PUSH1 0x0 KECCAK256 PUSH1 0x0 DUP11 PUSH1 0xFF AND PUSH1 0xFF AND DUP2 MSTORE PUSH1 0x20 ADD SWAP1 DUP2 MSTORE PUSH1 0x20 ADD PUSH1 0x0 KECCAK256 SLOAD SUB LT ISZERO ISZERO ISZERO PUSH2 0x23E9 JUMPI PUSH1 0x0 DUP1 REVERT JUMPDEST PUSH1 0x4 PUSH1 0x0 CALLER PUSH20 0xFFFFFFFFFFFFFFFFFFFFFFFFFFFFFFFFFFFFFFFF AND PUSH20 0xFFFFFFFFFFFFFFFFFFFFFFFFFFFFFFFFFFFFFFFF AND DUP2 MSTORE PUSH1 0x20 ADD SWAP1 DUP2 MSTORE PUSH1 0x20 ADD PUSH1 0x0 KECCAK256 SLOAD DUP7 PUSH1 0x4 PUSH1 0x0 CALLER PUSH20 0xFFFFFFFFFFFFFFFFFFFFFFFFFFFFFFFFFFFFFFFF AND PUSH20 0xFFFFFFFFFFFFFFFFFFFFFFFFFFFFFFFFFFFFFFFF AND DUP2 MSTORE PUSH1 0x20 ADD SWAP1 DUP2 MSTORE PUSH1 0x20 ADD PUSH1 0x0 KECCAK256 SLOAD ADD LT ISZERO ISZERO ISZERO PUSH2 0x2478 JUMPI PUSH1 0x0 DUP1 REVERT JUMPDEST DUP8 PUSH1 0x3 PUSH1 0x0 CALLER PUSH20 0xFFFFFFFFFFFFFFFFFFFFFFFFFFFFFFFFFFFFFFFF AND PUSH20 0xFFFFFFFFFFFFFFFFFFFFFFFFFFFFFFFFFFFFFFFF AND DUP2 MSTORE PUSH1 0x20 ADD SWAP1 DUP2 MSTORE PUSH1 0x20 ADD PUSH1 0x0 KECCAK256 PUSH1 0x0 DUP10 PUSH1 0xFF AND PUSH1 0xFF AND DUP2 MSTORE PUSH1 0x20 ADD SWAP1 DUP2 MSTORE PUSH1 0x20 ADD PUSH1 0x0 KECCAK256 PUSH1 0x0 DUP3 DUP3 SLOAD SUB SWAP3 POP POP DUP2 SWAP1 SSTORE POP PUSH2 0x24E8 DUP8 DUP11 DUP11 CALLER PUSH2 0x45FD JUMP JUMPDEST CALLER PUSH20 0xFFFFFFFFFFFFFFFFFFFFFFFFFFFFFFFFFFFFFFFF AND DUP8 PUSH1 0xFF AND PUSH32 0xC7D136F10BCB424DE2FF60D5473D863ED2FDCD5D352E045D89EE9581F54F6AFB DUP11 DUP13 PUSH1 0x1 PUSH1 0x0 DUP14 PUSH1 0xFF AND PUSH1 0xFF AND DUP2 MSTORE PUSH1 0x20 ADD SWAP1 DUP2 MSTORE PUSH1 0x20 ADD PUSH1 0x0 KECCAK256 PUSH1 0x6 ADD PUSH1 0x0 DUP16 DUP2 MSTORE PUSH1 0x20 ADD SWAP1 DUP2 MSTORE PUSH1 0x20 ADD PUSH1 0x0 KECCAK256 PUSH1 0x4 ADD SLOAD PUSH1 0x40 MLOAD DUP1 DUP5 DUP2 MSTORE PUSH1 0x20 ADD DUP4 DUP2 MSTORE PUSH1 0x20 ADD DUP3 DUP2 MSTORE PUSH1 0x20 ADD SWAP4 POP POP POP POP PUSH1 0x40 MLOAD DUP1 SWAP2 SUB SWAP1 LOG3 PUSH2 0x3337 JUMP JUMPDEST PUSH1 0x1 PUSH1 0x0 DUP9 PUSH1 0xFF AND PUSH1 0xFF AND DUP2 MSTORE PUSH1 0x20 ADD SWAP1 DUP2 MSTORE PUSH1 0x20 ADD PUSH1 0x0 KECCAK256 PUSH1 0x3 ADD SLOAD SWAP4 POP DUP8 SWAP3 POP JUMPDEST DUP9 DUP5 LT ISZERO DUP1 ISZERO PUSH2 0x25B2 JUMPI POP PUSH1 0x0 DUP4 GT JUMPDEST ISZERO PUSH2 0x3321 JUMPI PUSH1 0x1 PUSH1 0x0 DUP9 PUSH1 0xFF AND PUSH1 0xFF AND DUP2 MSTORE PUSH1 0x20 ADD SWAP1 DUP2 MSTORE PUSH1 0x20 ADD PUSH1 0x0 KECCAK256 PUSH1 0x2 ADD PUSH1 0x0 DUP6 DUP2 MSTORE PUSH1 0x20 ADD SWAP1 DUP2 MSTORE PUSH1 0x20 ADD PUSH1 0x0 KECCAK256 PUSH1 0x3 ADD SLOAD SWAP2 POP JUMPDEST PUSH1 0x1 PUSH1 0x0 DUP9 PUSH1 0xFF AND PUSH1 0xFF AND DUP2 MSTORE PUSH1 0x20 ADD SWAP1 DUP2 MSTORE PUSH1 0x20 ADD PUSH1 0x0 KECCAK256 PUSH1 0x2 ADD PUSH1 0x0 DUP6 DUP2 MSTORE PUSH1 0x20 ADD SWAP1 DUP2 MSTORE PUSH1 0x20 ADD PUSH1 0x0 KECCAK256 PUSH1 0x4 ADD SLOAD DUP3 GT ISZERO DUP1 ISZERO PUSH2 0x262B JUMPI POP PUSH1 0x0 DUP4 GT JUMPDEST ISZERO PUSH2 0x32FD JUMPI PUSH1 0x1 PUSH1 0x0 DUP9 PUSH1 0xFF AND PUSH1 0xFF AND DUP2 MSTORE PUSH1 0x20 ADD SWAP1 DUP2 MSTORE PUSH1 0x20 ADD PUSH1 0x0 KECCAK256 PUSH1 0x2 ADD PUSH1 0x0 DUP6 DUP2 MSTORE PUSH1 0x20 ADD SWAP1 DUP2 MSTORE PUSH1 0x20 ADD PUSH1 0x0 KECCAK256 PUSH1 0x2 ADD PUSH1 0x0 DUP4 DUP2 MSTORE PUSH1 0x20 ADD SWAP1 DUP2 MSTORE PUSH1 0x20 ADD PUSH1 0x0 KECCAK256 PUSH1 0x0 ADD SLOAD SWAP1 POP DUP3 DUP2 GT ISZERO ISZERO PUSH2 0x2BBE JUMPI DUP4 DUP2 MUL SWAP5 POP DUP1 PUSH1 0x3 PUSH1 0x0 CALLER PUSH20 0xFFFFFFFFFFFFFFFFFFFFFFFFFFFFFFFFFFFFFFFF AND PUSH20 0xFFFFFFFFFFFFFFFFFFFFFFFFFFFFFFFFFFFFFFFF AND DUP2 MSTORE PUSH1 0x20 ADD SWAP1 DUP2 MSTORE PUSH1 0x20 ADD PUSH1 0x0 KECCAK256 PUSH1 0x0 DUP10 PUSH1 0xFF AND PUSH1 0xFF AND DUP2 MSTORE PUSH1 0x20 ADD SWAP1 DUP2 MSTORE PUSH1 0x20 ADD PUSH1 0x0 KECCAK256 SLOAD LT ISZERO ISZERO ISZERO PUSH2 0x26EA JUMPI PUSH1 0x0 DUP1 REVERT JUMPDEST DUP1 PUSH1 0x3 PUSH1 0x0 CALLER PUSH20 0xFFFFFFFFFFFFFFFFFFFFFFFFFFFFFFFFFFFFFFFF AND PUSH20 0xFFFFFFFFFFFFFFFFFFFFFFFFFFFFFFFFFFFFFFFF AND DUP2 MSTORE PUSH1 0x20 ADD SWAP1 DUP2 MSTORE PUSH1 0x20 ADD PUSH1 0x0 KECCAK256 PUSH1 0x0 DUP10 PUSH1 0xFF AND PUSH1 0xFF AND DUP2 MSTORE PUSH1 0x20 ADD SWAP1 DUP2 MSTORE PUSH1 0x20 ADD PUSH1 0x0 KECCAK256 PUSH1 0x0 DUP3 DUP3 SLOAD SUB SWAP3 POP POP DUP2 SWAP1 SSTORE POP PUSH1 0x0 DUP2 PUSH1 0x3 PUSH1 0x0 CALLER PUSH20 0xFFFFFFFFFFFFFFFFFFFFFFFFFFFFFFFFFFFFFFFF AND PUSH20 0xFFFFFFFFFFFFFFFFFFFFFFFFFFFFFFFFFFFFFFFF AND DUP2 MSTORE PUSH1 0x20 ADD SWAP1 DUP2 MSTORE PUSH1 0x20 ADD PUSH1 0x0 KECCAK256 PUSH1 0x0 DUP11 PUSH1 0xFF AND PUSH1 0xFF AND DUP2 MSTORE PUSH1 0x20 ADD SWAP1 DUP2 MSTORE PUSH1 0x20 ADD PUSH1 0x0 KECCAK256 SLOAD SUB LT ISZERO ISZERO ISZERO PUSH2 0x27B6 JUMPI PUSH1 0x0 DUP1 REVERT JUMPDEST PUSH1 0x3 PUSH1 0x0 PUSH1 0x1 PUSH1 0x0 DUP11 PUSH1 0xFF AND PUSH1 0xFF AND DUP2 MSTORE PUSH1 0x20 ADD SWAP1 DUP2 MSTORE PUSH1 0x20 ADD PUSH1 0x0 KECCAK256 PUSH1 0x2 ADD PUSH1 0x0 DUP8 DUP2 MSTORE PUSH1 0x20 ADD SWAP1 DUP2 MSTORE PUSH1 0x20 ADD PUSH1 0x0 KECCAK256 PUSH1 0x2 ADD PUSH1 0x0 DUP6 DUP2 MSTORE PUSH1 0x20 ADD SWAP1 DUP2 MSTORE PUSH1 0x20 ADD PUSH1 0x0 KECCAK256 PUSH1 0x1 ADD PUSH1 0x0 SWAP1 SLOAD SWAP1 PUSH2 0x100 EXP SWAP1 DIV PUSH20 0xFFFFFFFFFFFFFFFFFFFFFFFFFFFFFFFFFFFFFFFF AND PUSH20 0xFFFFFFFFFFFFFFFFFFFFFFFFFFFFFFFFFFFFFFFF AND PUSH20 0xFFFFFFFFFFFFFFFFFFFFFFFFFFFFFFFFFFFFFFFF AND DUP2 MSTORE PUSH1 0x20 ADD SWAP1 DUP2 MSTORE PUSH1 0x20 ADD PUSH1 0x0 KECCAK256 PUSH1 0x0 DUP9 PUSH1 0xFF AND PUSH1 0xFF AND DUP2 MSTORE PUSH1 0x20 ADD SWAP1 DUP2 MSTORE PUSH1 0x20 ADD PUSH1 0x0 KECCAK256 SLOAD DUP2 PUSH1 0x3 PUSH1 0x0 PUSH1 0x1 PUSH1 0x0 DUP13 PUSH1 0xFF AND PUSH1 0xFF AND DUP2 MSTORE PUSH1 0x20 ADD SWAP1 DUP2 MSTORE PUSH1 0x20 ADD PUSH1 0x0 KECCAK256 PUSH1 0x2 ADD PUSH1 0x0 DUP10 DUP2 MSTORE PUSH1 0x20 ADD SWAP1 DUP2 MSTORE PUSH1 0x20 ADD PUSH1 0x0 KECCAK256 PUSH1 0x2 ADD PUSH1 0x0 DUP8 DUP2 MSTORE PUSH1 0x20 ADD SWAP1 DUP2 MSTORE PUSH1 0x20 ADD PUSH1 0x0 KECCAK256 PUSH1 0x1 ADD PUSH1 0x0 SWAP1 SLOAD SWAP1 PUSH2 0x100 EXP SWAP1 DIV PUSH20 0xFFFFFFFFFFFFFFFFFFFFFFFFFFFFFFFFFFFFFFFF AND PUSH20 0xFFFFFFFFFFFFFFFFFFFFFFFFFFFFFFFFFFFFFFFF AND PUSH20 0xFFFFFFFFFFFFFFFFFFFFFFFFFFFFFFFFFFFFFFFF AND DUP2 MSTORE PUSH1 0x20 ADD SWAP1 DUP2 MSTORE PUSH1 0x20 ADD PUSH1 0x0 KECCAK256 PUSH1 0x0 DUP11 PUSH1 0xFF AND PUSH1 0xFF AND DUP2 MSTORE PUSH1 0x20 ADD SWAP1 DUP2 MSTORE PUSH1 0x20 ADD PUSH1 0x0 KECCAK256 SLOAD ADD LT ISZERO ISZERO ISZERO PUSH2 0x293B JUMPI PUSH1 0x0 DUP1 REVERT JUMPDEST PUSH1 0x4 PUSH1 0x0 CALLER PUSH20 0xFFFFFFFFFFFFFFFFFFFFFFFFFFFFFFFFFFFFFFFF AND PUSH20 0xFFFFFFFFFFFFFFFFFFFFFFFFFFFFFFFFFFFFFFFF AND DUP2 MSTORE PUSH1 0x20 ADD SWAP1 DUP2 MSTORE PUSH1 0x20 ADD PUSH1 0x0 KECCAK256 SLOAD DUP6 PUSH1 0x4 PUSH1 0x0 CALLER PUSH20 0xFFFFFFFFFFFFFFFFFFFFFFFFFFFFFFFFFFFFFFFF AND PUSH20 0xFFFFFFFFFFFFFFFFFFFFFFFFFFFFFFFFFFFFFFFF AND DUP2 MSTORE PUSH1 0x20 ADD SWAP1 DUP2 MSTORE PUSH1 0x20 ADD PUSH1 0x0 KECCAK256 SLOAD ADD LT ISZERO ISZERO ISZERO PUSH2 0x29CA JUMPI PUSH1 0x0 DUP1 REVERT JUMPDEST DUP1 PUSH1 0x3 PUSH1 0x0 PUSH1 0x1 PUSH1 0x0 DUP12 PUSH1 0xFF AND PUSH1 0xFF AND DUP2 MSTORE PUSH1 0x20 ADD SWAP1 DUP2 MSTORE PUSH1 0x20 ADD PUSH1 0x0 KECCAK256 PUSH1 0x2 ADD PUSH1 0x0 DUP9 DUP2 MSTORE PUSH1 0x20 ADD SWAP1 DUP2 MSTORE PUSH1 0x20 ADD PUSH1 0x0 KECCAK256 PUSH1 0x2 ADD PUSH1 0x0 DUP7 DUP2 MSTORE PUSH1 0x20 ADD SWAP1 DUP2 MSTORE PUSH1 0x20 ADD PUSH1 0x0 KECCAK256 PUSH1 0x1 ADD PUSH1 0x0 SWAP1 SLOAD SWAP1 PUSH2 0x100 EXP SWAP1 DIV PUSH20 0xFFFFFFFFFFFFFFFFFFFFFFFFFFFFFFFFFFFFFFFF AND PUSH20 0xFFFFFFFFFFFFFFFFFFFFFFFFFFFFFFFFFFFFFFFF AND PUSH20 0xFFFFFFFFFFFFFFFFFFFFFFFFFFFFFFFFFFFFFFFF AND DUP2 MSTORE PUSH1 0x20 ADD SWAP1 DUP2 MSTORE PUSH1 0x20 ADD PUSH1 0x0 KECCAK256 PUSH1 0x0 DUP10 PUSH1 0xFF AND PUSH1 0xFF AND DUP2 MSTORE PUSH1 0x20 ADD SWAP1 DUP2 MSTORE PUSH1 0x20 ADD PUSH1 0x0 KECCAK256 PUSH1 0x0 DUP3 DUP3 SLOAD ADD SWAP3 POP POP DUP2 SWAP1 SSTORE POP PUSH1 0x0 PUSH1 0x1 PUSH1 0x0 DUP10 PUSH1 0xFF AND PUSH1 0xFF AND DUP2 MSTORE PUSH1 0x20 ADD SWAP1 DUP2 MSTORE PUSH1 0x20 ADD PUSH1 0x0 KECCAK256 PUSH1 0x2 ADD PUSH1 0x0 DUP7 DUP2 MSTORE PUSH1 0x20 ADD SWAP1 DUP2 MSTORE PUSH1 0x20 ADD PUSH1 0x0 KECCAK256 PUSH1 0x2 ADD PUSH1 0x0 DUP5 DUP2 MSTORE PUSH1 0x20 ADD SWAP1 DUP2 MSTORE PUSH1 0x20 ADD PUSH1 0x0 KECCAK256 PUSH1 0x0 ADD DUP2 SWAP1 SSTORE POP DUP5 PUSH1 0x4 PUSH1 0x0 CALLER PUSH20 0xFFFFFFFFFFFFFFFFFFFFFFFFFFFFFFFFFFFFFFFF AND PUSH20 0xFFFFFFFFFFFFFFFFFFFFFFFFFFFFFFFFFFFFFFFF AND DUP2 MSTORE PUSH1 0x20 ADD SWAP1 DUP2 MSTORE PUSH1 0x20 ADD PUSH1 0x0 KECCAK256 PUSH1 0x0 DUP3 DUP3 SLOAD ADD SWAP3 POP POP DUP2 SWAP1 SSTORE POP PUSH1 0x1 PUSH1 0x0 DUP9 PUSH1 0xFF AND PUSH1 0xFF AND DUP2 MSTORE PUSH1 0x20 ADD SWAP1 DUP2 MSTORE PUSH1 0x20 ADD PUSH1 0x0 KECCAK256 PUSH1 0x2 ADD PUSH1 0x0 DUP6 DUP2 MSTORE PUSH1 0x20 ADD SWAP1 DUP2 MSTORE PUSH1 0x20 ADD PUSH1 0x0 KECCAK256 PUSH1 0x3 ADD PUSH1 0x0 DUP2 SLOAD DUP1 SWAP3 SWAP2 SWAP1 PUSH1 0x1 ADD SWAP2 SWAP1 POP SSTORE POP DUP7 PUSH1 0xFF AND PUSH32 0xCBFA5EDCD918EF1EC42746C71AC83C456F37330C83A22E44D6CFDCA22D564710 DUP3 DUP7 DUP6 PUSH1 0x40 MLOAD DUP1 DUP5 DUP2 MSTORE PUSH1 0x20 ADD DUP4 DUP2 MSTORE PUSH1 0x20 ADD DUP3 DUP2 MSTORE PUSH1 0x20 ADD SWAP4 POP POP POP POP PUSH1 0x40 MLOAD DUP1 SWAP2 SUB SWAP1 LOG2 DUP1 DUP4 SUB SWAP3 POP PUSH2 0x30CD JUMP JUMPDEST PUSH1 0x0 DUP4 DUP3 SUB GT ISZERO ISZERO PUSH2 0x2BCF JUMPI PUSH1 0x0 DUP1 REVERT JUMPDEST DUP4 DUP4 MUL SWAP6 POP DUP3 PUSH1 0x3 PUSH1 0x0 CALLER PUSH20 0xFFFFFFFFFFFFFFFFFFFFFFFFFFFFFFFFFFFFFFFF AND PUSH20 0xFFFFFFFFFFFFFFFFFFFFFFFFFFFFFFFFFFFFFFFF AND DUP2 MSTORE PUSH1 0x20 ADD SWAP1 DUP2 MSTORE PUSH1 0x20 ADD PUSH1 0x0 KECCAK256 PUSH1 0x0 DUP10 PUSH1 0xFF AND PUSH1 0xFF AND DUP2 MSTORE PUSH1 0x20 ADD SWAP1 DUP2 MSTORE PUSH1 0x20 ADD PUSH1 0x0 KECCAK256 SLOAD LT ISZERO ISZERO ISZERO PUSH2 0x2C39 JUMPI PUSH1 0x0 DUP1 REVERT JUMPDEST DUP3 PUSH1 0x3 PUSH1 0x0 CALLER PUSH20 0xFFFFFFFFFFFFFFFFFFFFFFFFFFFFFFFFFFFFFFFF AND PUSH20 0xFFFFFFFFFFFFFFFFFFFFFFFFFFFFFFFFFFFFFFFF AND DUP2 MSTORE PUSH1 0x20 ADD SWAP1 DUP2 MSTORE PUSH1 0x20 ADD PUSH1 0x0 KECCAK256 PUSH1 0x0 DUP10 PUSH1 0xFF AND PUSH1 0xFF AND DUP2 MSTORE PUSH1 0x20 ADD SWAP1 DUP2 MSTORE PUSH1 0x20 ADD PUSH1 0x0 KECCAK256 PUSH1 0x0 DUP3 DUP3 SLOAD SUB SWAP3 POP POP DUP2 SWAP1 SSTORE POP DUP3 PUSH1 0x3 PUSH1 0x0 CALLER PUSH20 0xFFFFFFFFFFFFFFFFFFFFFFFFFFFFFFFFFFFFFFFF AND PUSH20 0xFFFFFFFFFFFFFFFFFFFFFFFFFFFFFFFFFFFFFFFF AND DUP2 MSTORE PUSH1 0x20 ADD SWAP1 DUP2 MSTORE PUSH1 0x20 ADD PUSH1 0x0 KECCAK256 PUSH1 0x0 DUP10 PUSH1 0xFF AND PUSH1 0xFF AND DUP2 MSTORE PUSH1 0x20 ADD SWAP1 DUP2 MSTORE PUSH1 0x20 ADD PUSH1 0x0 KECCAK256 SLOAD LT ISZERO ISZERO ISZERO PUSH2 0x2D02 JUMPI PUSH1 0x0 DUP1 REVERT JUMPDEST PUSH1 0x4 PUSH1 0x0 CALLER PUSH20 0xFFFFFFFFFFFFFFFFFFFFFFFFFFFFFFFFFFFFFFFF AND PUSH20 0xFFFFFFFFFFFFFFFFFFFFFFFFFFFFFFFFFFFFFFFF AND DUP2 MSTORE PUSH1 0x20 ADD SWAP1 DUP2 MSTORE PUSH1 0x20 ADD PUSH1 0x0 KECCAK256 SLOAD DUP7 PUSH1 0x4 PUSH1 0x0 CALLER PUSH20 0xFFFFFFFFFFFFFFFFFFFFFFFFFFFFFFFFFFFFFFFF AND PUSH20 0xFFFFFFFFFFFFFFFFFFFFFFFFFFFFFFFFFFFFFFFF AND DUP2 MSTORE PUSH1 0x20 ADD SWAP1 DUP2 MSTORE PUSH1 0x20 ADD PUSH1 0x0 KECCAK256 SLOAD ADD LT ISZERO ISZERO ISZERO PUSH2 0x2D91 JUMPI PUSH1 0x0 DUP1 REVERT JUMPDEST PUSH1 0x3 PUSH1 0x0 PUSH1 0x1 PUSH1 0x0 DUP11 PUSH1 0xFF AND PUSH1 0xFF AND DUP2 MSTORE PUSH1 0x20 ADD SWAP1 DUP2 MSTORE PUSH1 0x20 ADD PUSH1 0x0 KECCAK256 PUSH1 0x2 ADD PUSH1 0x0 DUP8 DUP2 MSTORE PUSH1 0x20 ADD SWAP1 DUP2 MSTORE PUSH1 0x20 ADD PUSH1 0x0 KECCAK256 PUSH1 0x2 ADD PUSH1 0x0 DUP6 DUP2 MSTORE PUSH1 0x20 ADD SWAP1 DUP2 MSTORE PUSH1 0x20 ADD PUSH1 0x0 KECCAK256 PUSH1 0x1 ADD PUSH1 0x0 SWAP1 SLOAD SWAP1 PUSH2 0x100 EXP SWAP1 DIV PUSH20 0xFFFFFFFFFFFFFFFFFFFFFFFFFFFFFFFFFFFFFFFF AND PUSH20 0xFFFFFFFFFFFFFFFFFFFFFFFFFFFFFFFFFFFFFFFF AND PUSH20 0xFFFFFFFFFFFFFFFFFFFFFFFFFFFFFFFFFFFFFFFF AND DUP2 MSTORE PUSH1 0x20 ADD SWAP1 DUP2 MSTORE PUSH1 0x20 ADD PUSH1 0x0 KECCAK256 PUSH1 0x0 DUP9 PUSH1 0xFF AND PUSH1 0xFF AND DUP2 MSTORE PUSH1 0x20 ADD SWAP1 DUP2 MSTORE PUSH1 0x20 ADD PUSH1 0x0 KECCAK256 SLOAD DUP4 PUSH1 0x3 PUSH1 0x0 PUSH1 0x1 PUSH1 0x0 DUP13 PUSH1 0xFF AND PUSH1 0xFF AND DUP2 MSTORE PUSH1 0x20 ADD SWAP1 DUP2 MSTORE PUSH1 0x20 ADD PUSH1 0x0 KECCAK256 PUSH1 0x2 ADD PUSH1 0x0 DUP10 DUP2 MSTORE PUSH1 0x20 ADD SWAP1 DUP2 MSTORE PUSH1 0x20 ADD PUSH1 0x0 KECCAK256 PUSH1 0x2 ADD PUSH1 0x0 DUP8 DUP2 MSTORE PUSH1 0x20 ADD SWAP1 DUP2 MSTORE PUSH1 0x20 ADD PUSH1 0x0 KECCAK256 PUSH1 0x1 ADD PUSH1 0x0 SWAP1 SLOAD SWAP1 PUSH2 0x100 EXP SWAP1 DIV PUSH20 0xFFFFFFFFFFFFFFFFFFFFFFFFFFFFFFFFFFFFFFFF AND PUSH20 0xFFFFFFFFFFFFFFFFFFFFFFFFFFFFFFFFFFFFFFFF AND PUSH20 0xFFFFFFFFFFFFFFFFFFFFFFFFFFFFFFFFFFFFFFFF AND DUP2 MSTORE PUSH1 0x20 ADD SWAP1 DUP2 MSTORE PUSH1 0x20 ADD PUSH1 0x0 KECCAK256 PUSH1 0x0 DUP11 PUSH1 0xFF AND PUSH1 0xFF AND DUP2 MSTORE PUSH1 0x20 ADD SWAP1 DUP2 MSTORE PUSH1 0x20 ADD PUSH1 0x0 KECCAK256 SLOAD ADD LT ISZERO ISZERO ISZERO PUSH2 0x2F16 JUMPI PUSH1 0x0 DUP1 REVERT JUMPDEST DUP3 PUSH1 0x1 PUSH1 0x0 DUP10 PUSH1 0xFF AND PUSH1 0xFF AND DUP2 MSTORE PUSH1 0x20 ADD SWAP1 DUP2 MSTORE PUSH1 0x20 ADD PUSH1 0x0 KECCAK256 PUSH1 0x2 ADD PUSH1 0x0 DUP7 DUP2 MSTORE PUSH1 0x20 ADD SWAP1 DUP2 MSTORE PUSH1 0x20 ADD PUSH1 0x0 KECCAK256 PUSH1 0x2 ADD PUSH1 0x0 DUP5 DUP2 MSTORE PUSH1 0x20 ADD SWAP1 DUP2 MSTORE PUSH1 0x20 ADD PUSH1 0x0 KECCAK256 PUSH1 0x0 ADD PUSH1 0x0 DUP3 DUP3 SLOAD SUB SWAP3 POP POP DUP2 SWAP1 SSTORE POP DUP6 PUSH1 0x4 PUSH1 0x0 CALLER PUSH20 0xFFFFFFFFFFFFFFFFFFFFFFFFFFFFFFFFFFFFFFFF AND PUSH20 0xFFFFFFFFFFFFFFFFFFFFFFFFFFFFFFFFFFFFFFFF AND DUP2 MSTORE PUSH1 0x20 ADD SWAP1 DUP2 MSTORE PUSH1 0x20 ADD PUSH1 0x0 KECCAK256 PUSH1 0x0 DUP3 DUP3 SLOAD ADD SWAP3 POP POP DUP2 SWAP1 SSTORE POP DUP3 PUSH1 0x3 PUSH1 0x0 PUSH1 0x1 PUSH1 0x0 DUP12 PUSH1 0xFF AND PUSH1 0xFF AND DUP2 MSTORE PUSH1 0x20 ADD SWAP1 DUP2 MSTORE PUSH1 0x20 ADD PUSH1 0x0 KECCAK256 PUSH1 0x2 ADD PUSH1 0x0 DUP9 DUP2 MSTORE PUSH1 0x20 ADD SWAP1 DUP2 MSTORE PUSH1 0x20 ADD PUSH1 0x0 KECCAK256 PUSH1 0x2 ADD PUSH1 0x0 DUP7 DUP2 MSTORE PUSH1 0x20 ADD SWAP1 DUP2 MSTORE PUSH1 0x20 ADD PUSH1 0x0 KECCAK256 PUSH1 0x1 ADD PUSH1 0x0 SWAP1 SLOAD SWAP1 PUSH2 0x100 EXP SWAP1 DIV PUSH20 0xFFFFFFFFFFFFFFFFFFFFFFFFFFFFFFFFFFFFFFFF AND PUSH20 0xFFFFFFFFFFFFFFFFFFFFFFFFFFFFFFFFFFFFFFFF AND PUSH20 0xFFFFFFFFFFFFFFFFFFFFFFFFFFFFFFFFFFFFFFFF AND DUP2 MSTORE PUSH1 0x20 ADD SWAP1 DUP2 MSTORE PUSH1 0x20 ADD PUSH1 0x0 KECCAK256 PUSH1 0x0 DUP10 PUSH1 0xFF AND PUSH1 0xFF AND DUP2 MSTORE PUSH1 0x20 ADD SWAP1 DUP2 MSTORE PUSH1 0x20 ADD PUSH1 0x0 KECCAK256 PUSH1 0x0 DUP3 DUP3 SLOAD ADD SWAP3 POP POP DUP2 SWAP1 SSTORE POP DUP7 PUSH1 0xFF AND PUSH32 0xCBFA5EDCD918EF1EC42746C71AC83C456F37330C83A22E44D6CFDCA22D564710 DUP5 DUP7 DUP6 PUSH1 0x40 MLOAD DUP1 DUP5 DUP2 MSTORE PUSH1 0x20 ADD DUP4 DUP2 MSTORE PUSH1 0x20 ADD DUP3 DUP2 MSTORE PUSH1 0x20 ADD SWAP4 POP POP POP POP PUSH1 0x40 MLOAD DUP1 SWAP2 SUB SWAP1 LOG2 PUSH1 0x0 SWAP3 POP JUMPDEST PUSH1 0x1 PUSH1 0x0 DUP9 PUSH1 0xFF AND PUSH1 0xFF AND DUP2 MSTORE PUSH1 0x20 ADD SWAP1 DUP2 MSTORE PUSH1 0x20 ADD PUSH1 0x0 KECCAK256 PUSH1 0x2 ADD PUSH1 0x0 DUP6 DUP2 MSTORE PUSH1 0x20 ADD SWAP1 DUP2 MSTORE PUSH1 0x20 ADD PUSH1 0x0 KECCAK256 PUSH1 0x4 ADD SLOAD DUP3 EQ DUP1 ISZERO PUSH2 0x3150 JUMPI POP PUSH1 0x0 PUSH1 0x1 PUSH1 0x0 DUP10 PUSH1 0xFF AND PUSH1 0xFF AND DUP2 MSTORE PUSH1 0x20 ADD SWAP1 DUP2 MSTORE PUSH1 0x20 ADD PUSH1 0x0 KECCAK256 PUSH1 0x2 ADD PUSH1 0x0 DUP7 DUP2 MSTORE PUSH1 0x20 ADD SWAP1 DUP2 MSTORE PUSH1 0x20 ADD PUSH1 0x0 KECCAK256 PUSH1 0x2 ADD PUSH1 0x0 DUP5 DUP2 MSTORE PUSH1 0x20 ADD SWAP1 DUP2 MSTORE PUSH1 0x20 ADD PUSH1 0x0 KECCAK256 PUSH1 0x0 ADD SLOAD EQ JUMPDEST ISZERO PUSH2 0x32F0 JUMPI PUSH1 0x1 PUSH1 0x0 DUP9 PUSH1 0xFF AND PUSH1 0xFF AND DUP2 MSTORE PUSH1 0x20 ADD SWAP1 DUP2 MSTORE PUSH1 0x20 ADD PUSH1 0x0 KECCAK256 PUSH1 0x5 ADD PUSH1 0x0 DUP2 SLOAD DUP1 SWAP3 SWAP2 SWAP1 PUSH1 0x1 SWAP1 SUB SWAP2 SWAP1 POP SSTORE POP PUSH1 0x1 PUSH1 0x0 DUP9 PUSH1 0xFF AND PUSH1 0xFF AND DUP2 MSTORE PUSH1 0x20 ADD SWAP1 DUP2 MSTORE PUSH1 0x20 ADD PUSH1 0x0 KECCAK256 PUSH1 0x2 ADD PUSH1 0x0 DUP6 DUP2 MSTORE PUSH1 0x20 ADD SWAP1 DUP2 MSTORE PUSH1 0x20 ADD PUSH1 0x0 KECCAK256 PUSH1 0x1 ADD SLOAD DUP5 EQ DUP1 PUSH2 0x31F0 JUMPI POP PUSH1 0x0 PUSH1 0x1 PUSH1 0x0 DUP10 PUSH1 0xFF AND PUSH1 0xFF AND DUP2 MSTORE PUSH1 0x20 ADD SWAP1 DUP2 MSTORE PUSH1 0x20 ADD PUSH1 0x0 KECCAK256 PUSH1 0x2 ADD PUSH1 0x0 DUP7 DUP2 MSTORE PUSH1 0x20 ADD SWAP1 DUP2 MSTORE PUSH1 0x20 ADD PUSH1 0x0 KECCAK256 PUSH1 0x1 ADD SLOAD EQ JUMPDEST ISZERO PUSH2 0x321C JUMPI PUSH1 0x0 PUSH1 0x1 PUSH1 0x0 DUP10 PUSH1 0xFF AND PUSH1 0xFF AND DUP2 MSTORE PUSH1 0x20 ADD SWAP1 DUP2 MSTORE PUSH1 0x20 ADD PUSH1 0x0 KECCAK256 PUSH1 0x3 ADD DUP2 SWAP1 SSTORE POP PUSH2 0x32EF JUMP JUMPDEST PUSH1 0x1 PUSH1 0x0 DUP9 PUSH1 0xFF AND PUSH1 0xFF AND DUP2 MSTORE PUSH1 0x20 ADD SWAP1 DUP2 MSTORE PUSH1 0x20 ADD PUSH1 0x0 KECCAK256 PUSH1 0x2 ADD PUSH1 0x0 DUP6 DUP2 MSTORE PUSH1 0x20 ADD SWAP1 DUP2 MSTORE PUSH1 0x20 ADD PUSH1 0x0 KECCAK256 PUSH1 0x1 ADD SLOAD PUSH1 0x1 PUSH1 0x0 DUP10 PUSH1 0xFF AND PUSH1 0xFF AND DUP2 MSTORE PUSH1 0x20 ADD SWAP1 DUP2 MSTORE PUSH1 0x20 ADD PUSH1 0x0 KECCAK256 PUSH1 0x3 ADD DUP2 SWAP1 SSTORE POP PUSH1 0x1 PUSH1 0x0 DUP9 PUSH1 0xFF AND PUSH1 0xFF AND DUP2 MSTORE PUSH1 0x20 ADD SWAP1 DUP2 MSTORE PUSH1 0x20 ADD PUSH1 0x0 KECCAK256 PUSH1 0x3 ADD SLOAD PUSH1 0x1 PUSH1 0x0 DUP10 PUSH1 0xFF AND PUSH1 0xFF AND DUP2 MSTORE PUSH1 0x20 ADD SWAP1 DUP2 MSTORE PUSH1 0x20 ADD PUSH1 0x0 KECCAK256 PUSH1 0x2 ADD PUSH1 0x0 PUSH1 0x1 PUSH1 0x0 DUP12 PUSH1 0xFF AND PUSH1 0xFF AND DUP2 MSTORE PUSH1 0x20 ADD SWAP1 DUP2 MSTORE PUSH1 0x20 ADD PUSH1 0x0 KECCAK256 PUSH1 0x2 ADD PUSH1 0x0 DUP9 DUP2 MSTORE PUSH1 0x20 ADD SWAP1 DUP2 MSTORE PUSH1 0x20 ADD PUSH1 0x0 KECCAK256 PUSH1 0x1 ADD SLOAD DUP2 MSTORE PUSH1 0x20 ADD SWAP1 DUP2 MSTORE PUSH1 0x20 ADD PUSH1 0x0 KECCAK256 PUSH1 0x0 ADD DUP2 SWAP1 SSTORE POP JUMPDEST JUMPDEST DUP2 DUP1 PUSH1 0x1 ADD SWAP3 POP POP PUSH2 0x25EB JUMP JUMPDEST PUSH1 0x1 PUSH1 0x0 DUP9 PUSH1 0xFF AND PUSH1 0xFF AND DUP2 MSTORE PUSH1 0x20 ADD SWAP1 DUP2 MSTORE PUSH1 0x20 ADD PUSH1 0x0 KECCAK256 PUSH1 0x3 ADD SLOAD SWAP4 POP PUSH2 0x25A2 JUMP JUMPDEST PUSH1 0x0 DUP4 GT ISZERO PUSH2 0x3336 JUMPI PUSH2 0x3335 DUP11 DUP11 DUP6 PUSH2 0x2290 JUMP JUMPDEST JUMPDEST JUMPDEST POP POP POP POP POP POP POP POP POP POP JUMP JUMPDEST PUSH1 0x0 DUP1 PUSH2 0x334F DUP4 PUSH2 0x4C45 JUMP JUMPDEST SWAP1 POP PUSH1 0x0 DUP2 PUSH1 0xFF AND EQ ISZERO PUSH2 0x3366 JUMPI PUSH1 0x0 SWAP2 POP PUSH2 0x336B JUMP JUMPDEST PUSH1 0x1 SWAP2 POP JUMPDEST POP SWAP2 SWAP1 POP JUMP JUMPDEST PUSH1 0x0 DUP1 PUSH2 0x337D DUP4 PUSH2 0x4C45 JUMP JUMPDEST SWAP1 POP PUSH1 0x0 DUP2 PUSH1 0xFF AND GT ISZERO ISZERO PUSH2 0x3391 JUMPI PUSH1 0x0 DUP1 REVERT JUMPDEST DUP1 SWAP2 POP POP SWAP2 SWAP1 POP JUMP JUMPDEST PUSH1 0x4 PUSH1 0x0 CALLER PUSH20 0xFFFFFFFFFFFFFFFFFFFFFFFFFFFFFFFFFFFFFFFF AND PUSH20 0xFFFFFFFFFFFFFFFFFFFFFFFFFFFFFFFFFFFFFFFF AND DUP2 MSTORE PUSH1 0x20 ADD SWAP1 DUP2 MSTORE PUSH1 0x20 ADD PUSH1 0x0 KECCAK256 SLOAD CALLVALUE PUSH1 0x4 PUSH1 0x0 CALLER PUSH20 0xFFFFFFFFFFFFFFFFFFFFFFFFFFFFFFFFFFFFFFFF AND PUSH20 0xFFFFFFFFFFFFFFFFFFFFFFFFFFFFFFFFFFFFFFFF AND DUP2 MSTORE PUSH1 0x20 ADD SWAP1 DUP2 MSTORE PUSH1 0x20 ADD PUSH1 0x0 KECCAK256 SLOAD ADD LT ISZERO ISZERO ISZERO PUSH2 0x3429 JUMPI PUSH1 0x0 DUP1 REVERT JUMPDEST CALLVALUE PUSH1 0x4 PUSH1 0x0 CALLER PUSH20 0xFFFFFFFFFFFFFFFFFFFFFFFFFFFFFFFFFFFFFFFF AND PUSH20 0xFFFFFFFFFFFFFFFFFFFFFFFFFFFFFFFFFFFFFFFF AND DUP2 MSTORE PUSH1 0x20 ADD SWAP1 DUP2 MSTORE PUSH1 0x20 ADD PUSH1 0x0 KECCAK256 PUSH1 0x0 DUP3 DUP3 SLOAD ADD SWAP3 POP POP DUP2 SWAP1 SSTORE POP CALLER PUSH20 0xFFFFFFFFFFFFFFFFFFFFFFFFFFFFFFFFFFFFFFFF AND PUSH32 0x42DBEBEB8F6FB795E3007753AEF2D4B1A292DD123F6DE06A4105018674150637 CALLVALUE TIMESTAMP PUSH1 0x40 MLOAD DUP1 DUP4 DUP2 MSTORE PUSH1 0x20 ADD DUP3 DUP2 MSTORE PUSH1 0x20 ADD SWAP3 POP POP POP PUSH1 0x40 MLOAD DUP1 SWAP2 SUB SWAP1 LOG2 JUMP JUMPDEST PUSH1 0x0 DUP1 SWAP1 SLOAD SWAP1 PUSH2 0x100 EXP SWAP1 DIV PUSH20 0xFFFFFFFFFFFFFFFFFFFFFFFFFFFFFFFFFFFFFFFF AND PUSH20 0xFFFFFFFFFFFFFFFFFFFFFFFFFFFFFFFFFFFFFFFF AND CALLER PUSH20 0xFFFFFFFFFFFFFFFFFFFFFFFFFFFFFFFFFFFFFFFF AND EQ ISZERO ISZERO PUSH2 0x3529 JUMPI PUSH1 0x0 DUP1 REVERT JUMPDEST PUSH2 0x3532 DUP3 PUSH2 0x3343 JUMP JUMPDEST ISZERO ISZERO ISZERO PUSH2 0x353E JUMPI PUSH1 0x0 DUP1 REVERT JUMPDEST PUSH1 0x2 PUSH1 0x0 SWAP1 SLOAD SWAP1 PUSH2 0x100 EXP SWAP1 DIV PUSH1 0xFF AND PUSH1 0xFF AND PUSH1 0x1 PUSH1 0x2 PUSH1 0x0 SWAP1 SLOAD SWAP1 PUSH2 0x100 EXP SWAP1 DIV PUSH1 0xFF AND ADD PUSH1 0xFF AND GT ISZERO ISZERO PUSH2 0x3573 JUMPI PUSH1 0x0 DUP1 REVERT JUMPDEST PUSH1 0x2 PUSH1 0x0 DUP2 DUP2 SWAP1 SLOAD SWAP1 PUSH2 0x100 EXP SWAP1 DIV PUSH1 0xFF AND DUP1 SWAP3 SWAP2 SWAP1 PUSH1 0x1 ADD SWAP2 SWAP1 PUSH2 0x100 EXP DUP2 SLOAD DUP2 PUSH1 0xFF MUL NOT AND SWAP1 DUP4 PUSH1 0xFF AND MUL OR SWAP1 SSTORE POP POP DUP2 PUSH1 0x1 PUSH1 0x0 PUSH1 0x2 PUSH1 0x0 SWAP1 SLOAD SWAP1 PUSH2 0x100 EXP SWAP1 DIV PUSH1 0xFF AND PUSH1 0xFF AND PUSH1 0xFF AND DUP2 MSTORE PUSH1 0x20 ADD SWAP1 DUP2 MSTORE PUSH1 0x20 ADD PUSH1 0x0 KECCAK256 PUSH1 0x1 ADD SWAP1 DUP1 MLOAD SWAP1 PUSH1 0x20 ADD SWAP1 PUSH2 0x35E4 SWAP3 SWAP2 SWAP1 PUSH2 0x4E27 JUMP JUMPDEST POP DUP1 PUSH1 0x1 PUSH1 0x0 PUSH1 0x2 PUSH1 0x0 SWAP1 SLOAD SWAP1 PUSH2 0x100 EXP SWAP1 DIV PUSH1 0xFF AND PUSH1 0xFF AND PUSH1 0xFF AND DUP2 MSTORE PUSH1 0x20 ADD SWAP1 DUP2 MSTORE PUSH1 0x20 ADD PUSH1 0x0 KECCAK256 PUSH1 0x0 ADD PUSH1 0x0 PUSH2 0x100 EXP DUP2 SLOAD DUP2 PUSH20 0xFFFFFFFFFFFFFFFFFFFFFFFFFFFFFFFFFFFFFFFF MUL NOT AND SWAP1 DUP4 PUSH20 0xFFFFFFFFFFFFFFFFFFFFFFFFFFFFFFFFFFFFFFFF AND MUL OR SWAP1 SSTORE POP PUSH32 0x6C71EB76D5D82031F490D3E44DC01D298444E569078199B14510435D81B59FF7 PUSH1 0x2 PUSH1 0x0 SWAP1 SLOAD SWAP1 PUSH2 0x100 EXP SWAP1 DIV PUSH1 0xFF AND DUP4 TIMESTAMP PUSH1 0x40 MLOAD DUP1 DUP5 PUSH1 0xFF AND DUP2 MSTORE PUSH1 0x20 ADD DUP1 PUSH1 0x20 ADD DUP4 DUP2 MSTORE PUSH1 0x20 ADD DUP3 DUP2 SUB DUP3 MSTORE DUP5 DUP2 DUP2 MLOAD DUP2 MSTORE PUSH1 0x20 ADD SWAP2 POP DUP1 MLOAD SWAP1 PUSH1 0x20 ADD SWAP1 DUP1 DUP4 DUP4 PUSH1 0x0 JUMPDEST DUP4 DUP2 LT ISZERO PUSH2 0x36D1 JUMPI DUP1 DUP3 ADD MLOAD DUP2 DUP5 ADD MSTORE PUSH1 0x20 DUP2 ADD SWAP1 POP PUSH2 0x36B6 JUMP JUMPDEST POP POP POP POP SWAP1 POP SWAP1 DUP2 ADD SWAP1 PUSH1 0x1F AND DUP1 ISZERO PUSH2 0x36FE JUMPI DUP1 DUP3 SUB DUP1 MLOAD PUSH1 0x1 DUP4 PUSH1 0x20 SUB PUSH2 0x100 EXP SUB NOT AND DUP2 MSTORE PUSH1 0x20 ADD SWAP2 POP JUMPDEST POP SWAP5 POP POP POP POP POP PUSH1 0x40 MLOAD DUP1 SWAP2 SUB SWAP1 LOG1 POP POP JUMP JUMPDEST PUSH1 0x0 DUP1 PUSH2 0x371D DUP5 PUSH2 0x3371 JUMP JUMPDEST SWAP2 POP PUSH1 0x0 PUSH20 0xFFFFFFFFFFFFFFFFFFFFFFFFFFFFFFFFFFFFFFFF AND PUSH1 0x1 PUSH1 0x0 DUP5 PUSH1 0xFF AND PUSH1 0xFF AND DUP2 MSTORE PUSH1 0x20 ADD SWAP1 DUP2 MSTORE PUSH1 0x20 ADD PUSH1 0x0 KECCAK256 PUSH1 0x0 ADD PUSH1 0x0 SWAP1 SLOAD SWAP1 PUSH2 0x100 EXP SWAP1 DIV PUSH20 0xFFFFFFFFFFFFFFFFFFFFFFFFFFFFFFFFFFFFFFFF AND PUSH20 0xFFFFFFFFFFFFFFFFFFFFFFFFFFFFFFFFFFFFFFFF AND EQ ISZERO ISZERO ISZERO PUSH2 0x3797 JUMPI PUSH1 0x0 DUP1 REVERT JUMPDEST PUSH1 0x1 PUSH1 0x0 DUP4 PUSH1 0xFF AND PUSH1 0xFF AND DUP2 MSTORE PUSH1 0x20 ADD SWAP1 DUP2 MSTORE PUSH1 0x20 ADD PUSH1 0x0 KECCAK256 PUSH1 0x0 ADD PUSH1 0x0 SWAP1 SLOAD SWAP1 PUSH2 0x100 EXP SWAP1 DIV PUSH20 0xFFFFFFFFFFFFFFFFFFFFFFFFFFFFFFFFFFFFFFFF AND SWAP1 POP PUSH1 0x0 DUP4 PUSH1 0x3 PUSH1 0x0 CALLER PUSH20 0xFFFFFFFFFFFFFFFFFFFFFFFFFFFFFFFFFFFFFFFF AND PUSH20 0xFFFFFFFFFFFFFFFFFFFFFFFFFFFFFFFFFFFFFFFF AND DUP2 MSTORE PUSH1 0x20 ADD SWAP1 DUP2 MSTORE PUSH1 0x20 ADD PUSH1 0x0 KECCAK256 PUSH1 0x0 DUP6 PUSH1 0xFF AND PUSH1 0xFF AND DUP2 MSTORE PUSH1 0x20 ADD SWAP1 DUP2 MSTORE PUSH1 0x20 ADD PUSH1 0x0 KECCAK256 SLOAD SUB LT ISZERO ISZERO ISZERO PUSH2 0x383E JUMPI PUSH1 0x0 DUP1 REVERT JUMPDEST PUSH1 0x3 PUSH1 0x0 CALLER PUSH20 0xFFFFFFFFFFFFFFFFFFFFFFFFFFFFFFFFFFFFFFFF AND PUSH20 0xFFFFFFFFFFFFFFFFFFFFFFFFFFFFFFFFFFFFFFFF AND DUP2 MSTORE PUSH1 0x20 ADD SWAP1 DUP2 MSTORE PUSH1 0x20 ADD PUSH1 0x0 KECCAK256 PUSH1 0x0 DUP4 PUSH1 0xFF AND PUSH1 0xFF AND DUP2 MSTORE PUSH1 0x20 ADD SWAP1 DUP2 MSTORE PUSH1 0x20 ADD PUSH1 0x0 KECCAK256 SLOAD DUP4 PUSH1 0x3 PUSH1 0x0 CALLER PUSH20 0xFFFFFFFFFFFFFFFFFFFFFFFFFFFFFFFFFFFFFFFF AND PUSH20 0xFFFFFFFFFFFFFFFFFFFFFFFFFFFFFFFFFFFFFFFF AND DUP2 MSTORE PUSH1 0x20 ADD SWAP1 DUP2 MSTORE PUSH1 0x20 ADD PUSH1 0x0 KECCAK256 PUSH1 0x0 DUP6 PUSH1 0xFF AND PUSH1 0xFF AND DUP2 MSTORE PUSH1 0x20 ADD SWAP1 DUP2 MSTORE PUSH1 0x20 ADD PUSH1 0x0 KECCAK256 SLOAD SUB GT ISZERO ISZERO ISZERO PUSH2 0x38FB JUMPI PUSH1 0x0 DUP1 REVERT JUMPDEST DUP3 PUSH1 0x3 PUSH1 0x0 CALLER PUSH20 0xFFFFFFFFFFFFFFFFFFFFFFFFFFFFFFFFFFFFFFFF AND PUSH20 0xFFFFFFFFFFFFFFFFFFFFFFFFFFFFFFFFFFFFFFFF AND DUP2 MSTORE PUSH1 0x20 ADD SWAP1 DUP2 MSTORE PUSH1 0x20 ADD PUSH1 0x0 KECCAK256 PUSH1 0x0 DUP5 PUSH1 0xFF AND PUSH1 0xFF AND DUP2 MSTORE PUSH1 0x20 ADD SWAP1 DUP2 MSTORE PUSH1 0x20 ADD PUSH1 0x0 KECCAK256 PUSH1 0x0 DUP3 DUP3 SLOAD SUB SWAP3 POP POP DUP2 SWAP1 SSTORE POP PUSH1 0x1 ISZERO ISZERO DUP2 PUSH20 0xFFFFFFFFFFFFFFFFFFFFFFFFFFFFFFFFFFFFFFFF AND PUSH4 0xA9059CBB CALLER DUP7 PUSH1 0x40 MLOAD DUP4 PUSH4 0xFFFFFFFF AND PUSH29 0x100000000000000000000000000000000000000000000000000000000 MUL DUP2 MSTORE PUSH1 0x4 ADD DUP1 DUP4 PUSH20 0xFFFFFFFFFFFFFFFFFFFFFFFFFFFFFFFFFFFFFFFF AND PUSH20 0xFFFFFFFFFFFFFFFFFFFFFFFFFFFFFFFFFFFFFFFF AND DUP2 MSTORE PUSH1 0x20 ADD DUP3 DUP2 MSTORE PUSH1 0x20 ADD SWAP3 POP POP POP PUSH1 0x20 PUSH1 0x40 MLOAD DUP1 DUP4 SUB DUP2 PUSH1 0x0 DUP8 DUP1 EXTCODESIZE ISZERO DUP1 ISZERO PUSH2 0x3A06 JUMPI PUSH1 0x0 DUP1 REVERT JUMPDEST POP GAS CALL ISZERO DUP1 ISZERO PUSH2 0x3A1A JUMPI RETURNDATASIZE PUSH1 0x0 DUP1 RETURNDATACOPY RETURNDATASIZE PUSH1 0x0 REVERT JUMPDEST POP POP POP POP PUSH1 0x40 MLOAD RETURNDATASIZE PUSH1 0x20 DUP2 LT ISZERO PUSH2 0x3A30 JUMPI PUSH1 0x0 DUP1 REVERT JUMPDEST DUP2 ADD SWAP1 DUP1 DUP1 MLOAD SWAP1 PUSH1 0x20 ADD SWAP1 SWAP3 SWAP2 SWAP1 POP POP POP ISZERO ISZERO EQ ISZERO ISZERO PUSH2 0x3A4F JUMPI PUSH1 0x0 DUP1 REVERT JUMPDEST DUP2 PUSH1 0xFF AND CALLER PUSH20 0xFFFFFFFFFFFFFFFFFFFFFFFFFFFFFFFFFFFFFFFF AND PUSH32 0xAED5C5198CCD7615C0128C72FCFC060E97B14315CB791A46BF42B5B6F36C38B9 DUP6 TIMESTAMP PUSH1 0x40 MLOAD DUP1 DUP4 DUP2 MSTORE PUSH1 0x20 ADD DUP3 DUP2 MSTORE PUSH1 0x20 ADD SWAP3 POP POP POP PUSH1 0x40 MLOAD DUP1 SWAP2 SUB SWAP1 LOG3 POP POP POP POP JUMP JUMPDEST PUSH1 0x0 DUP1 PUSH1 0x0 PUSH2 0x3ABD DUP8 PUSH2 0x3371 JUMP JUMPDEST SWAP3 POP DUP6 ISZERO PUSH2 0x3D5D JUMPI CALLER PUSH20 0xFFFFFFFFFFFFFFFFFFFFFFFFFFFFFFFFFFFFFFFF AND PUSH1 0x1 PUSH1 0x0 DUP6 PUSH1 0xFF AND PUSH1 0xFF AND DUP2 MSTORE PUSH1 0x20 ADD SWAP1 DUP2 MSTORE PUSH1 0x20 ADD PUSH1 0x0 KECCAK256 PUSH1 0x6 ADD PUSH1 0x0 DUP8 DUP2 MSTORE PUSH1 0x20 ADD SWAP1 DUP2 MSTORE PUSH1 0x20 ADD PUSH1 0x0 KECCAK256 PUSH1 0x2 ADD PUSH1 0x0 DUP7 DUP2 MSTORE PUSH1 0x20 ADD SWAP1 DUP2 MSTORE PUSH1 0x20 ADD PUSH1 0x0 KECCAK256 PUSH1 0x1 ADD PUSH1 0x0 SWAP1 SLOAD SWAP1 PUSH2 0x100 EXP SWAP1 DIV PUSH20 0xFFFFFFFFFFFFFFFFFFFFFFFFFFFFFFFFFFFFFFFF AND PUSH20 0xFFFFFFFFFFFFFFFFFFFFFFFFFFFFFFFFFFFFFFFF AND EQ ISZERO ISZERO PUSH2 0x3B63 JUMPI PUSH1 0x0 DUP1 REVERT JUMPDEST PUSH1 0x1 PUSH1 0x0 DUP5 PUSH1 0xFF AND PUSH1 0xFF AND DUP2 MSTORE PUSH1 0x20 ADD SWAP1 DUP2 MSTORE PUSH1 0x20 ADD PUSH1 0x0 KECCAK256 PUSH1 0x6 ADD PUSH1 0x0 DUP7 DUP2 MSTORE PUSH1 0x20 ADD SWAP1 DUP2 MSTORE PUSH1 0x20 ADD PUSH1 0x0 KECCAK256 PUSH1 0x2 ADD PUSH1 0x0 DUP6 DUP2 MSTORE PUSH1 0x20 ADD SWAP1 DUP2 MSTORE PUSH1 0x20 ADD PUSH1 0x0 KECCAK256 PUSH1 0x0 ADD SLOAD SWAP2 POP PUSH1 0x3 PUSH1 0x0 CALLER PUSH20 0xFFFFFFFFFFFFFFFFFFFFFFFFFFFFFFFFFFFFFFFF AND PUSH20 0xFFFFFFFFFFFFFFFFFFFFFFFFFFFFFFFFFFFFFFFF AND DUP2 MSTORE PUSH1 0x20 ADD SWAP1 DUP2 MSTORE PUSH1 0x20 ADD PUSH1 0x0 KECCAK256 PUSH1 0x0 DUP5 PUSH1 0xFF AND PUSH1 0xFF AND DUP2 MSTORE PUSH1 0x20 ADD SWAP1 DUP2 MSTORE PUSH1 0x20 ADD PUSH1 0x0 KECCAK256 SLOAD DUP3 PUSH1 0x3 PUSH1 0x0 CALLER PUSH20 0xFFFFFFFFFFFFFFFFFFFFFFFFFFFFFFFFFFFFFFFF AND PUSH20 0xFFFFFFFFFFFFFFFFFFFFFFFFFFFFFFFFFFFFFFFF AND DUP2 MSTORE PUSH1 0x20 ADD SWAP1 DUP2 MSTORE PUSH1 0x20 ADD PUSH1 0x0 KECCAK256 PUSH1 0x0 DUP7 PUSH1 0xFF AND PUSH1 0xFF AND DUP2 MSTORE PUSH1 0x20 ADD SWAP1 DUP2 MSTORE PUSH1 0x20 ADD PUSH1 0x0 KECCAK256 SLOAD ADD LT ISZERO ISZERO ISZERO PUSH2 0x3C67 JUMPI PUSH1 0x0 DUP1 REVERT JUMPDEST DUP2 PUSH1 0x3 PUSH1 0x0 CALLER PUSH20 0xFFFFFFFFFFFFFFFFFFFFFFFFFFFFFFFFFFFFFFFF AND PUSH20 0xFFFFFFFFFFFFFFFFFFFFFFFFFFFFFFFFFFFFFFFF AND DUP2 MSTORE PUSH1 0x20 ADD SWAP1 DUP2 MSTORE PUSH1 0x20 ADD PUSH1 0x0 KECCAK256 PUSH1 0x0 DUP6 PUSH1 0xFF AND PUSH1 0xFF AND DUP2 MSTORE PUSH1 0x20 ADD SWAP1 DUP2 MSTORE PUSH1 0x20 ADD PUSH1 0x0 KECCAK256 PUSH1 0x0 DUP3 DUP3 SLOAD ADD SWAP3 POP POP DUP2 SWAP1 SSTORE POP PUSH1 0x0 PUSH1 0x1 PUSH1 0x0 DUP6 PUSH1 0xFF AND PUSH1 0xFF AND DUP2 MSTORE PUSH1 0x20 ADD SWAP1 DUP2 MSTORE PUSH1 0x20 ADD PUSH1 0x0 KECCAK256 PUSH1 0x6 ADD PUSH1 0x0 DUP8 DUP2 MSTORE PUSH1 0x20 ADD SWAP1 DUP2 MSTORE PUSH1 0x20 ADD PUSH1 0x0 KECCAK256 PUSH1 0x2 ADD PUSH1 0x0 DUP7 DUP2 MSTORE PUSH1 0x20 ADD SWAP1 DUP2 MSTORE PUSH1 0x20 ADD PUSH1 0x0 KECCAK256 PUSH1 0x0 ADD DUP2 SWAP1 SSTORE POP DUP3 PUSH1 0xFF AND PUSH32 0xFFAC5F4941E92BC6814610A825EEFF0AE9BB4A17D47C0E2353C6889B2B550FB8 DUP7 DUP7 PUSH1 0x40 MLOAD DUP1 DUP4 DUP2 MSTORE PUSH1 0x20 ADD DUP3 DUP2 MSTORE PUSH1 0x20 ADD SWAP3 POP POP POP PUSH1 0x40 MLOAD DUP1 SWAP2 SUB SWAP1 LOG2 PUSH2 0x3FAE JUMP JUMPDEST CALLER PUSH20 0xFFFFFFFFFFFFFFFFFFFFFFFFFFFFFFFFFFFFFFFF AND PUSH1 0x1 PUSH1 0x0 DUP6 PUSH1 0xFF AND PUSH1 0xFF AND DUP2 MSTORE PUSH1 0x20 ADD SWAP1 DUP2 MSTORE PUSH1 0x20 ADD PUSH1 0x0 KECCAK256 PUSH1 0x2 ADD PUSH1 0x0 DUP8 DUP2 MSTORE PUSH1 0x20 ADD SWAP1 DUP2 MSTORE PUSH1 0x20 ADD PUSH1 0x0 KECCAK256 PUSH1 0x2 ADD PUSH1 0x0 DUP7 DUP2 MSTORE PUSH1 0x20 ADD SWAP1 DUP2 MSTORE PUSH1 0x20 ADD PUSH1 0x0 KECCAK256 PUSH1 0x1 ADD PUSH1 0x0 SWAP1 SLOAD SWAP1 PUSH2 0x100 EXP SWAP1 DIV PUSH20 0xFFFFFFFFFFFFFFFFFFFFFFFFFFFFFFFFFFFFFFFF AND PUSH20 0xFFFFFFFFFFFFFFFFFFFFFFFFFFFFFFFFFFFFFFFF AND EQ ISZERO ISZERO PUSH2 0x3DFB JUMPI PUSH1 0x0 DUP1 REVERT JUMPDEST DUP5 PUSH1 0x1 PUSH1 0x0 DUP6 PUSH1 0xFF AND PUSH1 0xFF AND DUP2 MSTORE PUSH1 0x20 ADD SWAP1 DUP2 MSTORE PUSH1 0x20 ADD PUSH1 0x0 KECCAK256 PUSH1 0x2 ADD PUSH1 0x0 DUP8 DUP2 MSTORE PUSH1 0x20 ADD SWAP1 DUP2 MSTORE PUSH1 0x20 ADD PUSH1 0x0 KECCAK256 PUSH1 0x2 ADD PUSH1 0x0 DUP7 DUP2 MSTORE PUSH1 0x20 ADD SWAP1 DUP2 MSTORE PUSH1 0x20 ADD PUSH1 0x0 KECCAK256 PUSH1 0x0 ADD SLOAD MUL SWAP1 POP PUSH1 0x4 PUSH1 0x0 CALLER PUSH20 0xFFFFFFFFFFFFFFFFFFFFFFFFFFFFFFFFFFFFFFFF AND PUSH20 0xFFFFFFFFFFFFFFFFFFFFFFFFFFFFFFFFFFFFFFFF AND DUP2 MSTORE PUSH1 0x20 ADD SWAP1 DUP2 MSTORE PUSH1 0x20 ADD PUSH1 0x0 KECCAK256 SLOAD DUP2 PUSH1 0x4 PUSH1 0x0 CALLER PUSH20 0xFFFFFFFFFFFFFFFFFFFFFFFFFFFFFFFFFFFFFFFF AND PUSH20 0xFFFFFFFFFFFFFFFFFFFFFFFFFFFFFFFFFFFFFFFF AND DUP2 MSTORE PUSH1 0x20 ADD SWAP1 DUP2 MSTORE PUSH1 0x20 ADD PUSH1 0x0 KECCAK256 SLOAD ADD LT ISZERO ISZERO ISZERO PUSH2 0x3ED3 JUMPI PUSH1 0x0 DUP1 REVERT JUMPDEST DUP1 PUSH1 0x4 PUSH1 0x0 CALLER PUSH20 0xFFFFFFFFFFFFFFFFFFFFFFFFFFFFFFFFFFFFFFFF AND PUSH20 0xFFFFFFFFFFFFFFFFFFFFFFFFFFFFFFFFFFFFFFFF AND DUP2 MSTORE PUSH1 0x20 ADD SWAP1 DUP2 MSTORE PUSH1 0x20 ADD PUSH1 0x0 KECCAK256 PUSH1 0x0 DUP3 DUP3 SLOAD ADD SWAP3 POP POP DUP2 SWAP1 SSTORE POP PUSH1 0x0 PUSH1 0x1 PUSH1 0x0 DUP6 PUSH1 0xFF AND PUSH1 0xFF AND DUP2 MSTORE PUSH1 0x20 ADD SWAP1 DUP2 MSTORE PUSH1 0x20 ADD PUSH1 0x0 KECCAK256 PUSH1 0x2 ADD PUSH1 0x0 DUP8 DUP2 MSTORE PUSH1 0x20 ADD SWAP1 DUP2 MSTORE PUSH1 0x20 ADD PUSH1 0x0 KECCAK256 PUSH1 0x2 ADD PUSH1 0x0 DUP7 DUP2 MSTORE PUSH1 0x20 ADD SWAP1 DUP2 MSTORE PUSH1 0x20 ADD PUSH1 0x0 KECCAK256 PUSH1 0x0 ADD DUP2 SWAP1 SSTORE POP DUP3 PUSH1 0xFF AND PUSH32 0x5F2FDCA15D8AB2AD3F590066ADD3054471B3603CA44A66F12E124E9C97EC1955 DUP7 DUP7 PUSH1 0x40 MLOAD DUP1 DUP4 DUP2 MSTORE PUSH1 0x20 ADD DUP3 DUP2 MSTORE PUSH1 0x20 ADD SWAP3 POP POP POP PUSH1 0x40 MLOAD DUP1 SWAP2 SUB SWAP1 LOG2 JUMPDEST POP POP POP POP POP POP POP JUMP JUMPDEST PUSH1 0x0 DUP1 PUSH1 0x0 DUP1 PUSH1 0x1 PUSH1 0x0 DUP10 PUSH1 0xFF AND PUSH1 0xFF AND DUP2 MSTORE PUSH1 0x20 ADD SWAP1 DUP2 MSTORE PUSH1 0x20 ADD PUSH1 0x0 KECCAK256 PUSH1 0x2 ADD PUSH1 0x0 DUP9 DUP2 MSTORE PUSH1 0x20 ADD SWAP1 DUP2 MSTORE PUSH1 0x20 ADD PUSH1 0x0 KECCAK256 PUSH1 0x4 ADD PUSH1 0x0 DUP2 SLOAD DUP1 SWAP3 SWAP2 SWAP1 PUSH1 0x1 ADD SWAP2 SWAP1 POP SSTORE POP PUSH1 0x40 DUP1 MLOAD SWAP1 DUP2 ADD PUSH1 0x40 MSTORE DUP1 DUP8 DUP2 MSTORE PUSH1 0x20 ADD DUP7 PUSH20 0xFFFFFFFFFFFFFFFFFFFFFFFFFFFFFFFFFFFFFFFF AND DUP2 MSTORE POP PUSH1 0x1 PUSH1 0x0 DUP11 PUSH1 0xFF AND PUSH1 0xFF AND DUP2 MSTORE PUSH1 0x20 ADD SWAP1 DUP2 MSTORE PUSH1 0x20 ADD PUSH1 0x0 KECCAK256 PUSH1 0x2 ADD PUSH1 0x0 DUP10 DUP2 MSTORE PUSH1 0x20 ADD SWAP1 DUP2 MSTORE PUSH1 0x20 ADD PUSH1 0x0 KECCAK256 PUSH1 0x2 ADD PUSH1 0x0 PUSH1 0x1 PUSH1 0x0 DUP13 PUSH1 0xFF AND PUSH1 0xFF AND DUP2 MSTORE PUSH1 0x20 ADD SWAP1 DUP2 MSTORE PUSH1 0x20 ADD PUSH1 0x0 KECCAK256 PUSH1 0x2 ADD PUSH1 0x0 DUP12 DUP2 MSTORE PUSH1 0x20 ADD SWAP1 DUP2 MSTORE PUSH1 0x20 ADD PUSH1 0x0 KECCAK256 PUSH1 0x4 ADD SLOAD DUP2 MSTORE PUSH1 0x20 ADD SWAP1 DUP2 MSTORE PUSH1 0x20 ADD PUSH1 0x0 KECCAK256 PUSH1 0x0 DUP3 ADD MLOAD DUP2 PUSH1 0x0 ADD SSTORE PUSH1 0x20 DUP3 ADD MLOAD DUP2 PUSH1 0x1 ADD PUSH1 0x0 PUSH2 0x100 EXP DUP2 SLOAD DUP2 PUSH20 0xFFFFFFFFFFFFFFFFFFFFFFFFFFFFFFFFFFFFFFFF MUL NOT AND SWAP1 DUP4 PUSH20 0xFFFFFFFFFFFFFFFFFFFFFFFFFFFFFFFFFFFFFFFF AND MUL OR SWAP1 SSTORE POP SWAP1 POP POP PUSH1 0x1 DUP1 PUSH1 0x0 DUP11 PUSH1 0xFF AND PUSH1 0xFF AND DUP2 MSTORE PUSH1 0x20 ADD SWAP1 DUP2 MSTORE PUSH1 0x20 ADD PUSH1 0x0 KECCAK256 PUSH1 0x2 ADD PUSH1 0x0 DUP10 DUP2 MSTORE PUSH1 0x20 ADD SWAP1 DUP2 MSTORE PUSH1 0x20 ADD PUSH1 0x0 KECCAK256 PUSH1 0x4 ADD SLOAD EQ ISZERO PUSH2 0x45F3 JUMPI PUSH1 0x1 DUP1 PUSH1 0x0 DUP11 PUSH1 0xFF AND PUSH1 0xFF AND DUP2 MSTORE PUSH1 0x20 ADD SWAP1 DUP2 MSTORE PUSH1 0x20 ADD PUSH1 0x0 KECCAK256 PUSH1 0x2 ADD PUSH1 0x0 DUP10 DUP2 MSTORE PUSH1 0x20 ADD SWAP1 DUP2 MSTORE PUSH1 0x20 ADD PUSH1 0x0 KECCAK256 PUSH1 0x3 ADD DUP2 SWAP1 SSTORE POP PUSH1 0x1 PUSH1 0x0 DUP10 PUSH1 0xFF AND PUSH1 0xFF AND DUP2 MSTORE PUSH1 0x20 ADD SWAP1 DUP2 MSTORE PUSH1 0x20 ADD PUSH1 0x0 KECCAK256 PUSH1 0x5 ADD PUSH1 0x0 DUP2 SLOAD DUP1 SWAP3 SWAP2 SWAP1 PUSH1 0x1 ADD SWAP2 SWAP1 POP SSTORE POP PUSH1 0x1 PUSH1 0x0 DUP10 PUSH1 0xFF AND PUSH1 0xFF AND DUP2 MSTORE PUSH1 0x20 ADD SWAP1 DUP2 MSTORE PUSH1 0x20 ADD PUSH1 0x0 KECCAK256 PUSH1 0x3 ADD SLOAD SWAP4 POP PUSH1 0x1 PUSH1 0x0 DUP10 PUSH1 0xFF AND PUSH1 0xFF AND DUP2 MSTORE PUSH1 0x20 ADD SWAP1 DUP2 MSTORE PUSH1 0x20 ADD PUSH1 0x0 KECCAK256 PUSH1 0x4 ADD SLOAD SWAP3 POP PUSH1 0x0 DUP4 EQ DUP1 PUSH2 0x41D2 JUMPI POP DUP7 DUP4 GT JUMPDEST ISZERO PUSH2 0x4338 JUMPI PUSH1 0x0 DUP5 EQ ISZERO PUSH2 0x4271 JUMPI DUP7 PUSH1 0x1 PUSH1 0x0 DUP11 PUSH1 0xFF AND PUSH1 0xFF AND DUP2 MSTORE PUSH1 0x20 ADD SWAP1 DUP2 MSTORE PUSH1 0x20 ADD PUSH1 0x0 KECCAK256 PUSH1 0x3 ADD DUP2 SWAP1 SSTORE POP DUP7 PUSH1 0x1 PUSH1 0x0 DUP11 PUSH1 0xFF AND PUSH1 0xFF AND DUP2 MSTORE PUSH1 0x20 ADD SWAP1 DUP2 MSTORE PUSH1 0x20 ADD PUSH1 0x0 KECCAK256 PUSH1 0x2 ADD PUSH1 0x0 DUP10 DUP2 MSTORE PUSH1 0x20 ADD SWAP1 DUP2 MSTORE PUSH1 0x20 ADD PUSH1 0x0 KECCAK256 PUSH1 0x0 ADD DUP2 SWAP1 SSTORE POP PUSH1 0x0 PUSH1 0x1 PUSH1 0x0 DUP11 PUSH1 0xFF AND PUSH1 0xFF AND DUP2 MSTORE PUSH1 0x20 ADD SWAP1 DUP2 MSTORE PUSH1 0x20 ADD PUSH1 0x0 KECCAK256 PUSH1 0x2 ADD PUSH1 0x0 DUP10 DUP2 MSTORE PUSH1 0x20 ADD SWAP1 DUP2 MSTORE PUSH1 0x20 ADD PUSH1 0x0 KECCAK256 PUSH1 0x1 ADD DUP2 SWAP1 SSTORE POP PUSH2 0x4312 JUMP JUMPDEST DUP7 PUSH1 0x1 PUSH1 0x0 DUP11 PUSH1 0xFF AND PUSH1 0xFF AND DUP2 MSTORE PUSH1 0x20 ADD SWAP1 DUP2 MSTORE PUSH1 0x20 ADD PUSH1 0x0 KECCAK256 PUSH1 0x2 ADD PUSH1 0x0 DUP6 DUP2 MSTORE PUSH1 0x20 ADD SWAP1 DUP2 MSTORE PUSH1 0x20 ADD PUSH1 0x0 KECCAK256 PUSH1 0x1 ADD DUP2 SWAP1 SSTORE POP DUP3 PUSH1 0x1 PUSH1 0x0 DUP11 PUSH1 0xFF AND PUSH1 0xFF AND DUP2 MSTORE PUSH1 0x20 ADD SWAP1 DUP2 MSTORE PUSH1 0x20 ADD PUSH1 0x0 KECCAK256 PUSH1 0x2 ADD PUSH1 0x0 DUP10 DUP2 MSTORE PUSH1 0x20 ADD SWAP1 DUP2 MSTORE PUSH1 0x20 ADD PUSH1 0x0 KECCAK256 PUSH1 0x0 ADD DUP2 SWAP1 SSTORE POP PUSH1 0x0 PUSH1 0x1 PUSH1 0x0 DUP11 PUSH1 0xFF AND PUSH1 0xFF AND DUP2 MSTORE PUSH1 0x20 ADD SWAP1 DUP2 MSTORE PUSH1 0x20 ADD PUSH1 0x0 KECCAK256 PUSH1 0x2 ADD PUSH1 0x0 DUP10 DUP2 MSTORE PUSH1 0x20 ADD SWAP1 DUP2 MSTORE PUSH1 0x20 ADD PUSH1 0x0 KECCAK256 PUSH1 0x1 ADD DUP2 SWAP1 SSTORE POP JUMPDEST DUP7 PUSH1 0x1 PUSH1 0x0 DUP11 PUSH1 0xFF AND PUSH1 0xFF AND DUP2 MSTORE PUSH1 0x20 ADD SWAP1 DUP2 MSTORE PUSH1 0x20 ADD PUSH1 0x0 KECCAK256 PUSH1 0x4 ADD DUP2 SWAP1 SSTORE POP PUSH2 0x45F2 JUMP JUMPDEST DUP7 DUP5 LT ISZERO PUSH2 0x4405 JUMPI DUP7 PUSH1 0x1 PUSH1 0x0 DUP11 PUSH1 0xFF AND PUSH1 0xFF AND DUP2 MSTORE PUSH1 0x20 ADD SWAP1 DUP2 MSTORE PUSH1 0x20 ADD PUSH1 0x0 KECCAK256 PUSH1 0x2 ADD PUSH1 0x0 DUP7 DUP2 MSTORE PUSH1 0x20 ADD SWAP1 DUP2 MSTORE PUSH1 0x20 ADD PUSH1 0x0 KECCAK256 PUSH1 0x0 ADD DUP2 SWAP1 SSTORE POP DUP7 PUSH1 0x1 PUSH1 0x0 DUP11 PUSH1 0xFF AND PUSH1 0xFF AND DUP2 MSTORE PUSH1 0x20 ADD SWAP1 DUP2 MSTORE PUSH1 0x20 ADD PUSH1 0x0 KECCAK256 PUSH1 0x2 ADD PUSH1 0x0 DUP10 DUP2 MSTORE PUSH1 0x20 ADD SWAP1 DUP2 MSTORE PUSH1 0x20 ADD PUSH1 0x0 KECCAK256 PUSH1 0x0 ADD DUP2 SWAP1 SSTORE POP DUP4 PUSH1 0x1 PUSH1 0x0 DUP11 PUSH1 0xFF AND PUSH1 0xFF AND DUP2 MSTORE PUSH1 0x20 ADD SWAP1 DUP2 MSTORE PUSH1 0x20 ADD PUSH1 0x0 KECCAK256 PUSH1 0x2 ADD PUSH1 0x0 DUP10 DUP2 MSTORE PUSH1 0x20 ADD SWAP1 DUP2 MSTORE PUSH1 0x20 ADD PUSH1 0x0 KECCAK256 PUSH1 0x1 ADD DUP2 SWAP1 SSTORE POP DUP7 PUSH1 0x1 PUSH1 0x0 DUP11 PUSH1 0xFF AND PUSH1 0xFF AND DUP2 MSTORE PUSH1 0x20 ADD SWAP1 DUP2 MSTORE PUSH1 0x20 ADD PUSH1 0x0 KECCAK256 PUSH1 0x3 ADD DUP2 SWAP1 SSTORE POP PUSH2 0x45F1 JUMP JUMPDEST PUSH1 0x1 PUSH1 0x0 DUP10 PUSH1 0xFF AND PUSH1 0xFF AND DUP2 MSTORE PUSH1 0x20 ADD SWAP1 DUP2 MSTORE PUSH1 0x20 ADD PUSH1 0x0 KECCAK256 PUSH1 0x3 ADD SLOAD SWAP2 POP PUSH1 0x0 SWAP1 POP JUMPDEST PUSH1 0x0 DUP3 GT DUP1 ISZERO PUSH2 0x4437 JUMPI POP DUP1 ISZERO JUMPDEST ISZERO PUSH2 0x45F0 JUMPI DUP7 DUP3 LT DUP1 ISZERO PUSH2 0x447A JUMPI POP DUP7 PUSH1 0x1 PUSH1 0x0 DUP11 PUSH1 0xFF AND PUSH1 0xFF AND DUP2 MSTORE PUSH1 0x20 ADD SWAP1 DUP2 MSTORE PUSH1 0x20 ADD PUSH1 0x0 KECCAK256 PUSH1 0x2 ADD PUSH1 0x0 DUP5 DUP2 MSTORE PUSH1 0x20 ADD SWAP1 DUP2 MSTORE PUSH1 0x20 ADD PUSH1 0x0 KECCAK256 PUSH1 0x0 ADD SLOAD GT JUMPDEST ISZERO PUSH2 0x45B8 JUMPI DUP2 PUSH1 0x1 PUSH1 0x0 DUP11 PUSH1 0xFF AND PUSH1 0xFF AND DUP2 MSTORE PUSH1 0x20 ADD SWAP1 DUP2 MSTORE PUSH1 0x20 ADD PUSH1 0x0 KECCAK256 PUSH1 0x2 ADD PUSH1 0x0 DUP10 DUP2 MSTORE PUSH1 0x20 ADD SWAP1 DUP2 MSTORE PUSH1 0x20 ADD PUSH1 0x0 KECCAK256 PUSH1 0x1 ADD DUP2 SWAP1 SSTORE POP PUSH1 0x1 PUSH1 0x0 DUP10 PUSH1 0xFF AND PUSH1 0xFF AND DUP2 MSTORE PUSH1 0x20 ADD SWAP1 DUP2 MSTORE PUSH1 0x20 ADD PUSH1 0x0 KECCAK256 PUSH1 0x2 ADD PUSH1 0x0 DUP4 DUP2 MSTORE PUSH1 0x20 ADD SWAP1 DUP2 MSTORE PUSH1 0x20 ADD PUSH1 0x0 KECCAK256 PUSH1 0x0 ADD SLOAD PUSH1 0x1 PUSH1 0x0 DUP11 PUSH1 0xFF AND PUSH1 0xFF AND DUP2 MSTORE PUSH1 0x20 ADD SWAP1 DUP2 MSTORE PUSH1 0x20 ADD PUSH1 0x0 KECCAK256 PUSH1 0x2 ADD PUSH1 0x0 DUP10 DUP2 MSTORE PUSH1 0x20 ADD SWAP1 DUP2 MSTORE PUSH1 0x20 ADD PUSH1 0x0 KECCAK256 PUSH1 0x0 ADD DUP2 SWAP1 SSTORE POP DUP7 PUSH1 0x1 PUSH1 0x0 DUP11 PUSH1 0xFF AND PUSH1 0xFF AND DUP2 MSTORE PUSH1 0x20 ADD SWAP1 DUP2 MSTORE PUSH1 0x20 ADD PUSH1 0x0 KECCAK256 PUSH1 0x2 ADD PUSH1 0x0 PUSH1 0x1 PUSH1 0x0 DUP13 PUSH1 0xFF AND PUSH1 0xFF AND DUP2 MSTORE PUSH1 0x20 ADD SWAP1 DUP2 MSTORE PUSH1 0x20 ADD PUSH1 0x0 KECCAK256 PUSH1 0x2 ADD PUSH1 0x0 DUP7 DUP2 MSTORE PUSH1 0x20 ADD SWAP1 DUP2 MSTORE PUSH1 0x20 ADD PUSH1 0x0 KECCAK256 PUSH1 0x0 ADD SLOAD DUP2 MSTORE PUSH1 0x20 ADD SWAP1 DUP2 MSTORE PUSH1 0x20 ADD PUSH1 0x0 KECCAK256 PUSH1 0x1 ADD DUP2 SWAP1 SSTORE POP DUP7 PUSH1 0x1 PUSH1 0x0 DUP11 PUSH1 0xFF AND PUSH1 0xFF AND DUP2 MSTORE PUSH1 0x20 ADD SWAP1 DUP2 MSTORE PUSH1 0x20 ADD PUSH1 0x0 KECCAK256 PUSH1 0x2 ADD PUSH1 0x0 DUP5 DUP2 MSTORE PUSH1 0x20 ADD SWAP1 DUP2 MSTORE PUSH1 0x20 ADD PUSH1 0x0 KECCAK256 PUSH1 0x0 ADD DUP2 SWAP1 SSTORE POP PUSH1 0x1 SWAP1 POP JUMPDEST PUSH1 0x1 PUSH1 0x0 DUP10 PUSH1 0xFF AND PUSH1 0xFF AND DUP2 MSTORE PUSH1 0x20 ADD SWAP1 DUP2 MSTORE PUSH1 0x20 ADD PUSH1 0x0 KECCAK256 PUSH1 0x2 ADD PUSH1 0x0 DUP4 DUP2 MSTORE PUSH1 0x20 ADD SWAP1 DUP2 MSTORE PUSH1 0x20 ADD PUSH1 0x0 KECCAK256 PUSH1 0x1 ADD SLOAD SWAP2 POP PUSH2 0x4429 JUMP JUMPDEST JUMPDEST JUMPDEST JUMPDEST POP POP POP POP POP POP POP POP JUMP JUMPDEST PUSH1 0x0 DUP1 PUSH1 0x0 DUP1 PUSH1 0x1 PUSH1 0x0 DUP10 PUSH1 0xFF AND PUSH1 0xFF AND DUP2 MSTORE PUSH1 0x20 ADD SWAP1 DUP2 MSTORE PUSH1 0x20 ADD PUSH1 0x0 KECCAK256 PUSH1 0x6 ADD PUSH1 0x0 DUP9 DUP2 MSTORE PUSH1 0x20 ADD SWAP1 DUP2 MSTORE PUSH1 0x20 ADD PUSH1 0x0 KECCAK256 PUSH1 0x4 ADD PUSH1 0x0 DUP2 SLOAD DUP1 SWAP3 SWAP2 SWAP1 PUSH1 0x1 ADD SWAP2 SWAP1 POP SSTORE POP PUSH1 0x40 DUP1 MLOAD SWAP1 DUP2 ADD PUSH1 0x40 MSTORE DUP1 DUP8 DUP2 MSTORE PUSH1 0x20 ADD DUP7 PUSH20 0xFFFFFFFFFFFFFFFFFFFFFFFFFFFFFFFFFFFFFFFF AND DUP2 MSTORE POP PUSH1 0x1 PUSH1 0x0 DUP11 PUSH1 0xFF AND PUSH1 0xFF AND DUP2 MSTORE PUSH1 0x20 ADD SWAP1 DUP2 MSTORE PUSH1 0x20 ADD PUSH1 0x0 KECCAK256 PUSH1 0x6 ADD PUSH1 0x0 DUP10 DUP2 MSTORE PUSH1 0x20 ADD SWAP1 DUP2 MSTORE PUSH1 0x20 ADD PUSH1 0x0 KECCAK256 PUSH1 0x2 ADD PUSH1 0x0 PUSH1 0x1 PUSH1 0x0 DUP13 PUSH1 0xFF AND PUSH1 0xFF AND DUP2 MSTORE PUSH1 0x20 ADD SWAP1 DUP2 MSTORE PUSH1 0x20 ADD PUSH1 0x0 KECCAK256 PUSH1 0x6 ADD PUSH1 0x0 DUP12 DUP2 MSTORE PUSH1 0x20 ADD SWAP1 DUP2 MSTORE PUSH1 0x20 ADD PUSH1 0x0 KECCAK256 PUSH1 0x4 ADD SLOAD DUP2 MSTORE PUSH1 0x20 ADD SWAP1 DUP2 MSTORE PUSH1 0x20 ADD PUSH1 0x0 KECCAK256 PUSH1 0x0 DUP3 ADD MLOAD DUP2 PUSH1 0x0 ADD SSTORE PUSH1 0x20 DUP3 ADD MLOAD DUP2 PUSH1 0x1 ADD PUSH1 0x0 PUSH2 0x100 EXP DUP2 SLOAD DUP2 PUSH20 0xFFFFFFFFFFFFFFFFFFFFFFFFFFFFFFFFFFFFFFFF MUL NOT AND SWAP1 DUP4 PUSH20 0xFFFFFFFFFFFFFFFFFFFFFFFFFFFFFFFFFFFFFFFF AND MUL OR SWAP1 SSTORE POP SWAP1 POP POP PUSH1 0x1 DUP1 PUSH1 0x0 DUP11 PUSH1 0xFF AND PUSH1 0xFF AND DUP2 MSTORE PUSH1 0x20 ADD SWAP1 DUP2 MSTORE PUSH1 0x20 ADD PUSH1 0x0 KECCAK256 PUSH1 0x6 ADD PUSH1 0x0 DUP10 DUP2 MSTORE PUSH1 0x20 ADD SWAP1 DUP2 MSTORE PUSH1 0x20 ADD PUSH1 0x0 KECCAK256 PUSH1 0x4 ADD SLOAD EQ ISZERO PUSH2 0x4C3B JUMPI PUSH1 0x1 DUP1 PUSH1 0x0 DUP11 PUSH1 0xFF AND PUSH1 0xFF AND DUP2 MSTORE PUSH1 0x20 ADD SWAP1 DUP2 MSTORE PUSH1 0x20 ADD PUSH1 0x0 KECCAK256 PUSH1 0x6 ADD PUSH1 0x0 DUP10 DUP2 MSTORE PUSH1 0x20 ADD SWAP1 DUP2 MSTORE PUSH1 0x20 ADD PUSH1 0x0 KECCAK256 PUSH1 0x3 ADD DUP2 SWAP1 SSTORE POP PUSH1 0x1 PUSH1 0x0 DUP10 PUSH1 0xFF AND PUSH1 0xFF AND DUP2 MSTORE PUSH1 0x20 ADD SWAP1 DUP2 MSTORE PUSH1 0x20 ADD PUSH1 0x0 KECCAK256 PUSH1 0x9 ADD PUSH1 0x0 DUP2 SLOAD DUP1 SWAP3 SWAP2 SWAP1 PUSH1 0x1 ADD SWAP2 SWAP1 POP SSTORE POP PUSH1 0x1 PUSH1 0x0 DUP10 PUSH1 0xFF AND PUSH1 0xFF AND DUP2 MSTORE PUSH1 0x20 ADD SWAP1 DUP2 MSTORE PUSH1 0x20 ADD PUSH1 0x0 KECCAK256 PUSH1 0x7 ADD SLOAD SWAP4 POP PUSH1 0x1 PUSH1 0x0 DUP10 PUSH1 0xFF AND PUSH1 0xFF AND DUP2 MSTORE PUSH1 0x20 ADD SWAP1 DUP2 MSTORE PUSH1 0x20 ADD PUSH1 0x0 KECCAK256 PUSH1 0x8 ADD SLOAD SWAP3 POP PUSH1 0x0 DUP4 EQ DUP1 PUSH2 0x4818 JUMPI POP DUP7 DUP4 LT JUMPDEST ISZERO PUSH2 0x497F JUMPI PUSH1 0x0 DUP5 EQ ISZERO PUSH2 0x48B8 JUMPI DUP7 PUSH1 0x1 PUSH1 0x0 DUP11 PUSH1 0xFF AND PUSH1 0xFF AND DUP2 MSTORE PUSH1 0x20 ADD SWAP1 DUP2 MSTORE PUSH1 0x20 ADD PUSH1 0x0 KECCAK256 PUSH1 0x7 ADD DUP2 SWAP1 SSTORE POP PUSH1 0x0 PUSH1 0x1 PUSH1 0x0 DUP11 PUSH1 0xFF AND PUSH1 0xFF AND DUP2 MSTORE PUSH1 0x20 ADD SWAP1 DUP2 MSTORE PUSH1 0x20 ADD PUSH1 0x0 KECCAK256 PUSH1 0x6 ADD PUSH1 0x0 DUP10 DUP2 MSTORE PUSH1 0x20 ADD SWAP1 DUP2 MSTORE PUSH1 0x20 ADD PUSH1 0x0 KECCAK256 PUSH1 0x0 ADD DUP2 SWAP1 SSTORE POP PUSH1 0x0 PUSH1 0x1 PUSH1 0x0 DUP11 PUSH1 0xFF AND PUSH1 0xFF AND DUP2 MSTORE PUSH1 0x20 ADD SWAP1 DUP2 MSTORE PUSH1 0x20 ADD PUSH1 0x0 KECCAK256 PUSH1 0x6 ADD PUSH1 0x0 DUP10 DUP2 MSTORE PUSH1 0x20 ADD SWAP1 DUP2 MSTORE PUSH1 0x20 ADD PUSH1 0x0 KECCAK256 PUSH1 0x1 ADD DUP2 SWAP1 SSTORE POP PUSH2 0x4959 JUMP JUMPDEST DUP7 PUSH1 0x1 PUSH1 0x0 DUP11 PUSH1 0xFF AND PUSH1 0xFF AND DUP2 MSTORE PUSH1 0x20 ADD SWAP1 DUP2 MSTORE PUSH1 0x20 ADD PUSH1 0x0 KECCAK256 PUSH1 0x6 ADD PUSH1 0x0 DUP6 DUP2 MSTORE PUSH1 0x20 ADD SWAP1 DUP2 MSTORE PUSH1 0x20 ADD PUSH1 0x0 KECCAK256 PUSH1 0x0 ADD DUP2 SWAP1 SSTORE POP DUP3 PUSH1 0x1 PUSH1 0x0 DUP11 PUSH1 0xFF AND PUSH1 0xFF AND DUP2 MSTORE PUSH1 0x20 ADD SWAP1 DUP2 MSTORE PUSH1 0x20 ADD PUSH1 0x0 KECCAK256 PUSH1 0x6 ADD PUSH1 0x0 DUP10 DUP2 MSTORE PUSH1 0x20 ADD SWAP1 DUP2 MSTORE PUSH1 0x20 ADD PUSH1 0x0 KECCAK256 PUSH1 0x1 ADD DUP2 SWAP1 SSTORE POP PUSH1 0x0 PUSH1 0x1 PUSH1 0x0 DUP11 PUSH1 0xFF AND PUSH1 0xFF AND DUP2 MSTORE PUSH1 0x20 ADD SWAP1 DUP2 MSTORE PUSH1 0x20 ADD PUSH1 0x0 KECCAK256 PUSH1 0x6 ADD PUSH1 0x0 DUP10 DUP2 MSTORE PUSH1 0x20 ADD SWAP1 DUP2 MSTORE PUSH1 0x20 ADD PUSH1 0x0 KECCAK256 PUSH1 0x0 ADD DUP2 SWAP1 SSTORE POP JUMPDEST DUP7 PUSH1 0x1 PUSH1 0x0 DUP11 PUSH1 0xFF AND PUSH1 0xFF AND DUP2 MSTORE PUSH1 0x20 ADD SWAP1 DUP2 MSTORE PUSH1 0x20 ADD PUSH1 0x0 KECCAK256 PUSH1 0x8 ADD DUP2 SWAP1 SSTORE POP PUSH2 0x4C3A JUMP JUMPDEST DUP7 DUP5 GT ISZERO PUSH2 0x4A4D JUMPI DUP7 PUSH1 0x1 PUSH1 0x0 DUP11 PUSH1 0xFF AND PUSH1 0xFF AND DUP2 MSTORE PUSH1 0x20 ADD SWAP1 DUP2 MSTORE PUSH1 0x20 ADD PUSH1 0x0 KECCAK256 PUSH1 0x6 ADD PUSH1 0x0 DUP7 DUP2 MSTORE PUSH1 0x20 ADD SWAP1 DUP2 MSTORE PUSH1 0x20 ADD PUSH1 0x0 KECCAK256 PUSH1 0x1 ADD DUP2 SWAP1 SSTORE POP DUP4 PUSH1 0x1 PUSH1 0x0 DUP11 PUSH1 0xFF AND PUSH1 0xFF AND DUP2 MSTORE PUSH1 0x20 ADD SWAP1 DUP2 MSTORE PUSH1 0x20 ADD PUSH1 0x0 KECCAK256 PUSH1 0x6 ADD PUSH1 0x0 DUP10 DUP2 MSTORE PUSH1 0x20 ADD SWAP1 DUP2 MSTORE PUSH1 0x20 ADD PUSH1 0x0 KECCAK256 PUSH1 0x0 ADD DUP2 SWAP1 SSTORE POP PUSH1 0x0 PUSH1 0x1 PUSH1 0x0 DUP11 PUSH1 0xFF AND PUSH1 0xFF AND DUP2 MSTORE PUSH1 0x20 ADD SWAP1 DUP2 MSTORE PUSH1 0x20 ADD PUSH1 0x0 KECCAK256 PUSH1 0x6 ADD PUSH1 0x0 DUP10 DUP2 MSTORE PUSH1 0x20 ADD SWAP1 DUP2 MSTORE PUSH1 0x20 ADD PUSH1 0x0 KECCAK256 PUSH1 0x1 ADD DUP2 SWAP1 SSTORE POP DUP7 PUSH1 0x1 PUSH1 0x0 DUP11 PUSH1 0xFF AND PUSH1 0xFF AND DUP2 MSTORE PUSH1 0x20 ADD SWAP1 DUP2 MSTORE PUSH1 0x20 ADD PUSH1 0x0 KECCAK256 PUSH1 0x7 ADD DUP2 SWAP1 SSTORE POP PUSH2 0x4C39 JUMP JUMPDEST PUSH1 0x1 PUSH1 0x0 DUP10 PUSH1 0xFF AND PUSH1 0xFF AND DUP2 MSTORE PUSH1 0x20 ADD SWAP1 DUP2 MSTORE PUSH1 0x20 ADD PUSH1 0x0 KECCAK256 PUSH1 0x7 ADD SLOAD SWAP2 POP PUSH1 0x0 SWAP1 POP JUMPDEST PUSH1 0x0 DUP3 GT DUP1 ISZERO PUSH2 0x4A7F JUMPI POP DUP1 ISZERO JUMPDEST ISZERO PUSH2 0x4C38 JUMPI DUP7 DUP3 LT DUP1 ISZERO PUSH2 0x4AC2 JUMPI POP DUP7 PUSH1 0x1 PUSH1 0x0 DUP11 PUSH1 0xFF AND PUSH1 0xFF AND DUP2 MSTORE PUSH1 0x20 ADD SWAP1 DUP2 MSTORE PUSH1 0x20 ADD PUSH1 0x0 KECCAK256 PUSH1 0x6 ADD PUSH1 0x0 DUP5 DUP2 MSTORE PUSH1 0x20 ADD SWAP1 DUP2 MSTORE PUSH1 0x20 ADD PUSH1 0x0 KECCAK256 PUSH1 0x0 ADD SLOAD GT JUMPDEST ISZERO PUSH2 0x4C00 JUMPI DUP2 PUSH1 0x1 PUSH1 0x0 DUP11 PUSH1 0xFF AND PUSH1 0xFF AND DUP2 MSTORE PUSH1 0x20 ADD SWAP1 DUP2 MSTORE PUSH1 0x20 ADD PUSH1 0x0 KECCAK256 PUSH1 0x6 ADD PUSH1 0x0 DUP10 DUP2 MSTORE PUSH1 0x20 ADD SWAP1 DUP2 MSTORE PUSH1 0x20 ADD PUSH1 0x0 KECCAK256 PUSH1 0x1 ADD DUP2 SWAP1 SSTORE POP PUSH1 0x1 PUSH1 0x0 DUP10 PUSH1 0xFF AND PUSH1 0xFF AND DUP2 MSTORE PUSH1 0x20 ADD SWAP1 DUP2 MSTORE PUSH1 0x20 ADD PUSH1 0x0 KECCAK256 PUSH1 0x6 ADD PUSH1 0x0 DUP4 DUP2 MSTORE PUSH1 0x20 ADD SWAP1 DUP2 MSTORE PUSH1 0x20 ADD PUSH1 0x0 KECCAK256 PUSH1 0x0 ADD SLOAD PUSH1 0x1 PUSH1 0x0 DUP11 PUSH1 0xFF AND PUSH1 0xFF AND DUP2 MSTORE PUSH1 0x20 ADD SWAP1 DUP2 MSTORE PUSH1 0x20 ADD PUSH1 0x0 KECCAK256 PUSH1 0x6 ADD PUSH1 0x0 DUP10 DUP2 MSTORE PUSH1 0x20 ADD SWAP1 DUP2 MSTORE PUSH1 0x20 ADD PUSH1 0x0 KECCAK256 PUSH1 0x0 ADD DUP2 SWAP1 SSTORE POP DUP7 PUSH1 0x1 PUSH1 0x0 DUP11 PUSH1 0xFF AND PUSH1 0xFF AND DUP2 MSTORE PUSH1 0x20 ADD SWAP1 DUP2 MSTORE PUSH1 0x20 ADD PUSH1 0x0 KECCAK256 PUSH1 0x6 ADD PUSH1 0x0 PUSH1 0x1 PUSH1 0x0 DUP13 PUSH1 0xFF AND PUSH1 0xFF AND DUP2 MSTORE PUSH1 0x20 ADD SWAP1 DUP2 MSTORE PUSH1 0x20 ADD PUSH1 0x0 KECCAK256 PUSH1 0x6 ADD PUSH1 0x0 DUP7 DUP2 MSTORE PUSH1 0x20 ADD SWAP1 DUP2 MSTORE PUSH1 0x20 ADD PUSH1 0x0 KECCAK256 PUSH1 0x0 ADD SLOAD DUP2 MSTORE PUSH1 0x20 ADD SWAP1 DUP2 MSTORE PUSH1 0x20 ADD PUSH1 0x0 KECCAK256 PUSH1 0x1 ADD DUP2 SWAP1 SSTORE POP DUP7 PUSH1 0x1 PUSH1 0x0 DUP11 PUSH1 0xFF AND PUSH1 0xFF AND DUP2 MSTORE PUSH1 0x20 ADD SWAP1 DUP2 MSTORE PUSH1 0x20 ADD PUSH1 0x0 KECCAK256 PUSH1 0x6 ADD PUSH1 0x0 DUP5 DUP2 MSTORE PUSH1 0x20 ADD SWAP1 DUP2 MSTORE PUSH1 0x20 ADD PUSH1 0x0 KECCAK256 PUSH1 0x0 ADD DUP2 SWAP1 SSTORE POP PUSH1 0x1 SWAP1 POP JUMPDEST PUSH1 0x1 PUSH1 0x0 DUP10 PUSH1 0xFF AND PUSH1 0xFF AND DUP2 MSTORE PUSH1 0x20 ADD SWAP1 DUP2 MSTORE PUSH1 0x20 ADD PUSH1 0x0 KECCAK256 PUSH1 0x6 ADD PUSH1 0x0 DUP4 DUP2 MSTORE PUSH1 0x20 ADD SWAP1 DUP2 MSTORE PUSH1 0x20 ADD PUSH1 0x0 KECCAK256 PUSH1 0x0 ADD SLOAD SWAP2 POP PUSH2 0x4A71 JUMP JUMPDEST JUMPDEST JUMPDEST JUMPDEST POP POP POP POP POP POP POP POP JUMP JUMPDEST PUSH1 0x0 DUP1 PUSH1 0x1 SWAP1 POP JUMPDEST PUSH1 0x2 PUSH1 0x0 SWAP1 SLOAD SWAP1 PUSH2 0x100 EXP SWAP1 DIV PUSH1 0xFF AND PUSH1 0xFF AND DUP2 PUSH1 0xFF AND GT ISZERO ISZERO PUSH2 0x4D43 JUMPI PUSH2 0x4D29 PUSH1 0x1 PUSH1 0x0 DUP4 PUSH1 0xFF AND PUSH1 0xFF AND DUP2 MSTORE PUSH1 0x20 ADD SWAP1 DUP2 MSTORE PUSH1 0x20 ADD PUSH1 0x0 KECCAK256 PUSH1 0x1 ADD DUP1 SLOAD PUSH1 0x1 DUP2 PUSH1 0x1 AND ISZERO PUSH2 0x100 MUL SUB AND PUSH1 0x2 SWAP1 DIV DUP1 PUSH1 0x1F ADD PUSH1 0x20 DUP1 SWAP2 DIV MUL PUSH1 0x20 ADD PUSH1 0x40 MLOAD SWAP1 DUP2 ADD PUSH1 0x40 MSTORE DUP1 SWAP3 SWAP2 SWAP1 DUP2 DUP2 MSTORE PUSH1 0x20 ADD DUP3 DUP1 SLOAD PUSH1 0x1 DUP2 PUSH1 0x1 AND ISZERO PUSH2 0x100 MUL SUB AND PUSH1 0x2 SWAP1 DIV DUP1 ISZERO PUSH2 0x4D1E JUMPI DUP1 PUSH1 0x1F LT PUSH2 0x4CF3 JUMPI PUSH2 0x100 DUP1 DUP4 SLOAD DIV MUL DUP4 MSTORE SWAP2 PUSH1 0x20 ADD SWAP2 PUSH2 0x4D1E JUMP JUMPDEST DUP3 ADD SWAP2 SWAP1 PUSH1 0x0 MSTORE PUSH1 0x20 PUSH1 0x0 KECCAK256 SWAP1 JUMPDEST DUP2 SLOAD DUP2 MSTORE SWAP1 PUSH1 0x1 ADD SWAP1 PUSH1 0x20 ADD DUP1 DUP4 GT PUSH2 0x4D01 JUMPI DUP3 SWAP1 SUB PUSH1 0x1F AND DUP3 ADD SWAP2 JUMPDEST POP POP POP POP POP DUP5 PUSH2 0x4D4E JUMP JUMPDEST ISZERO PUSH2 0x4D36 JUMPI DUP1 SWAP2 POP PUSH2 0x4D48 JUMP JUMPDEST DUP1 DUP1 PUSH1 0x1 ADD SWAP2 POP POP PUSH2 0x4C4D JUMP JUMPDEST PUSH1 0x0 SWAP2 POP JUMPDEST POP SWAP2 SWAP1 POP JUMP JUMPDEST PUSH1 0x0 DUP2 PUSH1 0x40 MLOAD DUP1 DUP3 DUP1 MLOAD SWAP1 PUSH1 0x20 ADD SWAP1 DUP1 DUP4 DUP4 JUMPDEST PUSH1 0x20 DUP4 LT ISZERO ISZERO PUSH2 0x4D86 JUMPI DUP1 MLOAD DUP3 MSTORE PUSH1 0x20 DUP3 ADD SWAP2 POP PUSH1 0x20 DUP2 ADD SWAP1 POP PUSH1 0x20 DUP4 SUB SWAP3 POP PUSH2 0x4D61 JUMP JUMPDEST PUSH1 0x1 DUP4 PUSH1 0x20 SUB PUSH2 0x100 EXP SUB DUP1 NOT DUP3 MLOAD AND DUP2 DUP5 MLOAD AND DUP1 DUP3 OR DUP6 MSTORE POP POP POP POP POP POP SWAP1 POP ADD SWAP2 POP POP PUSH1 0x40 MLOAD DUP1 SWAP2 SUB SWAP1 KECCAK256 PUSH1 0x0 NOT AND DUP4 PUSH1 0x40 MLOAD DUP1 DUP3 DUP1 MLOAD SWAP1 PUSH1 0x20 ADD SWAP1 DUP1 DUP4 DUP4 JUMPDEST PUSH1 0x20 DUP4 LT ISZERO ISZERO PUSH2 0x4DED JUMPI DUP1 MLOAD DUP3 MSTORE PUSH1 0x20 DUP3 ADD SWAP2 POP PUSH1 0x20 DUP2 ADD SWAP1 POP PUSH1 0x20 DUP4 SUB SWAP3 POP PUSH2 0x4DC8 JUMP JUMPDEST PUSH1 0x1 DUP4 PUSH1 0x20 SUB PUSH2 0x100 EXP SUB DUP1 NOT DUP3 MLOAD AND DUP2 DUP5 MLOAD AND DUP1 DUP3 OR DUP6 MSTORE POP POP POP POP POP POP SWAP1 POP ADD SWAP2 POP POP PUSH1 0x40 MLOAD DUP1 SWAP2 SUB SWAP1 KECCAK256 PUSH1 0x0 NOT AND EQ SWAP1 POP SWAP3 SWAP2 POP POP JUMP JUMPDEST DUP3 DUP1 SLOAD PUSH1 0x1 DUP2 PUSH1 0x1 AND ISZERO PUSH2 0x100 MUL SUB AND PUSH1 0x2 SWAP1 DIV SWAP1 PUSH1 0x0 MSTORE PUSH1 0x20 PUSH1 0x0 KECCAK256 SWAP1 PUSH1 0x1F ADD PUSH1 0x20 SWAP1 DIV DUP2 ADD SWAP3 DUP3 PUSH1 0x1F LT PUSH2 0x4E68 JUMPI DUP1 MLOAD PUSH1 0xFF NOT AND DUP4 DUP1 ADD OR DUP6 SSTORE PUSH2 0x4E96 JUMP JUMPDEST DUP3 DUP1 ADD PUSH1 0x1 ADD DUP6 SSTORE DUP3 ISZERO PUSH2 0x4E96 JUMPI SWAP2 DUP3 ADD JUMPDEST DUP3 DUP2 GT ISZERO PUSH2 0x4E95 JUMPI DUP3 MLOAD DUP3 SSTORE SWAP2 PUSH1 0x20 ADD SWAP2 SWAP1 PUSH1 0x1 ADD SWAP1 PUSH2 0x4E7A JUMP JUMPDEST JUMPDEST POP SWAP1 POP PUSH2 0x4EA3 SWAP2 SWAP1 PUSH2 0x4EA7 JUMP JUMPDEST POP SWAP1 JUMP JUMPDEST PUSH2 0x4EC9 SWAP2 SWAP1 JUMPDEST DUP1 DUP3 GT ISZERO PUSH2 0x4EC5 JUMPI PUSH1 0x0 DUP2 PUSH1 0x0 SWAP1 SSTORE POP PUSH1 0x1 ADD PUSH2 0x4EAD JUMP JUMPDEST POP SWAP1 JUMP JUMPDEST SWAP1 JUMP STOP LOG1 PUSH6 0x627A7A723058 KECCAK256 0x1f CALL 0x1e 0xf 0x2d STOP 0xda PUSH11 0x1BD20471FC11E91B3EE234 0xee EXP JUMPDEST MULMOD LT 0xc1 0x23 GASLIMIT LT 0xe4 0xec ORIGIN 0x5e STOP 0x29 "
				},
				"gasEstimates": {
					"creation": {
						"codeDepositCost": "4043200",
						"executionCost": "24865",
						"totalCost": "4068065"
					},
					"external": {
						"addToken(string,address)": "infinite",
						"buyToken(string,uint256,uint256)": "infinite",
						"cancelOrder(string,bool,uint256,uint256)": "infinite",
						"depositEther()": "22992",
						"depositToken(string,uint256)": "infinite",
						"getBalance(string)": "infinite",
						"getBuyOrderBook(string)": "infinite",
						"getEthBalanceInWei()": "513",
						"getSellOrderBook(string)": "infinite",
						"getSymbolIndexOrThrow(string)": "infinite",
						"hasToken(string)": "infinite",
						"sellToken(string,uint256,uint256)": "infinite",
						"withdrawEther(uint256)": "infinite",
						"withdrawToken(string,uint256)": "infinite"
					},
					"internal": {
						"addBuyOffer(uint8,uint256,uint256,address)": "infinite",
						"addSellOffer(uint8,uint256,uint256,address)": "infinite",
						"getSymbolIndex(string memory)": "infinite",
						"stringsEqual(string memory,string memory)": "infinite"
					}
				},
				"methodIdentifiers": {
					"addToken(string,address)": "b0b22c2c",
					"buyToken(string,uint256,uint256)": "5ab8ea33",
					"cancelOrder(string,bool,uint256,uint256)": "d1a3b025",
					"depositEther()": "98ea5fca",
					"depositToken(string,uint256)": "33ad57e4",
					"getBalance(string)": "3a51d246",
					"getBuyOrderBook(string)": "03bc4a27",
					"getEthBalanceInWei()": "1a8eb72b",
					"getSellOrderBook(string)": "728ff029",
					"getSymbolIndexOrThrow(string)": "977377f8",
					"hasToken(string)": "8ea00818",
					"sellToken(string,uint256,uint256)": "851030fe",
					"withdrawEther(uint256)": "3bed33ce",
					"withdrawToken(string,uint256)": "c97a413a"
				}
			},
			"userdoc": {
				"methods": {
					"addToken(string,address)": {
						"notice": "///////////////////"
					},
					"buyToken(string,uint256,uint256)": {
						"notice": "////////////////////////"
					},
					"cancelOrder(string,bool,uint256,uint256)": {
						"notice": "///////////////////////////"
					},
					"depositEther()": {
						"notice": "///////////////////////////////"
					},
					"depositToken(string,uint256)": {
						"notice": "///////////////////////////////"
					},
					"getBuyOrderBook(string)": {
						"notice": "//////////////////////////"
					},
					"getSellOrderBook(string)": {
						"notice": "//////////////////////////"
					},
					"sellToken(string,uint256,uint256)": {
						"notice": "////////////////////////"
					}
				}
			}
		}
	}
}