{
	"20-Solidity/1/Activities/04-Stu_Travel_Expenses/Solved/TravelExpenses.sol": {
		"TravelExpenses": {
			"abi": [
				{
					"constant": false,
					"inputs": [
						{
							"internalType": "uint32",
							"name": "new_net_expense_usd",
							"type": "uint32"
						},
						{
							"internalType": "uint256",
							"name": "tax_rate",
							"type": "uint256"
						}
					],
					"name": "RecordExpense",
					"outputs": [],
					"payable": false,
					"stateMutability": "nonpayable",
					"type": "function"
				},
				{
					"constant": true,
					"inputs": [],
					"name": "corporate_account",
					"outputs": [
						{
							"internalType": "address payable",
							"name": "",
							"type": "address"
						}
					],
					"payable": false,
					"stateMutability": "view",
					"type": "function"
				},
				{
					"constant": true,
					"inputs": [],
					"name": "daily_expenses_wei",
					"outputs": [
						{
							"internalType": "uint256",
							"name": "",
							"type": "uint256"
						}
					],
					"payable": false,
					"stateMutability": "view",
					"type": "function"
				}
			],
			"devdoc": {
				"methods": {}
			},
			"evm": {
				"assembly": "    /* \"20-Solidity/1/Activities/04-Stu_Travel_Expenses/Solved/TravelExpenses.sol\":395:2911  contract TravelExpenses {... */\n  mstore(0x40, 0x80)\n    /* \"20-Solidity/1/Activities/04-Stu_Travel_Expenses/Solved/TravelExpenses.sol\":584:626  0x02225fBB07e3f5003017063b1aF8Fdf00580787B */\n  0x02225fbb07e3f5003017063b1af8fdf00580787b\n    /* \"20-Solidity/1/Activities/04-Stu_Travel_Expenses/Solved/TravelExpenses.sol\":541:626  address payable public corporate_account = 0x02225fBB07e3f5003017063b1aF8Fdf00580787B */\n  0x00\n  dup1\n  0x0100\n  exp\n  dup2\n  sload\n  dup2\n  0xffffffffffffffffffffffffffffffffffffffff\n  mul\n  not\n  and\n  swap1\n  dup4\n  0xffffffffffffffffffffffffffffffffffffffff\n  and\n  mul\n  or\n  swap1\n  sstore\n  pop\n    /* \"20-Solidity/1/Activities/04-Stu_Travel_Expenses/Solved/TravelExpenses.sol\":773:815  0xb5249209b759d3DF85bA3cD896122A148348091b */\n  0xb5249209b759d3df85ba3cd896122a148348091b\n    /* \"20-Solidity/1/Activities/04-Stu_Travel_Expenses/Solved/TravelExpenses.sol\":738:815  address payable personal_account = 0xb5249209b759d3DF85bA3cD896122A148348091b */\n  0x01\n  exp(0x0100, 0x00)\n  dup2\n  sload\n  dup2\n  0xffffffffffffffffffffffffffffffffffffffff\n  mul\n  not\n  and\n  swap1\n  dup4\n  0xffffffffffffffffffffffffffffffffffffffff\n  and\n  mul\n  or\n  swap1\n  sstore\n  pop\n    /* \"20-Solidity/1/Activities/04-Stu_Travel_Expenses/Solved/TravelExpenses.sol\":906:939  string employee_name = \"John Doe\" */\n  mload(0x40)\n  dup1\n  0x40\n  add\n  0x40\n  mstore\n  dup1\n  0x08\n  dup2\n  mstore\n  0x20\n  add\n  0x4a6f686e20446f65000000000000000000000000000000000000000000000000\n  dup2\n  mstore\n  pop\n  0x02\n  swap1\n  dup1\n  mload\n  swap1\n  0x20\n  add\n  swap1\n  tag_1\n  swap3\n  swap2\n  swap1\n  tag_2\n  jump\t// in\ntag_1:\n  pop\n    /* \"20-Solidity/1/Activities/04-Stu_Travel_Expenses/Solved/TravelExpenses.sol\":1226:1227  0 */\n  0x00\n    /* \"20-Solidity/1/Activities/04-Stu_Travel_Expenses/Solved/TravelExpenses.sol\":1195:1227  uint256 current_expenses_wei = 0 */\n  0x03\n  sstore\n    /* \"20-Solidity/1/Activities/04-Stu_Travel_Expenses/Solved/TravelExpenses.sol\":1342:1343  0 */\n  0x00\n    /* \"20-Solidity/1/Activities/04-Stu_Travel_Expenses/Solved/TravelExpenses.sol\":1317:1343  uint current_taxes_wei = 0 */\n  0x04\n  sstore\n    /* \"20-Solidity/1/Activities/04-Stu_Travel_Expenses/Solved/TravelExpenses.sol\":1459:1460  0 */\n  0x00\n    /* \"20-Solidity/1/Activities/04-Stu_Travel_Expenses/Solved/TravelExpenses.sol\":1435:1460  uint16 expenses_count = 0 */\n  0x05\n  exp(0x0100, 0x00)\n  dup2\n  sload\n  dup2\n  0xffff\n  mul\n  not\n  and\n  swap1\n  dup4\n  0xffff\n  and\n  mul\n  or\n  swap1\n  sstore\n  pop\n    /* \"20-Solidity/1/Activities/04-Stu_Travel_Expenses/Solved/TravelExpenses.sol\":1600:1603  143 */\n  0x8f\n    /* \"20-Solidity/1/Activities/04-Stu_Travel_Expenses/Solved/TravelExpenses.sol\":1578:1603  uint32 eth_usd_rate = 143 */\n  0x05\n  exp(0x0100, 0x02)\n  dup2\n  sload\n  dup2\n  0xffffffff\n  mul\n  not\n  and\n  swap1\n  dup4\n  0xffffffff\n  and\n  mul\n  or\n  swap1\n  sstore\n  pop\n    /* \"20-Solidity/1/Activities/04-Stu_Travel_Expenses/Solved/TravelExpenses.sol\":1747:1766  1000000000000000000 */\n  0x0de0b6b3a7640000\n    /* \"20-Solidity/1/Activities/04-Stu_Travel_Expenses/Solved/TravelExpenses.sol\":1086:1087  1 */\n  0x01\n    /* \"20-Solidity/1/Activities/04-Stu_Travel_Expenses/Solved/TravelExpenses.sol\":1974:2007  daily_expenses_eth * eth_wei_rate */\n  mul\n    /* \"20-Solidity/1/Activities/04-Stu_Travel_Expenses/Solved/TravelExpenses.sol\":1938:2007  uint256 public daily_expenses_wei = daily_expenses_eth * eth_wei_rate */\n  0x06\n  sstore\n    /* \"20-Solidity/1/Activities/04-Stu_Travel_Expenses/Solved/TravelExpenses.sol\":395:2911  contract TravelExpenses {... */\n  callvalue\n    /* \"--CODEGEN--\":8:17   */\n  dup1\n    /* \"--CODEGEN--\":5:7   */\n  iszero\n  tag_3\n  jumpi\n    /* \"--CODEGEN--\":30:31   */\n  0x00\n    /* \"--CODEGEN--\":27:28   */\n  dup1\n    /* \"--CODEGEN--\":20:32   */\n  revert\n    /* \"--CODEGEN--\":5:7   */\ntag_3:\n    /* \"20-Solidity/1/Activities/04-Stu_Travel_Expenses/Solved/TravelExpenses.sol\":395:2911  contract TravelExpenses {... */\n  pop\n  jump(tag_4)\ntag_2:\n  dup3\n  dup1\n  sload\n  0x01\n  dup2\n  0x01\n  and\n  iszero\n  0x0100\n  mul\n  sub\n  and\n  0x02\n  swap1\n  div\n  swap1\n  0x00\n  mstore\n  keccak256(0x00, 0x20)\n  swap1\n  0x1f\n  add\n  0x20\n  swap1\n  div\n  dup2\n  add\n  swap3\n  dup3\n  0x1f\n  lt\n  tag_6\n  jumpi\n  dup1\n  mload\n  not(0xff)\n  and\n  dup4\n  dup1\n  add\n  or\n  dup6\n  sstore\n  jump(tag_5)\ntag_6:\n  dup3\n  dup1\n  add\n  0x01\n  add\n  dup6\n  sstore\n  dup3\n  iszero\n  tag_5\n  jumpi\n  swap2\n  dup3\n  add\ntag_7:\n  dup3\n  dup2\n  gt\n  iszero\n  tag_8\n  jumpi\n  dup3\n  mload\n  dup3\n  sstore\n  swap2\n  0x20\n  add\n  swap2\n  swap1\n  0x01\n  add\n  swap1\n  jump(tag_7)\ntag_8:\ntag_5:\n  pop\n  swap1\n  pop\n  tag_9\n  swap2\n  swap1\n  tag_10\n  jump\t// in\ntag_9:\n  pop\n  swap1\n  jump\t// out\ntag_10:\n  tag_11\n  swap2\n  swap1\ntag_12:\n  dup1\n  dup3\n  gt\n  iszero\n  tag_13\n  jumpi\n  0x00\n  dup2\n  0x00\n  swap1\n  sstore\n  pop\n  0x01\n  add\n  jump(tag_12)\ntag_13:\n  pop\n  swap1\n  jump\ntag_11:\n  swap1\n  jump\t// out\ntag_4:\n  dataSize(sub_0)\n  dup1\n  dataOffset(sub_0)\n  0x00\n  codecopy\n  0x00\n  return\nstop\n\nsub_0: assembly {\n        /* \"20-Solidity/1/Activities/04-Stu_Travel_Expenses/Solved/TravelExpenses.sol\":395:2911  contract TravelExpenses {... */\n      mstore(0x40, 0x80)\n      callvalue\n        /* \"--CODEGEN--\":8:17   */\n      dup1\n        /* \"--CODEGEN--\":5:7   */\n      iszero\n      tag_1\n      jumpi\n        /* \"--CODEGEN--\":30:31   */\n      0x00\n        /* \"--CODEGEN--\":27:28   */\n      dup1\n        /* \"--CODEGEN--\":20:32   */\n      revert\n        /* \"--CODEGEN--\":5:7   */\n    tag_1:\n        /* \"20-Solidity/1/Activities/04-Stu_Travel_Expenses/Solved/TravelExpenses.sol\":395:2911  contract TravelExpenses {... */\n      pop\n      jumpi(tag_2, lt(calldatasize, 0x04))\n      shr(0xe0, calldataload(0x00))\n      dup1\n      0x143ebbf1\n      eq\n      tag_3\n      jumpi\n      dup1\n      0x1c5e7f63\n      eq\n      tag_4\n      jumpi\n      dup1\n      0xdf4ed86b\n      eq\n      tag_5\n      jumpi\n    tag_2:\n      0x00\n      dup1\n      revert\n        /* \"20-Solidity/1/Activities/04-Stu_Travel_Expenses/Solved/TravelExpenses.sol\":2012:2909  function RecordExpense(uint32 new_net_expense_usd, uint tax_rate) public {... */\n    tag_3:\n      tag_6\n      0x04\n      dup1\n      calldatasize\n      sub\n        /* \"--CODEGEN--\":13:15   */\n      0x40\n        /* \"--CODEGEN--\":8:11   */\n      dup2\n        /* \"--CODEGEN--\":5:16   */\n      lt\n        /* \"--CODEGEN--\":2:4   */\n      iszero\n      tag_7\n      jumpi\n        /* \"--CODEGEN--\":29:30   */\n      0x00\n        /* \"--CODEGEN--\":26:27   */\n      dup1\n        /* \"--CODEGEN--\":19:31   */\n      revert\n        /* \"--CODEGEN--\":2:4   */\n    tag_7:\n        /* \"20-Solidity/1/Activities/04-Stu_Travel_Expenses/Solved/TravelExpenses.sol\":2012:2909  function RecordExpense(uint32 new_net_expense_usd, uint tax_rate) public {... */\n      dup2\n      add\n      swap1\n      dup1\n      dup1\n      calldataload\n      0xffffffff\n      and\n      swap1\n      0x20\n      add\n      swap1\n      swap3\n      swap2\n      swap1\n      dup1\n      calldataload\n      swap1\n      0x20\n      add\n      swap1\n      swap3\n      swap2\n      swap1\n      pop\n      pop\n      pop\n      tag_8\n      jump\t// in\n    tag_6:\n      stop\n        /* \"20-Solidity/1/Activities/04-Stu_Travel_Expenses/Solved/TravelExpenses.sol\":541:626  address payable public corporate_account = 0x02225fBB07e3f5003017063b1aF8Fdf00580787B */\n    tag_4:\n      tag_9\n      tag_10\n      jump\t// in\n    tag_9:\n      mload(0x40)\n      dup1\n      dup3\n      0xffffffffffffffffffffffffffffffffffffffff\n      and\n      0xffffffffffffffffffffffffffffffffffffffff\n      and\n      dup2\n      mstore\n      0x20\n      add\n      swap2\n      pop\n      pop\n      mload(0x40)\n      dup1\n      swap2\n      sub\n      swap1\n      return\n        /* \"20-Solidity/1/Activities/04-Stu_Travel_Expenses/Solved/TravelExpenses.sol\":1938:2007  uint256 public daily_expenses_wei = daily_expenses_eth * eth_wei_rate */\n    tag_5:\n      tag_11\n      tag_12\n      jump\t// in\n    tag_11:\n      mload(0x40)\n      dup1\n      dup3\n      dup2\n      mstore\n      0x20\n      add\n      swap2\n      pop\n      pop\n      mload(0x40)\n      dup1\n      swap2\n      sub\n      swap1\n      return\n        /* \"20-Solidity/1/Activities/04-Stu_Travel_Expenses/Solved/TravelExpenses.sol\":2012:2909  function RecordExpense(uint32 new_net_expense_usd, uint tax_rate) public {... */\n    tag_8:\n        /* \"20-Solidity/1/Activities/04-Stu_Travel_Expenses/Solved/TravelExpenses.sol\":2233:2259  uint256 expense_usd_no_tax */\n      0x00\n        /* \"20-Solidity/1/Activities/04-Stu_Travel_Expenses/Solved/TravelExpenses.sol\":2317:2320  100 */\n      0x64\n        /* \"20-Solidity/1/Activities/04-Stu_Travel_Expenses/Solved/TravelExpenses.sol\":2306:2314  tax_rate */\n      dup3\n        /* \"20-Solidity/1/Activities/04-Stu_Travel_Expenses/Solved/TravelExpenses.sol\":2284:2303  new_net_expense_usd */\n      dup5\n        /* \"20-Solidity/1/Activities/04-Stu_Travel_Expenses/Solved/TravelExpenses.sol\":2284:2314  new_net_expense_usd * tax_rate */\n      0xffffffff\n      and\n      mul\n        /* \"20-Solidity/1/Activities/04-Stu_Travel_Expenses/Solved/TravelExpenses.sol\":2284:2320  new_net_expense_usd * tax_rate / 100 */\n      dup2\n      tag_14\n      jumpi\n      invalid\n    tag_14:\n      div\n        /* \"20-Solidity/1/Activities/04-Stu_Travel_Expenses/Solved/TravelExpenses.sol\":2262:2281  new_net_expense_usd */\n      dup4\n        /* \"20-Solidity/1/Activities/04-Stu_Travel_Expenses/Solved/TravelExpenses.sol\":2262:2320  new_net_expense_usd - new_net_expense_usd * tax_rate / 100 */\n      0xffffffff\n      and\n      sub\n        /* \"20-Solidity/1/Activities/04-Stu_Travel_Expenses/Solved/TravelExpenses.sol\":2233:2320  uint256 expense_usd_no_tax = new_net_expense_usd - new_net_expense_usd * tax_rate / 100 */\n      swap1\n      pop\n        /* \"20-Solidity/1/Activities/04-Stu_Travel_Expenses/Solved/TravelExpenses.sol\":2443:2460  uint256 taxes_usd */\n      0x00\n        /* \"20-Solidity/1/Activities/04-Stu_Travel_Expenses/Solved/TravelExpenses.sol\":2496:2499  100 */\n      0x64\n        /* \"20-Solidity/1/Activities/04-Stu_Travel_Expenses/Solved/TravelExpenses.sol\":2485:2493  tax_rate */\n      dup4\n        /* \"20-Solidity/1/Activities/04-Stu_Travel_Expenses/Solved/TravelExpenses.sol\":2463:2482  new_net_expense_usd */\n      dup6\n        /* \"20-Solidity/1/Activities/04-Stu_Travel_Expenses/Solved/TravelExpenses.sol\":2463:2493  new_net_expense_usd * tax_rate */\n      0xffffffff\n      and\n      mul\n        /* \"20-Solidity/1/Activities/04-Stu_Travel_Expenses/Solved/TravelExpenses.sol\":2463:2499  new_net_expense_usd * tax_rate / 100 */\n      dup2\n      tag_15\n      jumpi\n      invalid\n    tag_15:\n      div\n        /* \"20-Solidity/1/Activities/04-Stu_Travel_Expenses/Solved/TravelExpenses.sol\":2443:2499  uint256 taxes_usd = new_net_expense_usd * tax_rate / 100 */\n      swap1\n      pop\n        /* \"20-Solidity/1/Activities/04-Stu_Travel_Expenses/Solved/TravelExpenses.sol\":2664:2676  eth_usd_rate */\n      0x05\n      0x02\n      swap1\n      sload\n      swap1\n      0x0100\n      exp\n      swap1\n      div\n      0xffffffff\n      and\n        /* \"20-Solidity/1/Activities/04-Stu_Travel_Expenses/Solved/TravelExpenses.sol\":2628:2676  expense_usd_no_tax * eth_wei_rate / eth_usd_rate */\n      0xffffffff\n      and\n        /* \"20-Solidity/1/Activities/04-Stu_Travel_Expenses/Solved/TravelExpenses.sol\":1747:1766  1000000000000000000 */\n      0x0de0b6b3a7640000\n        /* \"20-Solidity/1/Activities/04-Stu_Travel_Expenses/Solved/TravelExpenses.sol\":2628:2646  expense_usd_no_tax */\n      dup4\n        /* \"20-Solidity/1/Activities/04-Stu_Travel_Expenses/Solved/TravelExpenses.sol\":2628:2661  expense_usd_no_tax * eth_wei_rate */\n      mul\n        /* \"20-Solidity/1/Activities/04-Stu_Travel_Expenses/Solved/TravelExpenses.sol\":2628:2676  expense_usd_no_tax * eth_wei_rate / eth_usd_rate */\n      dup2\n      tag_16\n      jumpi\n      invalid\n    tag_16:\n      div\n        /* \"20-Solidity/1/Activities/04-Stu_Travel_Expenses/Solved/TravelExpenses.sol\":2604:2624  current_expenses_wei */\n      0x03\n      0x00\n        /* \"20-Solidity/1/Activities/04-Stu_Travel_Expenses/Solved/TravelExpenses.sol\":2604:2676  current_expenses_wei += expense_usd_no_tax * eth_wei_rate / eth_usd_rate */\n      dup3\n      dup3\n      sload\n      add\n      swap3\n      pop\n      pop\n      dup2\n      swap1\n      sstore\n      pop\n        /* \"20-Solidity/1/Activities/04-Stu_Travel_Expenses/Solved/TravelExpenses.sol\":2816:2828  eth_usd_rate */\n      0x05\n      0x02\n      swap1\n      sload\n      swap1\n      0x0100\n      exp\n      swap1\n      div\n      0xffffffff\n      and\n        /* \"20-Solidity/1/Activities/04-Stu_Travel_Expenses/Solved/TravelExpenses.sol\":2789:2828  taxes_usd * eth_wei_rate / eth_usd_rate */\n      0xffffffff\n      and\n        /* \"20-Solidity/1/Activities/04-Stu_Travel_Expenses/Solved/TravelExpenses.sol\":1747:1766  1000000000000000000 */\n      0x0de0b6b3a7640000\n        /* \"20-Solidity/1/Activities/04-Stu_Travel_Expenses/Solved/TravelExpenses.sol\":2789:2798  taxes_usd */\n      dup3\n        /* \"20-Solidity/1/Activities/04-Stu_Travel_Expenses/Solved/TravelExpenses.sol\":2789:2813  taxes_usd * eth_wei_rate */\n      mul\n        /* \"20-Solidity/1/Activities/04-Stu_Travel_Expenses/Solved/TravelExpenses.sol\":2789:2828  taxes_usd * eth_wei_rate / eth_usd_rate */\n      dup2\n      tag_17\n      jumpi\n      invalid\n    tag_17:\n      div\n        /* \"20-Solidity/1/Activities/04-Stu_Travel_Expenses/Solved/TravelExpenses.sol\":2769:2786  current_taxes_wei */\n      0x04\n        /* \"20-Solidity/1/Activities/04-Stu_Travel_Expenses/Solved/TravelExpenses.sol\":2769:2828  current_taxes_wei = taxes_usd * eth_wei_rate / eth_usd_rate */\n      dup2\n      swap1\n      sstore\n      pop\n        /* \"20-Solidity/1/Activities/04-Stu_Travel_Expenses/Solved/TravelExpenses.sol\":2903:2904  1 */\n      0x01\n        /* \"20-Solidity/1/Activities/04-Stu_Travel_Expenses/Solved/TravelExpenses.sol\":2885:2899  expenses_count */\n      0x05\n      0x00\n        /* \"20-Solidity/1/Activities/04-Stu_Travel_Expenses/Solved/TravelExpenses.sol\":2885:2904  expenses_count += 1 */\n      dup3\n      dup3\n      dup3\n      swap1\n      sload\n      swap1\n      0x0100\n      exp\n      swap1\n      div\n      0xffff\n      and\n      add\n      swap3\n      pop\n      0x0100\n      exp\n      dup2\n      sload\n      dup2\n      0xffff\n      mul\n      not\n      and\n      swap1\n      dup4\n      0xffff\n      and\n      mul\n      or\n      swap1\n      sstore\n      pop\n        /* \"20-Solidity/1/Activities/04-Stu_Travel_Expenses/Solved/TravelExpenses.sol\":2012:2909  function RecordExpense(uint32 new_net_expense_usd, uint tax_rate) public {... */\n      pop\n      pop\n      pop\n      pop\n      jump\t// out\n        /* \"20-Solidity/1/Activities/04-Stu_Travel_Expenses/Solved/TravelExpenses.sol\":541:626  address payable public corporate_account = 0x02225fBB07e3f5003017063b1aF8Fdf00580787B */\n    tag_10:\n      0x00\n      dup1\n      swap1\n      sload\n      swap1\n      0x0100\n      exp\n      swap1\n      div\n      0xffffffffffffffffffffffffffffffffffffffff\n      and\n      dup2\n      jump\t// out\n        /* \"20-Solidity/1/Activities/04-Stu_Travel_Expenses/Solved/TravelExpenses.sol\":1938:2007  uint256 public daily_expenses_wei = daily_expenses_eth * eth_wei_rate */\n    tag_12:\n      sload(0x06)\n      dup2\n      jump\t// out\n\n    auxdata: 0xa265627a7a72315820de6b8474f255e858d9d3e5f1a4780f2d7425259d6b4e135ac4fa20dfd939de6564736f6c63430005110032\n}\n",
				"bytecode": {
					"linkReferences": {},
					"object": "60806040527302225fbb07e3f5003017063b1af8fdf00580787b6000806101000a81548173ffffffffffffffffffffffffffffffffffffffff021916908373ffffffffffffffffffffffffffffffffffffffff16021790555073b5249209b759d3df85ba3cd896122a148348091b600160006101000a81548173ffffffffffffffffffffffffffffffffffffffff021916908373ffffffffffffffffffffffffffffffffffffffff1602179055506040518060400160405280600881526020017f4a6f686e20446f65000000000000000000000000000000000000000000000000815250600290805190602001906100f8929190610164565b50600060035560006004556000600560006101000a81548161ffff021916908361ffff160217905550608f600560026101000a81548163ffffffff021916908363ffffffff160217905550670de0b6b3a764000060010260065534801561015e57600080fd5b50610209565b828054600181600116156101000203166002900490600052602060002090601f016020900481019282601f106101a557805160ff19168380011785556101d3565b828001600101855582156101d3579182015b828111156101d25782518255916020019190600101906101b7565b5b5090506101e091906101e4565b5090565b61020691905b808211156102025760008160009055506001016101ea565b5090565b90565b610226806102186000396000f3fe608060405234801561001057600080fd5b50600436106100415760003560e01c8063143ebbf1146100465780631c5e7f6314610084578063df4ed86b146100ce575b600080fd5b6100826004803603604081101561005c57600080fd5b81019080803563ffffffff169060200190929190803590602001909291905050506100ec565b005b61008c6101c6565b604051808273ffffffffffffffffffffffffffffffffffffffff1673ffffffffffffffffffffffffffffffffffffffff16815260200191505060405180910390f35b6100d66101eb565b6040518082815260200191505060405180910390f35b60006064828463ffffffff16028161010057fe5b048363ffffffff1603905060006064838563ffffffff16028161011f57fe5b049050600560029054906101000a900463ffffffff1663ffffffff16670de0b6b3a764000083028161014d57fe5b04600360008282540192505081905550600560029054906101000a900463ffffffff1663ffffffff16670de0b6b3a764000082028161018857fe5b046004819055506001600560008282829054906101000a900461ffff160192506101000a81548161ffff021916908361ffff16021790555050505050565b6000809054906101000a900473ffffffffffffffffffffffffffffffffffffffff1681565b6006548156fea265627a7a72315820de6b8474f255e858d9d3e5f1a4780f2d7425259d6b4e135ac4fa20dfd939de6564736f6c63430005110032",
					"opcodes": "PUSH1 0x80 PUSH1 0x40 MSTORE PUSH20 0x2225FBB07E3F5003017063B1AF8FDF00580787B PUSH1 0x0 DUP1 PUSH2 0x100 EXP DUP2 SLOAD DUP2 PUSH20 0xFFFFFFFFFFFFFFFFFFFFFFFFFFFFFFFFFFFFFFFF MUL NOT AND SWAP1 DUP4 PUSH20 0xFFFFFFFFFFFFFFFFFFFFFFFFFFFFFFFFFFFFFFFF AND MUL OR SWAP1 SSTORE POP PUSH20 0xB5249209B759D3DF85BA3CD896122A148348091B PUSH1 0x1 PUSH1 0x0 PUSH2 0x100 EXP DUP2 SLOAD DUP2 PUSH20 0xFFFFFFFFFFFFFFFFFFFFFFFFFFFFFFFFFFFFFFFF MUL NOT AND SWAP1 DUP4 PUSH20 0xFFFFFFFFFFFFFFFFFFFFFFFFFFFFFFFFFFFFFFFF AND MUL OR SWAP1 SSTORE POP PUSH1 0x40 MLOAD DUP1 PUSH1 0x40 ADD PUSH1 0x40 MSTORE DUP1 PUSH1 0x8 DUP2 MSTORE PUSH1 0x20 ADD PUSH32 0x4A6F686E20446F65000000000000000000000000000000000000000000000000 DUP2 MSTORE POP PUSH1 0x2 SWAP1 DUP1 MLOAD SWAP1 PUSH1 0x20 ADD SWAP1 PUSH2 0xF8 SWAP3 SWAP2 SWAP1 PUSH2 0x164 JUMP JUMPDEST POP PUSH1 0x0 PUSH1 0x3 SSTORE PUSH1 0x0 PUSH1 0x4 SSTORE PUSH1 0x0 PUSH1 0x5 PUSH1 0x0 PUSH2 0x100 EXP DUP2 SLOAD DUP2 PUSH2 0xFFFF MUL NOT AND SWAP1 DUP4 PUSH2 0xFFFF AND MUL OR SWAP1 SSTORE POP PUSH1 0x8F PUSH1 0x5 PUSH1 0x2 PUSH2 0x100 EXP DUP2 SLOAD DUP2 PUSH4 0xFFFFFFFF MUL NOT AND SWAP1 DUP4 PUSH4 0xFFFFFFFF AND MUL OR SWAP1 SSTORE POP PUSH8 0xDE0B6B3A7640000 PUSH1 0x1 MUL PUSH1 0x6 SSTORE CALLVALUE DUP1 ISZERO PUSH2 0x15E JUMPI PUSH1 0x0 DUP1 REVERT JUMPDEST POP PUSH2 0x209 JUMP JUMPDEST DUP3 DUP1 SLOAD PUSH1 0x1 DUP2 PUSH1 0x1 AND ISZERO PUSH2 0x100 MUL SUB AND PUSH1 0x2 SWAP1 DIV SWAP1 PUSH1 0x0 MSTORE PUSH1 0x20 PUSH1 0x0 KECCAK256 SWAP1 PUSH1 0x1F ADD PUSH1 0x20 SWAP1 DIV DUP2 ADD SWAP3 DUP3 PUSH1 0x1F LT PUSH2 0x1A5 JUMPI DUP1 MLOAD PUSH1 0xFF NOT AND DUP4 DUP1 ADD OR DUP6 SSTORE PUSH2 0x1D3 JUMP JUMPDEST DUP3 DUP1 ADD PUSH1 0x1 ADD DUP6 SSTORE DUP3 ISZERO PUSH2 0x1D3 JUMPI SWAP2 DUP3 ADD JUMPDEST DUP3 DUP2 GT ISZERO PUSH2 0x1D2 JUMPI DUP3 MLOAD DUP3 SSTORE SWAP2 PUSH1 0x20 ADD SWAP2 SWAP1 PUSH1 0x1 ADD SWAP1 PUSH2 0x1B7 JUMP JUMPDEST JUMPDEST POP SWAP1 POP PUSH2 0x1E0 SWAP2 SWAP1 PUSH2 0x1E4 JUMP JUMPDEST POP SWAP1 JUMP JUMPDEST PUSH2 0x206 SWAP2 SWAP1 JUMPDEST DUP1 DUP3 GT ISZERO PUSH2 0x202 JUMPI PUSH1 0x0 DUP2 PUSH1 0x0 SWAP1 SSTORE POP PUSH1 0x1 ADD PUSH2 0x1EA JUMP JUMPDEST POP SWAP1 JUMP JUMPDEST SWAP1 JUMP JUMPDEST PUSH2 0x226 DUP1 PUSH2 0x218 PUSH1 0x0 CODECOPY PUSH1 0x0 RETURN INVALID PUSH1 0x80 PUSH1 0x40 MSTORE CALLVALUE DUP1 ISZERO PUSH2 0x10 JUMPI PUSH1 0x0 DUP1 REVERT JUMPDEST POP PUSH1 0x4 CALLDATASIZE LT PUSH2 0x41 JUMPI PUSH1 0x0 CALLDATALOAD PUSH1 0xE0 SHR DUP1 PUSH4 0x143EBBF1 EQ PUSH2 0x46 JUMPI DUP1 PUSH4 0x1C5E7F63 EQ PUSH2 0x84 JUMPI DUP1 PUSH4 0xDF4ED86B EQ PUSH2 0xCE JUMPI JUMPDEST PUSH1 0x0 DUP1 REVERT JUMPDEST PUSH2 0x82 PUSH1 0x4 DUP1 CALLDATASIZE SUB PUSH1 0x40 DUP2 LT ISZERO PUSH2 0x5C JUMPI PUSH1 0x0 DUP1 REVERT JUMPDEST DUP2 ADD SWAP1 DUP1 DUP1 CALLDATALOAD PUSH4 0xFFFFFFFF AND SWAP1 PUSH1 0x20 ADD SWAP1 SWAP3 SWAP2 SWAP1 DUP1 CALLDATALOAD SWAP1 PUSH1 0x20 ADD SWAP1 SWAP3 SWAP2 SWAP1 POP POP POP PUSH2 0xEC JUMP JUMPDEST STOP JUMPDEST PUSH2 0x8C PUSH2 0x1C6 JUMP JUMPDEST PUSH1 0x40 MLOAD DUP1 DUP3 PUSH20 0xFFFFFFFFFFFFFFFFFFFFFFFFFFFFFFFFFFFFFFFF AND PUSH20 0xFFFFFFFFFFFFFFFFFFFFFFFFFFFFFFFFFFFFFFFF AND DUP2 MSTORE PUSH1 0x20 ADD SWAP2 POP POP PUSH1 0x40 MLOAD DUP1 SWAP2 SUB SWAP1 RETURN JUMPDEST PUSH2 0xD6 PUSH2 0x1EB JUMP JUMPDEST PUSH1 0x40 MLOAD DUP1 DUP3 DUP2 MSTORE PUSH1 0x20 ADD SWAP2 POP POP PUSH1 0x40 MLOAD DUP1 SWAP2 SUB SWAP1 RETURN JUMPDEST PUSH1 0x0 PUSH1 0x64 DUP3 DUP5 PUSH4 0xFFFFFFFF AND MUL DUP2 PUSH2 0x100 JUMPI INVALID JUMPDEST DIV DUP4 PUSH4 0xFFFFFFFF AND SUB SWAP1 POP PUSH1 0x0 PUSH1 0x64 DUP4 DUP6 PUSH4 0xFFFFFFFF AND MUL DUP2 PUSH2 0x11F JUMPI INVALID JUMPDEST DIV SWAP1 POP PUSH1 0x5 PUSH1 0x2 SWAP1 SLOAD SWAP1 PUSH2 0x100 EXP SWAP1 DIV PUSH4 0xFFFFFFFF AND PUSH4 0xFFFFFFFF AND PUSH8 0xDE0B6B3A7640000 DUP4 MUL DUP2 PUSH2 0x14D JUMPI INVALID JUMPDEST DIV PUSH1 0x3 PUSH1 0x0 DUP3 DUP3 SLOAD ADD SWAP3 POP POP DUP2 SWAP1 SSTORE POP PUSH1 0x5 PUSH1 0x2 SWAP1 SLOAD SWAP1 PUSH2 0x100 EXP SWAP1 DIV PUSH4 0xFFFFFFFF AND PUSH4 0xFFFFFFFF AND PUSH8 0xDE0B6B3A7640000 DUP3 MUL DUP2 PUSH2 0x188 JUMPI INVALID JUMPDEST DIV PUSH1 0x4 DUP2 SWAP1 SSTORE POP PUSH1 0x1 PUSH1 0x5 PUSH1 0x0 DUP3 DUP3 DUP3 SWAP1 SLOAD SWAP1 PUSH2 0x100 EXP SWAP1 DIV PUSH2 0xFFFF AND ADD SWAP3 POP PUSH2 0x100 EXP DUP2 SLOAD DUP2 PUSH2 0xFFFF MUL NOT AND SWAP1 DUP4 PUSH2 0xFFFF AND MUL OR SWAP1 SSTORE POP POP POP POP POP JUMP JUMPDEST PUSH1 0x0 DUP1 SWAP1 SLOAD SWAP1 PUSH2 0x100 EXP SWAP1 DIV PUSH20 0xFFFFFFFFFFFFFFFFFFFFFFFFFFFFFFFFFFFFFFFF AND DUP2 JUMP JUMPDEST PUSH1 0x6 SLOAD DUP2 JUMP INVALID LOG2 PUSH6 0x627A7A723158 KECCAK256 0xDE PUSH12 0x8474F255E858D9D3E5F1A478 0xF 0x2D PUSH21 0x25259D6B4E135AC4FA20DFD939DE6564736F6C6343 STOP SDIV GT STOP ORIGIN "
				},
				"gasEstimates": {
					"creation": {
						"codeDepositCost": "110000",
						"executionCost": "infinite",
						"totalCost": "infinite"
					},
					"external": {
						"RecordExpense(uint32,uint256)": "64771",
						"corporate_account()": "1053",
						"daily_expenses_wei()": "1027"
					}
				},
				"methodIdentifiers": {
					"RecordExpense(uint32,uint256)": "143ebbf1",
					"corporate_account()": "1c5e7f63",
					"daily_expenses_wei()": "df4ed86b"
				}
			},
			"storageLayout": {
				"storage": [
					{
						"astId": 4,
						"contract": "20-Solidity/1/Activities/04-Stu_Travel_Expenses/Solved/TravelExpenses.sol:TravelExpenses",
						"label": "corporate_account",
						"offset": 0,
						"slot": "0",
						"type": "t_address_payable"
					},
					{
						"astId": 7,
						"contract": "20-Solidity/1/Activities/04-Stu_Travel_Expenses/Solved/TravelExpenses.sol:TravelExpenses",
						"label": "personal_account",
						"offset": 0,
						"slot": "1",
						"type": "t_address_payable"
					},
					{
						"astId": 10,
						"contract": "20-Solidity/1/Activities/04-Stu_Travel_Expenses/Solved/TravelExpenses.sol:TravelExpenses",
						"label": "employee_name",
						"offset": 0,
						"slot": "2",
						"type": "t_string_storage"
					},
					{
						"astId": 16,
						"contract": "20-Solidity/1/Activities/04-Stu_Travel_Expenses/Solved/TravelExpenses.sol:TravelExpenses",
						"label": "current_expenses_wei",
						"offset": 0,
						"slot": "3",
						"type": "t_uint256"
					},
					{
						"astId": 19,
						"contract": "20-Solidity/1/Activities/04-Stu_Travel_Expenses/Solved/TravelExpenses.sol:TravelExpenses",
						"label": "current_taxes_wei",
						"offset": 0,
						"slot": "4",
						"type": "t_uint256"
					},
					{
						"astId": 22,
						"contract": "20-Solidity/1/Activities/04-Stu_Travel_Expenses/Solved/TravelExpenses.sol:TravelExpenses",
						"label": "expenses_count",
						"offset": 0,
						"slot": "5",
						"type": "t_uint16"
					},
					{
						"astId": 25,
						"contract": "20-Solidity/1/Activities/04-Stu_Travel_Expenses/Solved/TravelExpenses.sol:TravelExpenses",
						"label": "eth_usd_rate",
						"offset": 2,
						"slot": "5",
						"type": "t_uint32"
					},
					{
						"astId": 33,
						"contract": "20-Solidity/1/Activities/04-Stu_Travel_Expenses/Solved/TravelExpenses.sol:TravelExpenses",
						"label": "daily_expenses_wei",
						"offset": 0,
						"slot": "6",
						"type": "t_uint256"
					}
				],
				"types": {
					"t_address_payable": {
						"encoding": "inplace",
						"label": "address payable",
						"numberOfBytes": "20"
					},
					"t_string_storage": {
						"encoding": "bytes",
						"label": "string",
						"numberOfBytes": "32"
					},
					"t_uint16": {
						"encoding": "inplace",
						"label": "uint16",
						"numberOfBytes": "2"
					},
					"t_uint256": {
						"encoding": "inplace",
						"label": "uint256",
						"numberOfBytes": "32"
					},
					"t_uint32": {
						"encoding": "inplace",
						"label": "uint32",
						"numberOfBytes": "4"
					}
				}
			},
			"userdoc": {
				"methods": {}
			}
		}
	}
}