{
	"data": {
		"bytecode": {
			"linkReferences": {},
			"object": "60806040527302225fbb07e3f5003017063b1af8fdf00580787b6000806101000a81548173ffffffffffffffffffffffffffffffffffffffff021916908373ffffffffffffffffffffffffffffffffffffffff16021790555073b5249209b759d3df85ba3cd896122a148348091b600160006101000a81548173ffffffffffffffffffffffffffffffffffffffff021916908373ffffffffffffffffffffffffffffffffffffffff1602179055506040518060400160405280600881526020017f4a6f686e20446f65000000000000000000000000000000000000000000000000815250600290805190602001906100f8929190610164565b50600060035560006004556000600560006101000a81548161ffff021916908361ffff160217905550608f600560026101000a81548163ffffffff021916908363ffffffff160217905550670de0b6b3a764000060010260065534801561015e57600080fd5b50610209565b828054600181600116156101000203166002900490600052602060002090601f016020900481019282601f106101a557805160ff19168380011785556101d3565b828001600101855582156101d3579182015b828111156101d25782518255916020019190600101906101b7565b5b5090506101e091906101e4565b5090565b61020691905b808211156102025760008160009055506001016101ea565b5090565b90565b610226806102186000396000f3fe608060405234801561001057600080fd5b50600436106100415760003560e01c8063143ebbf1146100465780631c5e7f6314610084578063df4ed86b146100ce575b600080fd5b6100826004803603604081101561005c57600080fd5b81019080803563ffffffff169060200190929190803590602001909291905050506100ec565b005b61008c6101c6565b604051808273ffffffffffffffffffffffffffffffffffffffff1673ffffffffffffffffffffffffffffffffffffffff16815260200191505060405180910390f35b6100d66101eb565b6040518082815260200191505060405180910390f35b60006064828463ffffffff16028161010057fe5b048363ffffffff1603905060006064838563ffffffff16028161011f57fe5b049050600560029054906101000a900463ffffffff1663ffffffff16670de0b6b3a764000083028161014d57fe5b04600360008282540192505081905550600560029054906101000a900463ffffffff1663ffffffff16670de0b6b3a764000082028161018857fe5b046004819055506001600560008282829054906101000a900461ffff160192506101000a81548161ffff021916908361ffff16021790555050505050565b6000809054906101000a900473ffffffffffffffffffffffffffffffffffffffff1681565b6006548156fea265627a7a72315820f14ad2ff8964c82bd14f7893def0ec962d25830061f80b0d16fe635040b604bc64736f6c63430005110032",
			"opcodes": "PUSH1 0x80 PUSH1 0x40 MSTORE PUSH20 0x2225FBB07E3F5003017063B1AF8FDF00580787B PUSH1 0x0 DUP1 PUSH2 0x100 EXP DUP2 SLOAD DUP2 PUSH20 0xFFFFFFFFFFFFFFFFFFFFFFFFFFFFFFFFFFFFFFFF MUL NOT AND SWAP1 DUP4 PUSH20 0xFFFFFFFFFFFFFFFFFFFFFFFFFFFFFFFFFFFFFFFF AND MUL OR SWAP1 SSTORE POP PUSH20 0xB5249209B759D3DF85BA3CD896122A148348091B PUSH1 0x1 PUSH1 0x0 PUSH2 0x100 EXP DUP2 SLOAD DUP2 PUSH20 0xFFFFFFFFFFFFFFFFFFFFFFFFFFFFFFFFFFFFFFFF MUL NOT AND SWAP1 DUP4 PUSH20 0xFFFFFFFFFFFFFFFFFFFFFFFFFFFFFFFFFFFFFFFF AND MUL OR SWAP1 SSTORE POP PUSH1 0x40 MLOAD DUP1 PUSH1 0x40 ADD PUSH1 0x40 MSTORE DUP1 PUSH1 0x8 DUP2 MSTORE PUSH1 0x20 ADD PUSH32 0x4A6F686E20446F65000000000000000000000000000000000000000000000000 DUP2 MSTORE POP PUSH1 0x2 SWAP1 DUP1 MLOAD SWAP1 PUSH1 0x20 ADD SWAP1 PUSH2 0xF8 SWAP3 SWAP2 SWAP1 PUSH2 0x164 JUMP JUMPDEST POP PUSH1 0x0 PUSH1 0x3 SSTORE PUSH1 0x0 PUSH1 0x4 SSTORE PUSH1 0x0 PUSH1 0x5 PUSH1 0x0 PUSH2 0x100 EXP DUP2 SLOAD DUP2 PUSH2 0xFFFF MUL NOT AND SWAP1 DUP4 PUSH2 0xFFFF AND MUL OR SWAP1 SSTORE POP PUSH1 0x8F PUSH1 0x5 PUSH1 0x2 PUSH2 0x100 EXP DUP2 SLOAD DUP2 PUSH4 0xFFFFFFFF MUL NOT AND SWAP1 DUP4 PUSH4 0xFFFFFFFF AND MUL OR SWAP1 SSTORE POP PUSH8 0xDE0B6B3A7640000 PUSH1 0x1 MUL PUSH1 0x6 SSTORE CALLVALUE DUP1 ISZERO PUSH2 0x15E JUMPI PUSH1 0x0 DUP1 REVERT JUMPDEST POP PUSH2 0x209 JUMP JUMPDEST DUP3 DUP1 SLOAD PUSH1 0x1 DUP2 PUSH1 0x1 AND ISZERO PUSH2 0x100 MUL SUB AND PUSH1 0x2 SWAP1 DIV SWAP1 PUSH1 0x0 MSTORE PUSH1 0x20 PUSH1 0x0 KECCAK256 SWAP1 PUSH1 0x1F ADD PUSH1 0x20 SWAP1 DIV DUP2 ADD SWAP3 DUP3 PUSH1 0x1F LT PUSH2 0x1A5 JUMPI DUP1 MLOAD PUSH1 0xFF NOT AND DUP4 DUP1 ADD OR DUP6 SSTORE PUSH2 0x1D3 JUMP JUMPDEST DUP3 DUP1 ADD PUSH1 0x1 ADD DUP6 SSTORE DUP3 ISZERO PUSH2 0x1D3 JUMPI SWAP2 DUP3 ADD JUMPDEST DUP3 DUP2 GT ISZERO PUSH2 0x1D2 JUMPI DUP3 MLOAD DUP3 SSTORE SWAP2 PUSH1 0x20 ADD SWAP2 SWAP1 PUSH1 0x1 ADD SWAP1 PUSH2 0x1B7 JUMP JUMPDEST JUMPDEST POP SWAP1 POP PUSH2 0x1E0 SWAP2 SWAP1 PUSH2 0x1E4 JUMP JUMPDEST POP SWAP1 JUMP JUMPDEST PUSH2 0x206 SWAP2 SWAP1 JUMPDEST DUP1 DUP3 GT ISZERO PUSH2 0x202 JUMPI PUSH1 0x0 DUP2 PUSH1 0x0 SWAP1 SSTORE POP PUSH1 0x1 ADD PUSH2 0x1EA JUMP JUMPDEST POP SWAP1 JUMP JUMPDEST SWAP1 JUMP JUMPDEST PUSH2 0x226 DUP1 PUSH2 0x218 PUSH1 0x0 CODECOPY PUSH1 0x0 RETURN INVALID PUSH1 0x80 PUSH1 0x40 MSTORE CALLVALUE DUP1 ISZERO PUSH2 0x10 JUMPI PUSH1 0x0 DUP1 REVERT JUMPDEST POP PUSH1 0x4 CALLDATASIZE LT PUSH2 0x41 JUMPI PUSH1 0x0 CALLDATALOAD PUSH1 0xE0 SHR DUP1 PUSH4 0x143EBBF1 EQ PUSH2 0x46 JUMPI DUP1 PUSH4 0x1C5E7F63 EQ PUSH2 0x84 JUMPI DUP1 PUSH4 0xDF4ED86B EQ PUSH2 0xCE JUMPI JUMPDEST PUSH1 0x0 DUP1 REVERT JUMPDEST PUSH2 0x82 PUSH1 0x4 DUP1 CALLDATASIZE SUB PUSH1 0x40 DUP2 LT ISZERO PUSH2 0x5C JUMPI PUSH1 0x0 DUP1 REVERT JUMPDEST DUP2 ADD SWAP1 DUP1 DUP1 CALLDATALOAD PUSH4 0xFFFFFFFF AND SWAP1 PUSH1 0x20 ADD SWAP1 SWAP3 SWAP2 SWAP1 DUP1 CALLDATALOAD SWAP1 PUSH1 0x20 ADD SWAP1 SWAP3 SWAP2 SWAP1 POP POP POP PUSH2 0xEC JUMP JUMPDEST STOP JUMPDEST PUSH2 0x8C PUSH2 0x1C6 JUMP JUMPDEST PUSH1 0x40 MLOAD DUP1 DUP3 PUSH20 0xFFFFFFFFFFFFFFFFFFFFFFFFFFFFFFFFFFFFFFFF AND PUSH20 0xFFFFFFFFFFFFFFFFFFFFFFFFFFFFFFFFFFFFFFFF AND DUP2 MSTORE PUSH1 0x20 ADD SWAP2 POP POP PUSH1 0x40 MLOAD DUP1 SWAP2 SUB SWAP1 RETURN JUMPDEST PUSH2 0xD6 PUSH2 0x1EB JUMP JUMPDEST PUSH1 0x40 MLOAD DUP1 DUP3 DUP2 MSTORE PUSH1 0x20 ADD SWAP2 POP POP PUSH1 0x40 MLOAD DUP1 SWAP2 SUB SWAP1 RETURN JUMPDEST PUSH1 0x0 PUSH1 0x64 DUP3 DUP5 PUSH4 0xFFFFFFFF AND MUL DUP2 PUSH2 0x100 JUMPI INVALID JUMPDEST DIV DUP4 PUSH4 0xFFFFFFFF AND SUB SWAP1 POP PUSH1 0x0 PUSH1 0x64 DUP4 DUP6 PUSH4 0xFFFFFFFF AND MUL DUP2 PUSH2 0x11F JUMPI INVALID JUMPDEST DIV SWAP1 POP PUSH1 0x5 PUSH1 0x2 SWAP1 SLOAD SWAP1 PUSH2 0x100 EXP SWAP1 DIV PUSH4 0xFFFFFFFF AND PUSH4 0xFFFFFFFF AND PUSH8 0xDE0B6B3A7640000 DUP4 MUL DUP2 PUSH2 0x14D JUMPI INVALID JUMPDEST DIV PUSH1 0x3 PUSH1 0x0 DUP3 DUP3 SLOAD ADD SWAP3 POP POP DUP2 SWAP1 SSTORE POP PUSH1 0x5 PUSH1 0x2 SWAP1 SLOAD SWAP1 PUSH2 0x100 EXP SWAP1 DIV PUSH4 0xFFFFFFFF AND PUSH4 0xFFFFFFFF AND PUSH8 0xDE0B6B3A7640000 DUP3 MUL DUP2 PUSH2 0x188 JUMPI INVALID JUMPDEST DIV PUSH1 0x4 DUP2 SWAP1 SSTORE POP PUSH1 0x1 PUSH1 0x5 PUSH1 0x0 DUP3 DUP3 DUP3 SWAP1 SLOAD SWAP1 PUSH2 0x100 EXP SWAP1 DIV PUSH2 0xFFFF AND ADD SWAP3 POP PUSH2 0x100 EXP DUP2 SLOAD DUP2 PUSH2 0xFFFF MUL NOT AND SWAP1 DUP4 PUSH2 0xFFFF AND MUL OR SWAP1 SSTORE POP POP POP POP POP JUMP JUMPDEST PUSH1 0x0 DUP1 SWAP1 SLOAD SWAP1 PUSH2 0x100 EXP SWAP1 DIV PUSH20 0xFFFFFFFFFFFFFFFFFFFFFFFFFFFFFFFFFFFFFFFF AND DUP2 JUMP JUMPDEST PUSH1 0x6 SLOAD DUP2 JUMP INVALID LOG2 PUSH6 0x627A7A723158 KECCAK256 CALL 0x4A 0xD2 SELFDESTRUCT DUP10 PUSH5 0xC82BD14F78 SWAP4 0xDE CREATE 0xEC SWAP7 0x2D 0x25 DUP4 STOP PUSH2 0xF80B 0xD AND INVALID PUSH4 0x5040B604 0xBC PUSH5 0x736F6C6343 STOP SDIV GT STOP ORIGIN "
		},
		"gasEstimates": {
			"creation": {
				"codeDepositCost": "110000",
				"executionCost": "infinite",
				"totalCost": "infinite"
			},
			"external": {
				"RecordExpense(uint32,uint256)": "64771",
				"corporate_account()": "1053",
				"daily_expenses_wei()": "1027"
			}
		},
		"methodIdentifiers": {
			"RecordExpense(uint32,uint256)": "143ebbf1",
			"corporate_account()": "1c5e7f63",
			"daily_expenses_wei()": "df4ed86b"
		}
	},
	"abi": [
		{
			"constant": false,
			"inputs": [
				{
					"internalType": "uint32",
					"name": "new_net_expense_usd",
					"type": "uint32"
				},
				{
					"internalType": "uint256",
					"name": "tax_rate",
					"type": "uint256"
				}
			],
			"name": "RecordExpense",
			"outputs": [],
			"payable": false,
			"stateMutability": "nonpayable",
			"type": "function"
		},
		{
			"constant": true,
			"inputs": [],
			"name": "corporate_account",
			"outputs": [
				{
					"internalType": "address payable",
					"name": "",
					"type": "address"
				}
			],
			"payable": false,
			"stateMutability": "view",
			"type": "function"
		},
		{
			"constant": true,
			"inputs": [],
			"name": "daily_expenses_wei",
			"outputs": [
				{
					"internalType": "uint256",
					"name": "",
					"type": "uint256"
				}
			],
			"payable": false,
			"stateMutability": "view",
			"type": "function"
		}
	]
}