{
	"21-Advanced-Solidity/1/05-Stu_XP_Token.sol": {
		"XP_Token": {
			"abi": [
				{
					"constant": true,
					"inputs": [],
					"name": "balance",
					"outputs": [
						{
							"internalType": "uint256",
							"name": "",
							"type": "uint256"
						}
					],
					"payable": false,
					"stateMutability": "view",
					"type": "function"
				},
				{
					"constant": true,
					"inputs": [],
					"name": "exchange_rate",
					"outputs": [
						{
							"internalType": "uint256",
							"name": "",
							"type": "uint256"
						}
					],
					"payable": false,
					"stateMutability": "view",
					"type": "function"
				},
				{
					"constant": false,
					"inputs": [
						{
							"internalType": "address",
							"name": "recipient",
							"type": "address"
						},
						{
							"internalType": "uint256",
							"name": "value",
							"type": "uint256"
						}
					],
					"name": "mint",
					"outputs": [],
					"payable": false,
					"stateMutability": "nonpayable",
					"type": "function"
				},
				{
					"constant": false,
					"inputs": [],
					"name": "purchase",
					"outputs": [],
					"payable": true,
					"stateMutability": "payable",
					"type": "function"
				},
				{
					"constant": true,
					"inputs": [],
					"name": "symbol",
					"outputs": [
						{
							"internalType": "string",
							"name": "",
							"type": "string"
						}
					],
					"payable": false,
					"stateMutability": "view",
					"type": "function"
				},
				{
					"constant": false,
					"inputs": [
						{
							"internalType": "address",
							"name": "recipient",
							"type": "address"
						},
						{
							"internalType": "uint256",
							"name": "value",
							"type": "uint256"
						}
					],
					"name": "transfer",
					"outputs": [],
					"payable": false,
					"stateMutability": "nonpayable",
					"type": "function"
				}
			],
			"devdoc": {
				"methods": {}
			},
			"evm": {
				"assembly": "    /* \"21-Advanced-Solidity/1/05-Stu_XP_Token.sol\":3436:5051  contract XP_Token {\r... */\n  mstore(0x40, 0x80)\n    /* \"21-Advanced-Solidity/1/05-Stu_XP_Token.sol\":3714:3724  msg.sender */\n  caller\n    /* \"21-Advanced-Solidity/1/05-Stu_XP_Token.sol\":3690:3724  address payable owner = msg.sender */\n  0x00\n  dup1\n  0x0100\n  exp\n  dup2\n  sload\n  dup2\n  0xffffffffffffffffffffffffffffffffffffffff\n  mul\n  not\n  and\n  swap1\n  dup4\n  0xffffffffffffffffffffffffffffffffffffffff\n  and\n  mul\n  or\n  swap1\n  sstore\n  pop\n    /* \"21-Advanced-Solidity/1/05-Stu_XP_Token.sol\":3731:3759  string public symbol = \"XPT\" */\n  mload(0x40)\n  dup1\n  0x40\n  add\n  0x40\n  mstore\n  dup1\n  0x03\n  dup2\n  mstore\n  0x20\n  add\n  0x5850540000000000000000000000000000000000000000000000000000000000\n  dup2\n  mstore\n  pop\n  0x01\n  swap1\n  dup1\n  mload\n  swap1\n  0x20\n  add\n  swap1\n  tag_1\n  swap3\n  swap2\n  swap1\n  tag_2\n  jump\t// in\ntag_1:\n  pop\n    /* \"21-Advanced-Solidity/1/05-Stu_XP_Token.sol\":3794:3797  100 */\n  0x64\n    /* \"21-Advanced-Solidity/1/05-Stu_XP_Token.sol\":3766:3797  uint public exchange_rate = 100 */\n  0x02\n  sstore\n    /* \"21-Advanced-Solidity/1/05-Stu_XP_Token.sol\":3436:5051  contract XP_Token {\r... */\n  callvalue\n    /* \"--CODEGEN--\":8:17   */\n  dup1\n    /* \"--CODEGEN--\":5:7   */\n  iszero\n  tag_3\n  jumpi\n    /* \"--CODEGEN--\":30:31   */\n  0x00\n    /* \"--CODEGEN--\":27:28   */\n  dup1\n    /* \"--CODEGEN--\":20:32   */\n  revert\n    /* \"--CODEGEN--\":5:7   */\ntag_3:\n    /* \"21-Advanced-Solidity/1/05-Stu_XP_Token.sol\":3436:5051  contract XP_Token {\r... */\n  pop\n  jump(tag_4)\ntag_2:\n  dup3\n  dup1\n  sload\n  0x01\n  dup2\n  0x01\n  and\n  iszero\n  0x0100\n  mul\n  sub\n  and\n  0x02\n  swap1\n  div\n  swap1\n  0x00\n  mstore\n  keccak256(0x00, 0x20)\n  swap1\n  0x1f\n  add\n  0x20\n  swap1\n  div\n  dup2\n  add\n  swap3\n  dup3\n  0x1f\n  lt\n  tag_6\n  jumpi\n  dup1\n  mload\n  not(0xff)\n  and\n  dup4\n  dup1\n  add\n  or\n  dup6\n  sstore\n  jump(tag_5)\ntag_6:\n  dup3\n  dup1\n  add\n  0x01\n  add\n  dup6\n  sstore\n  dup3\n  iszero\n  tag_5\n  jumpi\n  swap2\n  dup3\n  add\ntag_7:\n  dup3\n  dup2\n  gt\n  iszero\n  tag_8\n  jumpi\n  dup3\n  mload\n  dup3\n  sstore\n  swap2\n  0x20\n  add\n  swap2\n  swap1\n  0x01\n  add\n  swap1\n  jump(tag_7)\ntag_8:\ntag_5:\n  pop\n  swap1\n  pop\n  tag_9\n  swap2\n  swap1\n  tag_10\n  jump\t// in\ntag_9:\n  pop\n  swap1\n  jump\t// out\ntag_10:\n  tag_11\n  swap2\n  swap1\ntag_12:\n  dup1\n  dup3\n  gt\n  iszero\n  tag_13\n  jumpi\n  0x00\n  dup2\n  0x00\n  swap1\n  sstore\n  pop\n  0x01\n  add\n  jump(tag_12)\ntag_13:\n  pop\n  swap1\n  jump\ntag_11:\n  swap1\n  jump\t// out\ntag_4:\n  dataSize(sub_0)\n  dup1\n  dataOffset(sub_0)\n  0x00\n  codecopy\n  0x00\n  return\nstop\n\nsub_0: assembly {\n        /* \"21-Advanced-Solidity/1/05-Stu_XP_Token.sol\":3436:5051  contract XP_Token {\r... */\n      mstore(0x40, 0x80)\n      jumpi(tag_1, lt(calldatasize, 0x04))\n      shr(0xe0, calldataload(0x00))\n      dup1\n      0x171ef0b2\n      eq\n      tag_2\n      jumpi\n      dup1\n      0x40c10f19\n      eq\n      tag_3\n      jumpi\n      dup1\n      0x64edfbf0\n      eq\n      tag_4\n      jumpi\n      dup1\n      0x95d89b41\n      eq\n      tag_5\n      jumpi\n      dup1\n      0xa9059cbb\n      eq\n      tag_6\n      jumpi\n      dup1\n      0xb69ef8a8\n      eq\n      tag_7\n      jumpi\n    tag_1:\n      0x00\n      dup1\n      revert\n        /* \"21-Advanced-Solidity/1/05-Stu_XP_Token.sol\":3766:3797  uint public exchange_rate = 100 */\n    tag_2:\n      callvalue\n        /* \"--CODEGEN--\":8:17   */\n      dup1\n        /* \"--CODEGEN--\":5:7   */\n      iszero\n      tag_8\n      jumpi\n        /* \"--CODEGEN--\":30:31   */\n      0x00\n        /* \"--CODEGEN--\":27:28   */\n      dup1\n        /* \"--CODEGEN--\":20:32   */\n      revert\n        /* \"--CODEGEN--\":5:7   */\n    tag_8:\n        /* \"21-Advanced-Solidity/1/05-Stu_XP_Token.sol\":3766:3797  uint public exchange_rate = 100 */\n      pop\n      tag_9\n      tag_10\n      jump\t// in\n    tag_9:\n      mload(0x40)\n      dup1\n      dup3\n      dup2\n      mstore\n      0x20\n      add\n      swap2\n      pop\n      pop\n      mload(0x40)\n      dup1\n      swap2\n      sub\n      swap1\n      return\n        /* \"21-Advanced-Solidity/1/05-Stu_XP_Token.sol\":4848:5039  function mint(address recipient, uint value) public{\r... */\n    tag_3:\n      callvalue\n        /* \"--CODEGEN--\":8:17   */\n      dup1\n        /* \"--CODEGEN--\":5:7   */\n      iszero\n      tag_11\n      jumpi\n        /* \"--CODEGEN--\":30:31   */\n      0x00\n        /* \"--CODEGEN--\":27:28   */\n      dup1\n        /* \"--CODEGEN--\":20:32   */\n      revert\n        /* \"--CODEGEN--\":5:7   */\n    tag_11:\n        /* \"21-Advanced-Solidity/1/05-Stu_XP_Token.sol\":4848:5039  function mint(address recipient, uint value) public{\r... */\n      pop\n      tag_12\n      0x04\n      dup1\n      calldatasize\n      sub\n        /* \"--CODEGEN--\":13:15   */\n      0x40\n        /* \"--CODEGEN--\":8:11   */\n      dup2\n        /* \"--CODEGEN--\":5:16   */\n      lt\n        /* \"--CODEGEN--\":2:4   */\n      iszero\n      tag_13\n      jumpi\n        /* \"--CODEGEN--\":29:30   */\n      0x00\n        /* \"--CODEGEN--\":26:27   */\n      dup1\n        /* \"--CODEGEN--\":19:31   */\n      revert\n        /* \"--CODEGEN--\":2:4   */\n    tag_13:\n        /* \"21-Advanced-Solidity/1/05-Stu_XP_Token.sol\":4848:5039  function mint(address recipient, uint value) public{\r... */\n      dup2\n      add\n      swap1\n      dup1\n      dup1\n      calldataload\n      0xffffffffffffffffffffffffffffffffffffffff\n      and\n      swap1\n      0x20\n      add\n      swap1\n      swap3\n      swap2\n      swap1\n      dup1\n      calldataload\n      swap1\n      0x20\n      add\n      swap1\n      swap3\n      swap2\n      swap1\n      pop\n      pop\n      pop\n      tag_14\n      jump\t// in\n    tag_12:\n      stop\n        /* \"21-Advanced-Solidity/1/05-Stu_XP_Token.sol\":4543:4743  function purchase() public payable {\r... */\n    tag_4:\n      tag_15\n      tag_16\n      jump\t// in\n    tag_15:\n      stop\n        /* \"21-Advanced-Solidity/1/05-Stu_XP_Token.sol\":3731:3759  string public symbol = \"XPT\" */\n    tag_5:\n      callvalue\n        /* \"--CODEGEN--\":8:17   */\n      dup1\n        /* \"--CODEGEN--\":5:7   */\n      iszero\n      tag_17\n      jumpi\n        /* \"--CODEGEN--\":30:31   */\n      0x00\n        /* \"--CODEGEN--\":27:28   */\n      dup1\n        /* \"--CODEGEN--\":20:32   */\n      revert\n        /* \"--CODEGEN--\":5:7   */\n    tag_17:\n        /* \"21-Advanced-Solidity/1/05-Stu_XP_Token.sol\":3731:3759  string public symbol = \"XPT\" */\n      pop\n      tag_18\n      tag_19\n      jump\t// in\n    tag_18:\n      mload(0x40)\n      dup1\n      dup1\n      0x20\n      add\n      dup3\n      dup2\n      sub\n      dup3\n      mstore\n      dup4\n      dup2\n      dup2\n      mload\n      dup2\n      mstore\n      0x20\n      add\n      swap2\n      pop\n      dup1\n      mload\n      swap1\n      0x20\n      add\n      swap1\n      dup1\n      dup4\n      dup4\n        /* \"--CODEGEN--\":23:24   */\n      0x00\n        /* \"--CODEGEN--\":8:108   */\n    tag_20:\n        /* \"--CODEGEN--\":33:36   */\n      dup4\n        /* \"--CODEGEN--\":30:31   */\n      dup2\n        /* \"--CODEGEN--\":27:37   */\n      lt\n        /* \"--CODEGEN--\":8:108   */\n      iszero\n      tag_22\n      jumpi\n        /* \"--CODEGEN--\":99:100   */\n      dup1\n        /* \"--CODEGEN--\":94:97   */\n      dup3\n        /* \"--CODEGEN--\":90:101   */\n      add\n        /* \"--CODEGEN--\":84:102   */\n      mload\n        /* \"--CODEGEN--\":80:81   */\n      dup2\n        /* \"--CODEGEN--\":75:78   */\n      dup5\n        /* \"--CODEGEN--\":71:82   */\n      add\n        /* \"--CODEGEN--\":64:103   */\n      mstore\n        /* \"--CODEGEN--\":52:54   */\n      0x20\n        /* \"--CODEGEN--\":49:50   */\n      dup2\n        /* \"--CODEGEN--\":45:55   */\n      add\n        /* \"--CODEGEN--\":40:55   */\n      swap1\n      pop\n        /* \"--CODEGEN--\":8:108   */\n      jump(tag_20)\n    tag_22:\n        /* \"--CODEGEN--\":12:26   */\n      pop\n        /* \"21-Advanced-Solidity/1/05-Stu_XP_Token.sol\":3731:3759  string public symbol = \"XPT\" */\n      pop\n      pop\n      pop\n      swap1\n      pop\n      swap1\n      dup2\n      add\n      swap1\n      0x1f\n      and\n      dup1\n      iszero\n      tag_23\n      jumpi\n      dup1\n      dup3\n      sub\n      dup1\n      mload\n      0x01\n      dup4\n      0x20\n      sub\n      0x0100\n      exp\n      sub\n      not\n      and\n      dup2\n      mstore\n      0x20\n      add\n      swap2\n      pop\n    tag_23:\n      pop\n      swap3\n      pop\n      pop\n      pop\n      mload(0x40)\n      dup1\n      swap2\n      sub\n      swap1\n      return\n        /* \"21-Advanced-Solidity/1/05-Stu_XP_Token.sol\":4223:4426  function transfer (address recipient, uint value) public {\r... */\n    tag_6:\n      callvalue\n        /* \"--CODEGEN--\":8:17   */\n      dup1\n        /* \"--CODEGEN--\":5:7   */\n      iszero\n      tag_24\n      jumpi\n        /* \"--CODEGEN--\":30:31   */\n      0x00\n        /* \"--CODEGEN--\":27:28   */\n      dup1\n        /* \"--CODEGEN--\":20:32   */\n      revert\n        /* \"--CODEGEN--\":5:7   */\n    tag_24:\n        /* \"21-Advanced-Solidity/1/05-Stu_XP_Token.sol\":4223:4426  function transfer (address recipient, uint value) public {\r... */\n      pop\n      tag_25\n      0x04\n      dup1\n      calldatasize\n      sub\n        /* \"--CODEGEN--\":13:15   */\n      0x40\n        /* \"--CODEGEN--\":8:11   */\n      dup2\n        /* \"--CODEGEN--\":5:16   */\n      lt\n        /* \"--CODEGEN--\":2:4   */\n      iszero\n      tag_26\n      jumpi\n        /* \"--CODEGEN--\":29:30   */\n      0x00\n        /* \"--CODEGEN--\":26:27   */\n      dup1\n        /* \"--CODEGEN--\":19:31   */\n      revert\n        /* \"--CODEGEN--\":2:4   */\n    tag_26:\n        /* \"21-Advanced-Solidity/1/05-Stu_XP_Token.sol\":4223:4426  function transfer (address recipient, uint value) public {\r... */\n      dup2\n      add\n      swap1\n      dup1\n      dup1\n      calldataload\n      0xffffffffffffffffffffffffffffffffffffffff\n      and\n      swap1\n      0x20\n      add\n      swap1\n      swap3\n      swap2\n      swap1\n      dup1\n      calldataload\n      swap1\n      0x20\n      add\n      swap1\n      swap3\n      swap2\n      swap1\n      pop\n      pop\n      pop\n      tag_27\n      jump\t// in\n    tag_25:\n      stop\n        /* \"21-Advanced-Solidity/1/05-Stu_XP_Token.sol\":4022:4112  function balance() public view returns(uint){\r... */\n    tag_7:\n      callvalue\n        /* \"--CODEGEN--\":8:17   */\n      dup1\n        /* \"--CODEGEN--\":5:7   */\n      iszero\n      tag_28\n      jumpi\n        /* \"--CODEGEN--\":30:31   */\n      0x00\n        /* \"--CODEGEN--\":27:28   */\n      dup1\n        /* \"--CODEGEN--\":20:32   */\n      revert\n        /* \"--CODEGEN--\":5:7   */\n    tag_28:\n        /* \"21-Advanced-Solidity/1/05-Stu_XP_Token.sol\":4022:4112  function balance() public view returns(uint){\r... */\n      pop\n      tag_29\n      tag_30\n      jump\t// in\n    tag_29:\n      mload(0x40)\n      dup1\n      dup3\n      dup2\n      mstore\n      0x20\n      add\n      swap2\n      pop\n      pop\n      mload(0x40)\n      dup1\n      swap2\n      sub\n      swap1\n      return\n        /* \"21-Advanced-Solidity/1/05-Stu_XP_Token.sol\":3766:3797  uint public exchange_rate = 100 */\n    tag_10:\n      sload(0x02)\n      dup2\n      jump\t// out\n        /* \"21-Advanced-Solidity/1/05-Stu_XP_Token.sol\":4848:5039  function mint(address recipient, uint value) public{\r... */\n    tag_14:\n        /* \"21-Advanced-Solidity/1/05-Stu_XP_Token.sol\":4933:4938  owner */\n      0x00\n      dup1\n      swap1\n      sload\n      swap1\n      0x0100\n      exp\n      swap1\n      div\n      0xffffffffffffffffffffffffffffffffffffffff\n      and\n        /* \"21-Advanced-Solidity/1/05-Stu_XP_Token.sol\":4919:4938  msg.sender == owner */\n      0xffffffffffffffffffffffffffffffffffffffff\n      and\n        /* \"21-Advanced-Solidity/1/05-Stu_XP_Token.sol\":4919:4929  msg.sender */\n      caller\n        /* \"21-Advanced-Solidity/1/05-Stu_XP_Token.sol\":4919:4938  msg.sender == owner */\n      0xffffffffffffffffffffffffffffffffffffffff\n      and\n      eq\n        /* \"21-Advanced-Solidity/1/05-Stu_XP_Token.sol\":4910:4966  require (msg.sender == owner,\"You are not the owner!!!\") */\n      tag_32\n      jumpi\n      mload(0x40)\n      0x08c379a000000000000000000000000000000000000000000000000000000000\n      dup2\n      mstore\n      0x04\n      add\n      dup1\n      dup1\n      0x20\n      add\n      dup3\n      dup2\n      sub\n      dup3\n      mstore\n      0x18\n      dup2\n      mstore\n      0x20\n      add\n      dup1\n      0x596f7520617265206e6f7420746865206f776e65722121210000000000000000\n      dup2\n      mstore\n      pop\n      0x20\n      add\n      swap2\n      pop\n      pop\n      mload(0x40)\n      dup1\n      swap2\n      sub\n      swap1\n      revert\n    tag_32:\n        /* \"21-Advanced-Solidity/1/05-Stu_XP_Token.sol\":5001:5031  balances[recipient].add(value) */\n      tag_33\n        /* \"21-Advanced-Solidity/1/05-Stu_XP_Token.sol\":5025:5030  value */\n      dup2\n        /* \"21-Advanced-Solidity/1/05-Stu_XP_Token.sol\":5001:5009  balances */\n      0x03\n        /* \"21-Advanced-Solidity/1/05-Stu_XP_Token.sol\":5001:5020  balances[recipient] */\n      0x00\n        /* \"21-Advanced-Solidity/1/05-Stu_XP_Token.sol\":5010:5019  recipient */\n      dup6\n        /* \"21-Advanced-Solidity/1/05-Stu_XP_Token.sol\":5001:5020  balances[recipient] */\n      0xffffffffffffffffffffffffffffffffffffffff\n      and\n      0xffffffffffffffffffffffffffffffffffffffff\n      and\n      dup2\n      mstore\n      0x20\n      add\n      swap1\n      dup2\n      mstore\n      0x20\n      add\n      0x00\n      keccak256\n      sload\n        /* \"21-Advanced-Solidity/1/05-Stu_XP_Token.sol\":5001:5024  balances[recipient].add */\n      tag_34\n      swap1\n        /* \"21-Advanced-Solidity/1/05-Stu_XP_Token.sol\":5001:5031  balances[recipient].add(value) */\n      swap2\n      swap1\n      0xffffffff\n      and\n      jump\t// in\n    tag_33:\n        /* \"21-Advanced-Solidity/1/05-Stu_XP_Token.sol\":4979:4987  balances */\n      0x03\n        /* \"21-Advanced-Solidity/1/05-Stu_XP_Token.sol\":4979:4998  balances[recipient] */\n      0x00\n        /* \"21-Advanced-Solidity/1/05-Stu_XP_Token.sol\":4988:4997  recipient */\n      dup5\n        /* \"21-Advanced-Solidity/1/05-Stu_XP_Token.sol\":4979:4998  balances[recipient] */\n      0xffffffffffffffffffffffffffffffffffffffff\n      and\n      0xffffffffffffffffffffffffffffffffffffffff\n      and\n      dup2\n      mstore\n      0x20\n      add\n      swap1\n      dup2\n      mstore\n      0x20\n      add\n      0x00\n      keccak256\n        /* \"21-Advanced-Solidity/1/05-Stu_XP_Token.sol\":4979:5031  balances[recipient] = balances[recipient].add(value) */\n      dup2\n      swap1\n      sstore\n      pop\n        /* \"21-Advanced-Solidity/1/05-Stu_XP_Token.sol\":4848:5039  function mint(address recipient, uint value) public{\r... */\n      pop\n      pop\n      jump\t// out\n        /* \"21-Advanced-Solidity/1/05-Stu_XP_Token.sol\":4543:4743  function purchase() public payable {\r... */\n    tag_16:\n        /* \"21-Advanced-Solidity/1/05-Stu_XP_Token.sol\":4589:4600  uint amount */\n      0x00\n        /* \"21-Advanced-Solidity/1/05-Stu_XP_Token.sol\":4603:4631  msg.value.mul(exchange_rate) */\n      tag_36\n        /* \"21-Advanced-Solidity/1/05-Stu_XP_Token.sol\":4617:4630  exchange_rate */\n      sload(0x02)\n        /* \"21-Advanced-Solidity/1/05-Stu_XP_Token.sol\":4603:4612  msg.value */\n      callvalue\n        /* \"21-Advanced-Solidity/1/05-Stu_XP_Token.sol\":4603:4616  msg.value.mul */\n      tag_37\n      swap1\n        /* \"21-Advanced-Solidity/1/05-Stu_XP_Token.sol\":4603:4631  msg.value.mul(exchange_rate) */\n      swap2\n      swap1\n      0xffffffff\n      and\n      jump\t// in\n    tag_36:\n        /* \"21-Advanced-Solidity/1/05-Stu_XP_Token.sol\":4589:4631  uint amount = msg.value.mul(exchange_rate) */\n      swap1\n      pop\n        /* \"21-Advanced-Solidity/1/05-Stu_XP_Token.sol\":4667:4699  balances[msg.sender].add(amount) */\n      tag_38\n        /* \"21-Advanced-Solidity/1/05-Stu_XP_Token.sol\":4692:4698  amount */\n      dup2\n        /* \"21-Advanced-Solidity/1/05-Stu_XP_Token.sol\":4667:4675  balances */\n      0x03\n        /* \"21-Advanced-Solidity/1/05-Stu_XP_Token.sol\":4667:4687  balances[msg.sender] */\n      0x00\n        /* \"21-Advanced-Solidity/1/05-Stu_XP_Token.sol\":4676:4686  msg.sender */\n      caller\n        /* \"21-Advanced-Solidity/1/05-Stu_XP_Token.sol\":4667:4687  balances[msg.sender] */\n      0xffffffffffffffffffffffffffffffffffffffff\n      and\n      0xffffffffffffffffffffffffffffffffffffffff\n      and\n      dup2\n      mstore\n      0x20\n      add\n      swap1\n      dup2\n      mstore\n      0x20\n      add\n      0x00\n      keccak256\n      sload\n        /* \"21-Advanced-Solidity/1/05-Stu_XP_Token.sol\":4667:4691  balances[msg.sender].add */\n      tag_34\n      swap1\n        /* \"21-Advanced-Solidity/1/05-Stu_XP_Token.sol\":4667:4699  balances[msg.sender].add(amount) */\n      swap2\n      swap1\n      0xffffffff\n      and\n      jump\t// in\n    tag_38:\n        /* \"21-Advanced-Solidity/1/05-Stu_XP_Token.sol\":4644:4652  balances */\n      0x03\n        /* \"21-Advanced-Solidity/1/05-Stu_XP_Token.sol\":4644:4664  balances[msg.sender] */\n      0x00\n        /* \"21-Advanced-Solidity/1/05-Stu_XP_Token.sol\":4653:4663  msg.sender */\n      caller\n        /* \"21-Advanced-Solidity/1/05-Stu_XP_Token.sol\":4644:4664  balances[msg.sender] */\n      0xffffffffffffffffffffffffffffffffffffffff\n      and\n      0xffffffffffffffffffffffffffffffffffffffff\n      and\n      dup2\n      mstore\n      0x20\n      add\n      swap1\n      dup2\n      mstore\n      0x20\n      add\n      0x00\n      keccak256\n        /* \"21-Advanced-Solidity/1/05-Stu_XP_Token.sol\":4644:4699  balances[msg.sender] = balances[msg.sender].add(amount) */\n      dup2\n      swap1\n      sstore\n      pop\n        /* \"21-Advanced-Solidity/1/05-Stu_XP_Token.sol\":4710:4715  owner */\n      0x00\n      dup1\n      swap1\n      sload\n      swap1\n      0x0100\n      exp\n      swap1\n      div\n      0xffffffffffffffffffffffffffffffffffffffff\n      and\n        /* \"21-Advanced-Solidity/1/05-Stu_XP_Token.sol\":4710:4724  owner.transfer */\n      0xffffffffffffffffffffffffffffffffffffffff\n      and\n        /* \"21-Advanced-Solidity/1/05-Stu_XP_Token.sol\":4710:4735  owner.transfer(msg.value) */\n      0x08fc\n        /* \"21-Advanced-Solidity/1/05-Stu_XP_Token.sol\":4725:4734  msg.value */\n      callvalue\n        /* \"21-Advanced-Solidity/1/05-Stu_XP_Token.sol\":4710:4735  owner.transfer(msg.value) */\n      swap1\n      dup2\n      iszero\n      mul\n      swap1\n      mload(0x40)\n      0x00\n      mload(0x40)\n      dup1\n      dup4\n      sub\n      dup2\n      dup6\n      dup9\n      dup9\n      call\n      swap4\n      pop\n      pop\n      pop\n      pop\n      iszero\n        /* \"--CODEGEN--\":8:17   */\n      dup1\n        /* \"--CODEGEN--\":5:7   */\n      iszero\n      tag_39\n      jumpi\n        /* \"--CODEGEN--\":45:61   */\n      returndatasize\n        /* \"--CODEGEN--\":42:43   */\n      0x00\n        /* \"--CODEGEN--\":39:40   */\n      dup1\n        /* \"--CODEGEN--\":24:62   */\n      returndatacopy\n        /* \"--CODEGEN--\":77:93   */\n      returndatasize\n        /* \"--CODEGEN--\":74:75   */\n      0x00\n        /* \"--CODEGEN--\":67:94   */\n      revert\n        /* \"--CODEGEN--\":5:7   */\n    tag_39:\n        /* \"21-Advanced-Solidity/1/05-Stu_XP_Token.sol\":4710:4735  owner.transfer(msg.value) */\n      pop\n        /* \"21-Advanced-Solidity/1/05-Stu_XP_Token.sol\":4543:4743  function purchase() public payable {\r... */\n      pop\n      jump\t// out\n        /* \"21-Advanced-Solidity/1/05-Stu_XP_Token.sol\":3731:3759  string public symbol = \"XPT\" */\n    tag_19:\n      0x01\n      dup1\n      sload\n      0x01\n      dup2\n      0x01\n      and\n      iszero\n      0x0100\n      mul\n      sub\n      and\n      0x02\n      swap1\n      div\n      dup1\n      0x1f\n      add\n      0x20\n      dup1\n      swap2\n      div\n      mul\n      0x20\n      add\n      mload(0x40)\n      swap1\n      dup2\n      add\n      0x40\n      mstore\n      dup1\n      swap3\n      swap2\n      swap1\n      dup2\n      dup2\n      mstore\n      0x20\n      add\n      dup3\n      dup1\n      sload\n      0x01\n      dup2\n      0x01\n      and\n      iszero\n      0x0100\n      mul\n      sub\n      and\n      0x02\n      swap1\n      div\n      dup1\n      iszero\n      tag_40\n      jumpi\n      dup1\n      0x1f\n      lt\n      tag_41\n      jumpi\n      0x0100\n      dup1\n      dup4\n      sload\n      div\n      mul\n      dup4\n      mstore\n      swap2\n      0x20\n      add\n      swap2\n      jump(tag_40)\n    tag_41:\n      dup3\n      add\n      swap2\n      swap1\n      0x00\n      mstore\n      keccak256(0x00, 0x20)\n      swap1\n    tag_42:\n      dup2\n      sload\n      dup2\n      mstore\n      swap1\n      0x01\n      add\n      swap1\n      0x20\n      add\n      dup1\n      dup4\n      gt\n      tag_42\n      jumpi\n      dup3\n      swap1\n      sub\n      0x1f\n      and\n      dup3\n      add\n      swap2\n    tag_40:\n      pop\n      pop\n      pop\n      pop\n      pop\n      dup2\n      jump\t// out\n        /* \"21-Advanced-Solidity/1/05-Stu_XP_Token.sol\":4223:4426  function transfer (address recipient, uint value) public {\r... */\n    tag_27:\n        /* \"21-Advanced-Solidity/1/05-Stu_XP_Token.sol\":4314:4345  balances[msg.sender].sub(value) */\n      tag_44\n        /* \"21-Advanced-Solidity/1/05-Stu_XP_Token.sol\":4339:4344  value */\n      dup2\n        /* \"21-Advanced-Solidity/1/05-Stu_XP_Token.sol\":4314:4322  balances */\n      0x03\n        /* \"21-Advanced-Solidity/1/05-Stu_XP_Token.sol\":4314:4334  balances[msg.sender] */\n      0x00\n        /* \"21-Advanced-Solidity/1/05-Stu_XP_Token.sol\":4323:4333  msg.sender */\n      caller\n        /* \"21-Advanced-Solidity/1/05-Stu_XP_Token.sol\":4314:4334  balances[msg.sender] */\n      0xffffffffffffffffffffffffffffffffffffffff\n      and\n      0xffffffffffffffffffffffffffffffffffffffff\n      and\n      dup2\n      mstore\n      0x20\n      add\n      swap1\n      dup2\n      mstore\n      0x20\n      add\n      0x00\n      keccak256\n      sload\n        /* \"21-Advanced-Solidity/1/05-Stu_XP_Token.sol\":4314:4338  balances[msg.sender].sub */\n      tag_45\n      swap1\n        /* \"21-Advanced-Solidity/1/05-Stu_XP_Token.sol\":4314:4345  balances[msg.sender].sub(value) */\n      swap2\n      swap1\n      0xffffffff\n      and\n      jump\t// in\n    tag_44:\n        /* \"21-Advanced-Solidity/1/05-Stu_XP_Token.sol\":4291:4299  balances */\n      0x03\n        /* \"21-Advanced-Solidity/1/05-Stu_XP_Token.sol\":4291:4311  balances[msg.sender] */\n      0x00\n        /* \"21-Advanced-Solidity/1/05-Stu_XP_Token.sol\":4300:4310  msg.sender */\n      caller\n        /* \"21-Advanced-Solidity/1/05-Stu_XP_Token.sol\":4291:4311  balances[msg.sender] */\n      0xffffffffffffffffffffffffffffffffffffffff\n      and\n      0xffffffffffffffffffffffffffffffffffffffff\n      and\n      dup2\n      mstore\n      0x20\n      add\n      swap1\n      dup2\n      mstore\n      0x20\n      add\n      0x00\n      keccak256\n        /* \"21-Advanced-Solidity/1/05-Stu_XP_Token.sol\":4291:4345  balances[msg.sender] = balances[msg.sender].sub(value) */\n      dup2\n      swap1\n      sstore\n      pop\n        /* \"21-Advanced-Solidity/1/05-Stu_XP_Token.sol\":4378:4408  balances[recipient].add(value) */\n      tag_46\n        /* \"21-Advanced-Solidity/1/05-Stu_XP_Token.sol\":4402:4407  value */\n      dup2\n        /* \"21-Advanced-Solidity/1/05-Stu_XP_Token.sol\":4378:4386  balances */\n      0x03\n        /* \"21-Advanced-Solidity/1/05-Stu_XP_Token.sol\":4378:4397  balances[recipient] */\n      0x00\n        /* \"21-Advanced-Solidity/1/05-Stu_XP_Token.sol\":4387:4396  recipient */\n      dup6\n        /* \"21-Advanced-Solidity/1/05-Stu_XP_Token.sol\":4378:4397  balances[recipient] */\n      0xffffffffffffffffffffffffffffffffffffffff\n      and\n      0xffffffffffffffffffffffffffffffffffffffff\n      and\n      dup2\n      mstore\n      0x20\n      add\n      swap1\n      dup2\n      mstore\n      0x20\n      add\n      0x00\n      keccak256\n      sload\n        /* \"21-Advanced-Solidity/1/05-Stu_XP_Token.sol\":4378:4401  balances[recipient].add */\n      tag_34\n      swap1\n        /* \"21-Advanced-Solidity/1/05-Stu_XP_Token.sol\":4378:4408  balances[recipient].add(value) */\n      swap2\n      swap1\n      0xffffffff\n      and\n      jump\t// in\n    tag_46:\n        /* \"21-Advanced-Solidity/1/05-Stu_XP_Token.sol\":4356:4364  balances */\n      0x03\n        /* \"21-Advanced-Solidity/1/05-Stu_XP_Token.sol\":4356:4375  balances[recipient] */\n      0x00\n        /* \"21-Advanced-Solidity/1/05-Stu_XP_Token.sol\":4365:4374  recipient */\n      dup5\n        /* \"21-Advanced-Solidity/1/05-Stu_XP_Token.sol\":4356:4375  balances[recipient] */\n      0xffffffffffffffffffffffffffffffffffffffff\n      and\n      0xffffffffffffffffffffffffffffffffffffffff\n      and\n      dup2\n      mstore\n      0x20\n      add\n      swap1\n      dup2\n      mstore\n      0x20\n      add\n      0x00\n      keccak256\n        /* \"21-Advanced-Solidity/1/05-Stu_XP_Token.sol\":4356:4408  balances[recipient] = balances[recipient].add(value) */\n      dup2\n      swap1\n      sstore\n      pop\n        /* \"21-Advanced-Solidity/1/05-Stu_XP_Token.sol\":4223:4426  function transfer (address recipient, uint value) public {\r... */\n      pop\n      pop\n      jump\t// out\n        /* \"21-Advanced-Solidity/1/05-Stu_XP_Token.sol\":4022:4112  function balance() public view returns(uint){\r... */\n    tag_30:\n        /* \"21-Advanced-Solidity/1/05-Stu_XP_Token.sol\":4061:4065  uint */\n      0x00\n        /* \"21-Advanced-Solidity/1/05-Stu_XP_Token.sol\":4084:4092  balances */\n      0x03\n        /* \"21-Advanced-Solidity/1/05-Stu_XP_Token.sol\":4084:4104  balances[msg.sender] */\n      0x00\n        /* \"21-Advanced-Solidity/1/05-Stu_XP_Token.sol\":4093:4103  msg.sender */\n      caller\n        /* \"21-Advanced-Solidity/1/05-Stu_XP_Token.sol\":4084:4104  balances[msg.sender] */\n      0xffffffffffffffffffffffffffffffffffffffff\n      and\n      0xffffffffffffffffffffffffffffffffffffffff\n      and\n      dup2\n      mstore\n      0x20\n      add\n      swap1\n      dup2\n      mstore\n      0x20\n      add\n      0x00\n      keccak256\n      sload\n        /* \"21-Advanced-Solidity/1/05-Stu_XP_Token.sol\":4077:4104  return balances[msg.sender] */\n      swap1\n      pop\n        /* \"21-Advanced-Solidity/1/05-Stu_XP_Token.sol\":4022:4112  function balance() public view returns(uint){\r... */\n      swap1\n      jump\t// out\n        /* \"https://github.com/OpenZeppelin/openzeppelin-contracts/blob/release-v2.5.0/contracts/math/SafeMath.sol\":834:1010  function add(uint256 a, uint256 b) internal pure returns (uint256) {... */\n    tag_34:\n        /* \"https://github.com/OpenZeppelin/openzeppelin-contracts/blob/release-v2.5.0/contracts/math/SafeMath.sol\":892:899  uint256 */\n      0x00\n        /* \"https://github.com/OpenZeppelin/openzeppelin-contracts/blob/release-v2.5.0/contracts/math/SafeMath.sol\":911:920  uint256 c */\n      dup1\n        /* \"https://github.com/OpenZeppelin/openzeppelin-contracts/blob/release-v2.5.0/contracts/math/SafeMath.sol\":927:928  b */\n      dup3\n        /* \"https://github.com/OpenZeppelin/openzeppelin-contracts/blob/release-v2.5.0/contracts/math/SafeMath.sol\":923:924  a */\n      dup5\n        /* \"https://github.com/OpenZeppelin/openzeppelin-contracts/blob/release-v2.5.0/contracts/math/SafeMath.sol\":923:928  a + b */\n      add\n        /* \"https://github.com/OpenZeppelin/openzeppelin-contracts/blob/release-v2.5.0/contracts/math/SafeMath.sol\":911:928  uint256 c = a + b */\n      swap1\n      pop\n        /* \"https://github.com/OpenZeppelin/openzeppelin-contracts/blob/release-v2.5.0/contracts/math/SafeMath.sol\":951:952  a */\n      dup4\n        /* \"https://github.com/OpenZeppelin/openzeppelin-contracts/blob/release-v2.5.0/contracts/math/SafeMath.sol\":946:947  c */\n      dup2\n        /* \"https://github.com/OpenZeppelin/openzeppelin-contracts/blob/release-v2.5.0/contracts/math/SafeMath.sol\":946:952  c >= a */\n      lt\n      iszero\n        /* \"https://github.com/OpenZeppelin/openzeppelin-contracts/blob/release-v2.5.0/contracts/math/SafeMath.sol\":938:984  require(c >= a, \"SafeMath: addition overflow\") */\n      tag_49\n      jumpi\n      mload(0x40)\n      0x08c379a000000000000000000000000000000000000000000000000000000000\n      dup2\n      mstore\n      0x04\n      add\n      dup1\n      dup1\n      0x20\n      add\n      dup3\n      dup2\n      sub\n      dup3\n      mstore\n      0x1b\n      dup2\n      mstore\n      0x20\n      add\n      dup1\n      0x536166654d6174683a206164646974696f6e206f766572666c6f770000000000\n      dup2\n      mstore\n      pop\n      0x20\n      add\n      swap2\n      pop\n      pop\n      mload(0x40)\n      dup1\n      swap2\n      sub\n      swap1\n      revert\n    tag_49:\n        /* \"https://github.com/OpenZeppelin/openzeppelin-contracts/blob/release-v2.5.0/contracts/math/SafeMath.sol\":1002:1003  c */\n      dup1\n        /* \"https://github.com/OpenZeppelin/openzeppelin-contracts/blob/release-v2.5.0/contracts/math/SafeMath.sol\":995:1003  return c */\n      swap2\n      pop\n      pop\n        /* \"https://github.com/OpenZeppelin/openzeppelin-contracts/blob/release-v2.5.0/contracts/math/SafeMath.sol\":834:1010  function add(uint256 a, uint256 b) internal pure returns (uint256) {... */\n      swap3\n      swap2\n      pop\n      pop\n      jump\t// out\n        /* \"https://github.com/OpenZeppelin/openzeppelin-contracts/blob/release-v2.5.0/contracts/math/SafeMath.sol\":2159:2618  function mul(uint256 a, uint256 b) internal pure returns (uint256) {... */\n    tag_37:\n        /* \"https://github.com/OpenZeppelin/openzeppelin-contracts/blob/release-v2.5.0/contracts/math/SafeMath.sol\":2217:2224  uint256 */\n      0x00\n        /* \"https://github.com/OpenZeppelin/openzeppelin-contracts/blob/release-v2.5.0/contracts/math/SafeMath.sol\":2463:2464  0 */\n      dup1\n        /* \"https://github.com/OpenZeppelin/openzeppelin-contracts/blob/release-v2.5.0/contracts/math/SafeMath.sol\":2458:2459  a */\n      dup4\n        /* \"https://github.com/OpenZeppelin/openzeppelin-contracts/blob/release-v2.5.0/contracts/math/SafeMath.sol\":2458:2464  a == 0 */\n      eq\n        /* \"https://github.com/OpenZeppelin/openzeppelin-contracts/blob/release-v2.5.0/contracts/math/SafeMath.sol\":2454:2499  if (a == 0) {... */\n      iszero\n      tag_51\n      jumpi\n        /* \"https://github.com/OpenZeppelin/openzeppelin-contracts/blob/release-v2.5.0/contracts/math/SafeMath.sol\":2487:2488  0 */\n      0x00\n        /* \"https://github.com/OpenZeppelin/openzeppelin-contracts/blob/release-v2.5.0/contracts/math/SafeMath.sol\":2480:2488  return 0 */\n      swap1\n      pop\n      jump(tag_50)\n        /* \"https://github.com/OpenZeppelin/openzeppelin-contracts/blob/release-v2.5.0/contracts/math/SafeMath.sol\":2454:2499  if (a == 0) {... */\n    tag_51:\n        /* \"https://github.com/OpenZeppelin/openzeppelin-contracts/blob/release-v2.5.0/contracts/math/SafeMath.sol\":2509:2518  uint256 c */\n      0x00\n        /* \"https://github.com/OpenZeppelin/openzeppelin-contracts/blob/release-v2.5.0/contracts/math/SafeMath.sol\":2525:2526  b */\n      dup3\n        /* \"https://github.com/OpenZeppelin/openzeppelin-contracts/blob/release-v2.5.0/contracts/math/SafeMath.sol\":2521:2522  a */\n      dup5\n        /* \"https://github.com/OpenZeppelin/openzeppelin-contracts/blob/release-v2.5.0/contracts/math/SafeMath.sol\":2521:2526  a * b */\n      mul\n        /* \"https://github.com/OpenZeppelin/openzeppelin-contracts/blob/release-v2.5.0/contracts/math/SafeMath.sol\":2509:2526  uint256 c = a * b */\n      swap1\n      pop\n        /* \"https://github.com/OpenZeppelin/openzeppelin-contracts/blob/release-v2.5.0/contracts/math/SafeMath.sol\":2553:2554  b */\n      dup3\n        /* \"https://github.com/OpenZeppelin/openzeppelin-contracts/blob/release-v2.5.0/contracts/math/SafeMath.sol\":2548:2549  a */\n      dup5\n        /* \"https://github.com/OpenZeppelin/openzeppelin-contracts/blob/release-v2.5.0/contracts/math/SafeMath.sol\":2544:2545  c */\n      dup3\n        /* \"https://github.com/OpenZeppelin/openzeppelin-contracts/blob/release-v2.5.0/contracts/math/SafeMath.sol\":2544:2549  c / a */\n      dup2\n      tag_52\n      jumpi\n      invalid\n    tag_52:\n      div\n        /* \"https://github.com/OpenZeppelin/openzeppelin-contracts/blob/release-v2.5.0/contracts/math/SafeMath.sol\":2544:2554  c / a == b */\n      eq\n        /* \"https://github.com/OpenZeppelin/openzeppelin-contracts/blob/release-v2.5.0/contracts/math/SafeMath.sol\":2536:2592  require(c / a == b, \"SafeMath: multiplication overflow\") */\n      tag_53\n      jumpi\n      mload(0x40)\n      0x08c379a000000000000000000000000000000000000000000000000000000000\n      dup2\n      mstore\n      0x04\n      add\n      dup1\n      dup1\n      0x20\n      add\n      dup3\n      dup2\n      sub\n      dup3\n      mstore\n      0x21\n      dup2\n      mstore\n      0x20\n      add\n      dup1\n      data_9113bb53c2876a3805b2c9242029423fc540a728243ce887ab24c82cf119fba3\n      0x21\n      swap2\n      codecopy\n      0x40\n      add\n      swap2\n      pop\n      pop\n      mload(0x40)\n      dup1\n      swap2\n      sub\n      swap1\n      revert\n    tag_53:\n        /* \"https://github.com/OpenZeppelin/openzeppelin-contracts/blob/release-v2.5.0/contracts/math/SafeMath.sol\":2610:2611  c */\n      dup1\n        /* \"https://github.com/OpenZeppelin/openzeppelin-contracts/blob/release-v2.5.0/contracts/math/SafeMath.sol\":2603:2611  return c */\n      swap2\n      pop\n      pop\n        /* \"https://github.com/OpenZeppelin/openzeppelin-contracts/blob/release-v2.5.0/contracts/math/SafeMath.sol\":2159:2618  function mul(uint256 a, uint256 b) internal pure returns (uint256) {... */\n    tag_50:\n      swap3\n      swap2\n      pop\n      pop\n      jump\t// out\n        /* \"https://github.com/OpenZeppelin/openzeppelin-contracts/blob/release-v2.5.0/contracts/math/SafeMath.sol\":1274:1408  function sub(uint256 a, uint256 b) internal pure returns (uint256) {... */\n    tag_45:\n        /* \"https://github.com/OpenZeppelin/openzeppelin-contracts/blob/release-v2.5.0/contracts/math/SafeMath.sol\":1332:1339  uint256 */\n      0x00\n        /* \"https://github.com/OpenZeppelin/openzeppelin-contracts/blob/release-v2.5.0/contracts/math/SafeMath.sol\":1358:1401  sub(a, b, \"SafeMath: subtraction overflow\") */\n      tag_55\n        /* \"https://github.com/OpenZeppelin/openzeppelin-contracts/blob/release-v2.5.0/contracts/math/SafeMath.sol\":1362:1363  a */\n      dup4\n        /* \"https://github.com/OpenZeppelin/openzeppelin-contracts/blob/release-v2.5.0/contracts/math/SafeMath.sol\":1365:1366  b */\n      dup4\n        /* \"https://github.com/OpenZeppelin/openzeppelin-contracts/blob/release-v2.5.0/contracts/math/SafeMath.sol\":1358:1401  sub(a, b, \"SafeMath: subtraction overflow\") */\n      mload(0x40)\n      dup1\n      0x40\n      add\n      0x40\n      mstore\n      dup1\n      0x1e\n      dup2\n      mstore\n      0x20\n      add\n      0x536166654d6174683a207375627472616374696f6e206f766572666c6f770000\n      dup2\n      mstore\n      pop\n        /* \"https://github.com/OpenZeppelin/openzeppelin-contracts/blob/release-v2.5.0/contracts/math/SafeMath.sol\":1358:1361  sub */\n      tag_56\n        /* \"https://github.com/OpenZeppelin/openzeppelin-contracts/blob/release-v2.5.0/contracts/math/SafeMath.sol\":1358:1401  sub(a, b, \"SafeMath: subtraction overflow\") */\n      jump\t// in\n    tag_55:\n        /* \"https://github.com/OpenZeppelin/openzeppelin-contracts/blob/release-v2.5.0/contracts/math/SafeMath.sol\":1351:1401  return sub(a, b, \"SafeMath: subtraction overflow\") */\n      swap1\n      pop\n        /* \"https://github.com/OpenZeppelin/openzeppelin-contracts/blob/release-v2.5.0/contracts/math/SafeMath.sol\":1274:1408  function sub(uint256 a, uint256 b) internal pure returns (uint256) {... */\n      swap3\n      swap2\n      pop\n      pop\n      jump\t// out\n        /* \"https://github.com/OpenZeppelin/openzeppelin-contracts/blob/release-v2.5.0/contracts/math/SafeMath.sol\":1732:1919  function sub(uint256 a, uint256 b, string memory errorMessage) internal pure returns (uint256) {... */\n    tag_56:\n        /* \"https://github.com/OpenZeppelin/openzeppelin-contracts/blob/release-v2.5.0/contracts/math/SafeMath.sol\":1818:1825  uint256 */\n      0x00\n        /* \"https://github.com/OpenZeppelin/openzeppelin-contracts/blob/release-v2.5.0/contracts/math/SafeMath.sol\":1850:1851  a */\n      dup4\n        /* \"https://github.com/OpenZeppelin/openzeppelin-contracts/blob/release-v2.5.0/contracts/math/SafeMath.sol\":1845:1846  b */\n      dup4\n        /* \"https://github.com/OpenZeppelin/openzeppelin-contracts/blob/release-v2.5.0/contracts/math/SafeMath.sol\":1845:1851  b <= a */\n      gt\n      iszero\n        /* \"https://github.com/OpenZeppelin/openzeppelin-contracts/blob/release-v2.5.0/contracts/math/SafeMath.sol\":1853:1865  errorMessage */\n      dup3\n        /* \"https://github.com/OpenZeppelin/openzeppelin-contracts/blob/release-v2.5.0/contracts/math/SafeMath.sol\":1837:1866  require(b <= a, errorMessage) */\n      swap1\n      tag_58\n      jumpi\n      mload(0x40)\n      0x08c379a000000000000000000000000000000000000000000000000000000000\n      dup2\n      mstore\n      0x04\n      add\n      dup1\n      dup1\n      0x20\n      add\n      dup3\n      dup2\n      sub\n      dup3\n      mstore\n      dup4\n      dup2\n      dup2\n      mload\n      dup2\n      mstore\n      0x20\n      add\n      swap2\n      pop\n      dup1\n      mload\n      swap1\n      0x20\n      add\n      swap1\n      dup1\n      dup4\n      dup4\n        /* \"--CODEGEN--\":23:24   */\n      0x00\n        /* \"--CODEGEN--\":8:108   */\n    tag_59:\n        /* \"--CODEGEN--\":33:36   */\n      dup4\n        /* \"--CODEGEN--\":30:31   */\n      dup2\n        /* \"--CODEGEN--\":27:37   */\n      lt\n        /* \"--CODEGEN--\":8:108   */\n      iszero\n      tag_61\n      jumpi\n        /* \"--CODEGEN--\":99:100   */\n      dup1\n        /* \"--CODEGEN--\":94:97   */\n      dup3\n        /* \"--CODEGEN--\":90:101   */\n      add\n        /* \"--CODEGEN--\":84:102   */\n      mload\n        /* \"--CODEGEN--\":80:81   */\n      dup2\n        /* \"--CODEGEN--\":75:78   */\n      dup5\n        /* \"--CODEGEN--\":71:82   */\n      add\n        /* \"--CODEGEN--\":64:103   */\n      mstore\n        /* \"--CODEGEN--\":52:54   */\n      0x20\n        /* \"--CODEGEN--\":49:50   */\n      dup2\n        /* \"--CODEGEN--\":45:55   */\n      add\n        /* \"--CODEGEN--\":40:55   */\n      swap1\n      pop\n        /* \"--CODEGEN--\":8:108   */\n      jump(tag_59)\n    tag_61:\n        /* \"--CODEGEN--\":12:26   */\n      pop\n        /* \"https://github.com/OpenZeppelin/openzeppelin-contracts/blob/release-v2.5.0/contracts/math/SafeMath.sol\":1837:1866  require(b <= a, errorMessage) */\n      pop\n      pop\n      pop\n      swap1\n      pop\n      swap1\n      dup2\n      add\n      swap1\n      0x1f\n      and\n      dup1\n      iszero\n      tag_62\n      jumpi\n      dup1\n      dup3\n      sub\n      dup1\n      mload\n      0x01\n      dup4\n      0x20\n      sub\n      0x0100\n      exp\n      sub\n      not\n      and\n      dup2\n      mstore\n      0x20\n      add\n      swap2\n      pop\n    tag_62:\n      pop\n      swap3\n      pop\n      pop\n      pop\n      mload(0x40)\n      dup1\n      swap2\n      sub\n      swap1\n      revert\n    tag_58:\n      pop\n        /* \"https://github.com/OpenZeppelin/openzeppelin-contracts/blob/release-v2.5.0/contracts/math/SafeMath.sol\":1876:1885  uint256 c */\n      0x00\n        /* \"https://github.com/OpenZeppelin/openzeppelin-contracts/blob/release-v2.5.0/contracts/math/SafeMath.sol\":1892:1893  b */\n      dup4\n        /* \"https://github.com/OpenZeppelin/openzeppelin-contracts/blob/release-v2.5.0/contracts/math/SafeMath.sol\":1888:1889  a */\n      dup6\n        /* \"https://github.com/OpenZeppelin/openzeppelin-contracts/blob/release-v2.5.0/contracts/math/SafeMath.sol\":1888:1893  a - b */\n      sub\n        /* \"https://github.com/OpenZeppelin/openzeppelin-contracts/blob/release-v2.5.0/contracts/math/SafeMath.sol\":1876:1893  uint256 c = a - b */\n      swap1\n      pop\n        /* \"https://github.com/OpenZeppelin/openzeppelin-contracts/blob/release-v2.5.0/contracts/math/SafeMath.sol\":1911:1912  c */\n      dup1\n        /* \"https://github.com/OpenZeppelin/openzeppelin-contracts/blob/release-v2.5.0/contracts/math/SafeMath.sol\":1904:1912  return c */\n      swap2\n      pop\n      pop\n        /* \"https://github.com/OpenZeppelin/openzeppelin-contracts/blob/release-v2.5.0/contracts/math/SafeMath.sol\":1732:1919  function sub(uint256 a, uint256 b, string memory errorMessage) internal pure returns (uint256) {... */\n      swap4\n      swap3\n      pop\n      pop\n      pop\n      jump\t// out\n    stop\n    data_9113bb53c2876a3805b2c9242029423fc540a728243ce887ab24c82cf119fba3 536166654d6174683a206d756c7469706c69636174696f6e206f766572666c6f77\n\n    auxdata: 0xa265627a7a72315820dde8b5b50da9f14c6e68a818211c9a0bcbb6a0146e91c4333e293ebb11613a0c64736f6c63430005110032\n}\n",
				"bytecode": {
					"linkReferences": {},
					"object": "6080604052336000806101000a81548173ffffffffffffffffffffffffffffffffffffffff021916908373ffffffffffffffffffffffffffffffffffffffff1602179055506040518060400160405280600381526020017f58505400000000000000000000000000000000000000000000000000000000008152506001908051906020019061008f9291906100a7565b5060646002553480156100a157600080fd5b5061014c565b828054600181600116156101000203166002900490600052602060002090601f016020900481019282601f106100e857805160ff1916838001178555610116565b82800160010185558215610116579182015b828111156101155782518255916020019190600101906100fa565b5b5090506101239190610127565b5090565b61014991905b8082111561014557600081600090555060010161012d565b5090565b90565b6108fb8061015b6000396000f3fe6080604052600436106100555760003560e01c8063171ef0b21461005a57806340c10f191461008557806364edfbf0146100e057806395d89b41146100ea578063a9059cbb1461017a578063b69ef8a8146101d5575b600080fd5b34801561006657600080fd5b5061006f610200565b6040518082815260200191505060405180910390f35b34801561009157600080fd5b506100de600480360360408110156100a857600080fd5b81019080803573ffffffffffffffffffffffffffffffffffffffff16906020019092919080359060200190929190505050610206565b005b6100e8610361565b005b3480156100f657600080fd5b506100ff61047a565b6040518080602001828103825283818151815260200191508051906020019080838360005b8381101561013f578082015181840152602081019050610124565b50505050905090810190601f16801561016c5780820380516001836020036101000a031916815260200191505b509250505060405180910390f35b34801561018657600080fd5b506101d36004803603604081101561019d57600080fd5b81019080803573ffffffffffffffffffffffffffffffffffffffff16906020019092919080359060200190929190505050610518565b005b3480156101e157600080fd5b506101ea610646565b6040518082815260200191505060405180910390f35b60025481565b6000809054906101000a900473ffffffffffffffffffffffffffffffffffffffff1673ffffffffffffffffffffffffffffffffffffffff163373ffffffffffffffffffffffffffffffffffffffff16146102c8576040517f08c379a00000000000000000000000000000000000000000000000000000000081526004018080602001828103825260188152602001807f596f7520617265206e6f7420746865206f776e6572212121000000000000000081525060200191505060405180910390fd5b61031a81600360008573ffffffffffffffffffffffffffffffffffffffff1673ffffffffffffffffffffffffffffffffffffffff1681526020019081526020016000205461068d90919063ffffffff16565b600360008473ffffffffffffffffffffffffffffffffffffffff1673ffffffffffffffffffffffffffffffffffffffff168152602001908152602001600020819055505050565b60006103786002543461071590919063ffffffff16565b90506103cc81600360003373ffffffffffffffffffffffffffffffffffffffff1673ffffffffffffffffffffffffffffffffffffffff1681526020019081526020016000205461068d90919063ffffffff16565b600360003373ffffffffffffffffffffffffffffffffffffffff1673ffffffffffffffffffffffffffffffffffffffff168152602001908152602001600020819055506000809054906101000a900473ffffffffffffffffffffffffffffffffffffffff1673ffffffffffffffffffffffffffffffffffffffff166108fc349081150290604051600060405180830381858888f19350505050158015610476573d6000803e3d6000fd5b5050565b60018054600181600116156101000203166002900480601f0160208091040260200160405190810160405280929190818152602001828054600181600116156101000203166002900480156105105780601f106104e557610100808354040283529160200191610510565b820191906000526020600020905b8154815290600101906020018083116104f357829003601f168201915b505050505081565b61056a81600360003373ffffffffffffffffffffffffffffffffffffffff1673ffffffffffffffffffffffffffffffffffffffff1681526020019081526020016000205461079b90919063ffffffff16565b600360003373ffffffffffffffffffffffffffffffffffffffff1673ffffffffffffffffffffffffffffffffffffffff168152602001908152602001600020819055506105ff81600360008573ffffffffffffffffffffffffffffffffffffffff1673ffffffffffffffffffffffffffffffffffffffff1681526020019081526020016000205461068d90919063ffffffff16565b600360008473ffffffffffffffffffffffffffffffffffffffff1673ffffffffffffffffffffffffffffffffffffffff168152602001908152602001600020819055505050565b6000600360003373ffffffffffffffffffffffffffffffffffffffff1673ffffffffffffffffffffffffffffffffffffffff16815260200190815260200160002054905090565b60008082840190508381101561070b576040517f08c379a000000000000000000000000000000000000000000000000000000000815260040180806020018281038252601b8152602001807f536166654d6174683a206164646974696f6e206f766572666c6f77000000000081525060200191505060405180910390fd5b8091505092915050565b6000808314156107285760009050610795565b600082840290508284828161073957fe5b0414610790576040517f08c379a00000000000000000000000000000000000000000000000000000000081526004018080602001828103825260218152602001806108a66021913960400191505060405180910390fd5b809150505b92915050565b60006107dd83836040518060400160405280601e81526020017f536166654d6174683a207375627472616374696f6e206f766572666c6f7700008152506107e5565b905092915050565b6000838311158290610892576040517f08c379a00000000000000000000000000000000000000000000000000000000081526004018080602001828103825283818151815260200191508051906020019080838360005b8381101561085757808201518184015260208101905061083c565b50505050905090810190601f1680156108845780820380516001836020036101000a031916815260200191505b509250505060405180910390fd5b506000838503905080915050939250505056fe536166654d6174683a206d756c7469706c69636174696f6e206f766572666c6f77a265627a7a72315820dde8b5b50da9f14c6e68a818211c9a0bcbb6a0146e91c4333e293ebb11613a0c64736f6c63430005110032",
					"opcodes": "PUSH1 0x80 PUSH1 0x40 MSTORE CALLER PUSH1 0x0 DUP1 PUSH2 0x100 EXP DUP2 SLOAD DUP2 PUSH20 0xFFFFFFFFFFFFFFFFFFFFFFFFFFFFFFFFFFFFFFFF MUL NOT AND SWAP1 DUP4 PUSH20 0xFFFFFFFFFFFFFFFFFFFFFFFFFFFFFFFFFFFFFFFF AND MUL OR SWAP1 SSTORE POP PUSH1 0x40 MLOAD DUP1 PUSH1 0x40 ADD PUSH1 0x40 MSTORE DUP1 PUSH1 0x3 DUP2 MSTORE PUSH1 0x20 ADD PUSH32 0x5850540000000000000000000000000000000000000000000000000000000000 DUP2 MSTORE POP PUSH1 0x1 SWAP1 DUP1 MLOAD SWAP1 PUSH1 0x20 ADD SWAP1 PUSH2 0x8F SWAP3 SWAP2 SWAP1 PUSH2 0xA7 JUMP JUMPDEST POP PUSH1 0x64 PUSH1 0x2 SSTORE CALLVALUE DUP1 ISZERO PUSH2 0xA1 JUMPI PUSH1 0x0 DUP1 REVERT JUMPDEST POP PUSH2 0x14C JUMP JUMPDEST DUP3 DUP1 SLOAD PUSH1 0x1 DUP2 PUSH1 0x1 AND ISZERO PUSH2 0x100 MUL SUB AND PUSH1 0x2 SWAP1 DIV SWAP1 PUSH1 0x0 MSTORE PUSH1 0x20 PUSH1 0x0 KECCAK256 SWAP1 PUSH1 0x1F ADD PUSH1 0x20 SWAP1 DIV DUP2 ADD SWAP3 DUP3 PUSH1 0x1F LT PUSH2 0xE8 JUMPI DUP1 MLOAD PUSH1 0xFF NOT AND DUP4 DUP1 ADD OR DUP6 SSTORE PUSH2 0x116 JUMP JUMPDEST DUP3 DUP1 ADD PUSH1 0x1 ADD DUP6 SSTORE DUP3 ISZERO PUSH2 0x116 JUMPI SWAP2 DUP3 ADD JUMPDEST DUP3 DUP2 GT ISZERO PUSH2 0x115 JUMPI DUP3 MLOAD DUP3 SSTORE SWAP2 PUSH1 0x20 ADD SWAP2 SWAP1 PUSH1 0x1 ADD SWAP1 PUSH2 0xFA JUMP JUMPDEST JUMPDEST POP SWAP1 POP PUSH2 0x123 SWAP2 SWAP1 PUSH2 0x127 JUMP JUMPDEST POP SWAP1 JUMP JUMPDEST PUSH2 0x149 SWAP2 SWAP1 JUMPDEST DUP1 DUP3 GT ISZERO PUSH2 0x145 JUMPI PUSH1 0x0 DUP2 PUSH1 0x0 SWAP1 SSTORE POP PUSH1 0x1 ADD PUSH2 0x12D JUMP JUMPDEST POP SWAP1 JUMP JUMPDEST SWAP1 JUMP JUMPDEST PUSH2 0x8FB DUP1 PUSH2 0x15B PUSH1 0x0 CODECOPY PUSH1 0x0 RETURN INVALID PUSH1 0x80 PUSH1 0x40 MSTORE PUSH1 0x4 CALLDATASIZE LT PUSH2 0x55 JUMPI PUSH1 0x0 CALLDATALOAD PUSH1 0xE0 SHR DUP1 PUSH4 0x171EF0B2 EQ PUSH2 0x5A JUMPI DUP1 PUSH4 0x40C10F19 EQ PUSH2 0x85 JUMPI DUP1 PUSH4 0x64EDFBF0 EQ PUSH2 0xE0 JUMPI DUP1 PUSH4 0x95D89B41 EQ PUSH2 0xEA JUMPI DUP1 PUSH4 0xA9059CBB EQ PUSH2 0x17A JUMPI DUP1 PUSH4 0xB69EF8A8 EQ PUSH2 0x1D5 JUMPI JUMPDEST PUSH1 0x0 DUP1 REVERT JUMPDEST CALLVALUE DUP1 ISZERO PUSH2 0x66 JUMPI PUSH1 0x0 DUP1 REVERT JUMPDEST POP PUSH2 0x6F PUSH2 0x200 JUMP JUMPDEST PUSH1 0x40 MLOAD DUP1 DUP3 DUP2 MSTORE PUSH1 0x20 ADD SWAP2 POP POP PUSH1 0x40 MLOAD DUP1 SWAP2 SUB SWAP1 RETURN JUMPDEST CALLVALUE DUP1 ISZERO PUSH2 0x91 JUMPI PUSH1 0x0 DUP1 REVERT JUMPDEST POP PUSH2 0xDE PUSH1 0x4 DUP1 CALLDATASIZE SUB PUSH1 0x40 DUP2 LT ISZERO PUSH2 0xA8 JUMPI PUSH1 0x0 DUP1 REVERT JUMPDEST DUP2 ADD SWAP1 DUP1 DUP1 CALLDATALOAD PUSH20 0xFFFFFFFFFFFFFFFFFFFFFFFFFFFFFFFFFFFFFFFF AND SWAP1 PUSH1 0x20 ADD SWAP1 SWAP3 SWAP2 SWAP1 DUP1 CALLDATALOAD SWAP1 PUSH1 0x20 ADD SWAP1 SWAP3 SWAP2 SWAP1 POP POP POP PUSH2 0x206 JUMP JUMPDEST STOP JUMPDEST PUSH2 0xE8 PUSH2 0x361 JUMP JUMPDEST STOP JUMPDEST CALLVALUE DUP1 ISZERO PUSH2 0xF6 JUMPI PUSH1 0x0 DUP1 REVERT JUMPDEST POP PUSH2 0xFF PUSH2 0x47A JUMP JUMPDEST PUSH1 0x40 MLOAD DUP1 DUP1 PUSH1 0x20 ADD DUP3 DUP2 SUB DUP3 MSTORE DUP4 DUP2 DUP2 MLOAD DUP2 MSTORE PUSH1 0x20 ADD SWAP2 POP DUP1 MLOAD SWAP1 PUSH1 0x20 ADD SWAP1 DUP1 DUP4 DUP4 PUSH1 0x0 JUMPDEST DUP4 DUP2 LT ISZERO PUSH2 0x13F JUMPI DUP1 DUP3 ADD MLOAD DUP2 DUP5 ADD MSTORE PUSH1 0x20 DUP2 ADD SWAP1 POP PUSH2 0x124 JUMP JUMPDEST POP POP POP POP SWAP1 POP SWAP1 DUP2 ADD SWAP1 PUSH1 0x1F AND DUP1 ISZERO PUSH2 0x16C JUMPI DUP1 DUP3 SUB DUP1 MLOAD PUSH1 0x1 DUP4 PUSH1 0x20 SUB PUSH2 0x100 EXP SUB NOT AND DUP2 MSTORE PUSH1 0x20 ADD SWAP2 POP JUMPDEST POP SWAP3 POP POP POP PUSH1 0x40 MLOAD DUP1 SWAP2 SUB SWAP1 RETURN JUMPDEST CALLVALUE DUP1 ISZERO PUSH2 0x186 JUMPI PUSH1 0x0 DUP1 REVERT JUMPDEST POP PUSH2 0x1D3 PUSH1 0x4 DUP1 CALLDATASIZE SUB PUSH1 0x40 DUP2 LT ISZERO PUSH2 0x19D JUMPI PUSH1 0x0 DUP1 REVERT JUMPDEST DUP2 ADD SWAP1 DUP1 DUP1 CALLDATALOAD PUSH20 0xFFFFFFFFFFFFFFFFFFFFFFFFFFFFFFFFFFFFFFFF AND SWAP1 PUSH1 0x20 ADD SWAP1 SWAP3 SWAP2 SWAP1 DUP1 CALLDATALOAD SWAP1 PUSH1 0x20 ADD SWAP1 SWAP3 SWAP2 SWAP1 POP POP POP PUSH2 0x518 JUMP JUMPDEST STOP JUMPDEST CALLVALUE DUP1 ISZERO PUSH2 0x1E1 JUMPI PUSH1 0x0 DUP1 REVERT JUMPDEST POP PUSH2 0x1EA PUSH2 0x646 JUMP JUMPDEST PUSH1 0x40 MLOAD DUP1 DUP3 DUP2 MSTORE PUSH1 0x20 ADD SWAP2 POP POP PUSH1 0x40 MLOAD DUP1 SWAP2 SUB SWAP1 RETURN JUMPDEST PUSH1 0x2 SLOAD DUP2 JUMP JUMPDEST PUSH1 0x0 DUP1 SWAP1 SLOAD SWAP1 PUSH2 0x100 EXP SWAP1 DIV PUSH20 0xFFFFFFFFFFFFFFFFFFFFFFFFFFFFFFFFFFFFFFFF AND PUSH20 0xFFFFFFFFFFFFFFFFFFFFFFFFFFFFFFFFFFFFFFFF AND CALLER PUSH20 0xFFFFFFFFFFFFFFFFFFFFFFFFFFFFFFFFFFFFFFFF AND EQ PUSH2 0x2C8 JUMPI PUSH1 0x40 MLOAD PUSH32 0x8C379A000000000000000000000000000000000000000000000000000000000 DUP2 MSTORE PUSH1 0x4 ADD DUP1 DUP1 PUSH1 0x20 ADD DUP3 DUP2 SUB DUP3 MSTORE PUSH1 0x18 DUP2 MSTORE PUSH1 0x20 ADD DUP1 PUSH32 0x596F7520617265206E6F7420746865206F776E65722121210000000000000000 DUP2 MSTORE POP PUSH1 0x20 ADD SWAP2 POP POP PUSH1 0x40 MLOAD DUP1 SWAP2 SUB SWAP1 REVERT JUMPDEST PUSH2 0x31A DUP2 PUSH1 0x3 PUSH1 0x0 DUP6 PUSH20 0xFFFFFFFFFFFFFFFFFFFFFFFFFFFFFFFFFFFFFFFF AND PUSH20 0xFFFFFFFFFFFFFFFFFFFFFFFFFFFFFFFFFFFFFFFF AND DUP2 MSTORE PUSH1 0x20 ADD SWAP1 DUP2 MSTORE PUSH1 0x20 ADD PUSH1 0x0 KECCAK256 SLOAD PUSH2 0x68D SWAP1 SWAP2 SWAP1 PUSH4 0xFFFFFFFF AND JUMP JUMPDEST PUSH1 0x3 PUSH1 0x0 DUP5 PUSH20 0xFFFFFFFFFFFFFFFFFFFFFFFFFFFFFFFFFFFFFFFF AND PUSH20 0xFFFFFFFFFFFFFFFFFFFFFFFFFFFFFFFFFFFFFFFF AND DUP2 MSTORE PUSH1 0x20 ADD SWAP1 DUP2 MSTORE PUSH1 0x20 ADD PUSH1 0x0 KECCAK256 DUP2 SWAP1 SSTORE POP POP POP JUMP JUMPDEST PUSH1 0x0 PUSH2 0x378 PUSH1 0x2 SLOAD CALLVALUE PUSH2 0x715 SWAP1 SWAP2 SWAP1 PUSH4 0xFFFFFFFF AND JUMP JUMPDEST SWAP1 POP PUSH2 0x3CC DUP2 PUSH1 0x3 PUSH1 0x0 CALLER PUSH20 0xFFFFFFFFFFFFFFFFFFFFFFFFFFFFFFFFFFFFFFFF AND PUSH20 0xFFFFFFFFFFFFFFFFFFFFFFFFFFFFFFFFFFFFFFFF AND DUP2 MSTORE PUSH1 0x20 ADD SWAP1 DUP2 MSTORE PUSH1 0x20 ADD PUSH1 0x0 KECCAK256 SLOAD PUSH2 0x68D SWAP1 SWAP2 SWAP1 PUSH4 0xFFFFFFFF AND JUMP JUMPDEST PUSH1 0x3 PUSH1 0x0 CALLER PUSH20 0xFFFFFFFFFFFFFFFFFFFFFFFFFFFFFFFFFFFFFFFF AND PUSH20 0xFFFFFFFFFFFFFFFFFFFFFFFFFFFFFFFFFFFFFFFF AND DUP2 MSTORE PUSH1 0x20 ADD SWAP1 DUP2 MSTORE PUSH1 0x20 ADD PUSH1 0x0 KECCAK256 DUP2 SWAP1 SSTORE POP PUSH1 0x0 DUP1 SWAP1 SLOAD SWAP1 PUSH2 0x100 EXP SWAP1 DIV PUSH20 0xFFFFFFFFFFFFFFFFFFFFFFFFFFFFFFFFFFFFFFFF AND PUSH20 0xFFFFFFFFFFFFFFFFFFFFFFFFFFFFFFFFFFFFFFFF AND PUSH2 0x8FC CALLVALUE SWAP1 DUP2 ISZERO MUL SWAP1 PUSH1 0x40 MLOAD PUSH1 0x0 PUSH1 0x40 MLOAD DUP1 DUP4 SUB DUP2 DUP6 DUP9 DUP9 CALL SWAP4 POP POP POP POP ISZERO DUP1 ISZERO PUSH2 0x476 JUMPI RETURNDATASIZE PUSH1 0x0 DUP1 RETURNDATACOPY RETURNDATASIZE PUSH1 0x0 REVERT JUMPDEST POP POP JUMP JUMPDEST PUSH1 0x1 DUP1 SLOAD PUSH1 0x1 DUP2 PUSH1 0x1 AND ISZERO PUSH2 0x100 MUL SUB AND PUSH1 0x2 SWAP1 DIV DUP1 PUSH1 0x1F ADD PUSH1 0x20 DUP1 SWAP2 DIV MUL PUSH1 0x20 ADD PUSH1 0x40 MLOAD SWAP1 DUP2 ADD PUSH1 0x40 MSTORE DUP1 SWAP3 SWAP2 SWAP1 DUP2 DUP2 MSTORE PUSH1 0x20 ADD DUP3 DUP1 SLOAD PUSH1 0x1 DUP2 PUSH1 0x1 AND ISZERO PUSH2 0x100 MUL SUB AND PUSH1 0x2 SWAP1 DIV DUP1 ISZERO PUSH2 0x510 JUMPI DUP1 PUSH1 0x1F LT PUSH2 0x4E5 JUMPI PUSH2 0x100 DUP1 DUP4 SLOAD DIV MUL DUP4 MSTORE SWAP2 PUSH1 0x20 ADD SWAP2 PUSH2 0x510 JUMP JUMPDEST DUP3 ADD SWAP2 SWAP1 PUSH1 0x0 MSTORE PUSH1 0x20 PUSH1 0x0 KECCAK256 SWAP1 JUMPDEST DUP2 SLOAD DUP2 MSTORE SWAP1 PUSH1 0x1 ADD SWAP1 PUSH1 0x20 ADD DUP1 DUP4 GT PUSH2 0x4F3 JUMPI DUP3 SWAP1 SUB PUSH1 0x1F AND DUP3 ADD SWAP2 JUMPDEST POP POP POP POP POP DUP2 JUMP JUMPDEST PUSH2 0x56A DUP2 PUSH1 0x3 PUSH1 0x0 CALLER PUSH20 0xFFFFFFFFFFFFFFFFFFFFFFFFFFFFFFFFFFFFFFFF AND PUSH20 0xFFFFFFFFFFFFFFFFFFFFFFFFFFFFFFFFFFFFFFFF AND DUP2 MSTORE PUSH1 0x20 ADD SWAP1 DUP2 MSTORE PUSH1 0x20 ADD PUSH1 0x0 KECCAK256 SLOAD PUSH2 0x79B SWAP1 SWAP2 SWAP1 PUSH4 0xFFFFFFFF AND JUMP JUMPDEST PUSH1 0x3 PUSH1 0x0 CALLER PUSH20 0xFFFFFFFFFFFFFFFFFFFFFFFFFFFFFFFFFFFFFFFF AND PUSH20 0xFFFFFFFFFFFFFFFFFFFFFFFFFFFFFFFFFFFFFFFF AND DUP2 MSTORE PUSH1 0x20 ADD SWAP1 DUP2 MSTORE PUSH1 0x20 ADD PUSH1 0x0 KECCAK256 DUP2 SWAP1 SSTORE POP PUSH2 0x5FF DUP2 PUSH1 0x3 PUSH1 0x0 DUP6 PUSH20 0xFFFFFFFFFFFFFFFFFFFFFFFFFFFFFFFFFFFFFFFF AND PUSH20 0xFFFFFFFFFFFFFFFFFFFFFFFFFFFFFFFFFFFFFFFF AND DUP2 MSTORE PUSH1 0x20 ADD SWAP1 DUP2 MSTORE PUSH1 0x20 ADD PUSH1 0x0 KECCAK256 SLOAD PUSH2 0x68D SWAP1 SWAP2 SWAP1 PUSH4 0xFFFFFFFF AND JUMP JUMPDEST PUSH1 0x3 PUSH1 0x0 DUP5 PUSH20 0xFFFFFFFFFFFFFFFFFFFFFFFFFFFFFFFFFFFFFFFF AND PUSH20 0xFFFFFFFFFFFFFFFFFFFFFFFFFFFFFFFFFFFFFFFF AND DUP2 MSTORE PUSH1 0x20 ADD SWAP1 DUP2 MSTORE PUSH1 0x20 ADD PUSH1 0x0 KECCAK256 DUP2 SWAP1 SSTORE POP POP POP JUMP JUMPDEST PUSH1 0x0 PUSH1 0x3 PUSH1 0x0 CALLER PUSH20 0xFFFFFFFFFFFFFFFFFFFFFFFFFFFFFFFFFFFFFFFF AND PUSH20 0xFFFFFFFFFFFFFFFFFFFFFFFFFFFFFFFFFFFFFFFF AND DUP2 MSTORE PUSH1 0x20 ADD SWAP1 DUP2 MSTORE PUSH1 0x20 ADD PUSH1 0x0 KECCAK256 SLOAD SWAP1 POP SWAP1 JUMP JUMPDEST PUSH1 0x0 DUP1 DUP3 DUP5 ADD SWAP1 POP DUP4 DUP2 LT ISZERO PUSH2 0x70B JUMPI PUSH1 0x40 MLOAD PUSH32 0x8C379A000000000000000000000000000000000000000000000000000000000 DUP2 MSTORE PUSH1 0x4 ADD DUP1 DUP1 PUSH1 0x20 ADD DUP3 DUP2 SUB DUP3 MSTORE PUSH1 0x1B DUP2 MSTORE PUSH1 0x20 ADD DUP1 PUSH32 0x536166654D6174683A206164646974696F6E206F766572666C6F770000000000 DUP2 MSTORE POP PUSH1 0x20 ADD SWAP2 POP POP PUSH1 0x40 MLOAD DUP1 SWAP2 SUB SWAP1 REVERT JUMPDEST DUP1 SWAP2 POP POP SWAP3 SWAP2 POP POP JUMP JUMPDEST PUSH1 0x0 DUP1 DUP4 EQ ISZERO PUSH2 0x728 JUMPI PUSH1 0x0 SWAP1 POP PUSH2 0x795 JUMP JUMPDEST PUSH1 0x0 DUP3 DUP5 MUL SWAP1 POP DUP3 DUP5 DUP3 DUP2 PUSH2 0x739 JUMPI INVALID JUMPDEST DIV EQ PUSH2 0x790 JUMPI PUSH1 0x40 MLOAD PUSH32 0x8C379A000000000000000000000000000000000000000000000000000000000 DUP2 MSTORE PUSH1 0x4 ADD DUP1 DUP1 PUSH1 0x20 ADD DUP3 DUP2 SUB DUP3 MSTORE PUSH1 0x21 DUP2 MSTORE PUSH1 0x20 ADD DUP1 PUSH2 0x8A6 PUSH1 0x21 SWAP2 CODECOPY PUSH1 0x40 ADD SWAP2 POP POP PUSH1 0x40 MLOAD DUP1 SWAP2 SUB SWAP1 REVERT JUMPDEST DUP1 SWAP2 POP POP JUMPDEST SWAP3 SWAP2 POP POP JUMP JUMPDEST PUSH1 0x0 PUSH2 0x7DD DUP4 DUP4 PUSH1 0x40 MLOAD DUP1 PUSH1 0x40 ADD PUSH1 0x40 MSTORE DUP1 PUSH1 0x1E DUP2 MSTORE PUSH1 0x20 ADD PUSH32 0x536166654D6174683A207375627472616374696F6E206F766572666C6F770000 DUP2 MSTORE POP PUSH2 0x7E5 JUMP JUMPDEST SWAP1 POP SWAP3 SWAP2 POP POP JUMP JUMPDEST PUSH1 0x0 DUP4 DUP4 GT ISZERO DUP3 SWAP1 PUSH2 0x892 JUMPI PUSH1 0x40 MLOAD PUSH32 0x8C379A000000000000000000000000000000000000000000000000000000000 DUP2 MSTORE PUSH1 0x4 ADD DUP1 DUP1 PUSH1 0x20 ADD DUP3 DUP2 SUB DUP3 MSTORE DUP4 DUP2 DUP2 MLOAD DUP2 MSTORE PUSH1 0x20 ADD SWAP2 POP DUP1 MLOAD SWAP1 PUSH1 0x20 ADD SWAP1 DUP1 DUP4 DUP4 PUSH1 0x0 JUMPDEST DUP4 DUP2 LT ISZERO PUSH2 0x857 JUMPI DUP1 DUP3 ADD MLOAD DUP2 DUP5 ADD MSTORE PUSH1 0x20 DUP2 ADD SWAP1 POP PUSH2 0x83C JUMP JUMPDEST POP POP POP POP SWAP1 POP SWAP1 DUP2 ADD SWAP1 PUSH1 0x1F AND DUP1 ISZERO PUSH2 0x884 JUMPI DUP1 DUP3 SUB DUP1 MLOAD PUSH1 0x1 DUP4 PUSH1 0x20 SUB PUSH2 0x100 EXP SUB NOT AND DUP2 MSTORE PUSH1 0x20 ADD SWAP2 POP JUMPDEST POP SWAP3 POP POP POP PUSH1 0x40 MLOAD DUP1 SWAP2 SUB SWAP1 REVERT JUMPDEST POP PUSH1 0x0 DUP4 DUP6 SUB SWAP1 POP DUP1 SWAP2 POP POP SWAP4 SWAP3 POP POP POP JUMP INVALID MSTORE8 PUSH2 0x6665 0x4D PUSH2 0x7468 GASPRICE KECCAK256 PUSH14 0x756C7469706C69636174696F6E20 PUSH16 0x766572666C6F77A265627A7A72315820 0xDD 0xE8 0xB5 0xB5 0xD 0xA9 CALL 0x4C PUSH15 0x68A818211C9A0BCBB6A0146E91C433 RETURNDATACOPY 0x29 RETURNDATACOPY 0xBB GT PUSH2 0x3A0C PUSH5 0x736F6C6343 STOP SDIV GT STOP ORIGIN "
				},
				"gasEstimates": {
					"creation": {
						"codeDepositCost": "459800",
						"executionCost": "infinite",
						"totalCost": "infinite"
					},
					"external": {
						"balance()": "1190",
						"exchange_rate()": "983",
						"mint(address,uint256)": "infinite",
						"purchase()": "infinite",
						"symbol()": "infinite",
						"transfer(address,uint256)": "infinite"
					}
				},
				"methodIdentifiers": {
					"balance()": "b69ef8a8",
					"exchange_rate()": "171ef0b2",
					"mint(address,uint256)": "40c10f19",
					"purchase()": "64edfbf0",
					"symbol()": "95d89b41",
					"transfer(address,uint256)": "a9059cbb"
				}
			},
			"storageLayout": {
				"storage": [
					{
						"astId": 9,
						"contract": "21-Advanced-Solidity/1/05-Stu_XP_Token.sol:XP_Token",
						"label": "owner",
						"offset": 0,
						"slot": "0",
						"type": "t_address_payable"
					},
					{
						"astId": 12,
						"contract": "21-Advanced-Solidity/1/05-Stu_XP_Token.sol:XP_Token",
						"label": "symbol",
						"offset": 0,
						"slot": "1",
						"type": "t_string_storage"
					},
					{
						"astId": 15,
						"contract": "21-Advanced-Solidity/1/05-Stu_XP_Token.sol:XP_Token",
						"label": "exchange_rate",
						"offset": 0,
						"slot": "2",
						"type": "t_uint256"
					},
					{
						"astId": 19,
						"contract": "21-Advanced-Solidity/1/05-Stu_XP_Token.sol:XP_Token",
						"label": "balances",
						"offset": 0,
						"slot": "3",
						"type": "t_mapping(t_address,t_uint256)"
					}
				],
				"types": {
					"t_address": {
						"encoding": "inplace",
						"label": "address",
						"numberOfBytes": "20"
					},
					"t_address_payable": {
						"encoding": "inplace",
						"label": "address payable",
						"numberOfBytes": "20"
					},
					"t_mapping(t_address,t_uint256)": {
						"encoding": "mapping",
						"key": "t_address",
						"label": "mapping(address => uint256)",
						"numberOfBytes": "32",
						"value": "t_uint256"
					},
					"t_string_storage": {
						"encoding": "bytes",
						"label": "string",
						"numberOfBytes": "32"
					},
					"t_uint256": {
						"encoding": "inplace",
						"label": "uint256",
						"numberOfBytes": "32"
					}
				}
			},
			"userdoc": {
				"methods": {}
			}
		}
	}
}